{
  "_format": "hh-sol-artifact-1",
  "contractName": "ERC1155Token",
  "sourceName": "contracts/ERC1155_token_contract.sol",
  "abi": [
    {
      "inputs": [],
      "stateMutability": "nonpayable",
      "type": "constructor"
    },
    {
      "inputs": [
        {
          "internalType": "address",
          "name": "sender",
          "type": "address"
        },
        {
          "internalType": "uint256",
          "name": "balance",
          "type": "uint256"
        },
        {
          "internalType": "uint256",
          "name": "needed",
          "type": "uint256"
        },
        {
          "internalType": "uint256",
          "name": "tokenId",
          "type": "uint256"
        }
      ],
      "name": "ERC1155InsufficientBalance",
      "type": "error"
    },
    {
      "inputs": [
        {
          "internalType": "address",
          "name": "approver",
          "type": "address"
        }
      ],
      "name": "ERC1155InvalidApprover",
      "type": "error"
    },
    {
      "inputs": [
        {
          "internalType": "uint256",
          "name": "idsLength",
          "type": "uint256"
        },
        {
          "internalType": "uint256",
          "name": "valuesLength",
          "type": "uint256"
        }
      ],
      "name": "ERC1155InvalidArrayLength",
      "type": "error"
    },
    {
      "inputs": [
        {
          "internalType": "address",
          "name": "operator",
          "type": "address"
        }
      ],
      "name": "ERC1155InvalidOperator",
      "type": "error"
    },
    {
      "inputs": [
        {
          "internalType": "address",
          "name": "receiver",
          "type": "address"
        }
      ],
      "name": "ERC1155InvalidReceiver",
      "type": "error"
    },
    {
      "inputs": [
        {
          "internalType": "address",
          "name": "sender",
          "type": "address"
        }
      ],
      "name": "ERC1155InvalidSender",
      "type": "error"
    },
    {
      "inputs": [
        {
          "internalType": "address",
          "name": "operator",
          "type": "address"
        },
        {
          "internalType": "address",
          "name": "owner",
          "type": "address"
        }
      ],
      "name": "ERC1155MissingApprovalForAll",
      "type": "error"
    },
    {
      "inputs": [
        {
          "internalType": "address",
          "name": "owner",
          "type": "address"
        }
      ],
      "name": "OwnableInvalidOwner",
      "type": "error"
    },
    {
      "inputs": [
        {
          "internalType": "address",
          "name": "account",
          "type": "address"
        }
      ],
      "name": "OwnableUnauthorizedAccount",
      "type": "error"
    },
    {
      "anonymous": false,
      "inputs": [
        {
          "indexed": true,
          "internalType": "address",
          "name": "account",
          "type": "address"
        },
        {
          "indexed": true,
          "internalType": "address",
          "name": "operator",
          "type": "address"
        },
        {
          "indexed": false,
          "internalType": "bool",
          "name": "approved",
          "type": "bool"
        }
      ],
      "name": "ApprovalForAll",
      "type": "event"
    },
    {
      "anonymous": false,
      "inputs": [
        {
          "indexed": true,
          "internalType": "address",
          "name": "previousOwner",
          "type": "address"
        },
        {
          "indexed": true,
          "internalType": "address",
          "name": "newOwner",
          "type": "address"
        }
      ],
      "name": "OwnershipTransferred",
      "type": "event"
    },
    {
      "anonymous": false,
      "inputs": [
        {
          "indexed": true,
          "internalType": "address",
          "name": "operator",
          "type": "address"
        },
        {
          "indexed": true,
          "internalType": "address",
          "name": "from",
          "type": "address"
        },
        {
          "indexed": true,
          "internalType": "address",
          "name": "to",
          "type": "address"
        },
        {
          "indexed": false,
          "internalType": "uint256[]",
          "name": "ids",
          "type": "uint256[]"
        },
        {
          "indexed": false,
          "internalType": "uint256[]",
          "name": "values",
          "type": "uint256[]"
        }
      ],
      "name": "TransferBatch",
      "type": "event"
    },
    {
      "anonymous": false,
      "inputs": [
        {
          "indexed": true,
          "internalType": "address",
          "name": "operator",
          "type": "address"
        },
        {
          "indexed": true,
          "internalType": "address",
          "name": "from",
          "type": "address"
        },
        {
          "indexed": true,
          "internalType": "address",
          "name": "to",
          "type": "address"
        },
        {
          "indexed": false,
          "internalType": "uint256",
          "name": "id",
          "type": "uint256"
        },
        {
          "indexed": false,
          "internalType": "uint256",
          "name": "value",
          "type": "uint256"
        }
      ],
      "name": "TransferSingle",
      "type": "event"
    },
    {
      "anonymous": false,
      "inputs": [
        {
          "indexed": false,
          "internalType": "string",
          "name": "value",
          "type": "string"
        },
        {
          "indexed": true,
          "internalType": "uint256",
          "name": "id",
          "type": "uint256"
        }
      ],
      "name": "URI",
      "type": "event"
    },
    {
      "inputs": [
        {
          "internalType": "address",
          "name": "account",
          "type": "address"
        },
        {
          "internalType": "uint256",
          "name": "id",
          "type": "uint256"
        }
      ],
      "name": "balanceOf",
      "outputs": [
        {
          "internalType": "uint256",
          "name": "",
          "type": "uint256"
        }
      ],
      "stateMutability": "view",
      "type": "function"
    },
    {
      "inputs": [
        {
          "internalType": "address[]",
          "name": "accounts",
          "type": "address[]"
        },
        {
          "internalType": "uint256[]",
          "name": "ids",
          "type": "uint256[]"
        }
      ],
      "name": "balanceOfBatch",
      "outputs": [
        {
          "internalType": "uint256[]",
          "name": "",
          "type": "uint256[]"
        }
      ],
      "stateMutability": "view",
      "type": "function"
    },
    {
      "inputs": [
        {
          "internalType": "address",
          "name": "account",
          "type": "address"
        },
        {
          "internalType": "address",
          "name": "operator",
          "type": "address"
        }
      ],
      "name": "isApprovedForAll",
      "outputs": [
        {
          "internalType": "bool",
          "name": "",
          "type": "bool"
        }
      ],
      "stateMutability": "view",
      "type": "function"
    },
    {
      "inputs": [
        {
          "internalType": "address",
          "name": "",
          "type": "address"
        }
      ],
      "name": "lastMintTime",
      "outputs": [
        {
          "internalType": "uint256",
          "name": "",
          "type": "uint256"
        }
      ],
      "stateMutability": "view",
      "type": "function"
    },
    {
      "inputs": [],
      "name": "mintToken0",
      "outputs": [],
      "stateMutability": "nonpayable",
      "type": "function"
    },
    {
      "inputs": [],
      "name": "mintToken1",
      "outputs": [],
      "stateMutability": "nonpayable",
      "type": "function"
    },
    {
      "inputs": [],
      "name": "mintToken2",
      "outputs": [],
      "stateMutability": "nonpayable",
      "type": "function"
    },
    {
      "inputs": [],
      "name": "mintToken3",
      "outputs": [],
      "stateMutability": "nonpayable",
      "type": "function"
    },
    {
      "inputs": [],
      "name": "mintToken4",
      "outputs": [],
      "stateMutability": "nonpayable",
      "type": "function"
    },
    {
      "inputs": [],
      "name": "mintToken5",
      "outputs": [],
      "stateMutability": "nonpayable",
      "type": "function"
    },
    {
      "inputs": [],
      "name": "mintToken6",
      "outputs": [],
      "stateMutability": "nonpayable",
      "type": "function"
    },
    {
      "inputs": [],
      "name": "owner",
      "outputs": [
        {
          "internalType": "address",
          "name": "",
          "type": "address"
        }
      ],
      "stateMutability": "view",
      "type": "function"
    },
    {
      "inputs": [],
      "name": "renounceOwnership",
      "outputs": [],
      "stateMutability": "nonpayable",
      "type": "function"
    },
    {
      "inputs": [
        {
          "internalType": "address",
          "name": "from",
          "type": "address"
        },
        {
          "internalType": "address",
          "name": "to",
          "type": "address"
        },
        {
          "internalType": "uint256[]",
          "name": "ids",
          "type": "uint256[]"
        },
        {
          "internalType": "uint256[]",
          "name": "values",
          "type": "uint256[]"
        },
        {
          "internalType": "bytes",
          "name": "data",
          "type": "bytes"
        }
      ],
      "name": "safeBatchTransferFrom",
      "outputs": [],
      "stateMutability": "nonpayable",
      "type": "function"
    },
    {
      "inputs": [
        {
          "internalType": "address",
          "name": "from",
          "type": "address"
        },
        {
          "internalType": "address",
          "name": "to",
          "type": "address"
        },
        {
          "internalType": "uint256",
          "name": "id",
          "type": "uint256"
        },
        {
          "internalType": "uint256",
          "name": "value",
          "type": "uint256"
        },
        {
          "internalType": "bytes",
          "name": "data",
          "type": "bytes"
        }
      ],
      "name": "safeTransferFrom",
      "outputs": [],
      "stateMutability": "nonpayable",
      "type": "function"
    },
    {
      "inputs": [
        {
          "internalType": "address",
          "name": "operator",
          "type": "address"
        },
        {
          "internalType": "bool",
          "name": "approved",
          "type": "bool"
        }
      ],
      "name": "setApprovalForAll",
      "outputs": [],
      "stateMutability": "nonpayable",
      "type": "function"
    },
    {
      "inputs": [
        {
          "internalType": "bytes4",
          "name": "interfaceId",
          "type": "bytes4"
        }
      ],
      "name": "supportsInterface",
      "outputs": [
        {
          "internalType": "bool",
          "name": "",
          "type": "bool"
        }
      ],
      "stateMutability": "view",
      "type": "function"
    },
    {
      "inputs": [
        {
          "internalType": "address",
          "name": "account",
          "type": "address"
        },
        {
          "internalType": "uint256",
          "name": "id",
          "type": "uint256"
        }
      ],
      "name": "tokenBalanceOf",
      "outputs": [
        {
          "internalType": "uint256",
          "name": "",
          "type": "uint256"
        }
      ],
      "stateMutability": "view",
      "type": "function"
    },
    {
      "inputs": [
        {
          "internalType": "address",
          "name": "newOwner",
          "type": "address"
        }
      ],
      "name": "transferOwnership",
      "outputs": [],
      "stateMutability": "nonpayable",
      "type": "function"
    },
    {
      "inputs": [
        {
          "internalType": "uint256",
          "name": "",
          "type": "uint256"
        }
      ],
      "name": "uri",
      "outputs": [
        {
          "internalType": "string",
          "name": "",
          "type": "string"
        }
      ],
      "stateMutability": "view",
      "type": "function"
    }
  ],
  "bytecode": "0x608060405234801561001057600080fd5b50336040518060600160405280602b8152602001613e0f602b913961003a816100dc60201b60201c565b50600073ffffffffffffffffffffffffffffffffffffffff168173ffffffffffffffffffffffffffffffffffffffff16036100ad5760006040517f1e4fbdf70000000000000000000000000000000000000000000000000000000081526004016100a491906101f9565b60405180910390fd5b6100bc816100ef60201b60201c565b506100d76754abcc8c2b4898e660c01b6101b560201b60201c565b610536565b80600290816100eb9190610464565b5050565b6000600360009054906101000a900473ffffffffffffffffffffffffffffffffffffffff16905081600360006101000a81548173ffffffffffffffffffffffffffffffffffffffff021916908373ffffffffffffffffffffffffffffffffffffffff1602179055508173ffffffffffffffffffffffffffffffffffffffff168173ffffffffffffffffffffffffffffffffffffffff167f8be0079c531659141344cd1fd0a4f28419497f9722a3daafe3b4186f6b6457e060405160405180910390a35050565b50565b600073ffffffffffffffffffffffffffffffffffffffff82169050919050565b60006101e3826101b8565b9050919050565b6101f3816101d8565b82525050565b600060208201905061020e60008301846101ea565b92915050565b600081519050919050565b7f4e487b7100000000000000000000000000000000000000000000000000000000600052604160045260246000fd5b7f4e487b7100000000000000000000000000000000000000000000000000000000600052602260045260246000fd5b6000600282049050600182168061029557607f821691505b6020821081036102a8576102a761024e565b5b50919050565b60008190508160005260206000209050919050565b60006020601f8301049050919050565b600082821b905092915050565b6000600883026103107fffffffffffffffffffffffffffffffffffffffffffffffffffffffffffffffff826102d3565b61031a86836102d3565b95508019841693508086168417925050509392505050565b6000819050919050565b6000819050919050565b600061036161035c61035784610332565b61033c565b610332565b9050919050565b6000819050919050565b61037b83610346565b61038f61038782610368565b8484546102e0565b825550505050565b600090565b6103a4610397565b6103af818484610372565b505050565b5b818110156103d3576103c860008261039c565b6001810190506103b5565b5050565b601f821115610418576103e9816102ae565b6103f2846102c3565b81016020851015610401578190505b61041561040d856102c3565b8301826103b4565b50505b505050565b600082821c905092915050565b600061043b6000198460080261041d565b1980831691505092915050565b6000610454838361042a565b9150826002028217905092915050565b61046d82610214565b67ffffffffffffffff8111156104865761048561021f565b5b610490825461027d565b61049b8282856103d7565b600060209050601f8311600181146104ce57600084156104bc578287015190505b6104c68582610448565b86555061052e565b601f1984166104dc866102ae565b60005b82811015610504578489015182556001820191506020850194506020810190506104df565b86831015610521578489015161051d601f89168261042a565b8355505b6001600288020188555050505b505050505050565b6138ca806105456000396000f3fe608060405234801561001057600080fd5b506004361061012b5760003560e01c8063715018a6116100ad578063e8aea42511610071578063e8aea425146102e2578063e985e9c5146102ec578063ec0733d91461031c578063f242432a14610326578063f2fde38b146103425761012b565b8063715018a61461028a5780638da5cb5b14610294578063a22cb465146102b2578063aad12696146102ce578063b96422e0146102d85761012b565b80632eb2c2d6116100f45780632eb2c2d6146101fa578063433e103d146102165780634e1273f4146102205780636aa71d18146102505780636b4b5b06146102805761012b565b8062fdd58e1461013057806301ffc9a7146101605780630e89341c146101905780631702749e146101c057806327a4fa22146101f0575b600080fd5b61014a600480360381019061014591906126d6565b61035e565b6040516101579190612725565b60405180910390f35b61017a60048036038101906101759190612798565b6103b8565b60405161018791906127e0565b60405180910390f35b6101aa60048036038101906101a591906127fb565b61049a565b6040516101b791906128b8565b60405180910390f35b6101da60048036038101906101d591906126d6565b61052e565b6040516101e79190612725565b60405180910390f35b6101f861063c565b005b610214600480360381019061020f9190612ad7565b6107cd565b005b61021e610875565b005b61023a60048036038101906102359190612c69565b610a75565b6040516102479190612d9f565b60405180910390f35b61026a60048036038101906102659190612dc1565b610b7e565b6040516102779190612725565b60405180910390f35b610288610b96565b005b610292610d97565b005b61029c610dab565b6040516102a99190612dfd565b60405180910390f35b6102cc60048036038101906102c79190612e44565b610dd5565b005b6102d6610deb565b005b6102e0610fea565b005b6102ea61117b565b005b61030660048036038101906103019190612e84565b61130b565b60405161031391906127e0565b60405180910390f35b61032461139f565b005b610340600480360381019061033b9190612ec4565b611671565b005b61035c60048036038101906103579190612dc1565b611719565b005b600080600083815260200190815260200160002060008473ffffffffffffffffffffffffffffffffffffffff1673ffffffffffffffffffffffffffffffffffffffff16815260200190815260200160002054905092915050565b60007fd9b67a26000000000000000000000000000000000000000000000000000000007bffffffffffffffffffffffffffffffffffffffffffffffffffffffff1916827bffffffffffffffffffffffffffffffffffffffffffffffffffffffff1916148061048357507f0e89341c000000000000000000000000000000000000000000000000000000007bffffffffffffffffffffffffffffffffffffffffffffffffffffffff1916827bffffffffffffffffffffffffffffffffffffffffffffffffffffffff1916145b8061049357506104928261179f565b5b9050919050565b6060600280546104a990612f8a565b80601f01602080910402602001604051908101604052809291908181526020018280546104d590612f8a565b80156105225780601f106104f757610100808354040283529160200191610522565b820191906000526020600020905b81548152906001019060200180831161050557829003601f168201915b50505050509050919050565b6000610544671360f09766cc921560c01b611809565b61055867ddec41759ae7b7f260c01b611809565b61056c67974e24bc410adc2260c01b611809565b610580674a417e6d5063bc0460c01b611809565b8273ffffffffffffffffffffffffffffffffffffffff163373ffffffffffffffffffffffffffffffffffffffff16146105ee576040517f08c379a00000000000000000000000000000000000000000000000000000000081526004016105e59061302d565b60405180910390fd5b6106026739e8478557bad11d60c01b611809565b610616675bdf9ea6cc6f984c60c01b611809565b61062a67f13ab1b1e7c94c3c60c01b611809565b610634838361035e565b905092915050565b61065067710397f176fe50f560c01b611809565b610664678006c694e8efeafe60c01b611809565b610678673328be7c45f9744960c01b611809565b61068c67aab2124b508e9f5360c01b611809565b6003600460003373ffffffffffffffffffffffffffffffffffffffff1673ffffffffffffffffffffffffffffffffffffffff168152602001908152602001600020546106d8919061307c565b42101561071a576040517f08c379a0000000000000000000000000000000000000000000000000000000008152600401610711906130fc565b60405180910390fd5b61072e679d04149923382da460c01b611809565b61074267b146af3c93609d6060c01b611809565b42600460003373ffffffffffffffffffffffffffffffffffffffff1673ffffffffffffffffffffffffffffffffffffffff1681526020019081526020016000208190555061079a67bbbdfbf319b9184e60c01b611809565b6107ae67d9e6fd8f0cf3448c60c01b611809565b6107cb33600260016040518060200160405280600081525061180c565b565b60006107d76118a5565b90508073ffffffffffffffffffffffffffffffffffffffff168673ffffffffffffffffffffffffffffffffffffffff161415801561081c575061081a868261130b565b155b156108605780866040517fe237d92200000000000000000000000000000000000000000000000000000000815260040161085792919061311c565b60405180910390fd5b61086d86868686866118ad565b505050505050565b61088967fe4a2e1e15a3d28360c01b611809565b61089d672ecc2948b06935b460c01b611809565b6108b1675e79e05f9991258660c01b611809565b6108c56728c74ffa1dacaede60c01b611809565b60016108d233600061035e565b1015610913576040517f08c379a000000000000000000000000000000000000000000000000000000000815260040161090a906131b7565b60405180910390fd5b610927674dc75c442866a85c60c01b611809565b61093b67c70b60616fb97d2660c01b611809565b61094f67d5d891773ef6088a60c01b611809565b6109636725c45e2aba1aa7a660c01b611809565b600161097033600161035e565b10156109b1576040517f08c379a00000000000000000000000000000000000000000000000000000000081526004016109a890613249565b60405180910390fd5b6109c56742d670161ce9836b60c01b611809565b6109d967a6d9a13846c7c38660c01b611809565b6109ed6740f92295b6b513d260c01b611809565b6109fa33600060016119a5565b610a0e6753b7aa9f62c6992d60c01b611809565b610a2267a903979c0722b18a60c01b611809565b610a2e336001806119a5565b610a4267d541ba0bc86ce23260c01b611809565b610a566765b4e54d9b277fa660c01b611809565b610a7333600360016040518060200160405280600081525061180c565b565b60608151835114610ac157815183516040517f5b059991000000000000000000000000000000000000000000000000000000008152600401610ab8929190613269565b60405180910390fd5b6000835167ffffffffffffffff811115610ade57610add6128df565b5b604051908082528060200260200182016040528015610b0c5781602001602082028036833780820191505090505b50905060005b8451811015610b7357610b49610b318287611a4c90919063ffffffff16565b610b448387611a6090919063ffffffff16565b61035e565b828281518110610b5c57610b5b613292565b5b602002602001018181525050806001019050610b12565b508091505092915050565b60046020528060005260406000206000915090505481565b610baa67c64cd43b0e11771860c01b611809565b610bbe677eb061d0a032ca7c60c01b611809565b610bd26705114c9b778a9e8f60c01b611809565b610be66732a88c6a7beb0cd660c01b611809565b6001610bf333600061035e565b1015610c34576040517f08c379a0000000000000000000000000000000000000000000000000000000008152600401610c2b90613333565b60405180910390fd5b610c486759cf5ff6f55e202560c01b611809565b610c5c67c81849fb91e207ac60c01b611809565b610c70676bd0099fb055ea0a60c01b611809565b610c8467dd6d5931e277745f60c01b611809565b6001610c9133600261035e565b1015610cd2576040517f08c379a0000000000000000000000000000000000000000000000000000000008152600401610cc9906133c5565b60405180910390fd5b610ce667664250fa47d8046060c01b611809565b610cfa67dadffe1348df93ed60c01b611809565b610d0e677699b5be0639f26a60c01b611809565b610d1b33600060016119a5565b610d2f67d2429587d1d86afb60c01b611809565b610d4367f4633e00402fc8cb60c01b611809565b610d5033600260016119a5565b610d64674dc2a4a6e7a64e9960c01b611809565b610d78678bb8e8096477685460c01b611809565b610d9533600560016040518060200160405280600081525061180c565b565b610d9f611a74565b610da96000611afb565b565b6000600360009054906101000a900473ffffffffffffffffffffffffffffffffffffffff16905090565b610de7610de06118a5565b8383611bc1565b5050565b610dff6746bed5c3cc9f61bd60c01b611809565b610e136712f8a12e1b01219f60c01b611809565b610e2767343a7589b9cec7e160c01b611809565b610e3b672c1c6e74ed75a91360c01b611809565b6001610e4833600161035e565b1015610e89576040517f08c379a0000000000000000000000000000000000000000000000000000000008152600401610e8090613457565b60405180910390fd5b610e9d672ed8b37bd5051db760c01b611809565b610eb167b551d07629bd992760c01b611809565b610ec567895df05ea1be7b9760c01b611809565b610ed8667fccf45cf2107c60c01b611809565b6001610ee533600261035e565b1015610f26576040517f08c379a0000000000000000000000000000000000000000000000000000000008152600401610f1d906134e9565b60405180910390fd5b610f3a674e7fe9a0f1525c9060c01b611809565b610f4e678aaff02d3ab50eec60c01b611809565b610f626728eeda6825a8367860c01b611809565b610f6e336001806119a5565b610f8267c131aa4d154d8ee660c01b611809565b610f96672461e5cf1dbed20460c01b611809565b610fa333600260016119a5565b610fb767ecf1b9147674f6c660c01b611809565b610fcb67abfbd27145f8f0b460c01b611809565b610fe833600460016040518060200160405280600081525061180c565b565b610ffe671d649a5592dce37e60c01b611809565b611012677a8805613baa2c2d60c01b611809565b61102667f5a2e7d5c409eabf60c01b611809565b61103a6723648ad2a8aa19bc60c01b611809565b6003600460003373ffffffffffffffffffffffffffffffffffffffff1673ffffffffffffffffffffffffffffffffffffffff16815260200190815260200160002054611086919061307c565b4210156110c8576040517f08c379a00000000000000000000000000000000000000000000000000000000081526004016110bf906130fc565b60405180910390fd5b6110dc6721a9319a4a6556b060c01b611809565b6110f0679e8f69d8808a897b60c01b611809565b42600460003373ffffffffffffffffffffffffffffffffffffffff1673ffffffffffffffffffffffffffffffffffffffff16815260200190815260200160002081905550611148677edd956511fdf6cd60c01b611809565b61115c67735c50342723ba8d60c01b611809565b61117933600060016040518060200160405280600081525061180c565b565b61118f67062780f56b79348360c01b611809565b6111a3678d1e9b4752849d8b60c01b611809565b6111b76798b035cad041066d60c01b611809565b6111cb67bfa100df38d7185260c01b611809565b6003600460003373ffffffffffffffffffffffffffffffffffffffff1673ffffffffffffffffffffffffffffffffffffffff16815260200190815260200160002054611217919061307c565b421015611259576040517f08c379a0000000000000000000000000000000000000000000000000000000008152600401611250906130fc565b60405180910390fd5b61126d678daecd594a0e366160c01b611809565b611281670ba92c0d19e5c90360c01b611809565b42600460003373ffffffffffffffffffffffffffffffffffffffff1673ffffffffffffffffffffffffffffffffffffffff168152602001908152602001600020819055506112d9670f43ad25a247c14760c01b611809565b6112ed67e9e91c701b64319d60c01b611809565b611309336001806040518060200160405280600081525061180c565b565b6000600160008473ffffffffffffffffffffffffffffffffffffffff1673ffffffffffffffffffffffffffffffffffffffff16815260200190815260200160002060008373ffffffffffffffffffffffffffffffffffffffff1673ffffffffffffffffffffffffffffffffffffffff16815260200190815260200160002060009054906101000a900460ff16905092915050565b6113b3675c5482e920cc4e4360c01b611809565b6113c7678421cf1c0c8e219360c01b611809565b6113db67e9101fd8eb5c71eb60c01b611809565b6113ef6786bae818abfc0bde60c01b611809565b60016113fc33600061035e565b101561143d576040517f08c379a00000000000000000000000000000000000000000000000000000000081526004016114349061357b565b60405180910390fd5b611450664e36612af103ac60c01b611809565b6114646765c8f80de2c1fa0b60c01b611809565b61147867a9cc5a5513021c8860c01b611809565b61148c67eaed8a3d2772763760c01b611809565b600161149933600161035e565b10156114da576040517f08c379a00000000000000000000000000000000000000000000000000000000081526004016114d19061360d565b60405180910390fd5b6114ee675dbcd1584ae5dbdd60c01b611809565b6115026755e4e5ca234a31fb60c01b611809565b6115166776d53b0555dce4d860c01b611809565b61152a670a1dd1f7b8ef9a6d60c01b611809565b600161153733600261035e565b1015611578576040517f08c379a000000000000000000000000000000000000000000000000000000000815260040161156f9061369f565b60405180910390fd5b61158c6781549d92b6f7f8fc60c01b611809565b6115a067eb0e3f183d8c051360c01b611809565b6115b467e2e27d4b6becc56e60c01b611809565b6115c133600060016119a5565b6115d567668c188c524d312d60c01b611809565b6115e967fb1f6bec43d9801f60c01b611809565b6115f5336001806119a5565b6116096777297aab62f7ce8860c01b611809565b61161d67b9ad112e02239ceb60c01b611809565b61162a33600260016119a5565b61163e67f08bb0c053743c9460c01b611809565b61165267a09315c33a80d1f260c01b611809565b61166f33600660016040518060200160405280600081525061180c565b565b600061167b6118a5565b90508073ffffffffffffffffffffffffffffffffffffffff168673ffffffffffffffffffffffffffffffffffffffff16141580156116c057506116be868261130b565b155b156117045780866040517fe237d9220000000000000000000000000000000000000000000000000000000081526004016116fb92919061311c565b60405180910390fd5b6117118686868686611d31565b505050505050565b611721611a74565b600073ffffffffffffffffffffffffffffffffffffffff168173ffffffffffffffffffffffffffffffffffffffff16036117935760006040517f1e4fbdf700000000000000000000000000000000000000000000000000000000815260040161178a9190612dfd565b60405180910390fd5b61179c81611afb565b50565b60007f01ffc9a7000000000000000000000000000000000000000000000000000000007bffffffffffffffffffffffffffffffffffffffffffffffffffffffff1916827bffffffffffffffffffffffffffffffffffffffffffffffffffffffff1916149050919050565b50565b600073ffffffffffffffffffffffffffffffffffffffff168473ffffffffffffffffffffffffffffffffffffffff160361187e5760006040517f57f447ce0000000000000000000000000000000000000000000000000000000081526004016118759190612dfd565b60405180910390fd5b60008061188b8585611e3c565b9150915061189d600087848487611e6c565b505050505050565b600033905090565b600073ffffffffffffffffffffffffffffffffffffffff168473ffffffffffffffffffffffffffffffffffffffff160361191f5760006040517f57f447ce0000000000000000000000000000000000000000000000000000000081526004016119169190612dfd565b60405180910390fd5b600073ffffffffffffffffffffffffffffffffffffffff168573ffffffffffffffffffffffffffffffffffffffff16036119915760006040517f01a835140000000000000000000000000000000000000000000000000000000081526004016119889190612dfd565b60405180910390fd5b61199e8585858585611e6c565b5050505050565b600073ffffffffffffffffffffffffffffffffffffffff168373ffffffffffffffffffffffffffffffffffffffff1603611a175760006040517f01a83514000000000000000000000000000000000000000000000000000000008152600401611a0e9190612dfd565b60405180910390fd5b600080611a248484611e3c565b91509150611a45856000848460405180602001604052806000815250611e6c565b5050505050565b600060208202602084010151905092915050565b600060208202602084010151905092915050565b611a7c6118a5565b73ffffffffffffffffffffffffffffffffffffffff16611a9a610dab565b73ffffffffffffffffffffffffffffffffffffffff1614611af957611abd6118a5565b6040517f118cdaa7000000000000000000000000000000000000000000000000000000008152600401611af09190612dfd565b60405180910390fd5b565b6000600360009054906101000a900473ffffffffffffffffffffffffffffffffffffffff16905081600360006101000a81548173ffffffffffffffffffffffffffffffffffffffff021916908373ffffffffffffffffffffffffffffffffffffffff1602179055508173ffffffffffffffffffffffffffffffffffffffff168173ffffffffffffffffffffffffffffffffffffffff167f8be0079c531659141344cd1fd0a4f28419497f9722a3daafe3b4186f6b6457e060405160405180910390a35050565b600073ffffffffffffffffffffffffffffffffffffffff168273ffffffffffffffffffffffffffffffffffffffff1603611c335760006040517fced3e100000000000000000000000000000000000000000000000000000000008152600401611c2a9190612dfd565b60405180910390fd5b80600160008573ffffffffffffffffffffffffffffffffffffffff1673ffffffffffffffffffffffffffffffffffffffff16815260200190815260200160002060008473ffffffffffffffffffffffffffffffffffffffff1673ffffffffffffffffffffffffffffffffffffffff16815260200190815260200160002060006101000a81548160ff0219169083151502179055508173ffffffffffffffffffffffffffffffffffffffff168373ffffffffffffffffffffffffffffffffffffffff167f17307eab39ab6107e8899845ad3d59bd9653f200f220920489ca2b5937696c3183604051611d2491906127e0565b60405180910390a3505050565b600073ffffffffffffffffffffffffffffffffffffffff168473ffffffffffffffffffffffffffffffffffffffff1603611da35760006040517f57f447ce000000000000000000000000000000000000000000000000000000008152600401611d9a9190612dfd565b60405180910390fd5b600073ffffffffffffffffffffffffffffffffffffffff168573ffffffffffffffffffffffffffffffffffffffff1603611e155760006040517f01a83514000000000000000000000000000000000000000000000000000000008152600401611e0c9190612dfd565b60405180910390fd5b600080611e228585611e3c565b91509150611e338787848487611e6c565b50505050505050565b60608060405191506001825283602083015260408201905060018152826020820152604081016040529250929050565b611e7885858585611f1e565b600073ffffffffffffffffffffffffffffffffffffffff168473ffffffffffffffffffffffffffffffffffffffff1614611f17576000611eb66118a5565b90506001845103611f06576000611ed7600086611a6090919063ffffffff16565b90506000611eef600086611a6090919063ffffffff16565b9050611eff8389898585896122c6565b5050611f15565b611f1481878787878761247a565b5b505b5050505050565b8051825114611f6857815181516040517f5b059991000000000000000000000000000000000000000000000000000000008152600401611f5f929190613269565b60405180910390fd5b6000611f726118a5565b905060005b8351811015612181576000611f958286611a6090919063ffffffff16565b90506000611fac8386611a6090919063ffffffff16565b9050600073ffffffffffffffffffffffffffffffffffffffff168873ffffffffffffffffffffffffffffffffffffffff16146120d957600080600084815260200190815260200160002060008a73ffffffffffffffffffffffffffffffffffffffff1673ffffffffffffffffffffffffffffffffffffffff1681526020019081526020016000205490508181101561208157888183856040517f03dee4c500000000000000000000000000000000000000000000000000000000815260040161207894939291906136bf565b60405180910390fd5b81810360008085815260200190815260200160002060008b73ffffffffffffffffffffffffffffffffffffffff1673ffffffffffffffffffffffffffffffffffffffff16815260200190815260200160002081905550505b600073ffffffffffffffffffffffffffffffffffffffff168773ffffffffffffffffffffffffffffffffffffffff1614612174578060008084815260200190815260200160002060008973ffffffffffffffffffffffffffffffffffffffff1673ffffffffffffffffffffffffffffffffffffffff168152602001908152602001600020600082825461216c919061307c565b925050819055505b5050806001019050611f77565b5060018351036122405760006121a1600085611a6090919063ffffffff16565b905060006121b9600085611a6090919063ffffffff16565b90508573ffffffffffffffffffffffffffffffffffffffff168773ffffffffffffffffffffffffffffffffffffffff168473ffffffffffffffffffffffffffffffffffffffff167fc3d58168c5ae7397731d063d5bbf3d657854427343f4c083240f7aacaa2d0f628585604051612231929190613269565b60405180910390a450506122bf565b8373ffffffffffffffffffffffffffffffffffffffff168573ffffffffffffffffffffffffffffffffffffffff168273ffffffffffffffffffffffffffffffffffffffff167f4a39dc06d4c0dbc64b70af90fd698a233a518aa5d07e595d983b8c0526c8f7fb86866040516122b6929190613704565b60405180910390a45b5050505050565b60008473ffffffffffffffffffffffffffffffffffffffff163b1115612472578373ffffffffffffffffffffffffffffffffffffffff1663f23a6e6187878686866040518663ffffffff1660e01b8152600401612327959493929190613790565b6020604051808303816000875af192505050801561236357506040513d601f19601f8201168201806040525081019061236091906137ff565b60015b6123e7573d8060008114612393576040519150601f19603f3d011682016040523d82523d6000602084013e612398565b606091505b5060008151036123df57846040517f57f447ce0000000000000000000000000000000000000000000000000000000081526004016123d69190612dfd565b60405180910390fd5b805181602001fd5b63f23a6e6160e01b7bffffffffffffffffffffffffffffffffffffffffffffffffffffffff1916817bffffffffffffffffffffffffffffffffffffffffffffffffffffffff19161461247057846040517f57f447ce0000000000000000000000000000000000000000000000000000000081526004016124679190612dfd565b60405180910390fd5b505b505050505050565b60008473ffffffffffffffffffffffffffffffffffffffff163b1115612626578373ffffffffffffffffffffffffffffffffffffffff1663bc197c8187878686866040518663ffffffff1660e01b81526004016124db95949392919061382c565b6020604051808303816000875af192505050801561251757506040513d601f19601f8201168201806040525081019061251491906137ff565b60015b61259b573d8060008114612547576040519150601f19603f3d011682016040523d82523d6000602084013e61254c565b606091505b50600081510361259357846040517f57f447ce00000000000000000000000000000000000000000000000000000000815260040161258a9190612dfd565b60405180910390fd5b805181602001fd5b63bc197c8160e01b7bffffffffffffffffffffffffffffffffffffffffffffffffffffffff1916817bffffffffffffffffffffffffffffffffffffffffffffffffffffffff19161461262457846040517f57f447ce00000000000000000000000000000000000000000000000000000000815260040161261b9190612dfd565b60405180910390fd5b505b505050505050565b6000604051905090565b600080fd5b600080fd5b600073ffffffffffffffffffffffffffffffffffffffff82169050919050565b600061266d82612642565b9050919050565b61267d81612662565b811461268857600080fd5b50565b60008135905061269a81612674565b92915050565b6000819050919050565b6126b3816126a0565b81146126be57600080fd5b50565b6000813590506126d0816126aa565b92915050565b600080604083850312156126ed576126ec612638565b5b60006126fb8582860161268b565b925050602061270c858286016126c1565b9150509250929050565b61271f816126a0565b82525050565b600060208201905061273a6000830184612716565b92915050565b60007fffffffff0000000000000000000000000000000000000000000000000000000082169050919050565b61277581612740565b811461278057600080fd5b50565b6000813590506127928161276c565b92915050565b6000602082840312156127ae576127ad612638565b5b60006127bc84828501612783565b91505092915050565b60008115159050919050565b6127da816127c5565b82525050565b60006020820190506127f560008301846127d1565b92915050565b60006020828403121561281157612810612638565b5b600061281f848285016126c1565b91505092915050565b600081519050919050565b600082825260208201905092915050565b60005b83811015612862578082015181840152602081019050612847565b60008484015250505050565b6000601f19601f8301169050919050565b600061288a82612828565b6128948185612833565b93506128a4818560208601612844565b6128ad8161286e565b840191505092915050565b600060208201905081810360008301526128d2818461287f565b905092915050565b600080fd5b7f4e487b7100000000000000000000000000000000000000000000000000000000600052604160045260246000fd5b6129178261286e565b810181811067ffffffffffffffff82111715612936576129356128df565b5b80604052505050565b600061294961262e565b9050612955828261290e565b919050565b600067ffffffffffffffff821115612975576129746128df565b5b602082029050602081019050919050565b600080fd5b600061299e6129998461295a565b61293f565b905080838252602082019050602084028301858111156129c1576129c0612986565b5b835b818110156129ea57806129d688826126c1565b8452602084019350506020810190506129c3565b5050509392505050565b600082601f830112612a0957612a086128da565b5b8135612a1984826020860161298b565b91505092915050565b600080fd5b600067ffffffffffffffff821115612a4257612a416128df565b5b612a4b8261286e565b9050602081019050919050565b82818337600083830152505050565b6000612a7a612a7584612a27565b61293f565b905082815260208101848484011115612a9657612a95612a22565b5b612aa1848285612a58565b509392505050565b600082601f830112612abe57612abd6128da565b5b8135612ace848260208601612a67565b91505092915050565b600080600080600060a08688031215612af357612af2612638565b5b6000612b018882890161268b565b9550506020612b128882890161268b565b945050604086013567ffffffffffffffff811115612b3357612b3261263d565b5b612b3f888289016129f4565b935050606086013567ffffffffffffffff811115612b6057612b5f61263d565b5b612b6c888289016129f4565b925050608086013567ffffffffffffffff811115612b8d57612b8c61263d565b5b612b9988828901612aa9565b9150509295509295909350565b600067ffffffffffffffff821115612bc157612bc06128df565b5b602082029050602081019050919050565b6000612be5612be084612ba6565b61293f565b90508083825260208201905060208402830185811115612c0857612c07612986565b5b835b81811015612c315780612c1d888261268b565b845260208401935050602081019050612c0a565b5050509392505050565b600082601f830112612c5057612c4f6128da565b5b8135612c60848260208601612bd2565b91505092915050565b60008060408385031215612c8057612c7f612638565b5b600083013567ffffffffffffffff811115612c9e57612c9d61263d565b5b612caa85828601612c3b565b925050602083013567ffffffffffffffff811115612ccb57612cca61263d565b5b612cd7858286016129f4565b9150509250929050565b600081519050919050565b600082825260208201905092915050565b6000819050602082019050919050565b612d16816126a0565b82525050565b6000612d288383612d0d565b60208301905092915050565b6000602082019050919050565b6000612d4c82612ce1565b612d568185612cec565b9350612d6183612cfd565b8060005b83811015612d92578151612d798882612d1c565b9750612d8483612d34565b925050600181019050612d65565b5085935050505092915050565b60006020820190508181036000830152612db98184612d41565b905092915050565b600060208284031215612dd757612dd6612638565b5b6000612de58482850161268b565b91505092915050565b612df781612662565b82525050565b6000602082019050612e126000830184612dee565b92915050565b612e21816127c5565b8114612e2c57600080fd5b50565b600081359050612e3e81612e18565b92915050565b60008060408385031215612e5b57612e5a612638565b5b6000612e698582860161268b565b9250506020612e7a85828601612e2f565b9150509250929050565b60008060408385031215612e9b57612e9a612638565b5b6000612ea98582860161268b565b9250506020612eba8582860161268b565b9150509250929050565b600080600080600060a08688031215612ee057612edf612638565b5b6000612eee8882890161268b565b9550506020612eff8882890161268b565b9450506040612f10888289016126c1565b9350506060612f21888289016126c1565b925050608086013567ffffffffffffffff811115612f4257612f4161263d565b5b612f4e88828901612aa9565b9150509295509295909350565b7f4e487b7100000000000000000000000000000000000000000000000000000000600052602260045260246000fd5b60006002820490506001821680612fa257607f821691505b602082108103612fb557612fb4612f5b565b5b50919050565b7f596f752063616e206f6e6c7920636865636b20796f7572206f776e2062616c6160008201527f6e63652e00000000000000000000000000000000000000000000000000000000602082015250565b6000613017602483612833565b915061302282612fbb565b604082019050919050565b600060208201905081810360008301526130468161300a565b9050919050565b7f4e487b7100000000000000000000000000000000000000000000000000000000600052601160045260246000fd5b6000613087826126a0565b9150613092836126a0565b92508282019050808211156130aa576130a961304d565b5b92915050565b7f436f6f6c646f776e3a2054727920616761696e20696e2033207365636f6e6473600082015250565b60006130e6602083612833565b91506130f1826130b0565b602082019050919050565b60006020820190508181036000830152613115816130d9565b9050919050565b60006040820190506131316000830185612dee565b61313e6020830184612dee565b9392505050565b7f496e73756666696369656e7420746f6b656e203020746f206d696e7420746f6b60008201527f656e203300000000000000000000000000000000000000000000000000000000602082015250565b60006131a1602483612833565b91506131ac82613145565b604082019050919050565b600060208201905081810360008301526131d081613194565b9050919050565b7f496e73756666696369656e7420746f6b656e203120746f206d696e7420746f6b60008201527f656e203300000000000000000000000000000000000000000000000000000000602082015250565b6000613233602483612833565b915061323e826131d7565b604082019050919050565b6000602082019050818103600083015261326281613226565b9050919050565b600060408201905061327e6000830185612716565b61328b6020830184612716565b9392505050565b7f4e487b7100000000000000000000000000000000000000000000000000000000600052603260045260246000fd5b7f496e73756666696369656e7420746f6b656e203020746f206d696e7420746f6b60008201527f656e203500000000000000000000000000000000000000000000000000000000602082015250565b600061331d602483612833565b9150613328826132c1565b604082019050919050565b6000602082019050818103600083015261334c81613310565b9050919050565b7f496e73756666696369656e7420746f6b656e203220746f206d696e7420746f6b60008201527f656e203500000000000000000000000000000000000000000000000000000000602082015250565b60006133af602483612833565b91506133ba82613353565b604082019050919050565b600060208201905081810360008301526133de816133a2565b9050919050565b7f496e73756666696369656e7420746f6b656e203120746f206d696e7420746f6b60008201527f656e203400000000000000000000000000000000000000000000000000000000602082015250565b6000613441602483612833565b915061344c826133e5565b604082019050919050565b6000602082019050818103600083015261347081613434565b9050919050565b7f496e73756666696369656e7420746f6b656e203220746f206d696e7420746f6b60008201527f656e203400000000000000000000000000000000000000000000000000000000602082015250565b60006134d3602483612833565b91506134de82613477565b604082019050919050565b60006020820190508181036000830152613502816134c6565b9050919050565b7f496e73756666696369656e7420746f6b656e203020746f206d696e7420746f6b60008201527f656e203600000000000000000000000000000000000000000000000000000000602082015250565b6000613565602483612833565b915061357082613509565b604082019050919050565b6000602082019050818103600083015261359481613558565b9050919050565b7f496e73756666696369656e7420746f6b656e203120746f206d696e7420746f6b60008201527f656e203600000000000000000000000000000000000000000000000000000000602082015250565b60006135f7602483612833565b91506136028261359b565b604082019050919050565b60006020820190508181036000830152613626816135ea565b9050919050565b7f496e73756666696369656e7420746f6b656e203220746f206d696e7420746f6b60008201527f656e203600000000000000000000000000000000000000000000000000000000602082015250565b6000613689602483612833565b91506136948261362d565b604082019050919050565b600060208201905081810360008301526136b88161367c565b9050919050565b60006080820190506136d46000830187612dee565b6136e16020830186612716565b6136ee6040830185612716565b6136fb6060830184612716565b95945050505050565b6000604082019050818103600083015261371e8185612d41565b905081810360208301526137328184612d41565b90509392505050565b600081519050919050565b600082825260208201905092915050565b60006137628261373b565b61376c8185613746565b935061377c818560208601612844565b6137858161286e565b840191505092915050565b600060a0820190506137a56000830188612dee565b6137b26020830187612dee565b6137bf6040830186612716565b6137cc6060830185612716565b81810360808301526137de8184613757565b90509695505050505050565b6000815190506137f98161276c565b92915050565b60006020828403121561381557613814612638565b5b6000613823848285016137ea565b91505092915050565b600060a0820190506138416000830188612dee565b61384e6020830187612dee565b81810360408301526138608186612d41565b905081810360608301526138748185612d41565b905081810360808301526138888184613757565b9050969550505050505056fea264697066735822122041c68f39276833600e2b8579571a3b482314b0984f69168c357e21d6d2da628464736f6c634300081c003368747470733a2f2f6170692e6578616d706c652e636f6d2f6170692f746f6b656e2f7b69647d2e6a736f6e",
  "linkReferences": {},
  "deployedLinkReferences": {}
}