{
	"data": {
		"bytecode": {
			"linkReferences": {},
			"object": "608060405234801561000f575f80fd5b50604051610a36380380610a3683398181016040528101906100319190610217565b335f73ffffffffffffffffffffffffffffffffffffffff168173ffffffffffffffffffffffffffffffffffffffff16036100a2575f6040517f1e4fbdf70000000000000000000000000000000000000000000000000000000081526004016100999190610251565b60405180910390fd5b6100b1816100f860201b60201c565b508060015f6101000a81548173ffffffffffffffffffffffffffffffffffffffff021916908373ffffffffffffffffffffffffffffffffffffffff1602179055505061026a565b5f805f9054906101000a900473ffffffffffffffffffffffffffffffffffffffff169050815f806101000a81548173ffffffffffffffffffffffffffffffffffffffff021916908373ffffffffffffffffffffffffffffffffffffffff1602179055508173ffffffffffffffffffffffffffffffffffffffff168173ffffffffffffffffffffffffffffffffffffffff167f8be0079c531659141344cd1fd0a4f28419497f9722a3daafe3b4186f6b6457e060405160405180910390a35050565b5f80fd5b5f73ffffffffffffffffffffffffffffffffffffffff82169050919050565b5f6101e6826101bd565b9050919050565b6101f6816101dc565b8114610200575f80fd5b50565b5f81519050610211816101ed565b92915050565b5f6020828403121561022c5761022b6101b9565b5b5f61023984828501610203565b91505092915050565b61024b816101dc565b82525050565b5f6020820190506102645f830184610242565b92915050565b6107bf806102775f395ff3fe608060405234801561000f575f80fd5b5060043610610060575f3560e01c80631702749e1461006457806342966c681461009457806355a373d6146100b0578063715018a6146100ce5780638da5cb5b146100d8578063f2fde38b146100f6575b5f80fd5b61007e60048036038101906100799190610509565b610112565b60405161008b9190610556565b60405180910390f35b6100ae60048036038101906100a9919061056f565b6101b5565b005b6100b8610246565b6040516100c591906105f5565b60405180910390f35b6100d661026b565b005b6100e061027e565b6040516100ed919061061d565b60405180910390f35b610110600480360381019061010b9190610636565b6102a5565b005b5f60015f9054906101000a900473ffffffffffffffffffffffffffffffffffffffff1673ffffffffffffffffffffffffffffffffffffffff1662fdd58e84846040518363ffffffff1660e01b815260040161016e929190610661565b602060405180830381865afa158015610189573d5f803e3d5ffd5b505050506040513d601f19601f820116820180604052508101906101ad919061069c565b905092915050565b60015f9054906101000a900473ffffffffffffffffffffffffffffffffffffffff1673ffffffffffffffffffffffffffffffffffffffff1663f242432a33308460016040518563ffffffff1660e01b81526004016102169493929190610733565b5f604051808303815f87803b15801561022d575f80fd5b505af115801561023f573d5f803e3d5ffd5b5050505050565b60015f9054906101000a900473ffffffffffffffffffffffffffffffffffffffff1681565b610273610329565b61027c5f6103b0565b565b5f805f9054906101000a900473ffffffffffffffffffffffffffffffffffffffff16905090565b6102ad610329565b5f73ffffffffffffffffffffffffffffffffffffffff168173ffffffffffffffffffffffffffffffffffffffff160361031d575f6040517f1e4fbdf7000000000000000000000000000000000000000000000000000000008152600401610314919061061d565b60405180910390fd5b610326816103b0565b50565b610331610471565b73ffffffffffffffffffffffffffffffffffffffff1661034f61027e565b73ffffffffffffffffffffffffffffffffffffffff16146103ae57610372610471565b6040517f118cdaa70000000000000000000000000000000000000000000000000000000081526004016103a5919061061d565b60405180910390fd5b565b5f805f9054906101000a900473ffffffffffffffffffffffffffffffffffffffff169050815f806101000a81548173ffffffffffffffffffffffffffffffffffffffff021916908373ffffffffffffffffffffffffffffffffffffffff1602179055508173ffffffffffffffffffffffffffffffffffffffff168173ffffffffffffffffffffffffffffffffffffffff167f8be0079c531659141344cd1fd0a4f28419497f9722a3daafe3b4186f6b6457e060405160405180910390a35050565b5f33905090565b5f80fd5b5f73ffffffffffffffffffffffffffffffffffffffff82169050919050565b5f6104a58261047c565b9050919050565b6104b58161049b565b81146104bf575f80fd5b50565b5f813590506104d0816104ac565b92915050565b5f819050919050565b6104e8816104d6565b81146104f2575f80fd5b50565b5f81359050610503816104df565b92915050565b5f806040838503121561051f5761051e610478565b5b5f61052c858286016104c2565b925050602061053d858286016104f5565b9150509250929050565b610550816104d6565b82525050565b5f6020820190506105695f830184610547565b92915050565b5f6020828403121561058457610583610478565b5b5f610591848285016104f5565b91505092915050565b5f819050919050565b5f6105bd6105b86105b38461047c565b61059a565b61047c565b9050919050565b5f6105ce826105a3565b9050919050565b5f6105df826105c4565b9050919050565b6105ef816105d5565b82525050565b5f6020820190506106085f8301846105e6565b92915050565b6106178161049b565b82525050565b5f6020820190506106305f83018461060e565b92915050565b5f6020828403121561064b5761064a610478565b5b5f610658848285016104c2565b91505092915050565b5f6040820190506106745f83018561060e565b6106816020830184610547565b9392505050565b5f81519050610696816104df565b92915050565b5f602082840312156106b1576106b0610478565b5b5f6106be84828501610688565b91505092915050565b5f819050919050565b5f6106ea6106e56106e0846106c7565b61059a565b6104d6565b9050919050565b6106fa816106d0565b82525050565b5f82825260208201905092915050565b50565b5f61071e5f83610700565b915061072982610710565b5f82019050919050565b5f60a0820190506107465f83018761060e565b610753602083018661060e565b6107606040830185610547565b61076d60608301846106f1565b818103608083015261077e81610713565b90509594505050505056fea2646970667358221220cab299aaf1a346f32b8cd83743a6d0473eed59af0de4c51b9b371d946639475564736f6c634300081a0033",
			"opcodes": "PUSH1 0x80 PUSH1 0x40 MSTORE CALLVALUE DUP1 ISZERO PUSH2 0xF JUMPI PUSH0 DUP1 REVERT JUMPDEST POP PUSH1 0x40 MLOAD PUSH2 0xA36 CODESIZE SUB DUP1 PUSH2 0xA36 DUP4 CODECOPY DUP2 DUP2 ADD PUSH1 0x40 MSTORE DUP2 ADD SWAP1 PUSH2 0x31 SWAP2 SWAP1 PUSH2 0x217 JUMP JUMPDEST CALLER PUSH0 PUSH20 0xFFFFFFFFFFFFFFFFFFFFFFFFFFFFFFFFFFFFFFFF AND DUP2 PUSH20 0xFFFFFFFFFFFFFFFFFFFFFFFFFFFFFFFFFFFFFFFF AND SUB PUSH2 0xA2 JUMPI PUSH0 PUSH1 0x40 MLOAD PUSH32 0x1E4FBDF700000000000000000000000000000000000000000000000000000000 DUP2 MSTORE PUSH1 0x4 ADD PUSH2 0x99 SWAP2 SWAP1 PUSH2 0x251 JUMP JUMPDEST PUSH1 0x40 MLOAD DUP1 SWAP2 SUB SWAP1 REVERT JUMPDEST PUSH2 0xB1 DUP2 PUSH2 0xF8 PUSH1 0x20 SHL PUSH1 0x20 SHR JUMP JUMPDEST POP DUP1 PUSH1 0x1 PUSH0 PUSH2 0x100 EXP DUP2 SLOAD DUP2 PUSH20 0xFFFFFFFFFFFFFFFFFFFFFFFFFFFFFFFFFFFFFFFF MUL NOT AND SWAP1 DUP4 PUSH20 0xFFFFFFFFFFFFFFFFFFFFFFFFFFFFFFFFFFFFFFFF AND MUL OR SWAP1 SSTORE POP POP PUSH2 0x26A JUMP JUMPDEST PUSH0 DUP1 PUSH0 SWAP1 SLOAD SWAP1 PUSH2 0x100 EXP SWAP1 DIV PUSH20 0xFFFFFFFFFFFFFFFFFFFFFFFFFFFFFFFFFFFFFFFF AND SWAP1 POP DUP2 PUSH0 DUP1 PUSH2 0x100 EXP DUP2 SLOAD DUP2 PUSH20 0xFFFFFFFFFFFFFFFFFFFFFFFFFFFFFFFFFFFFFFFF MUL NOT AND SWAP1 DUP4 PUSH20 0xFFFFFFFFFFFFFFFFFFFFFFFFFFFFFFFFFFFFFFFF AND MUL OR SWAP1 SSTORE POP DUP2 PUSH20 0xFFFFFFFFFFFFFFFFFFFFFFFFFFFFFFFFFFFFFFFF AND DUP2 PUSH20 0xFFFFFFFFFFFFFFFFFFFFFFFFFFFFFFFFFFFFFFFF AND PUSH32 0x8BE0079C531659141344CD1FD0A4F28419497F9722A3DAAFE3B4186F6B6457E0 PUSH1 0x40 MLOAD PUSH1 0x40 MLOAD DUP1 SWAP2 SUB SWAP1 LOG3 POP POP JUMP JUMPDEST PUSH0 DUP1 REVERT JUMPDEST PUSH0 PUSH20 0xFFFFFFFFFFFFFFFFFFFFFFFFFFFFFFFFFFFFFFFF DUP3 AND SWAP1 POP SWAP2 SWAP1 POP JUMP JUMPDEST PUSH0 PUSH2 0x1E6 DUP3 PUSH2 0x1BD JUMP JUMPDEST SWAP1 POP SWAP2 SWAP1 POP JUMP JUMPDEST PUSH2 0x1F6 DUP2 PUSH2 0x1DC JUMP JUMPDEST DUP2 EQ PUSH2 0x200 JUMPI PUSH0 DUP1 REVERT JUMPDEST POP JUMP JUMPDEST PUSH0 DUP2 MLOAD SWAP1 POP PUSH2 0x211 DUP2 PUSH2 0x1ED JUMP JUMPDEST SWAP3 SWAP2 POP POP JUMP JUMPDEST PUSH0 PUSH1 0x20 DUP3 DUP5 SUB SLT ISZERO PUSH2 0x22C JUMPI PUSH2 0x22B PUSH2 0x1B9 JUMP JUMPDEST JUMPDEST PUSH0 PUSH2 0x239 DUP5 DUP3 DUP6 ADD PUSH2 0x203 JUMP JUMPDEST SWAP2 POP POP SWAP3 SWAP2 POP POP JUMP JUMPDEST PUSH2 0x24B DUP2 PUSH2 0x1DC JUMP JUMPDEST DUP3 MSTORE POP POP JUMP JUMPDEST PUSH0 PUSH1 0x20 DUP3 ADD SWAP1 POP PUSH2 0x264 PUSH0 DUP4 ADD DUP5 PUSH2 0x242 JUMP JUMPDEST SWAP3 SWAP2 POP POP JUMP JUMPDEST PUSH2 0x7BF DUP1 PUSH2 0x277 PUSH0 CODECOPY PUSH0 RETURN INVALID PUSH1 0x80 PUSH1 0x40 MSTORE CALLVALUE DUP1 ISZERO PUSH2 0xF JUMPI PUSH0 DUP1 REVERT JUMPDEST POP PUSH1 0x4 CALLDATASIZE LT PUSH2 0x60 JUMPI PUSH0 CALLDATALOAD PUSH1 0xE0 SHR DUP1 PUSH4 0x1702749E EQ PUSH2 0x64 JUMPI DUP1 PUSH4 0x42966C68 EQ PUSH2 0x94 JUMPI DUP1 PUSH4 0x55A373D6 EQ PUSH2 0xB0 JUMPI DUP1 PUSH4 0x715018A6 EQ PUSH2 0xCE JUMPI DUP1 PUSH4 0x8DA5CB5B EQ PUSH2 0xD8 JUMPI DUP1 PUSH4 0xF2FDE38B EQ PUSH2 0xF6 JUMPI JUMPDEST PUSH0 DUP1 REVERT JUMPDEST PUSH2 0x7E PUSH1 0x4 DUP1 CALLDATASIZE SUB DUP2 ADD SWAP1 PUSH2 0x79 SWAP2 SWAP1 PUSH2 0x509 JUMP JUMPDEST PUSH2 0x112 JUMP JUMPDEST PUSH1 0x40 MLOAD PUSH2 0x8B SWAP2 SWAP1 PUSH2 0x556 JUMP JUMPDEST PUSH1 0x40 MLOAD DUP1 SWAP2 SUB SWAP1 RETURN JUMPDEST PUSH2 0xAE PUSH1 0x4 DUP1 CALLDATASIZE SUB DUP2 ADD SWAP1 PUSH2 0xA9 SWAP2 SWAP1 PUSH2 0x56F JUMP JUMPDEST PUSH2 0x1B5 JUMP JUMPDEST STOP JUMPDEST PUSH2 0xB8 PUSH2 0x246 JUMP JUMPDEST PUSH1 0x40 MLOAD PUSH2 0xC5 SWAP2 SWAP1 PUSH2 0x5F5 JUMP JUMPDEST PUSH1 0x40 MLOAD DUP1 SWAP2 SUB SWAP1 RETURN JUMPDEST PUSH2 0xD6 PUSH2 0x26B JUMP JUMPDEST STOP JUMPDEST PUSH2 0xE0 PUSH2 0x27E JUMP JUMPDEST PUSH1 0x40 MLOAD PUSH2 0xED SWAP2 SWAP1 PUSH2 0x61D JUMP JUMPDEST PUSH1 0x40 MLOAD DUP1 SWAP2 SUB SWAP1 RETURN JUMPDEST PUSH2 0x110 PUSH1 0x4 DUP1 CALLDATASIZE SUB DUP2 ADD SWAP1 PUSH2 0x10B SWAP2 SWAP1 PUSH2 0x636 JUMP JUMPDEST PUSH2 0x2A5 JUMP JUMPDEST STOP JUMPDEST PUSH0 PUSH1 0x1 PUSH0 SWAP1 SLOAD SWAP1 PUSH2 0x100 EXP SWAP1 DIV PUSH20 0xFFFFFFFFFFFFFFFFFFFFFFFFFFFFFFFFFFFFFFFF AND PUSH20 0xFFFFFFFFFFFFFFFFFFFFFFFFFFFFFFFFFFFFFFFF AND PUSH3 0xFDD58E DUP5 DUP5 PUSH1 0x40 MLOAD DUP4 PUSH4 0xFFFFFFFF AND PUSH1 0xE0 SHL DUP2 MSTORE PUSH1 0x4 ADD PUSH2 0x16E SWAP3 SWAP2 SWAP1 PUSH2 0x661 JUMP JUMPDEST PUSH1 0x20 PUSH1 0x40 MLOAD DUP1 DUP4 SUB DUP2 DUP7 GAS STATICCALL ISZERO DUP1 ISZERO PUSH2 0x189 JUMPI RETURNDATASIZE PUSH0 DUP1 RETURNDATACOPY RETURNDATASIZE PUSH0 REVERT JUMPDEST POP POP POP POP PUSH1 0x40 MLOAD RETURNDATASIZE PUSH1 0x1F NOT PUSH1 0x1F DUP3 ADD AND DUP3 ADD DUP1 PUSH1 0x40 MSTORE POP DUP2 ADD SWAP1 PUSH2 0x1AD SWAP2 SWAP1 PUSH2 0x69C JUMP JUMPDEST SWAP1 POP SWAP3 SWAP2 POP POP JUMP JUMPDEST PUSH1 0x1 PUSH0 SWAP1 SLOAD SWAP1 PUSH2 0x100 EXP SWAP1 DIV PUSH20 0xFFFFFFFFFFFFFFFFFFFFFFFFFFFFFFFFFFFFFFFF AND PUSH20 0xFFFFFFFFFFFFFFFFFFFFFFFFFFFFFFFFFFFFFFFF AND PUSH4 0xF242432A CALLER ADDRESS DUP5 PUSH1 0x1 PUSH1 0x40 MLOAD DUP6 PUSH4 0xFFFFFFFF AND PUSH1 0xE0 SHL DUP2 MSTORE PUSH1 0x4 ADD PUSH2 0x216 SWAP5 SWAP4 SWAP3 SWAP2 SWAP1 PUSH2 0x733 JUMP JUMPDEST PUSH0 PUSH1 0x40 MLOAD DUP1 DUP4 SUB DUP2 PUSH0 DUP8 DUP1 EXTCODESIZE ISZERO DUP1 ISZERO PUSH2 0x22D JUMPI PUSH0 DUP1 REVERT JUMPDEST POP GAS CALL ISZERO DUP1 ISZERO PUSH2 0x23F JUMPI RETURNDATASIZE PUSH0 DUP1 RETURNDATACOPY RETURNDATASIZE PUSH0 REVERT JUMPDEST POP POP POP POP POP JUMP JUMPDEST PUSH1 0x1 PUSH0 SWAP1 SLOAD SWAP1 PUSH2 0x100 EXP SWAP1 DIV PUSH20 0xFFFFFFFFFFFFFFFFFFFFFFFFFFFFFFFFFFFFFFFF AND DUP2 JUMP JUMPDEST PUSH2 0x273 PUSH2 0x329 JUMP JUMPDEST PUSH2 0x27C PUSH0 PUSH2 0x3B0 JUMP JUMPDEST JUMP JUMPDEST PUSH0 DUP1 PUSH0 SWAP1 SLOAD SWAP1 PUSH2 0x100 EXP SWAP1 DIV PUSH20 0xFFFFFFFFFFFFFFFFFFFFFFFFFFFFFFFFFFFFFFFF AND SWAP1 POP SWAP1 JUMP JUMPDEST PUSH2 0x2AD PUSH2 0x329 JUMP JUMPDEST PUSH0 PUSH20 0xFFFFFFFFFFFFFFFFFFFFFFFFFFFFFFFFFFFFFFFF AND DUP2 PUSH20 0xFFFFFFFFFFFFFFFFFFFFFFFFFFFFFFFFFFFFFFFF AND SUB PUSH2 0x31D JUMPI PUSH0 PUSH1 0x40 MLOAD PUSH32 0x1E4FBDF700000000000000000000000000000000000000000000000000000000 DUP2 MSTORE PUSH1 0x4 ADD PUSH2 0x314 SWAP2 SWAP1 PUSH2 0x61D JUMP JUMPDEST PUSH1 0x40 MLOAD DUP1 SWAP2 SUB SWAP1 REVERT JUMPDEST PUSH2 0x326 DUP2 PUSH2 0x3B0 JUMP JUMPDEST POP JUMP JUMPDEST PUSH2 0x331 PUSH2 0x471 JUMP JUMPDEST PUSH20 0xFFFFFFFFFFFFFFFFFFFFFFFFFFFFFFFFFFFFFFFF AND PUSH2 0x34F PUSH2 0x27E JUMP JUMPDEST PUSH20 0xFFFFFFFFFFFFFFFFFFFFFFFFFFFFFFFFFFFFFFFF AND EQ PUSH2 0x3AE JUMPI PUSH2 0x372 PUSH2 0x471 JUMP JUMPDEST PUSH1 0x40 MLOAD PUSH32 0x118CDAA700000000000000000000000000000000000000000000000000000000 DUP2 MSTORE PUSH1 0x4 ADD PUSH2 0x3A5 SWAP2 SWAP1 PUSH2 0x61D JUMP JUMPDEST PUSH1 0x40 MLOAD DUP1 SWAP2 SUB SWAP1 REVERT JUMPDEST JUMP JUMPDEST PUSH0 DUP1 PUSH0 SWAP1 SLOAD SWAP1 PUSH2 0x100 EXP SWAP1 DIV PUSH20 0xFFFFFFFFFFFFFFFFFFFFFFFFFFFFFFFFFFFFFFFF AND SWAP1 POP DUP2 PUSH0 DUP1 PUSH2 0x100 EXP DUP2 SLOAD DUP2 PUSH20 0xFFFFFFFFFFFFFFFFFFFFFFFFFFFFFFFFFFFFFFFF MUL NOT AND SWAP1 DUP4 PUSH20 0xFFFFFFFFFFFFFFFFFFFFFFFFFFFFFFFFFFFFFFFF AND MUL OR SWAP1 SSTORE POP DUP2 PUSH20 0xFFFFFFFFFFFFFFFFFFFFFFFFFFFFFFFFFFFFFFFF AND DUP2 PUSH20 0xFFFFFFFFFFFFFFFFFFFFFFFFFFFFFFFFFFFFFFFF AND PUSH32 0x8BE0079C531659141344CD1FD0A4F28419497F9722A3DAAFE3B4186F6B6457E0 PUSH1 0x40 MLOAD PUSH1 0x40 MLOAD DUP1 SWAP2 SUB SWAP1 LOG3 POP POP JUMP JUMPDEST PUSH0 CALLER SWAP1 POP SWAP1 JUMP JUMPDEST PUSH0 DUP1 REVERT JUMPDEST PUSH0 PUSH20 0xFFFFFFFFFFFFFFFFFFFFFFFFFFFFFFFFFFFFFFFF DUP3 AND SWAP1 POP SWAP2 SWAP1 POP JUMP JUMPDEST PUSH0 PUSH2 0x4A5 DUP3 PUSH2 0x47C JUMP JUMPDEST SWAP1 POP SWAP2 SWAP1 POP JUMP JUMPDEST PUSH2 0x4B5 DUP2 PUSH2 0x49B JUMP JUMPDEST DUP2 EQ PUSH2 0x4BF JUMPI PUSH0 DUP1 REVERT JUMPDEST POP JUMP JUMPDEST PUSH0 DUP2 CALLDATALOAD SWAP1 POP PUSH2 0x4D0 DUP2 PUSH2 0x4AC JUMP JUMPDEST SWAP3 SWAP2 POP POP JUMP JUMPDEST PUSH0 DUP2 SWAP1 POP SWAP2 SWAP1 POP JUMP JUMPDEST PUSH2 0x4E8 DUP2 PUSH2 0x4D6 JUMP JUMPDEST DUP2 EQ PUSH2 0x4F2 JUMPI PUSH0 DUP1 REVERT JUMPDEST POP JUMP JUMPDEST PUSH0 DUP2 CALLDATALOAD SWAP1 POP PUSH2 0x503 DUP2 PUSH2 0x4DF JUMP JUMPDEST SWAP3 SWAP2 POP POP JUMP JUMPDEST PUSH0 DUP1 PUSH1 0x40 DUP4 DUP6 SUB SLT ISZERO PUSH2 0x51F JUMPI PUSH2 0x51E PUSH2 0x478 JUMP JUMPDEST JUMPDEST PUSH0 PUSH2 0x52C DUP6 DUP3 DUP7 ADD PUSH2 0x4C2 JUMP JUMPDEST SWAP3 POP POP PUSH1 0x20 PUSH2 0x53D DUP6 DUP3 DUP7 ADD PUSH2 0x4F5 JUMP JUMPDEST SWAP2 POP POP SWAP3 POP SWAP3 SWAP1 POP JUMP JUMPDEST PUSH2 0x550 DUP2 PUSH2 0x4D6 JUMP JUMPDEST DUP3 MSTORE POP POP JUMP JUMPDEST PUSH0 PUSH1 0x20 DUP3 ADD SWAP1 POP PUSH2 0x569 PUSH0 DUP4 ADD DUP5 PUSH2 0x547 JUMP JUMPDEST SWAP3 SWAP2 POP POP JUMP JUMPDEST PUSH0 PUSH1 0x20 DUP3 DUP5 SUB SLT ISZERO PUSH2 0x584 JUMPI PUSH2 0x583 PUSH2 0x478 JUMP JUMPDEST JUMPDEST PUSH0 PUSH2 0x591 DUP5 DUP3 DUP6 ADD PUSH2 0x4F5 JUMP JUMPDEST SWAP2 POP POP SWAP3 SWAP2 POP POP JUMP JUMPDEST PUSH0 DUP2 SWAP1 POP SWAP2 SWAP1 POP JUMP JUMPDEST PUSH0 PUSH2 0x5BD PUSH2 0x5B8 PUSH2 0x5B3 DUP5 PUSH2 0x47C JUMP JUMPDEST PUSH2 0x59A JUMP JUMPDEST PUSH2 0x47C JUMP JUMPDEST SWAP1 POP SWAP2 SWAP1 POP JUMP JUMPDEST PUSH0 PUSH2 0x5CE DUP3 PUSH2 0x5A3 JUMP JUMPDEST SWAP1 POP SWAP2 SWAP1 POP JUMP JUMPDEST PUSH0 PUSH2 0x5DF DUP3 PUSH2 0x5C4 JUMP JUMPDEST SWAP1 POP SWAP2 SWAP1 POP JUMP JUMPDEST PUSH2 0x5EF DUP2 PUSH2 0x5D5 JUMP JUMPDEST DUP3 MSTORE POP POP JUMP JUMPDEST PUSH0 PUSH1 0x20 DUP3 ADD SWAP1 POP PUSH2 0x608 PUSH0 DUP4 ADD DUP5 PUSH2 0x5E6 JUMP JUMPDEST SWAP3 SWAP2 POP POP JUMP JUMPDEST PUSH2 0x617 DUP2 PUSH2 0x49B JUMP JUMPDEST DUP3 MSTORE POP POP JUMP JUMPDEST PUSH0 PUSH1 0x20 DUP3 ADD SWAP1 POP PUSH2 0x630 PUSH0 DUP4 ADD DUP5 PUSH2 0x60E JUMP JUMPDEST SWAP3 SWAP2 POP POP JUMP JUMPDEST PUSH0 PUSH1 0x20 DUP3 DUP5 SUB SLT ISZERO PUSH2 0x64B JUMPI PUSH2 0x64A PUSH2 0x478 JUMP JUMPDEST JUMPDEST PUSH0 PUSH2 0x658 DUP5 DUP3 DUP6 ADD PUSH2 0x4C2 JUMP JUMPDEST SWAP2 POP POP SWAP3 SWAP2 POP POP JUMP JUMPDEST PUSH0 PUSH1 0x40 DUP3 ADD SWAP1 POP PUSH2 0x674 PUSH0 DUP4 ADD DUP6 PUSH2 0x60E JUMP JUMPDEST PUSH2 0x681 PUSH1 0x20 DUP4 ADD DUP5 PUSH2 0x547 JUMP JUMPDEST SWAP4 SWAP3 POP POP POP JUMP JUMPDEST PUSH0 DUP2 MLOAD SWAP1 POP PUSH2 0x696 DUP2 PUSH2 0x4DF JUMP JUMPDEST SWAP3 SWAP2 POP POP JUMP JUMPDEST PUSH0 PUSH1 0x20 DUP3 DUP5 SUB SLT ISZERO PUSH2 0x6B1 JUMPI PUSH2 0x6B0 PUSH2 0x478 JUMP JUMPDEST JUMPDEST PUSH0 PUSH2 0x6BE DUP5 DUP3 DUP6 ADD PUSH2 0x688 JUMP JUMPDEST SWAP2 POP POP SWAP3 SWAP2 POP POP JUMP JUMPDEST PUSH0 DUP2 SWAP1 POP SWAP2 SWAP1 POP JUMP JUMPDEST PUSH0 PUSH2 0x6EA PUSH2 0x6E5 PUSH2 0x6E0 DUP5 PUSH2 0x6C7 JUMP JUMPDEST PUSH2 0x59A JUMP JUMPDEST PUSH2 0x4D6 JUMP JUMPDEST SWAP1 POP SWAP2 SWAP1 POP JUMP JUMPDEST PUSH2 0x6FA DUP2 PUSH2 0x6D0 JUMP JUMPDEST DUP3 MSTORE POP POP JUMP JUMPDEST PUSH0 DUP3 DUP3 MSTORE PUSH1 0x20 DUP3 ADD SWAP1 POP SWAP3 SWAP2 POP POP JUMP JUMPDEST POP JUMP JUMPDEST PUSH0 PUSH2 0x71E PUSH0 DUP4 PUSH2 0x700 JUMP JUMPDEST SWAP2 POP PUSH2 0x729 DUP3 PUSH2 0x710 JUMP JUMPDEST PUSH0 DUP3 ADD SWAP1 POP SWAP2 SWAP1 POP JUMP JUMPDEST PUSH0 PUSH1 0xA0 DUP3 ADD SWAP1 POP PUSH2 0x746 PUSH0 DUP4 ADD DUP8 PUSH2 0x60E JUMP JUMPDEST PUSH2 0x753 PUSH1 0x20 DUP4 ADD DUP7 PUSH2 0x60E JUMP JUMPDEST PUSH2 0x760 PUSH1 0x40 DUP4 ADD DUP6 PUSH2 0x547 JUMP JUMPDEST PUSH2 0x76D PUSH1 0x60 DUP4 ADD DUP5 PUSH2 0x6F1 JUMP JUMPDEST DUP2 DUP2 SUB PUSH1 0x80 DUP4 ADD MSTORE PUSH2 0x77E DUP2 PUSH2 0x713 JUMP JUMPDEST SWAP1 POP SWAP6 SWAP5 POP POP POP POP POP JUMP INVALID LOG2 PUSH5 0x6970667358 0x22 SLT KECCAK256 0xCA 0xB2 SWAP10 0xAA CALL LOG3 CHAINID RETURN 0x2B DUP13 0xD8 CALLDATACOPY NUMBER 0xA6 0xD0 SELFBALANCE RETURNDATACOPY 0xED MSIZE 0xAF 0xD 0xE4 0xC5 SHL SWAP12 CALLDATACOPY SAR SWAP5 PUSH7 0x39475564736F6C PUSH4 0x4300081A STOP CALLER "
		},
		"gasEstimates": {
			"creation": {
				"codeDepositCost": "396600",
				"executionCost": "infinite",
				"totalCost": "infinite"
			},
			"external": {
				"burn(uint256)": "infinite",
				"owner()": "2581",
				"renounceOwnership()": "infinite",
				"tokenBalanceOf(address,uint256)": "infinite",
				"tokenContract()": "infinite",
				"transferOwnership(address)": "infinite"
			}
		},
		"methodIdentifiers": {
			"burn(uint256)": "42966c68",
			"owner()": "8da5cb5b",
			"renounceOwnership()": "715018a6",
			"tokenBalanceOf(address,uint256)": "1702749e",
			"tokenContract()": "55a373d6",
			"transferOwnership(address)": "f2fde38b"
		}
	},
	"abi": [
		{
			"inputs": [
				{
					"internalType": "address",
					"name": "_tokenContract",
					"type": "address"
				}
			],
			"stateMutability": "nonpayable",
			"type": "constructor"
		},
		{
			"inputs": [
				{
					"internalType": "address",
					"name": "owner",
					"type": "address"
				}
			],
			"name": "OwnableInvalidOwner",
			"type": "error"
		},
		{
			"inputs": [
				{
					"internalType": "address",
					"name": "account",
					"type": "address"
				}
			],
			"name": "OwnableUnauthorizedAccount",
			"type": "error"
		},
		{
			"anonymous": false,
			"inputs": [
				{
					"indexed": true,
					"internalType": "address",
					"name": "previousOwner",
					"type": "address"
				},
				{
					"indexed": true,
					"internalType": "address",
					"name": "newOwner",
					"type": "address"
				}
			],
			"name": "OwnershipTransferred",
			"type": "event"
		},
		{
			"inputs": [
				{
					"internalType": "uint256",
					"name": "id",
					"type": "uint256"
				}
			],
			"name": "burn",
			"outputs": [],
			"stateMutability": "nonpayable",
			"type": "function"
		},
		{
			"inputs": [],
			"name": "owner",
			"outputs": [
				{
					"internalType": "address",
					"name": "",
					"type": "address"
				}
			],
			"stateMutability": "view",
			"type": "function"
		},
		{
			"inputs": [],
			"name": "renounceOwnership",
			"outputs": [],
			"stateMutability": "nonpayable",
			"type": "function"
		},
		{
			"inputs": [
				{
					"internalType": "address",
					"name": "account",
					"type": "address"
				},
				{
					"internalType": "uint256",
					"name": "id",
					"type": "uint256"
				}
			],
			"name": "tokenBalanceOf",
			"outputs": [
				{
					"internalType": "uint256",
					"name": "",
					"type": "uint256"
				}
			],
			"stateMutability": "view",
			"type": "function"
		},
		{
			"inputs": [],
			"name": "tokenContract",
			"outputs": [
				{
					"internalType": "contract IERC1155",
					"name": "",
					"type": "address"
				}
			],
			"stateMutability": "view",
			"type": "function"
		},
		{
			"inputs": [
				{
					"internalType": "address",
					"name": "newOwner",
					"type": "address"
				}
			],
			"name": "transferOwnership",
			"outputs": [],
			"stateMutability": "nonpayable",
			"type": "function"
		}
	]
}