{"contracts/ERC1155_token_contract.sol":{"ERC1155Token":{"abi":[{"inputs":[],"stateMutability":"nonpayable","type":"constructor"},{"inputs":[{"internalType":"address","name":"sender","type":"address"},{"internalType":"uint256","name":"balance","type":"uint256"},{"internalType":"uint256","name":"needed","type":"uint256"},{"internalType":"uint256","name":"tokenId","type":"uint256"}],"name":"ERC1155InsufficientBalance","type":"error"},{"inputs":[{"internalType":"address","name":"approver","type":"address"}],"name":"ERC1155InvalidApprover","type":"error"},{"inputs":[{"internalType":"uint256","name":"idsLength","type":"uint256"},{"internalType":"uint256","name":"valuesLength","type":"uint256"}],"name":"ERC1155InvalidArrayLength","type":"error"},{"inputs":[{"internalType":"address","name":"operator","type":"address"}],"name":"ERC1155InvalidOperator","type":"error"},{"inputs":[{"internalType":"address","name":"receiver","type":"address"}],"name":"ERC1155InvalidReceiver","type":"error"},{"inputs":[{"internalType":"address","name":"sender","type":"address"}],"name":"ERC1155InvalidSender","type":"error"},{"inputs":[{"internalType":"address","name":"operator","type":"address"},{"internalType":"address","name":"owner","type":"address"}],"name":"ERC1155MissingApprovalForAll","type":"error"},{"inputs":[{"internalType":"address","name":"owner","type":"address"}],"name":"OwnableInvalidOwner","type":"error"},{"inputs":[{"internalType":"address","name":"account","type":"address"}],"name":"OwnableUnauthorizedAccount","type":"error"},{"anonymous":false,"inputs":[{"indexed":true,"internalType":"address","name":"account","type":"address"},{"indexed":true,"internalType":"address","name":"operator","type":"address"},{"indexed":false,"internalType":"bool","name":"approved","type":"bool"}],"name":"ApprovalForAll","type":"event"},{"anonymous":false,"inputs":[{"indexed":true,"internalType":"address","name":"previousOwner","type":"address"},{"indexed":true,"internalType":"address","name":"newOwner","type":"address"}],"name":"OwnershipTransferred","type":"event"},{"anonymous":false,"inputs":[{"indexed":true,"internalType":"address","name":"operator","type":"address"},{"indexed":true,"internalType":"address","name":"from","type":"address"},{"indexed":true,"internalType":"address","name":"to","type":"address"},{"indexed":false,"internalType":"uint256[]","name":"ids","type":"uint256[]"},{"indexed":false,"internalType":"uint256[]","name":"values","type":"uint256[]"}],"name":"TransferBatch","type":"event"},{"anonymous":false,"inputs":[{"indexed":true,"internalType":"address","name":"operator","type":"address"},{"indexed":true,"internalType":"address","name":"from","type":"address"},{"indexed":true,"internalType":"address","name":"to","type":"address"},{"indexed":false,"internalType":"uint256","name":"id","type":"uint256"},{"indexed":false,"internalType":"uint256","name":"value","type":"uint256"}],"name":"TransferSingle","type":"event"},{"anonymous":false,"inputs":[{"indexed":false,"internalType":"string","name":"value","type":"string"},{"indexed":true,"internalType":"uint256","name":"id","type":"uint256"}],"name":"URI","type":"event"},{"inputs":[{"internalType":"address","name":"account","type":"address"},{"internalType":"uint256","name":"id","type":"uint256"}],"name":"balanceOf","outputs":[{"internalType":"uint256","name":"","type":"uint256"}],"stateMutability":"view","type":"function"},{"inputs":[{"internalType":"address[]","name":"accounts","type":"address[]"},{"internalType":"uint256[]","name":"ids","type":"uint256[]"}],"name":"balanceOfBatch","outputs":[{"internalType":"uint256[]","name":"","type":"uint256[]"}],"stateMutability":"view","type":"function"},{"inputs":[{"internalType":"address","name":"account","type":"address"},{"internalType":"address","name":"operator","type":"address"}],"name":"isApprovedForAll","outputs":[{"internalType":"bool","name":"","type":"bool"}],"stateMutability":"view","type":"function"},{"inputs":[{"internalType":"address","name":"","type":"address"}],"name":"lastMintTime","outputs":[{"internalType":"uint256","name":"","type":"uint256"}],"stateMutability":"view","type":"function"},{"inputs":[],"name":"mintToken0","outputs":[],"stateMutability":"nonpayable","type":"function"},{"inputs":[],"name":"mintToken1","outputs":[],"stateMutability":"nonpayable","type":"function"},{"inputs":[],"name":"mintToken2","outputs":[],"stateMutability":"nonpayable","type":"function"},{"inputs":[],"name":"mintToken3","outputs":[],"stateMutability":"nonpayable","type":"function"},{"inputs":[],"name":"mintToken4","outputs":[],"stateMutability":"nonpayable","type":"function"},{"inputs":[],"name":"mintToken5","outputs":[],"stateMutability":"nonpayable","type":"function"},{"inputs":[],"name":"mintToken6","outputs":[],"stateMutability":"nonpayable","type":"function"},{"inputs":[],"name":"owner","outputs":[{"internalType":"address","name":"","type":"address"}],"stateMutability":"view","type":"function"},{"inputs":[],"name":"renounceOwnership","outputs":[],"stateMutability":"nonpayable","type":"function"},{"inputs":[{"internalType":"address","name":"from","type":"address"},{"internalType":"address","name":"to","type":"address"},{"internalType":"uint256[]","name":"ids","type":"uint256[]"},{"internalType":"uint256[]","name":"values","type":"uint256[]"},{"internalType":"bytes","name":"data","type":"bytes"}],"name":"safeBatchTransferFrom","outputs":[],"stateMutability":"nonpayable","type":"function"},{"inputs":[{"internalType":"address","name":"from","type":"address"},{"internalType":"address","name":"to","type":"address"},{"internalType":"uint256","name":"id","type":"uint256"},{"internalType":"uint256","name":"value","type":"uint256"},{"internalType":"bytes","name":"data","type":"bytes"}],"name":"safeTransferFrom","outputs":[],"stateMutability":"nonpayable","type":"function"},{"inputs":[{"internalType":"address","name":"operator","type":"address"},{"internalType":"bool","name":"approved","type":"bool"}],"name":"setApprovalForAll","outputs":[],"stateMutability":"nonpayable","type":"function"},{"inputs":[{"internalType":"bytes4","name":"interfaceId","type":"bytes4"}],"name":"supportsInterface","outputs":[{"internalType":"bool","name":"","type":"bool"}],"stateMutability":"view","type":"function"},{"inputs":[{"internalType":"address","name":"account","type":"address"},{"internalType":"uint256","name":"id","type":"uint256"}],"name":"tokenBalanceOf","outputs":[{"internalType":"uint256","name":"","type":"uint256"}],"stateMutability":"view","type":"function"},{"inputs":[{"internalType":"address","name":"newOwner","type":"address"}],"name":"transferOwnership","outputs":[],"stateMutability":"nonpayable","type":"function"},{"inputs":[{"internalType":"uint256","name":"","type":"uint256"}],"name":"uri","outputs":[{"internalType":"string","name":"","type":"string"}],"stateMutability":"view","type":"function"}],"evm":{"bytecode":{"linkReferences":{},"object":"608060405234801561001057600080fd5b50336040518060600160405280602b8152602001613e0f602b913961003a816100dc60201b60201c565b50600073ffffffffffffffffffffffffffffffffffffffff168173ffffffffffffffffffffffffffffffffffffffff16036100ad5760006040517f1e4fbdf70000000000000000000000000000000000000000000000000000000081526004016100a491906101f9565b60405180910390fd5b6100bc816100ef60201b60201c565b506100d76754abcc8c2b4898e660c01b6101b560201b60201c565b610536565b80600290816100eb9190610464565b5050565b6000600360009054906101000a900473ffffffffffffffffffffffffffffffffffffffff16905081600360006101000a81548173ffffffffffffffffffffffffffffffffffffffff021916908373ffffffffffffffffffffffffffffffffffffffff1602179055508173ffffffffffffffffffffffffffffffffffffffff168173ffffffffffffffffffffffffffffffffffffffff167f8be0079c531659141344cd1fd0a4f28419497f9722a3daafe3b4186f6b6457e060405160405180910390a35050565b50565b600073ffffffffffffffffffffffffffffffffffffffff82169050919050565b60006101e3826101b8565b9050919050565b6101f3816101d8565b82525050565b600060208201905061020e60008301846101ea565b92915050565b600081519050919050565b7f4e487b7100000000000000000000000000000000000000000000000000000000600052604160045260246000fd5b7f4e487b7100000000000000000000000000000000000000000000000000000000600052602260045260246000fd5b6000600282049050600182168061029557607f821691505b6020821081036102a8576102a761024e565b5b50919050565b60008190508160005260206000209050919050565b60006020601f8301049050919050565b600082821b905092915050565b6000600883026103107fffffffffffffffffffffffffffffffffffffffffffffffffffffffffffffffff826102d3565b61031a86836102d3565b95508019841693508086168417925050509392505050565b6000819050919050565b6000819050919050565b600061036161035c61035784610332565b61033c565b610332565b9050919050565b6000819050919050565b61037b83610346565b61038f61038782610368565b8484546102e0565b825550505050565b600090565b6103a4610397565b6103af818484610372565b505050565b5b818110156103d3576103c860008261039c565b6001810190506103b5565b5050565b601f821115610418576103e9816102ae565b6103f2846102c3565b81016020851015610401578190505b61041561040d856102c3565b8301826103b4565b50505b505050565b600082821c905092915050565b600061043b6000198460080261041d565b1980831691505092915050565b6000610454838361042a565b9150826002028217905092915050565b61046d82610214565b67ffffffffffffffff8111156104865761048561021f565b5b610490825461027d565b61049b8282856103d7565b600060209050601f8311600181146104ce57600084156104bc578287015190505b6104c68582610448565b86555061052e565b601f1984166104dc866102ae565b60005b82811015610504578489015182556001820191506020850194506020810190506104df565b86831015610521578489015161051d601f89168261042a565b8355505b6001600288020188555050505b505050505050565b6138ca806105456000396000f3fe608060405234801561001057600080fd5b506004361061012b5760003560e01c8063715018a6116100ad578063e8aea42511610071578063e8aea425146102e2578063e985e9c5146102ec578063ec0733d91461031c578063f242432a14610326578063f2fde38b146103425761012b565b8063715018a61461028a5780638da5cb5b14610294578063a22cb465146102b2578063aad12696146102ce578063b96422e0146102d85761012b565b80632eb2c2d6116100f45780632eb2c2d6146101fa578063433e103d146102165780634e1273f4146102205780636aa71d18146102505780636b4b5b06146102805761012b565b8062fdd58e1461013057806301ffc9a7146101605780630e89341c146101905780631702749e146101c057806327a4fa22146101f0575b600080fd5b61014a600480360381019061014591906126d6565b61035e565b6040516101579190612725565b60405180910390f35b61017a60048036038101906101759190612798565b6103b8565b60405161018791906127e0565b60405180910390f35b6101aa60048036038101906101a591906127fb565b61049a565b6040516101b791906128b8565b60405180910390f35b6101da60048036038101906101d591906126d6565b61052e565b6040516101e79190612725565b60405180910390f35b6101f861063c565b005b610214600480360381019061020f9190612ad7565b6107cd565b005b61021e610875565b005b61023a60048036038101906102359190612c69565b610a75565b6040516102479190612d9f565b60405180910390f35b61026a60048036038101906102659190612dc1565b610b7e565b6040516102779190612725565b60405180910390f35b610288610b96565b005b610292610d97565b005b61029c610dab565b6040516102a99190612dfd565b60405180910390f35b6102cc60048036038101906102c79190612e44565b610dd5565b005b6102d6610deb565b005b6102e0610fea565b005b6102ea61117b565b005b61030660048036038101906103019190612e84565b61130b565b60405161031391906127e0565b60405180910390f35b61032461139f565b005b610340600480360381019061033b9190612ec4565b611671565b005b61035c60048036038101906103579190612dc1565b611719565b005b600080600083815260200190815260200160002060008473ffffffffffffffffffffffffffffffffffffffff1673ffffffffffffffffffffffffffffffffffffffff16815260200190815260200160002054905092915050565b60007fd9b67a26000000000000000000000000000000000000000000000000000000007bffffffffffffffffffffffffffffffffffffffffffffffffffffffff1916827bffffffffffffffffffffffffffffffffffffffffffffffffffffffff1916148061048357507f0e89341c000000000000000000000000000000000000000000000000000000007bffffffffffffffffffffffffffffffffffffffffffffffffffffffff1916827bffffffffffffffffffffffffffffffffffffffffffffffffffffffff1916145b8061049357506104928261179f565b5b9050919050565b6060600280546104a990612f8a565b80601f01602080910402602001604051908101604052809291908181526020018280546104d590612f8a565b80156105225780601f106104f757610100808354040283529160200191610522565b820191906000526020600020905b81548152906001019060200180831161050557829003601f168201915b50505050509050919050565b6000610544671360f09766cc921560c01b611809565b61055867ddec41759ae7b7f260c01b611809565b61056c67974e24bc410adc2260c01b611809565b610580674a417e6d5063bc0460c01b611809565b8273ffffffffffffffffffffffffffffffffffffffff163373ffffffffffffffffffffffffffffffffffffffff16146105ee576040517f08c379a00000000000000000000000000000000000000000000000000000000081526004016105e59061302d565b60405180910390fd5b6106026739e8478557bad11d60c01b611809565b610616675bdf9ea6cc6f984c60c01b611809565b61062a67f13ab1b1e7c94c3c60c01b611809565b610634838361035e565b905092915050565b61065067710397f176fe50f560c01b611809565b610664678006c694e8efeafe60c01b611809565b610678673328be7c45f9744960c01b611809565b61068c67aab2124b508e9f5360c01b611809565b6003600460003373ffffffffffffffffffffffffffffffffffffffff1673ffffffffffffffffffffffffffffffffffffffff168152602001908152602001600020546106d8919061307c565b42101561071a576040517f08c379a0000000000000000000000000000000000000000000000000000000008152600401610711906130fc565b60405180910390fd5b61072e679d04149923382da460c01b611809565b61074267b146af3c93609d6060c01b611809565b42600460003373ffffffffffffffffffffffffffffffffffffffff1673ffffffffffffffffffffffffffffffffffffffff1681526020019081526020016000208190555061079a67bbbdfbf319b9184e60c01b611809565b6107ae67d9e6fd8f0cf3448c60c01b611809565b6107cb33600260016040518060200160405280600081525061180c565b565b60006107d76118a5565b90508073ffffffffffffffffffffffffffffffffffffffff168673ffffffffffffffffffffffffffffffffffffffff161415801561081c575061081a868261130b565b155b156108605780866040517fe237d92200000000000000000000000000000000000000000000000000000000815260040161085792919061311c565b60405180910390fd5b61086d86868686866118ad565b505050505050565b61088967fe4a2e1e15a3d28360c01b611809565b61089d672ecc2948b06935b460c01b611809565b6108b1675e79e05f9991258660c01b611809565b6108c56728c74ffa1dacaede60c01b611809565b60016108d233600061035e565b1015610913576040517f08c379a000000000000000000000000000000000000000000000000000000000815260040161090a906131b7565b60405180910390fd5b610927674dc75c442866a85c60c01b611809565b61093b67c70b60616fb97d2660c01b611809565b61094f67d5d891773ef6088a60c01b611809565b6109636725c45e2aba1aa7a660c01b611809565b600161097033600161035e565b10156109b1576040517f08c379a00000000000000000000000000000000000000000000000000000000081526004016109a890613249565b60405180910390fd5b6109c56742d670161ce9836b60c01b611809565b6109d967a6d9a13846c7c38660c01b611809565b6109ed6740f92295b6b513d260c01b611809565b6109fa33600060016119a5565b610a0e6753b7aa9f62c6992d60c01b611809565b610a2267a903979c0722b18a60c01b611809565b610a2e336001806119a5565b610a4267d541ba0bc86ce23260c01b611809565b610a566765b4e54d9b277fa660c01b611809565b610a7333600360016040518060200160405280600081525061180c565b565b60608151835114610ac157815183516040517f5b059991000000000000000000000000000000000000000000000000000000008152600401610ab8929190613269565b60405180910390fd5b6000835167ffffffffffffffff811115610ade57610add6128df565b5b604051908082528060200260200182016040528015610b0c5781602001602082028036833780820191505090505b50905060005b8451811015610b7357610b49610b318287611a4c90919063ffffffff16565b610b448387611a6090919063ffffffff16565b61035e565b828281518110610b5c57610b5b613292565b5b602002602001018181525050806001019050610b12565b508091505092915050565b60046020528060005260406000206000915090505481565b610baa67c64cd43b0e11771860c01b611809565b610bbe677eb061d0a032ca7c60c01b611809565b610bd26705114c9b778a9e8f60c01b611809565b610be66732a88c6a7beb0cd660c01b611809565b6001610bf333600061035e565b1015610c34576040517f08c379a0000000000000000000000000000000000000000000000000000000008152600401610c2b90613333565b60405180910390fd5b610c486759cf5ff6f55e202560c01b611809565b610c5c67c81849fb91e207ac60c01b611809565b610c70676bd0099fb055ea0a60c01b611809565b610c8467dd6d5931e277745f60c01b611809565b6001610c9133600261035e565b1015610cd2576040517f08c379a0000000000000000000000000000000000000000000000000000000008152600401610cc9906133c5565b60405180910390fd5b610ce667664250fa47d8046060c01b611809565b610cfa67dadffe1348df93ed60c01b611809565b610d0e677699b5be0639f26a60c01b611809565b610d1b33600060016119a5565b610d2f67d2429587d1d86afb60c01b611809565b610d4367f4633e00402fc8cb60c01b611809565b610d5033600260016119a5565b610d64674dc2a4a6e7a64e9960c01b611809565b610d78678bb8e8096477685460c01b611809565b610d9533600560016040518060200160405280600081525061180c565b565b610d9f611a74565b610da96000611afb565b565b6000600360009054906101000a900473ffffffffffffffffffffffffffffffffffffffff16905090565b610de7610de06118a5565b8383611bc1565b5050565b610dff6746bed5c3cc9f61bd60c01b611809565b610e136712f8a12e1b01219f60c01b611809565b610e2767343a7589b9cec7e160c01b611809565b610e3b672c1c6e74ed75a91360c01b611809565b6001610e4833600161035e565b1015610e89576040517f08c379a0000000000000000000000000000000000000000000000000000000008152600401610e8090613457565b60405180910390fd5b610e9d672ed8b37bd5051db760c01b611809565b610eb167b551d07629bd992760c01b611809565b610ec567895df05ea1be7b9760c01b611809565b610ed8667fccf45cf2107c60c01b611809565b6001610ee533600261035e565b1015610f26576040517f08c379a0000000000000000000000000000000000000000000000000000000008152600401610f1d906134e9565b60405180910390fd5b610f3a674e7fe9a0f1525c9060c01b611809565b610f4e678aaff02d3ab50eec60c01b611809565b610f626728eeda6825a8367860c01b611809565b610f6e336001806119a5565b610f8267c131aa4d154d8ee660c01b611809565b610f96672461e5cf1dbed20460c01b611809565b610fa333600260016119a5565b610fb767ecf1b9147674f6c660c01b611809565b610fcb67abfbd27145f8f0b460c01b611809565b610fe833600460016040518060200160405280600081525061180c565b565b610ffe671d649a5592dce37e60c01b611809565b611012677a8805613baa2c2d60c01b611809565b61102667f5a2e7d5c409eabf60c01b611809565b61103a6723648ad2a8aa19bc60c01b611809565b6003600460003373ffffffffffffffffffffffffffffffffffffffff1673ffffffffffffffffffffffffffffffffffffffff16815260200190815260200160002054611086919061307c565b4210156110c8576040517f08c379a00000000000000000000000000000000000000000000000000000000081526004016110bf906130fc565b60405180910390fd5b6110dc6721a9319a4a6556b060c01b611809565b6110f0679e8f69d8808a897b60c01b611809565b42600460003373ffffffffffffffffffffffffffffffffffffffff1673ffffffffffffffffffffffffffffffffffffffff16815260200190815260200160002081905550611148677edd956511fdf6cd60c01b611809565b61115c67735c50342723ba8d60c01b611809565b61117933600060016040518060200160405280600081525061180c565b565b61118f67062780f56b79348360c01b611809565b6111a3678d1e9b4752849d8b60c01b611809565b6111b76798b035cad041066d60c01b611809565b6111cb67bfa100df38d7185260c01b611809565b6003600460003373ffffffffffffffffffffffffffffffffffffffff1673ffffffffffffffffffffffffffffffffffffffff16815260200190815260200160002054611217919061307c565b421015611259576040517f08c379a0000000000000000000000000000000000000000000000000000000008152600401611250906130fc565b60405180910390fd5b61126d678daecd594a0e366160c01b611809565b611281670ba92c0d19e5c90360c01b611809565b42600460003373ffffffffffffffffffffffffffffffffffffffff1673ffffffffffffffffffffffffffffffffffffffff168152602001908152602001600020819055506112d9670f43ad25a247c14760c01b611809565b6112ed67e9e91c701b64319d60c01b611809565b611309336001806040518060200160405280600081525061180c565b565b6000600160008473ffffffffffffffffffffffffffffffffffffffff1673ffffffffffffffffffffffffffffffffffffffff16815260200190815260200160002060008373ffffffffffffffffffffffffffffffffffffffff1673ffffffffffffffffffffffffffffffffffffffff16815260200190815260200160002060009054906101000a900460ff16905092915050565b6113b3675c5482e920cc4e4360c01b611809565b6113c7678421cf1c0c8e219360c01b611809565b6113db67e9101fd8eb5c71eb60c01b611809565b6113ef6786bae818abfc0bde60c01b611809565b60016113fc33600061035e565b101561143d576040517f08c379a00000000000000000000000000000000000000000000000000000000081526004016114349061357b565b60405180910390fd5b611450664e36612af103ac60c01b611809565b6114646765c8f80de2c1fa0b60c01b611809565b61147867a9cc5a5513021c8860c01b611809565b61148c67eaed8a3d2772763760c01b611809565b600161149933600161035e565b10156114da576040517f08c379a00000000000000000000000000000000000000000000000000000000081526004016114d19061360d565b60405180910390fd5b6114ee675dbcd1584ae5dbdd60c01b611809565b6115026755e4e5ca234a31fb60c01b611809565b6115166776d53b0555dce4d860c01b611809565b61152a670a1dd1f7b8ef9a6d60c01b611809565b600161153733600261035e565b1015611578576040517f08c379a000000000000000000000000000000000000000000000000000000000815260040161156f9061369f565b60405180910390fd5b61158c6781549d92b6f7f8fc60c01b611809565b6115a067eb0e3f183d8c051360c01b611809565b6115b467e2e27d4b6becc56e60c01b611809565b6115c133600060016119a5565b6115d567668c188c524d312d60c01b611809565b6115e967fb1f6bec43d9801f60c01b611809565b6115f5336001806119a5565b6116096777297aab62f7ce8860c01b611809565b61161d67b9ad112e02239ceb60c01b611809565b61162a33600260016119a5565b61163e67f08bb0c053743c9460c01b611809565b61165267a09315c33a80d1f260c01b611809565b61166f33600660016040518060200160405280600081525061180c565b565b600061167b6118a5565b90508073ffffffffffffffffffffffffffffffffffffffff168673ffffffffffffffffffffffffffffffffffffffff16141580156116c057506116be868261130b565b155b156117045780866040517fe237d9220000000000000000000000000000000000000000000000000000000081526004016116fb92919061311c565b60405180910390fd5b6117118686868686611d31565b505050505050565b611721611a74565b600073ffffffffffffffffffffffffffffffffffffffff168173ffffffffffffffffffffffffffffffffffffffff16036117935760006040517f1e4fbdf700000000000000000000000000000000000000000000000000000000815260040161178a9190612dfd565b60405180910390fd5b61179c81611afb565b50565b60007f01ffc9a7000000000000000000000000000000000000000000000000000000007bffffffffffffffffffffffffffffffffffffffffffffffffffffffff1916827bffffffffffffffffffffffffffffffffffffffffffffffffffffffff1916149050919050565b50565b600073ffffffffffffffffffffffffffffffffffffffff168473ffffffffffffffffffffffffffffffffffffffff160361187e5760006040517f57f447ce0000000000000000000000000000000000000000000000000000000081526004016118759190612dfd565b60405180910390fd5b60008061188b8585611e3c565b9150915061189d600087848487611e6c565b505050505050565b600033905090565b600073ffffffffffffffffffffffffffffffffffffffff168473ffffffffffffffffffffffffffffffffffffffff160361191f5760006040517f57f447ce0000000000000000000000000000000000000000000000000000000081526004016119169190612dfd565b60405180910390fd5b600073ffffffffffffffffffffffffffffffffffffffff168573ffffffffffffffffffffffffffffffffffffffff16036119915760006040517f01a835140000000000000000000000000000000000000000000000000000000081526004016119889190612dfd565b60405180910390fd5b61199e8585858585611e6c565b5050505050565b600073ffffffffffffffffffffffffffffffffffffffff168373ffffffffffffffffffffffffffffffffffffffff1603611a175760006040517f01a83514000000000000000000000000000000000000000000000000000000008152600401611a0e9190612dfd565b60405180910390fd5b600080611a248484611e3c565b91509150611a45856000848460405180602001604052806000815250611e6c565b5050505050565b600060208202602084010151905092915050565b600060208202602084010151905092915050565b611a7c6118a5565b73ffffffffffffffffffffffffffffffffffffffff16611a9a610dab565b73ffffffffffffffffffffffffffffffffffffffff1614611af957611abd6118a5565b6040517f118cdaa7000000000000000000000000000000000000000000000000000000008152600401611af09190612dfd565b60405180910390fd5b565b6000600360009054906101000a900473ffffffffffffffffffffffffffffffffffffffff16905081600360006101000a81548173ffffffffffffffffffffffffffffffffffffffff021916908373ffffffffffffffffffffffffffffffffffffffff1602179055508173ffffffffffffffffffffffffffffffffffffffff168173ffffffffffffffffffffffffffffffffffffffff167f8be0079c531659141344cd1fd0a4f28419497f9722a3daafe3b4186f6b6457e060405160405180910390a35050565b600073ffffffffffffffffffffffffffffffffffffffff168273ffffffffffffffffffffffffffffffffffffffff1603611c335760006040517fced3e100000000000000000000000000000000000000000000000000000000008152600401611c2a9190612dfd565b60405180910390fd5b80600160008573ffffffffffffffffffffffffffffffffffffffff1673ffffffffffffffffffffffffffffffffffffffff16815260200190815260200160002060008473ffffffffffffffffffffffffffffffffffffffff1673ffffffffffffffffffffffffffffffffffffffff16815260200190815260200160002060006101000a81548160ff0219169083151502179055508173ffffffffffffffffffffffffffffffffffffffff168373ffffffffffffffffffffffffffffffffffffffff167f17307eab39ab6107e8899845ad3d59bd9653f200f220920489ca2b5937696c3183604051611d2491906127e0565b60405180910390a3505050565b600073ffffffffffffffffffffffffffffffffffffffff168473ffffffffffffffffffffffffffffffffffffffff1603611da35760006040517f57f447ce000000000000000000000000000000000000000000000000000000008152600401611d9a9190612dfd565b60405180910390fd5b600073ffffffffffffffffffffffffffffffffffffffff168573ffffffffffffffffffffffffffffffffffffffff1603611e155760006040517f01a83514000000000000000000000000000000000000000000000000000000008152600401611e0c9190612dfd565b60405180910390fd5b600080611e228585611e3c565b91509150611e338787848487611e6c565b50505050505050565b60608060405191506001825283602083015260408201905060018152826020820152604081016040529250929050565b611e7885858585611f1e565b600073ffffffffffffffffffffffffffffffffffffffff168473ffffffffffffffffffffffffffffffffffffffff1614611f17576000611eb66118a5565b90506001845103611f06576000611ed7600086611a6090919063ffffffff16565b90506000611eef600086611a6090919063ffffffff16565b9050611eff8389898585896122c6565b5050611f15565b611f1481878787878761247a565b5b505b5050505050565b8051825114611f6857815181516040517f5b059991000000000000000000000000000000000000000000000000000000008152600401611f5f929190613269565b60405180910390fd5b6000611f726118a5565b905060005b8351811015612181576000611f958286611a6090919063ffffffff16565b90506000611fac8386611a6090919063ffffffff16565b9050600073ffffffffffffffffffffffffffffffffffffffff168873ffffffffffffffffffffffffffffffffffffffff16146120d957600080600084815260200190815260200160002060008a73ffffffffffffffffffffffffffffffffffffffff1673ffffffffffffffffffffffffffffffffffffffff1681526020019081526020016000205490508181101561208157888183856040517f03dee4c500000000000000000000000000000000000000000000000000000000815260040161207894939291906136bf565b60405180910390fd5b81810360008085815260200190815260200160002060008b73ffffffffffffffffffffffffffffffffffffffff1673ffffffffffffffffffffffffffffffffffffffff16815260200190815260200160002081905550505b600073ffffffffffffffffffffffffffffffffffffffff168773ffffffffffffffffffffffffffffffffffffffff1614612174578060008084815260200190815260200160002060008973ffffffffffffffffffffffffffffffffffffffff1673ffffffffffffffffffffffffffffffffffffffff168152602001908152602001600020600082825461216c919061307c565b925050819055505b5050806001019050611f77565b5060018351036122405760006121a1600085611a6090919063ffffffff16565b905060006121b9600085611a6090919063ffffffff16565b90508573ffffffffffffffffffffffffffffffffffffffff168773ffffffffffffffffffffffffffffffffffffffff168473ffffffffffffffffffffffffffffffffffffffff167fc3d58168c5ae7397731d063d5bbf3d657854427343f4c083240f7aacaa2d0f628585604051612231929190613269565b60405180910390a450506122bf565b8373ffffffffffffffffffffffffffffffffffffffff168573ffffffffffffffffffffffffffffffffffffffff168273ffffffffffffffffffffffffffffffffffffffff167f4a39dc06d4c0dbc64b70af90fd698a233a518aa5d07e595d983b8c0526c8f7fb86866040516122b6929190613704565b60405180910390a45b5050505050565b60008473ffffffffffffffffffffffffffffffffffffffff163b1115612472578373ffffffffffffffffffffffffffffffffffffffff1663f23a6e6187878686866040518663ffffffff1660e01b8152600401612327959493929190613790565b6020604051808303816000875af192505050801561236357506040513d601f19601f8201168201806040525081019061236091906137ff565b60015b6123e7573d8060008114612393576040519150601f19603f3d011682016040523d82523d6000602084013e612398565b606091505b5060008151036123df57846040517f57f447ce0000000000000000000000000000000000000000000000000000000081526004016123d69190612dfd565b60405180910390fd5b805181602001fd5b63f23a6e6160e01b7bffffffffffffffffffffffffffffffffffffffffffffffffffffffff1916817bffffffffffffffffffffffffffffffffffffffffffffffffffffffff19161461247057846040517f57f447ce0000000000000000000000000000000000000000000000000000000081526004016124679190612dfd565b60405180910390fd5b505b505050505050565b60008473ffffffffffffffffffffffffffffffffffffffff163b1115612626578373ffffffffffffffffffffffffffffffffffffffff1663bc197c8187878686866040518663ffffffff1660e01b81526004016124db95949392919061382c565b6020604051808303816000875af192505050801561251757506040513d601f19601f8201168201806040525081019061251491906137ff565b60015b61259b573d8060008114612547576040519150601f19603f3d011682016040523d82523d6000602084013e61254c565b606091505b50600081510361259357846040517f57f447ce00000000000000000000000000000000000000000000000000000000815260040161258a9190612dfd565b60405180910390fd5b805181602001fd5b63bc197c8160e01b7bffffffffffffffffffffffffffffffffffffffffffffffffffffffff1916817bffffffffffffffffffffffffffffffffffffffffffffffffffffffff19161461262457846040517f57f447ce00000000000000000000000000000000000000000000000000000000815260040161261b9190612dfd565b60405180910390fd5b505b505050505050565b6000604051905090565b600080fd5b600080fd5b600073ffffffffffffffffffffffffffffffffffffffff82169050919050565b600061266d82612642565b9050919050565b61267d81612662565b811461268857600080fd5b50565b60008135905061269a81612674565b92915050565b6000819050919050565b6126b3816126a0565b81146126be57600080fd5b50565b6000813590506126d0816126aa565b92915050565b600080604083850312156126ed576126ec612638565b5b60006126fb8582860161268b565b925050602061270c858286016126c1565b9150509250929050565b61271f816126a0565b82525050565b600060208201905061273a6000830184612716565b92915050565b60007fffffffff0000000000000000000000000000000000000000000000000000000082169050919050565b61277581612740565b811461278057600080fd5b50565b6000813590506127928161276c565b92915050565b6000602082840312156127ae576127ad612638565b5b60006127bc84828501612783565b91505092915050565b60008115159050919050565b6127da816127c5565b82525050565b60006020820190506127f560008301846127d1565b92915050565b60006020828403121561281157612810612638565b5b600061281f848285016126c1565b91505092915050565b600081519050919050565b600082825260208201905092915050565b60005b83811015612862578082015181840152602081019050612847565b60008484015250505050565b6000601f19601f8301169050919050565b600061288a82612828565b6128948185612833565b93506128a4818560208601612844565b6128ad8161286e565b840191505092915050565b600060208201905081810360008301526128d2818461287f565b905092915050565b600080fd5b7f4e487b7100000000000000000000000000000000000000000000000000000000600052604160045260246000fd5b6129178261286e565b810181811067ffffffffffffffff82111715612936576129356128df565b5b80604052505050565b600061294961262e565b9050612955828261290e565b919050565b600067ffffffffffffffff821115612975576129746128df565b5b602082029050602081019050919050565b600080fd5b600061299e6129998461295a565b61293f565b905080838252602082019050602084028301858111156129c1576129c0612986565b5b835b818110156129ea57806129d688826126c1565b8452602084019350506020810190506129c3565b5050509392505050565b600082601f830112612a0957612a086128da565b5b8135612a1984826020860161298b565b91505092915050565b600080fd5b600067ffffffffffffffff821115612a4257612a416128df565b5b612a4b8261286e565b9050602081019050919050565b82818337600083830152505050565b6000612a7a612a7584612a27565b61293f565b905082815260208101848484011115612a9657612a95612a22565b5b612aa1848285612a58565b509392505050565b600082601f830112612abe57612abd6128da565b5b8135612ace848260208601612a67565b91505092915050565b600080600080600060a08688031215612af357612af2612638565b5b6000612b018882890161268b565b9550506020612b128882890161268b565b945050604086013567ffffffffffffffff811115612b3357612b3261263d565b5b612b3f888289016129f4565b935050606086013567ffffffffffffffff811115612b6057612b5f61263d565b5b612b6c888289016129f4565b925050608086013567ffffffffffffffff811115612b8d57612b8c61263d565b5b612b9988828901612aa9565b9150509295509295909350565b600067ffffffffffffffff821115612bc157612bc06128df565b5b602082029050602081019050919050565b6000612be5612be084612ba6565b61293f565b90508083825260208201905060208402830185811115612c0857612c07612986565b5b835b81811015612c315780612c1d888261268b565b845260208401935050602081019050612c0a565b5050509392505050565b600082601f830112612c5057612c4f6128da565b5b8135612c60848260208601612bd2565b91505092915050565b60008060408385031215612c8057612c7f612638565b5b600083013567ffffffffffffffff811115612c9e57612c9d61263d565b5b612caa85828601612c3b565b925050602083013567ffffffffffffffff811115612ccb57612cca61263d565b5b612cd7858286016129f4565b9150509250929050565b600081519050919050565b600082825260208201905092915050565b6000819050602082019050919050565b612d16816126a0565b82525050565b6000612d288383612d0d565b60208301905092915050565b6000602082019050919050565b6000612d4c82612ce1565b612d568185612cec565b9350612d6183612cfd565b8060005b83811015612d92578151612d798882612d1c565b9750612d8483612d34565b925050600181019050612d65565b5085935050505092915050565b60006020820190508181036000830152612db98184612d41565b905092915050565b600060208284031215612dd757612dd6612638565b5b6000612de58482850161268b565b91505092915050565b612df781612662565b82525050565b6000602082019050612e126000830184612dee565b92915050565b612e21816127c5565b8114612e2c57600080fd5b50565b600081359050612e3e81612e18565b92915050565b60008060408385031215612e5b57612e5a612638565b5b6000612e698582860161268b565b9250506020612e7a85828601612e2f565b9150509250929050565b60008060408385031215612e9b57612e9a612638565b5b6000612ea98582860161268b565b9250506020612eba8582860161268b565b9150509250929050565b600080600080600060a08688031215612ee057612edf612638565b5b6000612eee8882890161268b565b9550506020612eff8882890161268b565b9450506040612f10888289016126c1565b9350506060612f21888289016126c1565b925050608086013567ffffffffffffffff811115612f4257612f4161263d565b5b612f4e88828901612aa9565b9150509295509295909350565b7f4e487b7100000000000000000000000000000000000000000000000000000000600052602260045260246000fd5b60006002820490506001821680612fa257607f821691505b602082108103612fb557612fb4612f5b565b5b50919050565b7f596f752063616e206f6e6c7920636865636b20796f7572206f776e2062616c6160008201527f6e63652e00000000000000000000000000000000000000000000000000000000602082015250565b6000613017602483612833565b915061302282612fbb565b604082019050919050565b600060208201905081810360008301526130468161300a565b9050919050565b7f4e487b7100000000000000000000000000000000000000000000000000000000600052601160045260246000fd5b6000613087826126a0565b9150613092836126a0565b92508282019050808211156130aa576130a961304d565b5b92915050565b7f436f6f6c646f776e3a2054727920616761696e20696e2033207365636f6e6473600082015250565b60006130e6602083612833565b91506130f1826130b0565b602082019050919050565b60006020820190508181036000830152613115816130d9565b9050919050565b60006040820190506131316000830185612dee565b61313e6020830184612dee565b9392505050565b7f496e73756666696369656e7420746f6b656e203020746f206d696e7420746f6b60008201527f656e203300000000000000000000000000000000000000000000000000000000602082015250565b60006131a1602483612833565b91506131ac82613145565b604082019050919050565b600060208201905081810360008301526131d081613194565b9050919050565b7f496e73756666696369656e7420746f6b656e203120746f206d696e7420746f6b60008201527f656e203300000000000000000000000000000000000000000000000000000000602082015250565b6000613233602483612833565b915061323e826131d7565b604082019050919050565b6000602082019050818103600083015261326281613226565b9050919050565b600060408201905061327e6000830185612716565b61328b6020830184612716565b9392505050565b7f4e487b7100000000000000000000000000000000000000000000000000000000600052603260045260246000fd5b7f496e73756666696369656e7420746f6b656e203020746f206d696e7420746f6b60008201527f656e203500000000000000000000000000000000000000000000000000000000602082015250565b600061331d602483612833565b9150613328826132c1565b604082019050919050565b6000602082019050818103600083015261334c81613310565b9050919050565b7f496e73756666696369656e7420746f6b656e203220746f206d696e7420746f6b60008201527f656e203500000000000000000000000000000000000000000000000000000000602082015250565b60006133af602483612833565b91506133ba82613353565b604082019050919050565b600060208201905081810360008301526133de816133a2565b9050919050565b7f496e73756666696369656e7420746f6b656e203120746f206d696e7420746f6b60008201527f656e203400000000000000000000000000000000000000000000000000000000602082015250565b6000613441602483612833565b915061344c826133e5565b604082019050919050565b6000602082019050818103600083015261347081613434565b9050919050565b7f496e73756666696369656e7420746f6b656e203220746f206d696e7420746f6b60008201527f656e203400000000000000000000000000000000000000000000000000000000602082015250565b60006134d3602483612833565b91506134de82613477565b604082019050919050565b60006020820190508181036000830152613502816134c6565b9050919050565b7f496e73756666696369656e7420746f6b656e203020746f206d696e7420746f6b60008201527f656e203600000000000000000000000000000000000000000000000000000000602082015250565b6000613565602483612833565b915061357082613509565b604082019050919050565b6000602082019050818103600083015261359481613558565b9050919050565b7f496e73756666696369656e7420746f6b656e203120746f206d696e7420746f6b60008201527f656e203600000000000000000000000000000000000000000000000000000000602082015250565b60006135f7602483612833565b91506136028261359b565b604082019050919050565b60006020820190508181036000830152613626816135ea565b9050919050565b7f496e73756666696369656e7420746f6b656e203220746f206d696e7420746f6b60008201527f656e203600000000000000000000000000000000000000000000000000000000602082015250565b6000613689602483612833565b91506136948261362d565b604082019050919050565b600060208201905081810360008301526136b88161367c565b9050919050565b60006080820190506136d46000830187612dee565b6136e16020830186612716565b6136ee6040830185612716565b6136fb6060830184612716565b95945050505050565b6000604082019050818103600083015261371e8185612d41565b905081810360208301526137328184612d41565b90509392505050565b600081519050919050565b600082825260208201905092915050565b60006137628261373b565b61376c8185613746565b935061377c818560208601612844565b6137858161286e565b840191505092915050565b600060a0820190506137a56000830188612dee565b6137b26020830187612dee565b6137bf6040830186612716565b6137cc6060830185612716565b81810360808301526137de8184613757565b90509695505050505050565b6000815190506137f98161276c565b92915050565b60006020828403121561381557613814612638565b5b6000613823848285016137ea565b91505092915050565b600060a0820190506138416000830188612dee565b61384e6020830187612dee565b81810360408301526138608186612d41565b905081810360608301526138748185612d41565b905081810360808301526138888184613757565b9050969550505050505056fea264697066735822122041c68f39276833600e2b8579571a3b482314b0984f69168c357e21d6d2da628464736f6c634300081c003368747470733a2f2f6170692e6578616d706c652e636f6d2f6170692f746f6b656e2f7b69647d2e6a736f6e","opcodes":"PUSH1 0x80 PUSH1 0x40 MSTORE CALLVALUE DUP1 ISZERO PUSH2 0x10 JUMPI PUSH1 0x0 DUP1 REVERT JUMPDEST POP CALLER PUSH1 0x40 MLOAD DUP1 PUSH1 0x60 ADD PUSH1 0x40 MSTORE DUP1 PUSH1 0x2B DUP2 MSTORE PUSH1 0x20 ADD PUSH2 0x3E0F PUSH1 0x2B SWAP2 CODECOPY PUSH2 0x3A DUP2 PUSH2 0xDC PUSH1 0x20 SHL PUSH1 0x20 SHR JUMP JUMPDEST POP PUSH1 0x0 PUSH20 0xFFFFFFFFFFFFFFFFFFFFFFFFFFFFFFFFFFFFFFFF AND DUP2 PUSH20 0xFFFFFFFFFFFFFFFFFFFFFFFFFFFFFFFFFFFFFFFF AND SUB PUSH2 0xAD JUMPI PUSH1 0x0 PUSH1 0x40 MLOAD PUSH32 0x1E4FBDF700000000000000000000000000000000000000000000000000000000 DUP2 MSTORE PUSH1 0x4 ADD PUSH2 0xA4 SWAP2 SWAP1 PUSH2 0x1F9 JUMP JUMPDEST PUSH1 0x40 MLOAD DUP1 SWAP2 SUB SWAP1 REVERT JUMPDEST PUSH2 0xBC DUP2 PUSH2 0xEF PUSH1 0x20 SHL PUSH1 0x20 SHR JUMP JUMPDEST POP PUSH2 0xD7 PUSH8 0x54ABCC8C2B4898E6 PUSH1 0xC0 SHL PUSH2 0x1B5 PUSH1 0x20 SHL PUSH1 0x20 SHR JUMP JUMPDEST PUSH2 0x536 JUMP JUMPDEST DUP1 PUSH1 0x2 SWAP1 DUP2 PUSH2 0xEB SWAP2 SWAP1 PUSH2 0x464 JUMP JUMPDEST POP POP JUMP JUMPDEST PUSH1 0x0 PUSH1 0x3 PUSH1 0x0 SWAP1 SLOAD SWAP1 PUSH2 0x100 EXP SWAP1 DIV PUSH20 0xFFFFFFFFFFFFFFFFFFFFFFFFFFFFFFFFFFFFFFFF AND SWAP1 POP DUP2 PUSH1 0x3 PUSH1 0x0 PUSH2 0x100 EXP DUP2 SLOAD DUP2 PUSH20 0xFFFFFFFFFFFFFFFFFFFFFFFFFFFFFFFFFFFFFFFF MUL NOT AND SWAP1 DUP4 PUSH20 0xFFFFFFFFFFFFFFFFFFFFFFFFFFFFFFFFFFFFFFFF AND MUL OR SWAP1 SSTORE POP DUP2 PUSH20 0xFFFFFFFFFFFFFFFFFFFFFFFFFFFFFFFFFFFFFFFF AND DUP2 PUSH20 0xFFFFFFFFFFFFFFFFFFFFFFFFFFFFFFFFFFFFFFFF AND PUSH32 0x8BE0079C531659141344CD1FD0A4F28419497F9722A3DAAFE3B4186F6B6457E0 PUSH1 0x40 MLOAD PUSH1 0x40 MLOAD DUP1 SWAP2 SUB SWAP1 LOG3 POP POP JUMP JUMPDEST POP JUMP JUMPDEST PUSH1 0x0 PUSH20 0xFFFFFFFFFFFFFFFFFFFFFFFFFFFFFFFFFFFFFFFF DUP3 AND SWAP1 POP SWAP2 SWAP1 POP JUMP JUMPDEST PUSH1 0x0 PUSH2 0x1E3 DUP3 PUSH2 0x1B8 JUMP JUMPDEST SWAP1 POP SWAP2 SWAP1 POP JUMP JUMPDEST PUSH2 0x1F3 DUP2 PUSH2 0x1D8 JUMP JUMPDEST DUP3 MSTORE POP POP JUMP JUMPDEST PUSH1 0x0 PUSH1 0x20 DUP3 ADD SWAP1 POP PUSH2 0x20E PUSH1 0x0 DUP4 ADD DUP5 PUSH2 0x1EA JUMP JUMPDEST SWAP3 SWAP2 POP POP JUMP JUMPDEST PUSH1 0x0 DUP2 MLOAD SWAP1 POP SWAP2 SWAP1 POP JUMP JUMPDEST PUSH32 0x4E487B7100000000000000000000000000000000000000000000000000000000 PUSH1 0x0 MSTORE PUSH1 0x41 PUSH1 0x4 MSTORE PUSH1 0x24 PUSH1 0x0 REVERT JUMPDEST PUSH32 0x4E487B7100000000000000000000000000000000000000000000000000000000 PUSH1 0x0 MSTORE PUSH1 0x22 PUSH1 0x4 MSTORE PUSH1 0x24 PUSH1 0x0 REVERT JUMPDEST PUSH1 0x0 PUSH1 0x2 DUP3 DIV SWAP1 POP PUSH1 0x1 DUP3 AND DUP1 PUSH2 0x295 JUMPI PUSH1 0x7F DUP3 AND SWAP2 POP JUMPDEST PUSH1 0x20 DUP3 LT DUP2 SUB PUSH2 0x2A8 JUMPI PUSH2 0x2A7 PUSH2 0x24E JUMP JUMPDEST JUMPDEST POP SWAP2 SWAP1 POP JUMP JUMPDEST PUSH1 0x0 DUP2 SWAP1 POP DUP2 PUSH1 0x0 MSTORE PUSH1 0x20 PUSH1 0x0 KECCAK256 SWAP1 POP SWAP2 SWAP1 POP JUMP JUMPDEST PUSH1 0x0 PUSH1 0x20 PUSH1 0x1F DUP4 ADD DIV SWAP1 POP SWAP2 SWAP1 POP JUMP JUMPDEST PUSH1 0x0 DUP3 DUP3 SHL SWAP1 POP SWAP3 SWAP2 POP POP JUMP JUMPDEST PUSH1 0x0 PUSH1 0x8 DUP4 MUL PUSH2 0x310 PUSH32 0xFFFFFFFFFFFFFFFFFFFFFFFFFFFFFFFFFFFFFFFFFFFFFFFFFFFFFFFFFFFFFFFF DUP3 PUSH2 0x2D3 JUMP JUMPDEST PUSH2 0x31A DUP7 DUP4 PUSH2 0x2D3 JUMP JUMPDEST SWAP6 POP DUP1 NOT DUP5 AND SWAP4 POP DUP1 DUP7 AND DUP5 OR SWAP3 POP POP POP SWAP4 SWAP3 POP POP POP JUMP JUMPDEST PUSH1 0x0 DUP2 SWAP1 POP SWAP2 SWAP1 POP JUMP JUMPDEST PUSH1 0x0 DUP2 SWAP1 POP SWAP2 SWAP1 POP JUMP JUMPDEST PUSH1 0x0 PUSH2 0x361 PUSH2 0x35C PUSH2 0x357 DUP5 PUSH2 0x332 JUMP JUMPDEST PUSH2 0x33C JUMP JUMPDEST PUSH2 0x332 JUMP JUMPDEST SWAP1 POP SWAP2 SWAP1 POP JUMP JUMPDEST PUSH1 0x0 DUP2 SWAP1 POP SWAP2 SWAP1 POP JUMP JUMPDEST PUSH2 0x37B DUP4 PUSH2 0x346 JUMP JUMPDEST PUSH2 0x38F PUSH2 0x387 DUP3 PUSH2 0x368 JUMP JUMPDEST DUP5 DUP5 SLOAD PUSH2 0x2E0 JUMP JUMPDEST DUP3 SSTORE POP POP POP POP JUMP JUMPDEST PUSH1 0x0 SWAP1 JUMP JUMPDEST PUSH2 0x3A4 PUSH2 0x397 JUMP JUMPDEST PUSH2 0x3AF DUP2 DUP5 DUP5 PUSH2 0x372 JUMP JUMPDEST POP POP POP JUMP JUMPDEST JUMPDEST DUP2 DUP2 LT ISZERO PUSH2 0x3D3 JUMPI PUSH2 0x3C8 PUSH1 0x0 DUP3 PUSH2 0x39C JUMP JUMPDEST PUSH1 0x1 DUP2 ADD SWAP1 POP PUSH2 0x3B5 JUMP JUMPDEST POP POP JUMP JUMPDEST PUSH1 0x1F DUP3 GT ISZERO PUSH2 0x418 JUMPI PUSH2 0x3E9 DUP2 PUSH2 0x2AE JUMP JUMPDEST PUSH2 0x3F2 DUP5 PUSH2 0x2C3 JUMP JUMPDEST DUP2 ADD PUSH1 0x20 DUP6 LT ISZERO PUSH2 0x401 JUMPI DUP2 SWAP1 POP JUMPDEST PUSH2 0x415 PUSH2 0x40D DUP6 PUSH2 0x2C3 JUMP JUMPDEST DUP4 ADD DUP3 PUSH2 0x3B4 JUMP JUMPDEST POP POP JUMPDEST POP POP POP JUMP JUMPDEST PUSH1 0x0 DUP3 DUP3 SHR SWAP1 POP SWAP3 SWAP2 POP POP JUMP JUMPDEST PUSH1 0x0 PUSH2 0x43B PUSH1 0x0 NOT DUP5 PUSH1 0x8 MUL PUSH2 0x41D JUMP JUMPDEST NOT DUP1 DUP4 AND SWAP2 POP POP SWAP3 SWAP2 POP POP JUMP JUMPDEST PUSH1 0x0 PUSH2 0x454 DUP4 DUP4 PUSH2 0x42A JUMP JUMPDEST SWAP2 POP DUP3 PUSH1 0x2 MUL DUP3 OR SWAP1 POP SWAP3 SWAP2 POP POP JUMP JUMPDEST PUSH2 0x46D DUP3 PUSH2 0x214 JUMP JUMPDEST PUSH8 0xFFFFFFFFFFFFFFFF DUP2 GT ISZERO PUSH2 0x486 JUMPI PUSH2 0x485 PUSH2 0x21F JUMP JUMPDEST JUMPDEST PUSH2 0x490 DUP3 SLOAD PUSH2 0x27D JUMP JUMPDEST PUSH2 0x49B DUP3 DUP3 DUP6 PUSH2 0x3D7 JUMP JUMPDEST PUSH1 0x0 PUSH1 0x20 SWAP1 POP PUSH1 0x1F DUP4 GT PUSH1 0x1 DUP2 EQ PUSH2 0x4CE JUMPI PUSH1 0x0 DUP5 ISZERO PUSH2 0x4BC JUMPI DUP3 DUP8 ADD MLOAD SWAP1 POP JUMPDEST PUSH2 0x4C6 DUP6 DUP3 PUSH2 0x448 JUMP JUMPDEST DUP7 SSTORE POP PUSH2 0x52E JUMP JUMPDEST PUSH1 0x1F NOT DUP5 AND PUSH2 0x4DC DUP7 PUSH2 0x2AE JUMP JUMPDEST PUSH1 0x0 JUMPDEST DUP3 DUP2 LT ISZERO PUSH2 0x504 JUMPI DUP5 DUP10 ADD MLOAD DUP3 SSTORE PUSH1 0x1 DUP3 ADD SWAP2 POP PUSH1 0x20 DUP6 ADD SWAP5 POP PUSH1 0x20 DUP2 ADD SWAP1 POP PUSH2 0x4DF JUMP JUMPDEST DUP7 DUP4 LT ISZERO PUSH2 0x521 JUMPI DUP5 DUP10 ADD MLOAD PUSH2 0x51D PUSH1 0x1F DUP10 AND DUP3 PUSH2 0x42A JUMP JUMPDEST DUP4 SSTORE POP JUMPDEST PUSH1 0x1 PUSH1 0x2 DUP9 MUL ADD DUP9 SSTORE POP POP POP JUMPDEST POP POP POP POP POP POP JUMP JUMPDEST PUSH2 0x38CA DUP1 PUSH2 0x545 PUSH1 0x0 CODECOPY PUSH1 0x0 RETURN INVALID PUSH1 0x80 PUSH1 0x40 MSTORE CALLVALUE DUP1 ISZERO PUSH2 0x10 JUMPI PUSH1 0x0 DUP1 REVERT JUMPDEST POP PUSH1 0x4 CALLDATASIZE LT PUSH2 0x12B JUMPI PUSH1 0x0 CALLDATALOAD PUSH1 0xE0 SHR DUP1 PUSH4 0x715018A6 GT PUSH2 0xAD JUMPI DUP1 PUSH4 0xE8AEA425 GT PUSH2 0x71 JUMPI DUP1 PUSH4 0xE8AEA425 EQ PUSH2 0x2E2 JUMPI DUP1 PUSH4 0xE985E9C5 EQ PUSH2 0x2EC JUMPI DUP1 PUSH4 0xEC0733D9 EQ PUSH2 0x31C JUMPI DUP1 PUSH4 0xF242432A EQ PUSH2 0x326 JUMPI DUP1 PUSH4 0xF2FDE38B EQ PUSH2 0x342 JUMPI PUSH2 0x12B JUMP JUMPDEST DUP1 PUSH4 0x715018A6 EQ PUSH2 0x28A JUMPI DUP1 PUSH4 0x8DA5CB5B EQ PUSH2 0x294 JUMPI DUP1 PUSH4 0xA22CB465 EQ PUSH2 0x2B2 JUMPI DUP1 PUSH4 0xAAD12696 EQ PUSH2 0x2CE JUMPI DUP1 PUSH4 0xB96422E0 EQ PUSH2 0x2D8 JUMPI PUSH2 0x12B JUMP JUMPDEST DUP1 PUSH4 0x2EB2C2D6 GT PUSH2 0xF4 JUMPI DUP1 PUSH4 0x2EB2C2D6 EQ PUSH2 0x1FA JUMPI DUP1 PUSH4 0x433E103D EQ PUSH2 0x216 JUMPI DUP1 PUSH4 0x4E1273F4 EQ PUSH2 0x220 JUMPI DUP1 PUSH4 0x6AA71D18 EQ PUSH2 0x250 JUMPI DUP1 PUSH4 0x6B4B5B06 EQ PUSH2 0x280 JUMPI PUSH2 0x12B JUMP JUMPDEST DUP1 PUSH3 0xFDD58E EQ PUSH2 0x130 JUMPI DUP1 PUSH4 0x1FFC9A7 EQ PUSH2 0x160 JUMPI DUP1 PUSH4 0xE89341C EQ PUSH2 0x190 JUMPI DUP1 PUSH4 0x1702749E EQ PUSH2 0x1C0 JUMPI DUP1 PUSH4 0x27A4FA22 EQ PUSH2 0x1F0 JUMPI JUMPDEST PUSH1 0x0 DUP1 REVERT JUMPDEST PUSH2 0x14A PUSH1 0x4 DUP1 CALLDATASIZE SUB DUP2 ADD SWAP1 PUSH2 0x145 SWAP2 SWAP1 PUSH2 0x26D6 JUMP JUMPDEST PUSH2 0x35E JUMP JUMPDEST PUSH1 0x40 MLOAD PUSH2 0x157 SWAP2 SWAP1 PUSH2 0x2725 JUMP JUMPDEST PUSH1 0x40 MLOAD DUP1 SWAP2 SUB SWAP1 RETURN JUMPDEST PUSH2 0x17A PUSH1 0x4 DUP1 CALLDATASIZE SUB DUP2 ADD SWAP1 PUSH2 0x175 SWAP2 SWAP1 PUSH2 0x2798 JUMP JUMPDEST PUSH2 0x3B8 JUMP JUMPDEST PUSH1 0x40 MLOAD PUSH2 0x187 SWAP2 SWAP1 PUSH2 0x27E0 JUMP JUMPDEST PUSH1 0x40 MLOAD DUP1 SWAP2 SUB SWAP1 RETURN JUMPDEST PUSH2 0x1AA PUSH1 0x4 DUP1 CALLDATASIZE SUB DUP2 ADD SWAP1 PUSH2 0x1A5 SWAP2 SWAP1 PUSH2 0x27FB JUMP JUMPDEST PUSH2 0x49A JUMP JUMPDEST PUSH1 0x40 MLOAD PUSH2 0x1B7 SWAP2 SWAP1 PUSH2 0x28B8 JUMP JUMPDEST PUSH1 0x40 MLOAD DUP1 SWAP2 SUB SWAP1 RETURN JUMPDEST PUSH2 0x1DA PUSH1 0x4 DUP1 CALLDATASIZE SUB DUP2 ADD SWAP1 PUSH2 0x1D5 SWAP2 SWAP1 PUSH2 0x26D6 JUMP JUMPDEST PUSH2 0x52E JUMP JUMPDEST PUSH1 0x40 MLOAD PUSH2 0x1E7 SWAP2 SWAP1 PUSH2 0x2725 JUMP JUMPDEST PUSH1 0x40 MLOAD DUP1 SWAP2 SUB SWAP1 RETURN JUMPDEST PUSH2 0x1F8 PUSH2 0x63C JUMP JUMPDEST STOP JUMPDEST PUSH2 0x214 PUSH1 0x4 DUP1 CALLDATASIZE SUB DUP2 ADD SWAP1 PUSH2 0x20F SWAP2 SWAP1 PUSH2 0x2AD7 JUMP JUMPDEST PUSH2 0x7CD JUMP JUMPDEST STOP JUMPDEST PUSH2 0x21E PUSH2 0x875 JUMP JUMPDEST STOP JUMPDEST PUSH2 0x23A PUSH1 0x4 DUP1 CALLDATASIZE SUB DUP2 ADD SWAP1 PUSH2 0x235 SWAP2 SWAP1 PUSH2 0x2C69 JUMP JUMPDEST PUSH2 0xA75 JUMP JUMPDEST PUSH1 0x40 MLOAD PUSH2 0x247 SWAP2 SWAP1 PUSH2 0x2D9F JUMP JUMPDEST PUSH1 0x40 MLOAD DUP1 SWAP2 SUB SWAP1 RETURN JUMPDEST PUSH2 0x26A PUSH1 0x4 DUP1 CALLDATASIZE SUB DUP2 ADD SWAP1 PUSH2 0x265 SWAP2 SWAP1 PUSH2 0x2DC1 JUMP JUMPDEST PUSH2 0xB7E JUMP JUMPDEST PUSH1 0x40 MLOAD PUSH2 0x277 SWAP2 SWAP1 PUSH2 0x2725 JUMP JUMPDEST PUSH1 0x40 MLOAD DUP1 SWAP2 SUB SWAP1 RETURN JUMPDEST PUSH2 0x288 PUSH2 0xB96 JUMP JUMPDEST STOP JUMPDEST PUSH2 0x292 PUSH2 0xD97 JUMP JUMPDEST STOP JUMPDEST PUSH2 0x29C PUSH2 0xDAB JUMP JUMPDEST PUSH1 0x40 MLOAD PUSH2 0x2A9 SWAP2 SWAP1 PUSH2 0x2DFD JUMP JUMPDEST PUSH1 0x40 MLOAD DUP1 SWAP2 SUB SWAP1 RETURN JUMPDEST PUSH2 0x2CC PUSH1 0x4 DUP1 CALLDATASIZE SUB DUP2 ADD SWAP1 PUSH2 0x2C7 SWAP2 SWAP1 PUSH2 0x2E44 JUMP JUMPDEST PUSH2 0xDD5 JUMP JUMPDEST STOP JUMPDEST PUSH2 0x2D6 PUSH2 0xDEB JUMP JUMPDEST STOP JUMPDEST PUSH2 0x2E0 PUSH2 0xFEA JUMP JUMPDEST STOP JUMPDEST PUSH2 0x2EA PUSH2 0x117B JUMP JUMPDEST STOP JUMPDEST PUSH2 0x306 PUSH1 0x4 DUP1 CALLDATASIZE SUB DUP2 ADD SWAP1 PUSH2 0x301 SWAP2 SWAP1 PUSH2 0x2E84 JUMP JUMPDEST PUSH2 0x130B JUMP JUMPDEST PUSH1 0x40 MLOAD PUSH2 0x313 SWAP2 SWAP1 PUSH2 0x27E0 JUMP JUMPDEST PUSH1 0x40 MLOAD DUP1 SWAP2 SUB SWAP1 RETURN JUMPDEST PUSH2 0x324 PUSH2 0x139F JUMP JUMPDEST STOP JUMPDEST PUSH2 0x340 PUSH1 0x4 DUP1 CALLDATASIZE SUB DUP2 ADD SWAP1 PUSH2 0x33B SWAP2 SWAP1 PUSH2 0x2EC4 JUMP JUMPDEST PUSH2 0x1671 JUMP JUMPDEST STOP JUMPDEST PUSH2 0x35C PUSH1 0x4 DUP1 CALLDATASIZE SUB DUP2 ADD SWAP1 PUSH2 0x357 SWAP2 SWAP1 PUSH2 0x2DC1 JUMP JUMPDEST PUSH2 0x1719 JUMP JUMPDEST STOP JUMPDEST PUSH1 0x0 DUP1 PUSH1 0x0 DUP4 DUP2 MSTORE PUSH1 0x20 ADD SWAP1 DUP2 MSTORE PUSH1 0x20 ADD PUSH1 0x0 KECCAK256 PUSH1 0x0 DUP5 PUSH20 0xFFFFFFFFFFFFFFFFFFFFFFFFFFFFFFFFFFFFFFFF AND PUSH20 0xFFFFFFFFFFFFFFFFFFFFFFFFFFFFFFFFFFFFFFFF AND DUP2 MSTORE PUSH1 0x20 ADD SWAP1 DUP2 MSTORE PUSH1 0x20 ADD PUSH1 0x0 KECCAK256 SLOAD SWAP1 POP SWAP3 SWAP2 POP POP JUMP JUMPDEST PUSH1 0x0 PUSH32 0xD9B67A2600000000000000000000000000000000000000000000000000000000 PUSH28 0xFFFFFFFFFFFFFFFFFFFFFFFFFFFFFFFFFFFFFFFFFFFFFFFFFFFFFFFF NOT AND DUP3 PUSH28 0xFFFFFFFFFFFFFFFFFFFFFFFFFFFFFFFFFFFFFFFFFFFFFFFFFFFFFFFF NOT AND EQ DUP1 PUSH2 0x483 JUMPI POP PUSH32 0xE89341C00000000000000000000000000000000000000000000000000000000 PUSH28 0xFFFFFFFFFFFFFFFFFFFFFFFFFFFFFFFFFFFFFFFFFFFFFFFFFFFFFFFF NOT AND DUP3 PUSH28 0xFFFFFFFFFFFFFFFFFFFFFFFFFFFFFFFFFFFFFFFFFFFFFFFFFFFFFFFF NOT AND EQ JUMPDEST DUP1 PUSH2 0x493 JUMPI POP PUSH2 0x492 DUP3 PUSH2 0x179F JUMP JUMPDEST JUMPDEST SWAP1 POP SWAP2 SWAP1 POP JUMP JUMPDEST PUSH1 0x60 PUSH1 0x2 DUP1 SLOAD PUSH2 0x4A9 SWAP1 PUSH2 0x2F8A JUMP JUMPDEST DUP1 PUSH1 0x1F ADD PUSH1 0x20 DUP1 SWAP2 DIV MUL PUSH1 0x20 ADD PUSH1 0x40 MLOAD SWAP1 DUP2 ADD PUSH1 0x40 MSTORE DUP1 SWAP3 SWAP2 SWAP1 DUP2 DUP2 MSTORE PUSH1 0x20 ADD DUP3 DUP1 SLOAD PUSH2 0x4D5 SWAP1 PUSH2 0x2F8A JUMP JUMPDEST DUP1 ISZERO PUSH2 0x522 JUMPI DUP1 PUSH1 0x1F LT PUSH2 0x4F7 JUMPI PUSH2 0x100 DUP1 DUP4 SLOAD DIV MUL DUP4 MSTORE SWAP2 PUSH1 0x20 ADD SWAP2 PUSH2 0x522 JUMP JUMPDEST DUP3 ADD SWAP2 SWAP1 PUSH1 0x0 MSTORE PUSH1 0x20 PUSH1 0x0 KECCAK256 SWAP1 JUMPDEST DUP2 SLOAD DUP2 MSTORE SWAP1 PUSH1 0x1 ADD SWAP1 PUSH1 0x20 ADD DUP1 DUP4 GT PUSH2 0x505 JUMPI DUP3 SWAP1 SUB PUSH1 0x1F AND DUP3 ADD SWAP2 JUMPDEST POP POP POP POP POP SWAP1 POP SWAP2 SWAP1 POP JUMP JUMPDEST PUSH1 0x0 PUSH2 0x544 PUSH8 0x1360F09766CC9215 PUSH1 0xC0 SHL PUSH2 0x1809 JUMP JUMPDEST PUSH2 0x558 PUSH8 0xDDEC41759AE7B7F2 PUSH1 0xC0 SHL PUSH2 0x1809 JUMP JUMPDEST PUSH2 0x56C PUSH8 0x974E24BC410ADC22 PUSH1 0xC0 SHL PUSH2 0x1809 JUMP JUMPDEST PUSH2 0x580 PUSH8 0x4A417E6D5063BC04 PUSH1 0xC0 SHL PUSH2 0x1809 JUMP JUMPDEST DUP3 PUSH20 0xFFFFFFFFFFFFFFFFFFFFFFFFFFFFFFFFFFFFFFFF AND CALLER PUSH20 0xFFFFFFFFFFFFFFFFFFFFFFFFFFFFFFFFFFFFFFFF AND EQ PUSH2 0x5EE JUMPI PUSH1 0x40 MLOAD PUSH32 0x8C379A000000000000000000000000000000000000000000000000000000000 DUP2 MSTORE PUSH1 0x4 ADD PUSH2 0x5E5 SWAP1 PUSH2 0x302D JUMP JUMPDEST PUSH1 0x40 MLOAD DUP1 SWAP2 SUB SWAP1 REVERT JUMPDEST PUSH2 0x602 PUSH8 0x39E8478557BAD11D PUSH1 0xC0 SHL PUSH2 0x1809 JUMP JUMPDEST PUSH2 0x616 PUSH8 0x5BDF9EA6CC6F984C PUSH1 0xC0 SHL PUSH2 0x1809 JUMP JUMPDEST PUSH2 0x62A PUSH8 0xF13AB1B1E7C94C3C PUSH1 0xC0 SHL PUSH2 0x1809 JUMP JUMPDEST PUSH2 0x634 DUP4 DUP4 PUSH2 0x35E JUMP JUMPDEST SWAP1 POP SWAP3 SWAP2 POP POP JUMP JUMPDEST PUSH2 0x650 PUSH8 0x710397F176FE50F5 PUSH1 0xC0 SHL PUSH2 0x1809 JUMP JUMPDEST PUSH2 0x664 PUSH8 0x8006C694E8EFEAFE PUSH1 0xC0 SHL PUSH2 0x1809 JUMP JUMPDEST PUSH2 0x678 PUSH8 0x3328BE7C45F97449 PUSH1 0xC0 SHL PUSH2 0x1809 JUMP JUMPDEST PUSH2 0x68C PUSH8 0xAAB2124B508E9F53 PUSH1 0xC0 SHL PUSH2 0x1809 JUMP JUMPDEST PUSH1 0x3 PUSH1 0x4 PUSH1 0x0 CALLER PUSH20 0xFFFFFFFFFFFFFFFFFFFFFFFFFFFFFFFFFFFFFFFF AND PUSH20 0xFFFFFFFFFFFFFFFFFFFFFFFFFFFFFFFFFFFFFFFF AND DUP2 MSTORE PUSH1 0x20 ADD SWAP1 DUP2 MSTORE PUSH1 0x20 ADD PUSH1 0x0 KECCAK256 SLOAD PUSH2 0x6D8 SWAP2 SWAP1 PUSH2 0x307C JUMP JUMPDEST TIMESTAMP LT ISZERO PUSH2 0x71A JUMPI PUSH1 0x40 MLOAD PUSH32 0x8C379A000000000000000000000000000000000000000000000000000000000 DUP2 MSTORE PUSH1 0x4 ADD PUSH2 0x711 SWAP1 PUSH2 0x30FC JUMP JUMPDEST PUSH1 0x40 MLOAD DUP1 SWAP2 SUB SWAP1 REVERT JUMPDEST PUSH2 0x72E PUSH8 0x9D04149923382DA4 PUSH1 0xC0 SHL PUSH2 0x1809 JUMP JUMPDEST PUSH2 0x742 PUSH8 0xB146AF3C93609D60 PUSH1 0xC0 SHL PUSH2 0x1809 JUMP JUMPDEST TIMESTAMP PUSH1 0x4 PUSH1 0x0 CALLER PUSH20 0xFFFFFFFFFFFFFFFFFFFFFFFFFFFFFFFFFFFFFFFF AND PUSH20 0xFFFFFFFFFFFFFFFFFFFFFFFFFFFFFFFFFFFFFFFF AND DUP2 MSTORE PUSH1 0x20 ADD SWAP1 DUP2 MSTORE PUSH1 0x20 ADD PUSH1 0x0 KECCAK256 DUP2 SWAP1 SSTORE POP PUSH2 0x79A PUSH8 0xBBBDFBF319B9184E PUSH1 0xC0 SHL PUSH2 0x1809 JUMP JUMPDEST PUSH2 0x7AE PUSH8 0xD9E6FD8F0CF3448C PUSH1 0xC0 SHL PUSH2 0x1809 JUMP JUMPDEST PUSH2 0x7CB CALLER PUSH1 0x2 PUSH1 0x1 PUSH1 0x40 MLOAD DUP1 PUSH1 0x20 ADD PUSH1 0x40 MSTORE DUP1 PUSH1 0x0 DUP2 MSTORE POP PUSH2 0x180C JUMP JUMPDEST JUMP JUMPDEST PUSH1 0x0 PUSH2 0x7D7 PUSH2 0x18A5 JUMP JUMPDEST SWAP1 POP DUP1 PUSH20 0xFFFFFFFFFFFFFFFFFFFFFFFFFFFFFFFFFFFFFFFF AND DUP7 PUSH20 0xFFFFFFFFFFFFFFFFFFFFFFFFFFFFFFFFFFFFFFFF AND EQ ISZERO DUP1 ISZERO PUSH2 0x81C JUMPI POP PUSH2 0x81A DUP7 DUP3 PUSH2 0x130B JUMP JUMPDEST ISZERO JUMPDEST ISZERO PUSH2 0x860 JUMPI DUP1 DUP7 PUSH1 0x40 MLOAD PUSH32 0xE237D92200000000000000000000000000000000000000000000000000000000 DUP2 MSTORE PUSH1 0x4 ADD PUSH2 0x857 SWAP3 SWAP2 SWAP1 PUSH2 0x311C JUMP JUMPDEST PUSH1 0x40 MLOAD DUP1 SWAP2 SUB SWAP1 REVERT JUMPDEST PUSH2 0x86D DUP7 DUP7 DUP7 DUP7 DUP7 PUSH2 0x18AD JUMP JUMPDEST POP POP POP POP POP POP JUMP JUMPDEST PUSH2 0x889 PUSH8 0xFE4A2E1E15A3D283 PUSH1 0xC0 SHL PUSH2 0x1809 JUMP JUMPDEST PUSH2 0x89D PUSH8 0x2ECC2948B06935B4 PUSH1 0xC0 SHL PUSH2 0x1809 JUMP JUMPDEST PUSH2 0x8B1 PUSH8 0x5E79E05F99912586 PUSH1 0xC0 SHL PUSH2 0x1809 JUMP JUMPDEST PUSH2 0x8C5 PUSH8 0x28C74FFA1DACAEDE PUSH1 0xC0 SHL PUSH2 0x1809 JUMP JUMPDEST PUSH1 0x1 PUSH2 0x8D2 CALLER PUSH1 0x0 PUSH2 0x35E JUMP JUMPDEST LT ISZERO PUSH2 0x913 JUMPI PUSH1 0x40 MLOAD PUSH32 0x8C379A000000000000000000000000000000000000000000000000000000000 DUP2 MSTORE PUSH1 0x4 ADD PUSH2 0x90A SWAP1 PUSH2 0x31B7 JUMP JUMPDEST PUSH1 0x40 MLOAD DUP1 SWAP2 SUB SWAP1 REVERT JUMPDEST PUSH2 0x927 PUSH8 0x4DC75C442866A85C PUSH1 0xC0 SHL PUSH2 0x1809 JUMP JUMPDEST PUSH2 0x93B PUSH8 0xC70B60616FB97D26 PUSH1 0xC0 SHL PUSH2 0x1809 JUMP JUMPDEST PUSH2 0x94F PUSH8 0xD5D891773EF6088A PUSH1 0xC0 SHL PUSH2 0x1809 JUMP JUMPDEST PUSH2 0x963 PUSH8 0x25C45E2ABA1AA7A6 PUSH1 0xC0 SHL PUSH2 0x1809 JUMP JUMPDEST PUSH1 0x1 PUSH2 0x970 CALLER PUSH1 0x1 PUSH2 0x35E JUMP JUMPDEST LT ISZERO PUSH2 0x9B1 JUMPI PUSH1 0x40 MLOAD PUSH32 0x8C379A000000000000000000000000000000000000000000000000000000000 DUP2 MSTORE PUSH1 0x4 ADD PUSH2 0x9A8 SWAP1 PUSH2 0x3249 JUMP JUMPDEST PUSH1 0x40 MLOAD DUP1 SWAP2 SUB SWAP1 REVERT JUMPDEST PUSH2 0x9C5 PUSH8 0x42D670161CE9836B PUSH1 0xC0 SHL PUSH2 0x1809 JUMP JUMPDEST PUSH2 0x9D9 PUSH8 0xA6D9A13846C7C386 PUSH1 0xC0 SHL PUSH2 0x1809 JUMP JUMPDEST PUSH2 0x9ED PUSH8 0x40F92295B6B513D2 PUSH1 0xC0 SHL PUSH2 0x1809 JUMP JUMPDEST PUSH2 0x9FA CALLER PUSH1 0x0 PUSH1 0x1 PUSH2 0x19A5 JUMP JUMPDEST PUSH2 0xA0E PUSH8 0x53B7AA9F62C6992D PUSH1 0xC0 SHL PUSH2 0x1809 JUMP JUMPDEST PUSH2 0xA22 PUSH8 0xA903979C0722B18A PUSH1 0xC0 SHL PUSH2 0x1809 JUMP JUMPDEST PUSH2 0xA2E CALLER PUSH1 0x1 DUP1 PUSH2 0x19A5 JUMP JUMPDEST PUSH2 0xA42 PUSH8 0xD541BA0BC86CE232 PUSH1 0xC0 SHL PUSH2 0x1809 JUMP JUMPDEST PUSH2 0xA56 PUSH8 0x65B4E54D9B277FA6 PUSH1 0xC0 SHL PUSH2 0x1809 JUMP JUMPDEST PUSH2 0xA73 CALLER PUSH1 0x3 PUSH1 0x1 PUSH1 0x40 MLOAD DUP1 PUSH1 0x20 ADD PUSH1 0x40 MSTORE DUP1 PUSH1 0x0 DUP2 MSTORE POP PUSH2 0x180C JUMP JUMPDEST JUMP JUMPDEST PUSH1 0x60 DUP2 MLOAD DUP4 MLOAD EQ PUSH2 0xAC1 JUMPI DUP2 MLOAD DUP4 MLOAD PUSH1 0x40 MLOAD PUSH32 0x5B05999100000000000000000000000000000000000000000000000000000000 DUP2 MSTORE PUSH1 0x4 ADD PUSH2 0xAB8 SWAP3 SWAP2 SWAP1 PUSH2 0x3269 JUMP JUMPDEST PUSH1 0x40 MLOAD DUP1 SWAP2 SUB SWAP1 REVERT JUMPDEST PUSH1 0x0 DUP4 MLOAD PUSH8 0xFFFFFFFFFFFFFFFF DUP2 GT ISZERO PUSH2 0xADE JUMPI PUSH2 0xADD PUSH2 0x28DF JUMP JUMPDEST JUMPDEST PUSH1 0x40 MLOAD SWAP1 DUP1 DUP3 MSTORE DUP1 PUSH1 0x20 MUL PUSH1 0x20 ADD DUP3 ADD PUSH1 0x40 MSTORE DUP1 ISZERO PUSH2 0xB0C JUMPI DUP2 PUSH1 0x20 ADD PUSH1 0x20 DUP3 MUL DUP1 CALLDATASIZE DUP4 CALLDATACOPY DUP1 DUP3 ADD SWAP2 POP POP SWAP1 POP JUMPDEST POP SWAP1 POP PUSH1 0x0 JUMPDEST DUP5 MLOAD DUP2 LT ISZERO PUSH2 0xB73 JUMPI PUSH2 0xB49 PUSH2 0xB31 DUP3 DUP8 PUSH2 0x1A4C SWAP1 SWAP2 SWAP1 PUSH4 0xFFFFFFFF AND JUMP JUMPDEST PUSH2 0xB44 DUP4 DUP8 PUSH2 0x1A60 SWAP1 SWAP2 SWAP1 PUSH4 0xFFFFFFFF AND JUMP JUMPDEST PUSH2 0x35E JUMP JUMPDEST DUP3 DUP3 DUP2 MLOAD DUP2 LT PUSH2 0xB5C JUMPI PUSH2 0xB5B PUSH2 0x3292 JUMP JUMPDEST JUMPDEST PUSH1 0x20 MUL PUSH1 0x20 ADD ADD DUP2 DUP2 MSTORE POP POP DUP1 PUSH1 0x1 ADD SWAP1 POP PUSH2 0xB12 JUMP JUMPDEST POP DUP1 SWAP2 POP POP SWAP3 SWAP2 POP POP JUMP JUMPDEST PUSH1 0x4 PUSH1 0x20 MSTORE DUP1 PUSH1 0x0 MSTORE PUSH1 0x40 PUSH1 0x0 KECCAK256 PUSH1 0x0 SWAP2 POP SWAP1 POP SLOAD DUP2 JUMP JUMPDEST PUSH2 0xBAA PUSH8 0xC64CD43B0E117718 PUSH1 0xC0 SHL PUSH2 0x1809 JUMP JUMPDEST PUSH2 0xBBE PUSH8 0x7EB061D0A032CA7C PUSH1 0xC0 SHL PUSH2 0x1809 JUMP JUMPDEST PUSH2 0xBD2 PUSH8 0x5114C9B778A9E8F PUSH1 0xC0 SHL PUSH2 0x1809 JUMP JUMPDEST PUSH2 0xBE6 PUSH8 0x32A88C6A7BEB0CD6 PUSH1 0xC0 SHL PUSH2 0x1809 JUMP JUMPDEST PUSH1 0x1 PUSH2 0xBF3 CALLER PUSH1 0x0 PUSH2 0x35E JUMP JUMPDEST LT ISZERO PUSH2 0xC34 JUMPI PUSH1 0x40 MLOAD PUSH32 0x8C379A000000000000000000000000000000000000000000000000000000000 DUP2 MSTORE PUSH1 0x4 ADD PUSH2 0xC2B SWAP1 PUSH2 0x3333 JUMP JUMPDEST PUSH1 0x40 MLOAD DUP1 SWAP2 SUB SWAP1 REVERT JUMPDEST PUSH2 0xC48 PUSH8 0x59CF5FF6F55E2025 PUSH1 0xC0 SHL PUSH2 0x1809 JUMP JUMPDEST PUSH2 0xC5C PUSH8 0xC81849FB91E207AC PUSH1 0xC0 SHL PUSH2 0x1809 JUMP JUMPDEST PUSH2 0xC70 PUSH8 0x6BD0099FB055EA0A PUSH1 0xC0 SHL PUSH2 0x1809 JUMP JUMPDEST PUSH2 0xC84 PUSH8 0xDD6D5931E277745F PUSH1 0xC0 SHL PUSH2 0x1809 JUMP JUMPDEST PUSH1 0x1 PUSH2 0xC91 CALLER PUSH1 0x2 PUSH2 0x35E JUMP JUMPDEST LT ISZERO PUSH2 0xCD2 JUMPI PUSH1 0x40 MLOAD PUSH32 0x8C379A000000000000000000000000000000000000000000000000000000000 DUP2 MSTORE PUSH1 0x4 ADD PUSH2 0xCC9 SWAP1 PUSH2 0x33C5 JUMP JUMPDEST PUSH1 0x40 MLOAD DUP1 SWAP2 SUB SWAP1 REVERT JUMPDEST PUSH2 0xCE6 PUSH8 0x664250FA47D80460 PUSH1 0xC0 SHL PUSH2 0x1809 JUMP JUMPDEST PUSH2 0xCFA PUSH8 0xDADFFE1348DF93ED PUSH1 0xC0 SHL PUSH2 0x1809 JUMP JUMPDEST PUSH2 0xD0E PUSH8 0x7699B5BE0639F26A PUSH1 0xC0 SHL PUSH2 0x1809 JUMP JUMPDEST PUSH2 0xD1B CALLER PUSH1 0x0 PUSH1 0x1 PUSH2 0x19A5 JUMP JUMPDEST PUSH2 0xD2F PUSH8 0xD2429587D1D86AFB PUSH1 0xC0 SHL PUSH2 0x1809 JUMP JUMPDEST PUSH2 0xD43 PUSH8 0xF4633E00402FC8CB PUSH1 0xC0 SHL PUSH2 0x1809 JUMP JUMPDEST PUSH2 0xD50 CALLER PUSH1 0x2 PUSH1 0x1 PUSH2 0x19A5 JUMP JUMPDEST PUSH2 0xD64 PUSH8 0x4DC2A4A6E7A64E99 PUSH1 0xC0 SHL PUSH2 0x1809 JUMP JUMPDEST PUSH2 0xD78 PUSH8 0x8BB8E80964776854 PUSH1 0xC0 SHL PUSH2 0x1809 JUMP JUMPDEST PUSH2 0xD95 CALLER PUSH1 0x5 PUSH1 0x1 PUSH1 0x40 MLOAD DUP1 PUSH1 0x20 ADD PUSH1 0x40 MSTORE DUP1 PUSH1 0x0 DUP2 MSTORE POP PUSH2 0x180C JUMP JUMPDEST JUMP JUMPDEST PUSH2 0xD9F PUSH2 0x1A74 JUMP JUMPDEST PUSH2 0xDA9 PUSH1 0x0 PUSH2 0x1AFB JUMP JUMPDEST JUMP JUMPDEST PUSH1 0x0 PUSH1 0x3 PUSH1 0x0 SWAP1 SLOAD SWAP1 PUSH2 0x100 EXP SWAP1 DIV PUSH20 0xFFFFFFFFFFFFFFFFFFFFFFFFFFFFFFFFFFFFFFFF AND SWAP1 POP SWAP1 JUMP JUMPDEST PUSH2 0xDE7 PUSH2 0xDE0 PUSH2 0x18A5 JUMP JUMPDEST DUP4 DUP4 PUSH2 0x1BC1 JUMP JUMPDEST POP POP JUMP JUMPDEST PUSH2 0xDFF PUSH8 0x46BED5C3CC9F61BD PUSH1 0xC0 SHL PUSH2 0x1809 JUMP JUMPDEST PUSH2 0xE13 PUSH8 0x12F8A12E1B01219F PUSH1 0xC0 SHL PUSH2 0x1809 JUMP JUMPDEST PUSH2 0xE27 PUSH8 0x343A7589B9CEC7E1 PUSH1 0xC0 SHL PUSH2 0x1809 JUMP JUMPDEST PUSH2 0xE3B PUSH8 0x2C1C6E74ED75A913 PUSH1 0xC0 SHL PUSH2 0x1809 JUMP JUMPDEST PUSH1 0x1 PUSH2 0xE48 CALLER PUSH1 0x1 PUSH2 0x35E JUMP JUMPDEST LT ISZERO PUSH2 0xE89 JUMPI PUSH1 0x40 MLOAD PUSH32 0x8C379A000000000000000000000000000000000000000000000000000000000 DUP2 MSTORE PUSH1 0x4 ADD PUSH2 0xE80 SWAP1 PUSH2 0x3457 JUMP JUMPDEST PUSH1 0x40 MLOAD DUP1 SWAP2 SUB SWAP1 REVERT JUMPDEST PUSH2 0xE9D PUSH8 0x2ED8B37BD5051DB7 PUSH1 0xC0 SHL PUSH2 0x1809 JUMP JUMPDEST PUSH2 0xEB1 PUSH8 0xB551D07629BD9927 PUSH1 0xC0 SHL PUSH2 0x1809 JUMP JUMPDEST PUSH2 0xEC5 PUSH8 0x895DF05EA1BE7B97 PUSH1 0xC0 SHL PUSH2 0x1809 JUMP JUMPDEST PUSH2 0xED8 PUSH7 0x7FCCF45CF2107C PUSH1 0xC0 SHL PUSH2 0x1809 JUMP JUMPDEST PUSH1 0x1 PUSH2 0xEE5 CALLER PUSH1 0x2 PUSH2 0x35E JUMP JUMPDEST LT ISZERO PUSH2 0xF26 JUMPI PUSH1 0x40 MLOAD PUSH32 0x8C379A000000000000000000000000000000000000000000000000000000000 DUP2 MSTORE PUSH1 0x4 ADD PUSH2 0xF1D SWAP1 PUSH2 0x34E9 JUMP JUMPDEST PUSH1 0x40 MLOAD DUP1 SWAP2 SUB SWAP1 REVERT JUMPDEST PUSH2 0xF3A PUSH8 0x4E7FE9A0F1525C90 PUSH1 0xC0 SHL PUSH2 0x1809 JUMP JUMPDEST PUSH2 0xF4E PUSH8 0x8AAFF02D3AB50EEC PUSH1 0xC0 SHL PUSH2 0x1809 JUMP JUMPDEST PUSH2 0xF62 PUSH8 0x28EEDA6825A83678 PUSH1 0xC0 SHL PUSH2 0x1809 JUMP JUMPDEST PUSH2 0xF6E CALLER PUSH1 0x1 DUP1 PUSH2 0x19A5 JUMP JUMPDEST PUSH2 0xF82 PUSH8 0xC131AA4D154D8EE6 PUSH1 0xC0 SHL PUSH2 0x1809 JUMP JUMPDEST PUSH2 0xF96 PUSH8 0x2461E5CF1DBED204 PUSH1 0xC0 SHL PUSH2 0x1809 JUMP JUMPDEST PUSH2 0xFA3 CALLER PUSH1 0x2 PUSH1 0x1 PUSH2 0x19A5 JUMP JUMPDEST PUSH2 0xFB7 PUSH8 0xECF1B9147674F6C6 PUSH1 0xC0 SHL PUSH2 0x1809 JUMP JUMPDEST PUSH2 0xFCB PUSH8 0xABFBD27145F8F0B4 PUSH1 0xC0 SHL PUSH2 0x1809 JUMP JUMPDEST PUSH2 0xFE8 CALLER PUSH1 0x4 PUSH1 0x1 PUSH1 0x40 MLOAD DUP1 PUSH1 0x20 ADD PUSH1 0x40 MSTORE DUP1 PUSH1 0x0 DUP2 MSTORE POP PUSH2 0x180C JUMP JUMPDEST JUMP JUMPDEST PUSH2 0xFFE PUSH8 0x1D649A5592DCE37E PUSH1 0xC0 SHL PUSH2 0x1809 JUMP JUMPDEST PUSH2 0x1012 PUSH8 0x7A8805613BAA2C2D PUSH1 0xC0 SHL PUSH2 0x1809 JUMP JUMPDEST PUSH2 0x1026 PUSH8 0xF5A2E7D5C409EABF PUSH1 0xC0 SHL PUSH2 0x1809 JUMP JUMPDEST PUSH2 0x103A PUSH8 0x23648AD2A8AA19BC PUSH1 0xC0 SHL PUSH2 0x1809 JUMP JUMPDEST PUSH1 0x3 PUSH1 0x4 PUSH1 0x0 CALLER PUSH20 0xFFFFFFFFFFFFFFFFFFFFFFFFFFFFFFFFFFFFFFFF AND PUSH20 0xFFFFFFFFFFFFFFFFFFFFFFFFFFFFFFFFFFFFFFFF AND DUP2 MSTORE PUSH1 0x20 ADD SWAP1 DUP2 MSTORE PUSH1 0x20 ADD PUSH1 0x0 KECCAK256 SLOAD PUSH2 0x1086 SWAP2 SWAP1 PUSH2 0x307C JUMP JUMPDEST TIMESTAMP LT ISZERO PUSH2 0x10C8 JUMPI PUSH1 0x40 MLOAD PUSH32 0x8C379A000000000000000000000000000000000000000000000000000000000 DUP2 MSTORE PUSH1 0x4 ADD PUSH2 0x10BF SWAP1 PUSH2 0x30FC JUMP JUMPDEST PUSH1 0x40 MLOAD DUP1 SWAP2 SUB SWAP1 REVERT JUMPDEST PUSH2 0x10DC PUSH8 0x21A9319A4A6556B0 PUSH1 0xC0 SHL PUSH2 0x1809 JUMP JUMPDEST PUSH2 0x10F0 PUSH8 0x9E8F69D8808A897B PUSH1 0xC0 SHL PUSH2 0x1809 JUMP JUMPDEST TIMESTAMP PUSH1 0x4 PUSH1 0x0 CALLER PUSH20 0xFFFFFFFFFFFFFFFFFFFFFFFFFFFFFFFFFFFFFFFF AND PUSH20 0xFFFFFFFFFFFFFFFFFFFFFFFFFFFFFFFFFFFFFFFF AND DUP2 MSTORE PUSH1 0x20 ADD SWAP1 DUP2 MSTORE PUSH1 0x20 ADD PUSH1 0x0 KECCAK256 DUP2 SWAP1 SSTORE POP PUSH2 0x1148 PUSH8 0x7EDD956511FDF6CD PUSH1 0xC0 SHL PUSH2 0x1809 JUMP JUMPDEST PUSH2 0x115C PUSH8 0x735C50342723BA8D PUSH1 0xC0 SHL PUSH2 0x1809 JUMP JUMPDEST PUSH2 0x1179 CALLER PUSH1 0x0 PUSH1 0x1 PUSH1 0x40 MLOAD DUP1 PUSH1 0x20 ADD PUSH1 0x40 MSTORE DUP1 PUSH1 0x0 DUP2 MSTORE POP PUSH2 0x180C JUMP JUMPDEST JUMP JUMPDEST PUSH2 0x118F PUSH8 0x62780F56B793483 PUSH1 0xC0 SHL PUSH2 0x1809 JUMP JUMPDEST PUSH2 0x11A3 PUSH8 0x8D1E9B4752849D8B PUSH1 0xC0 SHL PUSH2 0x1809 JUMP JUMPDEST PUSH2 0x11B7 PUSH8 0x98B035CAD041066D PUSH1 0xC0 SHL PUSH2 0x1809 JUMP JUMPDEST PUSH2 0x11CB PUSH8 0xBFA100DF38D71852 PUSH1 0xC0 SHL PUSH2 0x1809 JUMP JUMPDEST PUSH1 0x3 PUSH1 0x4 PUSH1 0x0 CALLER PUSH20 0xFFFFFFFFFFFFFFFFFFFFFFFFFFFFFFFFFFFFFFFF AND PUSH20 0xFFFFFFFFFFFFFFFFFFFFFFFFFFFFFFFFFFFFFFFF AND DUP2 MSTORE PUSH1 0x20 ADD SWAP1 DUP2 MSTORE PUSH1 0x20 ADD PUSH1 0x0 KECCAK256 SLOAD PUSH2 0x1217 SWAP2 SWAP1 PUSH2 0x307C JUMP JUMPDEST TIMESTAMP LT ISZERO PUSH2 0x1259 JUMPI PUSH1 0x40 MLOAD PUSH32 0x8C379A000000000000000000000000000000000000000000000000000000000 DUP2 MSTORE PUSH1 0x4 ADD PUSH2 0x1250 SWAP1 PUSH2 0x30FC JUMP JUMPDEST PUSH1 0x40 MLOAD DUP1 SWAP2 SUB SWAP1 REVERT JUMPDEST PUSH2 0x126D PUSH8 0x8DAECD594A0E3661 PUSH1 0xC0 SHL PUSH2 0x1809 JUMP JUMPDEST PUSH2 0x1281 PUSH8 0xBA92C0D19E5C903 PUSH1 0xC0 SHL PUSH2 0x1809 JUMP JUMPDEST TIMESTAMP PUSH1 0x4 PUSH1 0x0 CALLER PUSH20 0xFFFFFFFFFFFFFFFFFFFFFFFFFFFFFFFFFFFFFFFF AND PUSH20 0xFFFFFFFFFFFFFFFFFFFFFFFFFFFFFFFFFFFFFFFF AND DUP2 MSTORE PUSH1 0x20 ADD SWAP1 DUP2 MSTORE PUSH1 0x20 ADD PUSH1 0x0 KECCAK256 DUP2 SWAP1 SSTORE POP PUSH2 0x12D9 PUSH8 0xF43AD25A247C147 PUSH1 0xC0 SHL PUSH2 0x1809 JUMP JUMPDEST PUSH2 0x12ED PUSH8 0xE9E91C701B64319D PUSH1 0xC0 SHL PUSH2 0x1809 JUMP JUMPDEST PUSH2 0x1309 CALLER PUSH1 0x1 DUP1 PUSH1 0x40 MLOAD DUP1 PUSH1 0x20 ADD PUSH1 0x40 MSTORE DUP1 PUSH1 0x0 DUP2 MSTORE POP PUSH2 0x180C JUMP JUMPDEST JUMP JUMPDEST PUSH1 0x0 PUSH1 0x1 PUSH1 0x0 DUP5 PUSH20 0xFFFFFFFFFFFFFFFFFFFFFFFFFFFFFFFFFFFFFFFF AND PUSH20 0xFFFFFFFFFFFFFFFFFFFFFFFFFFFFFFFFFFFFFFFF AND DUP2 MSTORE PUSH1 0x20 ADD SWAP1 DUP2 MSTORE PUSH1 0x20 ADD PUSH1 0x0 KECCAK256 PUSH1 0x0 DUP4 PUSH20 0xFFFFFFFFFFFFFFFFFFFFFFFFFFFFFFFFFFFFFFFF AND PUSH20 0xFFFFFFFFFFFFFFFFFFFFFFFFFFFFFFFFFFFFFFFF AND DUP2 MSTORE PUSH1 0x20 ADD SWAP1 DUP2 MSTORE PUSH1 0x20 ADD PUSH1 0x0 KECCAK256 PUSH1 0x0 SWAP1 SLOAD SWAP1 PUSH2 0x100 EXP SWAP1 DIV PUSH1 0xFF AND SWAP1 POP SWAP3 SWAP2 POP POP JUMP JUMPDEST PUSH2 0x13B3 PUSH8 0x5C5482E920CC4E43 PUSH1 0xC0 SHL PUSH2 0x1809 JUMP JUMPDEST PUSH2 0x13C7 PUSH8 0x8421CF1C0C8E2193 PUSH1 0xC0 SHL PUSH2 0x1809 JUMP JUMPDEST PUSH2 0x13DB PUSH8 0xE9101FD8EB5C71EB PUSH1 0xC0 SHL PUSH2 0x1809 JUMP JUMPDEST PUSH2 0x13EF PUSH8 0x86BAE818ABFC0BDE PUSH1 0xC0 SHL PUSH2 0x1809 JUMP JUMPDEST PUSH1 0x1 PUSH2 0x13FC CALLER PUSH1 0x0 PUSH2 0x35E JUMP JUMPDEST LT ISZERO PUSH2 0x143D JUMPI PUSH1 0x40 MLOAD PUSH32 0x8C379A000000000000000000000000000000000000000000000000000000000 DUP2 MSTORE PUSH1 0x4 ADD PUSH2 0x1434 SWAP1 PUSH2 0x357B JUMP JUMPDEST PUSH1 0x40 MLOAD DUP1 SWAP2 SUB SWAP1 REVERT JUMPDEST PUSH2 0x1450 PUSH7 0x4E36612AF103AC PUSH1 0xC0 SHL PUSH2 0x1809 JUMP JUMPDEST PUSH2 0x1464 PUSH8 0x65C8F80DE2C1FA0B PUSH1 0xC0 SHL PUSH2 0x1809 JUMP JUMPDEST PUSH2 0x1478 PUSH8 0xA9CC5A5513021C88 PUSH1 0xC0 SHL PUSH2 0x1809 JUMP JUMPDEST PUSH2 0x148C PUSH8 0xEAED8A3D27727637 PUSH1 0xC0 SHL PUSH2 0x1809 JUMP JUMPDEST PUSH1 0x1 PUSH2 0x1499 CALLER PUSH1 0x1 PUSH2 0x35E JUMP JUMPDEST LT ISZERO PUSH2 0x14DA JUMPI PUSH1 0x40 MLOAD PUSH32 0x8C379A000000000000000000000000000000000000000000000000000000000 DUP2 MSTORE PUSH1 0x4 ADD PUSH2 0x14D1 SWAP1 PUSH2 0x360D JUMP JUMPDEST PUSH1 0x40 MLOAD DUP1 SWAP2 SUB SWAP1 REVERT JUMPDEST PUSH2 0x14EE PUSH8 0x5DBCD1584AE5DBDD PUSH1 0xC0 SHL PUSH2 0x1809 JUMP JUMPDEST PUSH2 0x1502 PUSH8 0x55E4E5CA234A31FB PUSH1 0xC0 SHL PUSH2 0x1809 JUMP JUMPDEST PUSH2 0x1516 PUSH8 0x76D53B0555DCE4D8 PUSH1 0xC0 SHL PUSH2 0x1809 JUMP JUMPDEST PUSH2 0x152A PUSH8 0xA1DD1F7B8EF9A6D PUSH1 0xC0 SHL PUSH2 0x1809 JUMP JUMPDEST PUSH1 0x1 PUSH2 0x1537 CALLER PUSH1 0x2 PUSH2 0x35E JUMP JUMPDEST LT ISZERO PUSH2 0x1578 JUMPI PUSH1 0x40 MLOAD PUSH32 0x8C379A000000000000000000000000000000000000000000000000000000000 DUP2 MSTORE PUSH1 0x4 ADD PUSH2 0x156F SWAP1 PUSH2 0x369F JUMP JUMPDEST PUSH1 0x40 MLOAD DUP1 SWAP2 SUB SWAP1 REVERT JUMPDEST PUSH2 0x158C PUSH8 0x81549D92B6F7F8FC PUSH1 0xC0 SHL PUSH2 0x1809 JUMP JUMPDEST PUSH2 0x15A0 PUSH8 0xEB0E3F183D8C0513 PUSH1 0xC0 SHL PUSH2 0x1809 JUMP JUMPDEST PUSH2 0x15B4 PUSH8 0xE2E27D4B6BECC56E PUSH1 0xC0 SHL PUSH2 0x1809 JUMP JUMPDEST PUSH2 0x15C1 CALLER PUSH1 0x0 PUSH1 0x1 PUSH2 0x19A5 JUMP JUMPDEST PUSH2 0x15D5 PUSH8 0x668C188C524D312D PUSH1 0xC0 SHL PUSH2 0x1809 JUMP JUMPDEST PUSH2 0x15E9 PUSH8 0xFB1F6BEC43D9801F PUSH1 0xC0 SHL PUSH2 0x1809 JUMP JUMPDEST PUSH2 0x15F5 CALLER PUSH1 0x1 DUP1 PUSH2 0x19A5 JUMP JUMPDEST PUSH2 0x1609 PUSH8 0x77297AAB62F7CE88 PUSH1 0xC0 SHL PUSH2 0x1809 JUMP JUMPDEST PUSH2 0x161D PUSH8 0xB9AD112E02239CEB PUSH1 0xC0 SHL PUSH2 0x1809 JUMP JUMPDEST PUSH2 0x162A CALLER PUSH1 0x2 PUSH1 0x1 PUSH2 0x19A5 JUMP JUMPDEST PUSH2 0x163E PUSH8 0xF08BB0C053743C94 PUSH1 0xC0 SHL PUSH2 0x1809 JUMP JUMPDEST PUSH2 0x1652 PUSH8 0xA09315C33A80D1F2 PUSH1 0xC0 SHL PUSH2 0x1809 JUMP JUMPDEST PUSH2 0x166F CALLER PUSH1 0x6 PUSH1 0x1 PUSH1 0x40 MLOAD DUP1 PUSH1 0x20 ADD PUSH1 0x40 MSTORE DUP1 PUSH1 0x0 DUP2 MSTORE POP PUSH2 0x180C JUMP JUMPDEST JUMP JUMPDEST PUSH1 0x0 PUSH2 0x167B PUSH2 0x18A5 JUMP JUMPDEST SWAP1 POP DUP1 PUSH20 0xFFFFFFFFFFFFFFFFFFFFFFFFFFFFFFFFFFFFFFFF AND DUP7 PUSH20 0xFFFFFFFFFFFFFFFFFFFFFFFFFFFFFFFFFFFFFFFF AND EQ ISZERO DUP1 ISZERO PUSH2 0x16C0 JUMPI POP PUSH2 0x16BE DUP7 DUP3 PUSH2 0x130B JUMP JUMPDEST ISZERO JUMPDEST ISZERO PUSH2 0x1704 JUMPI DUP1 DUP7 PUSH1 0x40 MLOAD PUSH32 0xE237D92200000000000000000000000000000000000000000000000000000000 DUP2 MSTORE PUSH1 0x4 ADD PUSH2 0x16FB SWAP3 SWAP2 SWAP1 PUSH2 0x311C JUMP JUMPDEST PUSH1 0x40 MLOAD DUP1 SWAP2 SUB SWAP1 REVERT JUMPDEST PUSH2 0x1711 DUP7 DUP7 DUP7 DUP7 DUP7 PUSH2 0x1D31 JUMP JUMPDEST POP POP POP POP POP POP JUMP JUMPDEST PUSH2 0x1721 PUSH2 0x1A74 JUMP JUMPDEST PUSH1 0x0 PUSH20 0xFFFFFFFFFFFFFFFFFFFFFFFFFFFFFFFFFFFFFFFF AND DUP2 PUSH20 0xFFFFFFFFFFFFFFFFFFFFFFFFFFFFFFFFFFFFFFFF AND SUB PUSH2 0x1793 JUMPI PUSH1 0x0 PUSH1 0x40 MLOAD PUSH32 0x1E4FBDF700000000000000000000000000000000000000000000000000000000 DUP2 MSTORE PUSH1 0x4 ADD PUSH2 0x178A SWAP2 SWAP1 PUSH2 0x2DFD JUMP JUMPDEST PUSH1 0x40 MLOAD DUP1 SWAP2 SUB SWAP1 REVERT JUMPDEST PUSH2 0x179C DUP2 PUSH2 0x1AFB JUMP JUMPDEST POP JUMP JUMPDEST PUSH1 0x0 PUSH32 0x1FFC9A700000000000000000000000000000000000000000000000000000000 PUSH28 0xFFFFFFFFFFFFFFFFFFFFFFFFFFFFFFFFFFFFFFFFFFFFFFFFFFFFFFFF NOT AND DUP3 PUSH28 0xFFFFFFFFFFFFFFFFFFFFFFFFFFFFFFFFFFFFFFFFFFFFFFFFFFFFFFFF NOT AND EQ SWAP1 POP SWAP2 SWAP1 POP JUMP JUMPDEST POP JUMP JUMPDEST PUSH1 0x0 PUSH20 0xFFFFFFFFFFFFFFFFFFFFFFFFFFFFFFFFFFFFFFFF AND DUP5 PUSH20 0xFFFFFFFFFFFFFFFFFFFFFFFFFFFFFFFFFFFFFFFF AND SUB PUSH2 0x187E JUMPI PUSH1 0x0 PUSH1 0x40 MLOAD PUSH32 0x57F447CE00000000000000000000000000000000000000000000000000000000 DUP2 MSTORE PUSH1 0x4 ADD PUSH2 0x1875 SWAP2 SWAP1 PUSH2 0x2DFD JUMP JUMPDEST PUSH1 0x40 MLOAD DUP1 SWAP2 SUB SWAP1 REVERT JUMPDEST PUSH1 0x0 DUP1 PUSH2 0x188B DUP6 DUP6 PUSH2 0x1E3C JUMP JUMPDEST SWAP2 POP SWAP2 POP PUSH2 0x189D PUSH1 0x0 DUP8 DUP5 DUP5 DUP8 PUSH2 0x1E6C JUMP JUMPDEST POP POP POP POP POP POP JUMP JUMPDEST PUSH1 0x0 CALLER SWAP1 POP SWAP1 JUMP JUMPDEST PUSH1 0x0 PUSH20 0xFFFFFFFFFFFFFFFFFFFFFFFFFFFFFFFFFFFFFFFF AND DUP5 PUSH20 0xFFFFFFFFFFFFFFFFFFFFFFFFFFFFFFFFFFFFFFFF AND SUB PUSH2 0x191F JUMPI PUSH1 0x0 PUSH1 0x40 MLOAD PUSH32 0x57F447CE00000000000000000000000000000000000000000000000000000000 DUP2 MSTORE PUSH1 0x4 ADD PUSH2 0x1916 SWAP2 SWAP1 PUSH2 0x2DFD JUMP JUMPDEST PUSH1 0x40 MLOAD DUP1 SWAP2 SUB SWAP1 REVERT JUMPDEST PUSH1 0x0 PUSH20 0xFFFFFFFFFFFFFFFFFFFFFFFFFFFFFFFFFFFFFFFF AND DUP6 PUSH20 0xFFFFFFFFFFFFFFFFFFFFFFFFFFFFFFFFFFFFFFFF AND SUB PUSH2 0x1991 JUMPI PUSH1 0x0 PUSH1 0x40 MLOAD PUSH32 0x1A8351400000000000000000000000000000000000000000000000000000000 DUP2 MSTORE PUSH1 0x4 ADD PUSH2 0x1988 SWAP2 SWAP1 PUSH2 0x2DFD JUMP JUMPDEST PUSH1 0x40 MLOAD DUP1 SWAP2 SUB SWAP1 REVERT JUMPDEST PUSH2 0x199E DUP6 DUP6 DUP6 DUP6 DUP6 PUSH2 0x1E6C JUMP JUMPDEST POP POP POP POP POP JUMP JUMPDEST PUSH1 0x0 PUSH20 0xFFFFFFFFFFFFFFFFFFFFFFFFFFFFFFFFFFFFFFFF AND DUP4 PUSH20 0xFFFFFFFFFFFFFFFFFFFFFFFFFFFFFFFFFFFFFFFF AND SUB PUSH2 0x1A17 JUMPI PUSH1 0x0 PUSH1 0x40 MLOAD PUSH32 0x1A8351400000000000000000000000000000000000000000000000000000000 DUP2 MSTORE PUSH1 0x4 ADD PUSH2 0x1A0E SWAP2 SWAP1 PUSH2 0x2DFD JUMP JUMPDEST PUSH1 0x40 MLOAD DUP1 SWAP2 SUB SWAP1 REVERT JUMPDEST PUSH1 0x0 DUP1 PUSH2 0x1A24 DUP5 DUP5 PUSH2 0x1E3C JUMP JUMPDEST SWAP2 POP SWAP2 POP PUSH2 0x1A45 DUP6 PUSH1 0x0 DUP5 DUP5 PUSH1 0x40 MLOAD DUP1 PUSH1 0x20 ADD PUSH1 0x40 MSTORE DUP1 PUSH1 0x0 DUP2 MSTORE POP PUSH2 0x1E6C JUMP JUMPDEST POP POP POP POP POP JUMP JUMPDEST PUSH1 0x0 PUSH1 0x20 DUP3 MUL PUSH1 0x20 DUP5 ADD ADD MLOAD SWAP1 POP SWAP3 SWAP2 POP POP JUMP JUMPDEST PUSH1 0x0 PUSH1 0x20 DUP3 MUL PUSH1 0x20 DUP5 ADD ADD MLOAD SWAP1 POP SWAP3 SWAP2 POP POP JUMP JUMPDEST PUSH2 0x1A7C PUSH2 0x18A5 JUMP JUMPDEST PUSH20 0xFFFFFFFFFFFFFFFFFFFFFFFFFFFFFFFFFFFFFFFF AND PUSH2 0x1A9A PUSH2 0xDAB JUMP JUMPDEST PUSH20 0xFFFFFFFFFFFFFFFFFFFFFFFFFFFFFFFFFFFFFFFF AND EQ PUSH2 0x1AF9 JUMPI PUSH2 0x1ABD PUSH2 0x18A5 JUMP JUMPDEST PUSH1 0x40 MLOAD PUSH32 0x118CDAA700000000000000000000000000000000000000000000000000000000 DUP2 MSTORE PUSH1 0x4 ADD PUSH2 0x1AF0 SWAP2 SWAP1 PUSH2 0x2DFD JUMP JUMPDEST PUSH1 0x40 MLOAD DUP1 SWAP2 SUB SWAP1 REVERT JUMPDEST JUMP JUMPDEST PUSH1 0x0 PUSH1 0x3 PUSH1 0x0 SWAP1 SLOAD SWAP1 PUSH2 0x100 EXP SWAP1 DIV PUSH20 0xFFFFFFFFFFFFFFFFFFFFFFFFFFFFFFFFFFFFFFFF AND SWAP1 POP DUP2 PUSH1 0x3 PUSH1 0x0 PUSH2 0x100 EXP DUP2 SLOAD DUP2 PUSH20 0xFFFFFFFFFFFFFFFFFFFFFFFFFFFFFFFFFFFFFFFF MUL NOT AND SWAP1 DUP4 PUSH20 0xFFFFFFFFFFFFFFFFFFFFFFFFFFFFFFFFFFFFFFFF AND MUL OR SWAP1 SSTORE POP DUP2 PUSH20 0xFFFFFFFFFFFFFFFFFFFFFFFFFFFFFFFFFFFFFFFF AND DUP2 PUSH20 0xFFFFFFFFFFFFFFFFFFFFFFFFFFFFFFFFFFFFFFFF AND PUSH32 0x8BE0079C531659141344CD1FD0A4F28419497F9722A3DAAFE3B4186F6B6457E0 PUSH1 0x40 MLOAD PUSH1 0x40 MLOAD DUP1 SWAP2 SUB SWAP1 LOG3 POP POP JUMP JUMPDEST PUSH1 0x0 PUSH20 0xFFFFFFFFFFFFFFFFFFFFFFFFFFFFFFFFFFFFFFFF AND DUP3 PUSH20 0xFFFFFFFFFFFFFFFFFFFFFFFFFFFFFFFFFFFFFFFF AND SUB PUSH2 0x1C33 JUMPI PUSH1 0x0 PUSH1 0x40 MLOAD PUSH32 0xCED3E10000000000000000000000000000000000000000000000000000000000 DUP2 MSTORE PUSH1 0x4 ADD PUSH2 0x1C2A SWAP2 SWAP1 PUSH2 0x2DFD JUMP JUMPDEST PUSH1 0x40 MLOAD DUP1 SWAP2 SUB SWAP1 REVERT JUMPDEST DUP1 PUSH1 0x1 PUSH1 0x0 DUP6 PUSH20 0xFFFFFFFFFFFFFFFFFFFFFFFFFFFFFFFFFFFFFFFF AND PUSH20 0xFFFFFFFFFFFFFFFFFFFFFFFFFFFFFFFFFFFFFFFF AND DUP2 MSTORE PUSH1 0x20 ADD SWAP1 DUP2 MSTORE PUSH1 0x20 ADD PUSH1 0x0 KECCAK256 PUSH1 0x0 DUP5 PUSH20 0xFFFFFFFFFFFFFFFFFFFFFFFFFFFFFFFFFFFFFFFF AND PUSH20 0xFFFFFFFFFFFFFFFFFFFFFFFFFFFFFFFFFFFFFFFF AND DUP2 MSTORE PUSH1 0x20 ADD SWAP1 DUP2 MSTORE PUSH1 0x20 ADD PUSH1 0x0 KECCAK256 PUSH1 0x0 PUSH2 0x100 EXP DUP2 SLOAD DUP2 PUSH1 0xFF MUL NOT AND SWAP1 DUP4 ISZERO ISZERO MUL OR SWAP1 SSTORE POP DUP2 PUSH20 0xFFFFFFFFFFFFFFFFFFFFFFFFFFFFFFFFFFFFFFFF AND DUP4 PUSH20 0xFFFFFFFFFFFFFFFFFFFFFFFFFFFFFFFFFFFFFFFF AND PUSH32 0x17307EAB39AB6107E8899845AD3D59BD9653F200F220920489CA2B5937696C31 DUP4 PUSH1 0x40 MLOAD PUSH2 0x1D24 SWAP2 SWAP1 PUSH2 0x27E0 JUMP JUMPDEST PUSH1 0x40 MLOAD DUP1 SWAP2 SUB SWAP1 LOG3 POP POP POP JUMP JUMPDEST PUSH1 0x0 PUSH20 0xFFFFFFFFFFFFFFFFFFFFFFFFFFFFFFFFFFFFFFFF AND DUP5 PUSH20 0xFFFFFFFFFFFFFFFFFFFFFFFFFFFFFFFFFFFFFFFF AND SUB PUSH2 0x1DA3 JUMPI PUSH1 0x0 PUSH1 0x40 MLOAD PUSH32 0x57F447CE00000000000000000000000000000000000000000000000000000000 DUP2 MSTORE PUSH1 0x4 ADD PUSH2 0x1D9A SWAP2 SWAP1 PUSH2 0x2DFD JUMP JUMPDEST PUSH1 0x40 MLOAD DUP1 SWAP2 SUB SWAP1 REVERT JUMPDEST PUSH1 0x0 PUSH20 0xFFFFFFFFFFFFFFFFFFFFFFFFFFFFFFFFFFFFFFFF AND DUP6 PUSH20 0xFFFFFFFFFFFFFFFFFFFFFFFFFFFFFFFFFFFFFFFF AND SUB PUSH2 0x1E15 JUMPI PUSH1 0x0 PUSH1 0x40 MLOAD PUSH32 0x1A8351400000000000000000000000000000000000000000000000000000000 DUP2 MSTORE PUSH1 0x4 ADD PUSH2 0x1E0C SWAP2 SWAP1 PUSH2 0x2DFD JUMP JUMPDEST PUSH1 0x40 MLOAD DUP1 SWAP2 SUB SWAP1 REVERT JUMPDEST PUSH1 0x0 DUP1 PUSH2 0x1E22 DUP6 DUP6 PUSH2 0x1E3C JUMP JUMPDEST SWAP2 POP SWAP2 POP PUSH2 0x1E33 DUP8 DUP8 DUP5 DUP5 DUP8 PUSH2 0x1E6C JUMP JUMPDEST POP POP POP POP POP POP POP JUMP JUMPDEST PUSH1 0x60 DUP1 PUSH1 0x40 MLOAD SWAP2 POP PUSH1 0x1 DUP3 MSTORE DUP4 PUSH1 0x20 DUP4 ADD MSTORE PUSH1 0x40 DUP3 ADD SWAP1 POP PUSH1 0x1 DUP2 MSTORE DUP3 PUSH1 0x20 DUP3 ADD MSTORE PUSH1 0x40 DUP2 ADD PUSH1 0x40 MSTORE SWAP3 POP SWAP3 SWAP1 POP JUMP JUMPDEST PUSH2 0x1E78 DUP6 DUP6 DUP6 DUP6 PUSH2 0x1F1E JUMP JUMPDEST PUSH1 0x0 PUSH20 0xFFFFFFFFFFFFFFFFFFFFFFFFFFFFFFFFFFFFFFFF AND DUP5 PUSH20 0xFFFFFFFFFFFFFFFFFFFFFFFFFFFFFFFFFFFFFFFF AND EQ PUSH2 0x1F17 JUMPI PUSH1 0x0 PUSH2 0x1EB6 PUSH2 0x18A5 JUMP JUMPDEST SWAP1 POP PUSH1 0x1 DUP5 MLOAD SUB PUSH2 0x1F06 JUMPI PUSH1 0x0 PUSH2 0x1ED7 PUSH1 0x0 DUP7 PUSH2 0x1A60 SWAP1 SWAP2 SWAP1 PUSH4 0xFFFFFFFF AND JUMP JUMPDEST SWAP1 POP PUSH1 0x0 PUSH2 0x1EEF PUSH1 0x0 DUP7 PUSH2 0x1A60 SWAP1 SWAP2 SWAP1 PUSH4 0xFFFFFFFF AND JUMP JUMPDEST SWAP1 POP PUSH2 0x1EFF DUP4 DUP10 DUP10 DUP6 DUP6 DUP10 PUSH2 0x22C6 JUMP JUMPDEST POP POP PUSH2 0x1F15 JUMP JUMPDEST PUSH2 0x1F14 DUP2 DUP8 DUP8 DUP8 DUP8 DUP8 PUSH2 0x247A JUMP JUMPDEST JUMPDEST POP JUMPDEST POP POP POP POP POP JUMP JUMPDEST DUP1 MLOAD DUP3 MLOAD EQ PUSH2 0x1F68 JUMPI DUP2 MLOAD DUP2 MLOAD PUSH1 0x40 MLOAD PUSH32 0x5B05999100000000000000000000000000000000000000000000000000000000 DUP2 MSTORE PUSH1 0x4 ADD PUSH2 0x1F5F SWAP3 SWAP2 SWAP1 PUSH2 0x3269 JUMP JUMPDEST PUSH1 0x40 MLOAD DUP1 SWAP2 SUB SWAP1 REVERT JUMPDEST PUSH1 0x0 PUSH2 0x1F72 PUSH2 0x18A5 JUMP JUMPDEST SWAP1 POP PUSH1 0x0 JUMPDEST DUP4 MLOAD DUP2 LT ISZERO PUSH2 0x2181 JUMPI PUSH1 0x0 PUSH2 0x1F95 DUP3 DUP7 PUSH2 0x1A60 SWAP1 SWAP2 SWAP1 PUSH4 0xFFFFFFFF AND JUMP JUMPDEST SWAP1 POP PUSH1 0x0 PUSH2 0x1FAC DUP4 DUP7 PUSH2 0x1A60 SWAP1 SWAP2 SWAP1 PUSH4 0xFFFFFFFF AND JUMP JUMPDEST SWAP1 POP PUSH1 0x0 PUSH20 0xFFFFFFFFFFFFFFFFFFFFFFFFFFFFFFFFFFFFFFFF AND DUP9 PUSH20 0xFFFFFFFFFFFFFFFFFFFFFFFFFFFFFFFFFFFFFFFF AND EQ PUSH2 0x20D9 JUMPI PUSH1 0x0 DUP1 PUSH1 0x0 DUP5 DUP2 MSTORE PUSH1 0x20 ADD SWAP1 DUP2 MSTORE PUSH1 0x20 ADD PUSH1 0x0 KECCAK256 PUSH1 0x0 DUP11 PUSH20 0xFFFFFFFFFFFFFFFFFFFFFFFFFFFFFFFFFFFFFFFF AND PUSH20 0xFFFFFFFFFFFFFFFFFFFFFFFFFFFFFFFFFFFFFFFF AND DUP2 MSTORE PUSH1 0x20 ADD SWAP1 DUP2 MSTORE PUSH1 0x20 ADD PUSH1 0x0 KECCAK256 SLOAD SWAP1 POP DUP2 DUP2 LT ISZERO PUSH2 0x2081 JUMPI DUP9 DUP2 DUP4 DUP6 PUSH1 0x40 MLOAD PUSH32 0x3DEE4C500000000000000000000000000000000000000000000000000000000 DUP2 MSTORE PUSH1 0x4 ADD PUSH2 0x2078 SWAP5 SWAP4 SWAP3 SWAP2 SWAP1 PUSH2 0x36BF JUMP JUMPDEST PUSH1 0x40 MLOAD DUP1 SWAP2 SUB SWAP1 REVERT JUMPDEST DUP2 DUP2 SUB PUSH1 0x0 DUP1 DUP6 DUP2 MSTORE PUSH1 0x20 ADD SWAP1 DUP2 MSTORE PUSH1 0x20 ADD PUSH1 0x0 KECCAK256 PUSH1 0x0 DUP12 PUSH20 0xFFFFFFFFFFFFFFFFFFFFFFFFFFFFFFFFFFFFFFFF AND PUSH20 0xFFFFFFFFFFFFFFFFFFFFFFFFFFFFFFFFFFFFFFFF AND DUP2 MSTORE PUSH1 0x20 ADD SWAP1 DUP2 MSTORE PUSH1 0x20 ADD PUSH1 0x0 KECCAK256 DUP2 SWAP1 SSTORE POP POP JUMPDEST PUSH1 0x0 PUSH20 0xFFFFFFFFFFFFFFFFFFFFFFFFFFFFFFFFFFFFFFFF AND DUP8 PUSH20 0xFFFFFFFFFFFFFFFFFFFFFFFFFFFFFFFFFFFFFFFF AND EQ PUSH2 0x2174 JUMPI DUP1 PUSH1 0x0 DUP1 DUP5 DUP2 MSTORE PUSH1 0x20 ADD SWAP1 DUP2 MSTORE PUSH1 0x20 ADD PUSH1 0x0 KECCAK256 PUSH1 0x0 DUP10 PUSH20 0xFFFFFFFFFFFFFFFFFFFFFFFFFFFFFFFFFFFFFFFF AND PUSH20 0xFFFFFFFFFFFFFFFFFFFFFFFFFFFFFFFFFFFFFFFF AND DUP2 MSTORE PUSH1 0x20 ADD SWAP1 DUP2 MSTORE PUSH1 0x20 ADD PUSH1 0x0 KECCAK256 PUSH1 0x0 DUP3 DUP3 SLOAD PUSH2 0x216C SWAP2 SWAP1 PUSH2 0x307C JUMP JUMPDEST SWAP3 POP POP DUP2 SWAP1 SSTORE POP JUMPDEST POP POP DUP1 PUSH1 0x1 ADD SWAP1 POP PUSH2 0x1F77 JUMP JUMPDEST POP PUSH1 0x1 DUP4 MLOAD SUB PUSH2 0x2240 JUMPI PUSH1 0x0 PUSH2 0x21A1 PUSH1 0x0 DUP6 PUSH2 0x1A60 SWAP1 SWAP2 SWAP1 PUSH4 0xFFFFFFFF AND JUMP JUMPDEST SWAP1 POP PUSH1 0x0 PUSH2 0x21B9 PUSH1 0x0 DUP6 PUSH2 0x1A60 SWAP1 SWAP2 SWAP1 PUSH4 0xFFFFFFFF AND JUMP JUMPDEST SWAP1 POP DUP6 PUSH20 0xFFFFFFFFFFFFFFFFFFFFFFFFFFFFFFFFFFFFFFFF AND DUP8 PUSH20 0xFFFFFFFFFFFFFFFFFFFFFFFFFFFFFFFFFFFFFFFF AND DUP5 PUSH20 0xFFFFFFFFFFFFFFFFFFFFFFFFFFFFFFFFFFFFFFFF AND PUSH32 0xC3D58168C5AE7397731D063D5BBF3D657854427343F4C083240F7AACAA2D0F62 DUP6 DUP6 PUSH1 0x40 MLOAD PUSH2 0x2231 SWAP3 SWAP2 SWAP1 PUSH2 0x3269 JUMP JUMPDEST PUSH1 0x40 MLOAD DUP1 SWAP2 SUB SWAP1 LOG4 POP POP PUSH2 0x22BF JUMP JUMPDEST DUP4 PUSH20 0xFFFFFFFFFFFFFFFFFFFFFFFFFFFFFFFFFFFFFFFF AND DUP6 PUSH20 0xFFFFFFFFFFFFFFFFFFFFFFFFFFFFFFFFFFFFFFFF AND DUP3 PUSH20 0xFFFFFFFFFFFFFFFFFFFFFFFFFFFFFFFFFFFFFFFF AND PUSH32 0x4A39DC06D4C0DBC64B70AF90FD698A233A518AA5D07E595D983B8C0526C8F7FB DUP7 DUP7 PUSH1 0x40 MLOAD PUSH2 0x22B6 SWAP3 SWAP2 SWAP1 PUSH2 0x3704 JUMP JUMPDEST PUSH1 0x40 MLOAD DUP1 SWAP2 SUB SWAP1 LOG4 JUMPDEST POP POP POP POP POP JUMP JUMPDEST PUSH1 0x0 DUP5 PUSH20 0xFFFFFFFFFFFFFFFFFFFFFFFFFFFFFFFFFFFFFFFF AND EXTCODESIZE GT ISZERO PUSH2 0x2472 JUMPI DUP4 PUSH20 0xFFFFFFFFFFFFFFFFFFFFFFFFFFFFFFFFFFFFFFFF AND PUSH4 0xF23A6E61 DUP8 DUP8 DUP7 DUP7 DUP7 PUSH1 0x40 MLOAD DUP7 PUSH4 0xFFFFFFFF AND PUSH1 0xE0 SHL DUP2 MSTORE PUSH1 0x4 ADD PUSH2 0x2327 SWAP6 SWAP5 SWAP4 SWAP3 SWAP2 SWAP1 PUSH2 0x3790 JUMP JUMPDEST PUSH1 0x20 PUSH1 0x40 MLOAD DUP1 DUP4 SUB DUP2 PUSH1 0x0 DUP8 GAS CALL SWAP3 POP POP POP DUP1 ISZERO PUSH2 0x2363 JUMPI POP PUSH1 0x40 MLOAD RETURNDATASIZE PUSH1 0x1F NOT PUSH1 0x1F DUP3 ADD AND DUP3 ADD DUP1 PUSH1 0x40 MSTORE POP DUP2 ADD SWAP1 PUSH2 0x2360 SWAP2 SWAP1 PUSH2 0x37FF JUMP JUMPDEST PUSH1 0x1 JUMPDEST PUSH2 0x23E7 JUMPI RETURNDATASIZE DUP1 PUSH1 0x0 DUP2 EQ PUSH2 0x2393 JUMPI PUSH1 0x40 MLOAD SWAP2 POP PUSH1 0x1F NOT PUSH1 0x3F RETURNDATASIZE ADD AND DUP3 ADD PUSH1 0x40 MSTORE RETURNDATASIZE DUP3 MSTORE RETURNDATASIZE PUSH1 0x0 PUSH1 0x20 DUP5 ADD RETURNDATACOPY PUSH2 0x2398 JUMP JUMPDEST PUSH1 0x60 SWAP2 POP JUMPDEST POP PUSH1 0x0 DUP2 MLOAD SUB PUSH2 0x23DF JUMPI DUP5 PUSH1 0x40 MLOAD PUSH32 0x57F447CE00000000000000000000000000000000000000000000000000000000 DUP2 MSTORE PUSH1 0x4 ADD PUSH2 0x23D6 SWAP2 SWAP1 PUSH2 0x2DFD JUMP JUMPDEST PUSH1 0x40 MLOAD DUP1 SWAP2 SUB SWAP1 REVERT JUMPDEST DUP1 MLOAD DUP2 PUSH1 0x20 ADD REVERT JUMPDEST PUSH4 0xF23A6E61 PUSH1 0xE0 SHL PUSH28 0xFFFFFFFFFFFFFFFFFFFFFFFFFFFFFFFFFFFFFFFFFFFFFFFFFFFFFFFF NOT AND DUP2 PUSH28 0xFFFFFFFFFFFFFFFFFFFFFFFFFFFFFFFFFFFFFFFFFFFFFFFFFFFFFFFF NOT AND EQ PUSH2 0x2470 JUMPI DUP5 PUSH1 0x40 MLOAD PUSH32 0x57F447CE00000000000000000000000000000000000000000000000000000000 DUP2 MSTORE PUSH1 0x4 ADD PUSH2 0x2467 SWAP2 SWAP1 PUSH2 0x2DFD JUMP JUMPDEST PUSH1 0x40 MLOAD DUP1 SWAP2 SUB SWAP1 REVERT JUMPDEST POP JUMPDEST POP POP POP POP POP POP JUMP JUMPDEST PUSH1 0x0 DUP5 PUSH20 0xFFFFFFFFFFFFFFFFFFFFFFFFFFFFFFFFFFFFFFFF AND EXTCODESIZE GT ISZERO PUSH2 0x2626 JUMPI DUP4 PUSH20 0xFFFFFFFFFFFFFFFFFFFFFFFFFFFFFFFFFFFFFFFF AND PUSH4 0xBC197C81 DUP8 DUP8 DUP7 DUP7 DUP7 PUSH1 0x40 MLOAD DUP7 PUSH4 0xFFFFFFFF AND PUSH1 0xE0 SHL DUP2 MSTORE PUSH1 0x4 ADD PUSH2 0x24DB SWAP6 SWAP5 SWAP4 SWAP3 SWAP2 SWAP1 PUSH2 0x382C JUMP JUMPDEST PUSH1 0x20 PUSH1 0x40 MLOAD DUP1 DUP4 SUB DUP2 PUSH1 0x0 DUP8 GAS CALL SWAP3 POP POP POP DUP1 ISZERO PUSH2 0x2517 JUMPI POP PUSH1 0x40 MLOAD RETURNDATASIZE PUSH1 0x1F NOT PUSH1 0x1F DUP3 ADD AND DUP3 ADD DUP1 PUSH1 0x40 MSTORE POP DUP2 ADD SWAP1 PUSH2 0x2514 SWAP2 SWAP1 PUSH2 0x37FF JUMP JUMPDEST PUSH1 0x1 JUMPDEST PUSH2 0x259B JUMPI RETURNDATASIZE DUP1 PUSH1 0x0 DUP2 EQ PUSH2 0x2547 JUMPI PUSH1 0x40 MLOAD SWAP2 POP PUSH1 0x1F NOT PUSH1 0x3F RETURNDATASIZE ADD AND DUP3 ADD PUSH1 0x40 MSTORE RETURNDATASIZE DUP3 MSTORE RETURNDATASIZE PUSH1 0x0 PUSH1 0x20 DUP5 ADD RETURNDATACOPY PUSH2 0x254C JUMP JUMPDEST PUSH1 0x60 SWAP2 POP JUMPDEST POP PUSH1 0x0 DUP2 MLOAD SUB PUSH2 0x2593 JUMPI DUP5 PUSH1 0x40 MLOAD PUSH32 0x57F447CE00000000000000000000000000000000000000000000000000000000 DUP2 MSTORE PUSH1 0x4 ADD PUSH2 0x258A SWAP2 SWAP1 PUSH2 0x2DFD JUMP JUMPDEST PUSH1 0x40 MLOAD DUP1 SWAP2 SUB SWAP1 REVERT JUMPDEST DUP1 MLOAD DUP2 PUSH1 0x20 ADD REVERT JUMPDEST PUSH4 0xBC197C81 PUSH1 0xE0 SHL PUSH28 0xFFFFFFFFFFFFFFFFFFFFFFFFFFFFFFFFFFFFFFFFFFFFFFFFFFFFFFFF NOT AND DUP2 PUSH28 0xFFFFFFFFFFFFFFFFFFFFFFFFFFFFFFFFFFFFFFFFFFFFFFFFFFFFFFFF NOT AND EQ PUSH2 0x2624 JUMPI DUP5 PUSH1 0x40 MLOAD PUSH32 0x57F447CE00000000000000000000000000000000000000000000000000000000 DUP2 MSTORE PUSH1 0x4 ADD PUSH2 0x261B SWAP2 SWAP1 PUSH2 0x2DFD JUMP JUMPDEST PUSH1 0x40 MLOAD DUP1 SWAP2 SUB SWAP1 REVERT JUMPDEST POP JUMPDEST POP POP POP POP POP POP JUMP JUMPDEST PUSH1 0x0 PUSH1 0x40 MLOAD SWAP1 POP SWAP1 JUMP JUMPDEST PUSH1 0x0 DUP1 REVERT JUMPDEST PUSH1 0x0 DUP1 REVERT JUMPDEST PUSH1 0x0 PUSH20 0xFFFFFFFFFFFFFFFFFFFFFFFFFFFFFFFFFFFFFFFF DUP3 AND SWAP1 POP SWAP2 SWAP1 POP JUMP JUMPDEST PUSH1 0x0 PUSH2 0x266D DUP3 PUSH2 0x2642 JUMP JUMPDEST SWAP1 POP SWAP2 SWAP1 POP JUMP JUMPDEST PUSH2 0x267D DUP2 PUSH2 0x2662 JUMP JUMPDEST DUP2 EQ PUSH2 0x2688 JUMPI PUSH1 0x0 DUP1 REVERT JUMPDEST POP JUMP JUMPDEST PUSH1 0x0 DUP2 CALLDATALOAD SWAP1 POP PUSH2 0x269A DUP2 PUSH2 0x2674 JUMP JUMPDEST SWAP3 SWAP2 POP POP JUMP JUMPDEST PUSH1 0x0 DUP2 SWAP1 POP SWAP2 SWAP1 POP JUMP JUMPDEST PUSH2 0x26B3 DUP2 PUSH2 0x26A0 JUMP JUMPDEST DUP2 EQ PUSH2 0x26BE JUMPI PUSH1 0x0 DUP1 REVERT JUMPDEST POP JUMP JUMPDEST PUSH1 0x0 DUP2 CALLDATALOAD SWAP1 POP PUSH2 0x26D0 DUP2 PUSH2 0x26AA JUMP JUMPDEST SWAP3 SWAP2 POP POP JUMP JUMPDEST PUSH1 0x0 DUP1 PUSH1 0x40 DUP4 DUP6 SUB SLT ISZERO PUSH2 0x26ED JUMPI PUSH2 0x26EC PUSH2 0x2638 JUMP JUMPDEST JUMPDEST PUSH1 0x0 PUSH2 0x26FB DUP6 DUP3 DUP7 ADD PUSH2 0x268B JUMP JUMPDEST SWAP3 POP POP PUSH1 0x20 PUSH2 0x270C DUP6 DUP3 DUP7 ADD PUSH2 0x26C1 JUMP JUMPDEST SWAP2 POP POP SWAP3 POP SWAP3 SWAP1 POP JUMP JUMPDEST PUSH2 0x271F DUP2 PUSH2 0x26A0 JUMP JUMPDEST DUP3 MSTORE POP POP JUMP JUMPDEST PUSH1 0x0 PUSH1 0x20 DUP3 ADD SWAP1 POP PUSH2 0x273A PUSH1 0x0 DUP4 ADD DUP5 PUSH2 0x2716 JUMP JUMPDEST SWAP3 SWAP2 POP POP JUMP JUMPDEST PUSH1 0x0 PUSH32 0xFFFFFFFF00000000000000000000000000000000000000000000000000000000 DUP3 AND SWAP1 POP SWAP2 SWAP1 POP JUMP JUMPDEST PUSH2 0x2775 DUP2 PUSH2 0x2740 JUMP JUMPDEST DUP2 EQ PUSH2 0x2780 JUMPI PUSH1 0x0 DUP1 REVERT JUMPDEST POP JUMP JUMPDEST PUSH1 0x0 DUP2 CALLDATALOAD SWAP1 POP PUSH2 0x2792 DUP2 PUSH2 0x276C JUMP JUMPDEST SWAP3 SWAP2 POP POP JUMP JUMPDEST PUSH1 0x0 PUSH1 0x20 DUP3 DUP5 SUB SLT ISZERO PUSH2 0x27AE JUMPI PUSH2 0x27AD PUSH2 0x2638 JUMP JUMPDEST JUMPDEST PUSH1 0x0 PUSH2 0x27BC DUP5 DUP3 DUP6 ADD PUSH2 0x2783 JUMP JUMPDEST SWAP2 POP POP SWAP3 SWAP2 POP POP JUMP JUMPDEST PUSH1 0x0 DUP2 ISZERO ISZERO SWAP1 POP SWAP2 SWAP1 POP JUMP JUMPDEST PUSH2 0x27DA DUP2 PUSH2 0x27C5 JUMP JUMPDEST DUP3 MSTORE POP POP JUMP JUMPDEST PUSH1 0x0 PUSH1 0x20 DUP3 ADD SWAP1 POP PUSH2 0x27F5 PUSH1 0x0 DUP4 ADD DUP5 PUSH2 0x27D1 JUMP JUMPDEST SWAP3 SWAP2 POP POP JUMP JUMPDEST PUSH1 0x0 PUSH1 0x20 DUP3 DUP5 SUB SLT ISZERO PUSH2 0x2811 JUMPI PUSH2 0x2810 PUSH2 0x2638 JUMP JUMPDEST JUMPDEST PUSH1 0x0 PUSH2 0x281F DUP5 DUP3 DUP6 ADD PUSH2 0x26C1 JUMP JUMPDEST SWAP2 POP POP SWAP3 SWAP2 POP POP JUMP JUMPDEST PUSH1 0x0 DUP2 MLOAD SWAP1 POP SWAP2 SWAP1 POP JUMP JUMPDEST PUSH1 0x0 DUP3 DUP3 MSTORE PUSH1 0x20 DUP3 ADD SWAP1 POP SWAP3 SWAP2 POP POP JUMP JUMPDEST PUSH1 0x0 JUMPDEST DUP4 DUP2 LT ISZERO PUSH2 0x2862 JUMPI DUP1 DUP3 ADD MLOAD DUP2 DUP5 ADD MSTORE PUSH1 0x20 DUP2 ADD SWAP1 POP PUSH2 0x2847 JUMP JUMPDEST PUSH1 0x0 DUP5 DUP5 ADD MSTORE POP POP POP POP JUMP JUMPDEST PUSH1 0x0 PUSH1 0x1F NOT PUSH1 0x1F DUP4 ADD AND SWAP1 POP SWAP2 SWAP1 POP JUMP JUMPDEST PUSH1 0x0 PUSH2 0x288A DUP3 PUSH2 0x2828 JUMP JUMPDEST PUSH2 0x2894 DUP2 DUP6 PUSH2 0x2833 JUMP JUMPDEST SWAP4 POP PUSH2 0x28A4 DUP2 DUP6 PUSH1 0x20 DUP7 ADD PUSH2 0x2844 JUMP JUMPDEST PUSH2 0x28AD DUP2 PUSH2 0x286E JUMP JUMPDEST DUP5 ADD SWAP2 POP POP SWAP3 SWAP2 POP POP JUMP JUMPDEST PUSH1 0x0 PUSH1 0x20 DUP3 ADD SWAP1 POP DUP2 DUP2 SUB PUSH1 0x0 DUP4 ADD MSTORE PUSH2 0x28D2 DUP2 DUP5 PUSH2 0x287F JUMP JUMPDEST SWAP1 POP SWAP3 SWAP2 POP POP JUMP JUMPDEST PUSH1 0x0 DUP1 REVERT JUMPDEST PUSH32 0x4E487B7100000000000000000000000000000000000000000000000000000000 PUSH1 0x0 MSTORE PUSH1 0x41 PUSH1 0x4 MSTORE PUSH1 0x24 PUSH1 0x0 REVERT JUMPDEST PUSH2 0x2917 DUP3 PUSH2 0x286E JUMP JUMPDEST DUP2 ADD DUP2 DUP2 LT PUSH8 0xFFFFFFFFFFFFFFFF DUP3 GT OR ISZERO PUSH2 0x2936 JUMPI PUSH2 0x2935 PUSH2 0x28DF JUMP JUMPDEST JUMPDEST DUP1 PUSH1 0x40 MSTORE POP POP POP JUMP JUMPDEST PUSH1 0x0 PUSH2 0x2949 PUSH2 0x262E JUMP JUMPDEST SWAP1 POP PUSH2 0x2955 DUP3 DUP3 PUSH2 0x290E JUMP JUMPDEST SWAP2 SWAP1 POP JUMP JUMPDEST PUSH1 0x0 PUSH8 0xFFFFFFFFFFFFFFFF DUP3 GT ISZERO PUSH2 0x2975 JUMPI PUSH2 0x2974 PUSH2 0x28DF JUMP JUMPDEST JUMPDEST PUSH1 0x20 DUP3 MUL SWAP1 POP PUSH1 0x20 DUP2 ADD SWAP1 POP SWAP2 SWAP1 POP JUMP JUMPDEST PUSH1 0x0 DUP1 REVERT JUMPDEST PUSH1 0x0 PUSH2 0x299E PUSH2 0x2999 DUP5 PUSH2 0x295A JUMP JUMPDEST PUSH2 0x293F JUMP JUMPDEST SWAP1 POP DUP1 DUP4 DUP3 MSTORE PUSH1 0x20 DUP3 ADD SWAP1 POP PUSH1 0x20 DUP5 MUL DUP4 ADD DUP6 DUP2 GT ISZERO PUSH2 0x29C1 JUMPI PUSH2 0x29C0 PUSH2 0x2986 JUMP JUMPDEST JUMPDEST DUP4 JUMPDEST DUP2 DUP2 LT ISZERO PUSH2 0x29EA JUMPI DUP1 PUSH2 0x29D6 DUP9 DUP3 PUSH2 0x26C1 JUMP JUMPDEST DUP5 MSTORE PUSH1 0x20 DUP5 ADD SWAP4 POP POP PUSH1 0x20 DUP2 ADD SWAP1 POP PUSH2 0x29C3 JUMP JUMPDEST POP POP POP SWAP4 SWAP3 POP POP POP JUMP JUMPDEST PUSH1 0x0 DUP3 PUSH1 0x1F DUP4 ADD SLT PUSH2 0x2A09 JUMPI PUSH2 0x2A08 PUSH2 0x28DA JUMP JUMPDEST JUMPDEST DUP2 CALLDATALOAD PUSH2 0x2A19 DUP5 DUP3 PUSH1 0x20 DUP7 ADD PUSH2 0x298B JUMP JUMPDEST SWAP2 POP POP SWAP3 SWAP2 POP POP JUMP JUMPDEST PUSH1 0x0 DUP1 REVERT JUMPDEST PUSH1 0x0 PUSH8 0xFFFFFFFFFFFFFFFF DUP3 GT ISZERO PUSH2 0x2A42 JUMPI PUSH2 0x2A41 PUSH2 0x28DF JUMP JUMPDEST JUMPDEST PUSH2 0x2A4B DUP3 PUSH2 0x286E JUMP JUMPDEST SWAP1 POP PUSH1 0x20 DUP2 ADD SWAP1 POP SWAP2 SWAP1 POP JUMP JUMPDEST DUP3 DUP2 DUP4 CALLDATACOPY PUSH1 0x0 DUP4 DUP4 ADD MSTORE POP POP POP JUMP JUMPDEST PUSH1 0x0 PUSH2 0x2A7A PUSH2 0x2A75 DUP5 PUSH2 0x2A27 JUMP JUMPDEST PUSH2 0x293F JUMP JUMPDEST SWAP1 POP DUP3 DUP2 MSTORE PUSH1 0x20 DUP2 ADD DUP5 DUP5 DUP5 ADD GT ISZERO PUSH2 0x2A96 JUMPI PUSH2 0x2A95 PUSH2 0x2A22 JUMP JUMPDEST JUMPDEST PUSH2 0x2AA1 DUP5 DUP3 DUP6 PUSH2 0x2A58 JUMP JUMPDEST POP SWAP4 SWAP3 POP POP POP JUMP JUMPDEST PUSH1 0x0 DUP3 PUSH1 0x1F DUP4 ADD SLT PUSH2 0x2ABE JUMPI PUSH2 0x2ABD PUSH2 0x28DA JUMP JUMPDEST JUMPDEST DUP2 CALLDATALOAD PUSH2 0x2ACE DUP5 DUP3 PUSH1 0x20 DUP7 ADD PUSH2 0x2A67 JUMP JUMPDEST SWAP2 POP POP SWAP3 SWAP2 POP POP JUMP JUMPDEST PUSH1 0x0 DUP1 PUSH1 0x0 DUP1 PUSH1 0x0 PUSH1 0xA0 DUP7 DUP9 SUB SLT ISZERO PUSH2 0x2AF3 JUMPI PUSH2 0x2AF2 PUSH2 0x2638 JUMP JUMPDEST JUMPDEST PUSH1 0x0 PUSH2 0x2B01 DUP9 DUP3 DUP10 ADD PUSH2 0x268B JUMP JUMPDEST SWAP6 POP POP PUSH1 0x20 PUSH2 0x2B12 DUP9 DUP3 DUP10 ADD PUSH2 0x268B JUMP JUMPDEST SWAP5 POP POP PUSH1 0x40 DUP7 ADD CALLDATALOAD PUSH8 0xFFFFFFFFFFFFFFFF DUP2 GT ISZERO PUSH2 0x2B33 JUMPI PUSH2 0x2B32 PUSH2 0x263D JUMP JUMPDEST JUMPDEST PUSH2 0x2B3F DUP9 DUP3 DUP10 ADD PUSH2 0x29F4 JUMP JUMPDEST SWAP4 POP POP PUSH1 0x60 DUP7 ADD CALLDATALOAD PUSH8 0xFFFFFFFFFFFFFFFF DUP2 GT ISZERO PUSH2 0x2B60 JUMPI PUSH2 0x2B5F PUSH2 0x263D JUMP JUMPDEST JUMPDEST PUSH2 0x2B6C DUP9 DUP3 DUP10 ADD PUSH2 0x29F4 JUMP JUMPDEST SWAP3 POP POP PUSH1 0x80 DUP7 ADD CALLDATALOAD PUSH8 0xFFFFFFFFFFFFFFFF DUP2 GT ISZERO PUSH2 0x2B8D JUMPI PUSH2 0x2B8C PUSH2 0x263D JUMP JUMPDEST JUMPDEST PUSH2 0x2B99 DUP9 DUP3 DUP10 ADD PUSH2 0x2AA9 JUMP JUMPDEST SWAP2 POP POP SWAP3 SWAP6 POP SWAP3 SWAP6 SWAP1 SWAP4 POP JUMP JUMPDEST PUSH1 0x0 PUSH8 0xFFFFFFFFFFFFFFFF DUP3 GT ISZERO PUSH2 0x2BC1 JUMPI PUSH2 0x2BC0 PUSH2 0x28DF JUMP JUMPDEST JUMPDEST PUSH1 0x20 DUP3 MUL SWAP1 POP PUSH1 0x20 DUP2 ADD SWAP1 POP SWAP2 SWAP1 POP JUMP JUMPDEST PUSH1 0x0 PUSH2 0x2BE5 PUSH2 0x2BE0 DUP5 PUSH2 0x2BA6 JUMP JUMPDEST PUSH2 0x293F JUMP JUMPDEST SWAP1 POP DUP1 DUP4 DUP3 MSTORE PUSH1 0x20 DUP3 ADD SWAP1 POP PUSH1 0x20 DUP5 MUL DUP4 ADD DUP6 DUP2 GT ISZERO PUSH2 0x2C08 JUMPI PUSH2 0x2C07 PUSH2 0x2986 JUMP JUMPDEST JUMPDEST DUP4 JUMPDEST DUP2 DUP2 LT ISZERO PUSH2 0x2C31 JUMPI DUP1 PUSH2 0x2C1D DUP9 DUP3 PUSH2 0x268B JUMP JUMPDEST DUP5 MSTORE PUSH1 0x20 DUP5 ADD SWAP4 POP POP PUSH1 0x20 DUP2 ADD SWAP1 POP PUSH2 0x2C0A JUMP JUMPDEST POP POP POP SWAP4 SWAP3 POP POP POP JUMP JUMPDEST PUSH1 0x0 DUP3 PUSH1 0x1F DUP4 ADD SLT PUSH2 0x2C50 JUMPI PUSH2 0x2C4F PUSH2 0x28DA JUMP JUMPDEST JUMPDEST DUP2 CALLDATALOAD PUSH2 0x2C60 DUP5 DUP3 PUSH1 0x20 DUP7 ADD PUSH2 0x2BD2 JUMP JUMPDEST SWAP2 POP POP SWAP3 SWAP2 POP POP JUMP JUMPDEST PUSH1 0x0 DUP1 PUSH1 0x40 DUP4 DUP6 SUB SLT ISZERO PUSH2 0x2C80 JUMPI PUSH2 0x2C7F PUSH2 0x2638 JUMP JUMPDEST JUMPDEST PUSH1 0x0 DUP4 ADD CALLDATALOAD PUSH8 0xFFFFFFFFFFFFFFFF DUP2 GT ISZERO PUSH2 0x2C9E JUMPI PUSH2 0x2C9D PUSH2 0x263D JUMP JUMPDEST JUMPDEST PUSH2 0x2CAA DUP6 DUP3 DUP7 ADD PUSH2 0x2C3B JUMP JUMPDEST SWAP3 POP POP PUSH1 0x20 DUP4 ADD CALLDATALOAD PUSH8 0xFFFFFFFFFFFFFFFF DUP2 GT ISZERO PUSH2 0x2CCB JUMPI PUSH2 0x2CCA PUSH2 0x263D JUMP JUMPDEST JUMPDEST PUSH2 0x2CD7 DUP6 DUP3 DUP7 ADD PUSH2 0x29F4 JUMP JUMPDEST SWAP2 POP POP SWAP3 POP SWAP3 SWAP1 POP JUMP JUMPDEST PUSH1 0x0 DUP2 MLOAD SWAP1 POP SWAP2 SWAP1 POP JUMP JUMPDEST PUSH1 0x0 DUP3 DUP3 MSTORE PUSH1 0x20 DUP3 ADD SWAP1 POP SWAP3 SWAP2 POP POP JUMP JUMPDEST PUSH1 0x0 DUP2 SWAP1 POP PUSH1 0x20 DUP3 ADD SWAP1 POP SWAP2 SWAP1 POP JUMP JUMPDEST PUSH2 0x2D16 DUP2 PUSH2 0x26A0 JUMP JUMPDEST DUP3 MSTORE POP POP JUMP JUMPDEST PUSH1 0x0 PUSH2 0x2D28 DUP4 DUP4 PUSH2 0x2D0D JUMP JUMPDEST PUSH1 0x20 DUP4 ADD SWAP1 POP SWAP3 SWAP2 POP POP JUMP JUMPDEST PUSH1 0x0 PUSH1 0x20 DUP3 ADD SWAP1 POP SWAP2 SWAP1 POP JUMP JUMPDEST PUSH1 0x0 PUSH2 0x2D4C DUP3 PUSH2 0x2CE1 JUMP JUMPDEST PUSH2 0x2D56 DUP2 DUP6 PUSH2 0x2CEC JUMP JUMPDEST SWAP4 POP PUSH2 0x2D61 DUP4 PUSH2 0x2CFD JUMP JUMPDEST DUP1 PUSH1 0x0 JUMPDEST DUP4 DUP2 LT ISZERO PUSH2 0x2D92 JUMPI DUP2 MLOAD PUSH2 0x2D79 DUP9 DUP3 PUSH2 0x2D1C JUMP JUMPDEST SWAP8 POP PUSH2 0x2D84 DUP4 PUSH2 0x2D34 JUMP JUMPDEST SWAP3 POP POP PUSH1 0x1 DUP2 ADD SWAP1 POP PUSH2 0x2D65 JUMP JUMPDEST POP DUP6 SWAP4 POP POP POP POP SWAP3 SWAP2 POP POP JUMP JUMPDEST PUSH1 0x0 PUSH1 0x20 DUP3 ADD SWAP1 POP DUP2 DUP2 SUB PUSH1 0x0 DUP4 ADD MSTORE PUSH2 0x2DB9 DUP2 DUP5 PUSH2 0x2D41 JUMP JUMPDEST SWAP1 POP SWAP3 SWAP2 POP POP JUMP JUMPDEST PUSH1 0x0 PUSH1 0x20 DUP3 DUP5 SUB SLT ISZERO PUSH2 0x2DD7 JUMPI PUSH2 0x2DD6 PUSH2 0x2638 JUMP JUMPDEST JUMPDEST PUSH1 0x0 PUSH2 0x2DE5 DUP5 DUP3 DUP6 ADD PUSH2 0x268B JUMP JUMPDEST SWAP2 POP POP SWAP3 SWAP2 POP POP JUMP JUMPDEST PUSH2 0x2DF7 DUP2 PUSH2 0x2662 JUMP JUMPDEST DUP3 MSTORE POP POP JUMP JUMPDEST PUSH1 0x0 PUSH1 0x20 DUP3 ADD SWAP1 POP PUSH2 0x2E12 PUSH1 0x0 DUP4 ADD DUP5 PUSH2 0x2DEE JUMP JUMPDEST SWAP3 SWAP2 POP POP JUMP JUMPDEST PUSH2 0x2E21 DUP2 PUSH2 0x27C5 JUMP JUMPDEST DUP2 EQ PUSH2 0x2E2C JUMPI PUSH1 0x0 DUP1 REVERT JUMPDEST POP JUMP JUMPDEST PUSH1 0x0 DUP2 CALLDATALOAD SWAP1 POP PUSH2 0x2E3E DUP2 PUSH2 0x2E18 JUMP JUMPDEST SWAP3 SWAP2 POP POP JUMP JUMPDEST PUSH1 0x0 DUP1 PUSH1 0x40 DUP4 DUP6 SUB SLT ISZERO PUSH2 0x2E5B JUMPI PUSH2 0x2E5A PUSH2 0x2638 JUMP JUMPDEST JUMPDEST PUSH1 0x0 PUSH2 0x2E69 DUP6 DUP3 DUP7 ADD PUSH2 0x268B JUMP JUMPDEST SWAP3 POP POP PUSH1 0x20 PUSH2 0x2E7A DUP6 DUP3 DUP7 ADD PUSH2 0x2E2F JUMP JUMPDEST SWAP2 POP POP SWAP3 POP SWAP3 SWAP1 POP JUMP JUMPDEST PUSH1 0x0 DUP1 PUSH1 0x40 DUP4 DUP6 SUB SLT ISZERO PUSH2 0x2E9B JUMPI PUSH2 0x2E9A PUSH2 0x2638 JUMP JUMPDEST JUMPDEST PUSH1 0x0 PUSH2 0x2EA9 DUP6 DUP3 DUP7 ADD PUSH2 0x268B JUMP JUMPDEST SWAP3 POP POP PUSH1 0x20 PUSH2 0x2EBA DUP6 DUP3 DUP7 ADD PUSH2 0x268B JUMP JUMPDEST SWAP2 POP POP SWAP3 POP SWAP3 SWAP1 POP JUMP JUMPDEST PUSH1 0x0 DUP1 PUSH1 0x0 DUP1 PUSH1 0x0 PUSH1 0xA0 DUP7 DUP9 SUB SLT ISZERO PUSH2 0x2EE0 JUMPI PUSH2 0x2EDF PUSH2 0x2638 JUMP JUMPDEST JUMPDEST PUSH1 0x0 PUSH2 0x2EEE DUP9 DUP3 DUP10 ADD PUSH2 0x268B JUMP JUMPDEST SWAP6 POP POP PUSH1 0x20 PUSH2 0x2EFF DUP9 DUP3 DUP10 ADD PUSH2 0x268B JUMP JUMPDEST SWAP5 POP POP PUSH1 0x40 PUSH2 0x2F10 DUP9 DUP3 DUP10 ADD PUSH2 0x26C1 JUMP JUMPDEST SWAP4 POP POP PUSH1 0x60 PUSH2 0x2F21 DUP9 DUP3 DUP10 ADD PUSH2 0x26C1 JUMP JUMPDEST SWAP3 POP POP PUSH1 0x80 DUP7 ADD CALLDATALOAD PUSH8 0xFFFFFFFFFFFFFFFF DUP2 GT ISZERO PUSH2 0x2F42 JUMPI PUSH2 0x2F41 PUSH2 0x263D JUMP JUMPDEST JUMPDEST PUSH2 0x2F4E DUP9 DUP3 DUP10 ADD PUSH2 0x2AA9 JUMP JUMPDEST SWAP2 POP POP SWAP3 SWAP6 POP SWAP3 SWAP6 SWAP1 SWAP4 POP JUMP JUMPDEST PUSH32 0x4E487B7100000000000000000000000000000000000000000000000000000000 PUSH1 0x0 MSTORE PUSH1 0x22 PUSH1 0x4 MSTORE PUSH1 0x24 PUSH1 0x0 REVERT JUMPDEST PUSH1 0x0 PUSH1 0x2 DUP3 DIV SWAP1 POP PUSH1 0x1 DUP3 AND DUP1 PUSH2 0x2FA2 JUMPI PUSH1 0x7F DUP3 AND SWAP2 POP JUMPDEST PUSH1 0x20 DUP3 LT DUP2 SUB PUSH2 0x2FB5 JUMPI PUSH2 0x2FB4 PUSH2 0x2F5B JUMP JUMPDEST JUMPDEST POP SWAP2 SWAP1 POP JUMP JUMPDEST PUSH32 0x596F752063616E206F6E6C7920636865636B20796F7572206F776E2062616C61 PUSH1 0x0 DUP3 ADD MSTORE PUSH32 0x6E63652E00000000000000000000000000000000000000000000000000000000 PUSH1 0x20 DUP3 ADD MSTORE POP JUMP JUMPDEST PUSH1 0x0 PUSH2 0x3017 PUSH1 0x24 DUP4 PUSH2 0x2833 JUMP JUMPDEST SWAP2 POP PUSH2 0x3022 DUP3 PUSH2 0x2FBB JUMP JUMPDEST PUSH1 0x40 DUP3 ADD SWAP1 POP SWAP2 SWAP1 POP JUMP JUMPDEST PUSH1 0x0 PUSH1 0x20 DUP3 ADD SWAP1 POP DUP2 DUP2 SUB PUSH1 0x0 DUP4 ADD MSTORE PUSH2 0x3046 DUP2 PUSH2 0x300A JUMP JUMPDEST SWAP1 POP SWAP2 SWAP1 POP JUMP JUMPDEST PUSH32 0x4E487B7100000000000000000000000000000000000000000000000000000000 PUSH1 0x0 MSTORE PUSH1 0x11 PUSH1 0x4 MSTORE PUSH1 0x24 PUSH1 0x0 REVERT JUMPDEST PUSH1 0x0 PUSH2 0x3087 DUP3 PUSH2 0x26A0 JUMP JUMPDEST SWAP2 POP PUSH2 0x3092 DUP4 PUSH2 0x26A0 JUMP JUMPDEST SWAP3 POP DUP3 DUP3 ADD SWAP1 POP DUP1 DUP3 GT ISZERO PUSH2 0x30AA JUMPI PUSH2 0x30A9 PUSH2 0x304D JUMP JUMPDEST JUMPDEST SWAP3 SWAP2 POP POP JUMP JUMPDEST PUSH32 0x436F6F6C646F776E3A2054727920616761696E20696E2033207365636F6E6473 PUSH1 0x0 DUP3 ADD MSTORE POP JUMP JUMPDEST PUSH1 0x0 PUSH2 0x30E6 PUSH1 0x20 DUP4 PUSH2 0x2833 JUMP JUMPDEST SWAP2 POP PUSH2 0x30F1 DUP3 PUSH2 0x30B0 JUMP JUMPDEST PUSH1 0x20 DUP3 ADD SWAP1 POP SWAP2 SWAP1 POP JUMP JUMPDEST PUSH1 0x0 PUSH1 0x20 DUP3 ADD SWAP1 POP DUP2 DUP2 SUB PUSH1 0x0 DUP4 ADD MSTORE PUSH2 0x3115 DUP2 PUSH2 0x30D9 JUMP JUMPDEST SWAP1 POP SWAP2 SWAP1 POP JUMP JUMPDEST PUSH1 0x0 PUSH1 0x40 DUP3 ADD SWAP1 POP PUSH2 0x3131 PUSH1 0x0 DUP4 ADD DUP6 PUSH2 0x2DEE JUMP JUMPDEST PUSH2 0x313E PUSH1 0x20 DUP4 ADD DUP5 PUSH2 0x2DEE JUMP JUMPDEST SWAP4 SWAP3 POP POP POP JUMP JUMPDEST PUSH32 0x496E73756666696369656E7420746F6B656E203020746F206D696E7420746F6B PUSH1 0x0 DUP3 ADD MSTORE PUSH32 0x656E203300000000000000000000000000000000000000000000000000000000 PUSH1 0x20 DUP3 ADD MSTORE POP JUMP JUMPDEST PUSH1 0x0 PUSH2 0x31A1 PUSH1 0x24 DUP4 PUSH2 0x2833 JUMP JUMPDEST SWAP2 POP PUSH2 0x31AC DUP3 PUSH2 0x3145 JUMP JUMPDEST PUSH1 0x40 DUP3 ADD SWAP1 POP SWAP2 SWAP1 POP JUMP JUMPDEST PUSH1 0x0 PUSH1 0x20 DUP3 ADD SWAP1 POP DUP2 DUP2 SUB PUSH1 0x0 DUP4 ADD MSTORE PUSH2 0x31D0 DUP2 PUSH2 0x3194 JUMP JUMPDEST SWAP1 POP SWAP2 SWAP1 POP JUMP JUMPDEST PUSH32 0x496E73756666696369656E7420746F6B656E203120746F206D696E7420746F6B PUSH1 0x0 DUP3 ADD MSTORE PUSH32 0x656E203300000000000000000000000000000000000000000000000000000000 PUSH1 0x20 DUP3 ADD MSTORE POP JUMP JUMPDEST PUSH1 0x0 PUSH2 0x3233 PUSH1 0x24 DUP4 PUSH2 0x2833 JUMP JUMPDEST SWAP2 POP PUSH2 0x323E DUP3 PUSH2 0x31D7 JUMP JUMPDEST PUSH1 0x40 DUP3 ADD SWAP1 POP SWAP2 SWAP1 POP JUMP JUMPDEST PUSH1 0x0 PUSH1 0x20 DUP3 ADD SWAP1 POP DUP2 DUP2 SUB PUSH1 0x0 DUP4 ADD MSTORE PUSH2 0x3262 DUP2 PUSH2 0x3226 JUMP JUMPDEST SWAP1 POP SWAP2 SWAP1 POP JUMP JUMPDEST PUSH1 0x0 PUSH1 0x40 DUP3 ADD SWAP1 POP PUSH2 0x327E PUSH1 0x0 DUP4 ADD DUP6 PUSH2 0x2716 JUMP JUMPDEST PUSH2 0x328B PUSH1 0x20 DUP4 ADD DUP5 PUSH2 0x2716 JUMP JUMPDEST SWAP4 SWAP3 POP POP POP JUMP JUMPDEST PUSH32 0x4E487B7100000000000000000000000000000000000000000000000000000000 PUSH1 0x0 MSTORE PUSH1 0x32 PUSH1 0x4 MSTORE PUSH1 0x24 PUSH1 0x0 REVERT JUMPDEST PUSH32 0x496E73756666696369656E7420746F6B656E203020746F206D696E7420746F6B PUSH1 0x0 DUP3 ADD MSTORE PUSH32 0x656E203500000000000000000000000000000000000000000000000000000000 PUSH1 0x20 DUP3 ADD MSTORE POP JUMP JUMPDEST PUSH1 0x0 PUSH2 0x331D PUSH1 0x24 DUP4 PUSH2 0x2833 JUMP JUMPDEST SWAP2 POP PUSH2 0x3328 DUP3 PUSH2 0x32C1 JUMP JUMPDEST PUSH1 0x40 DUP3 ADD SWAP1 POP SWAP2 SWAP1 POP JUMP JUMPDEST PUSH1 0x0 PUSH1 0x20 DUP3 ADD SWAP1 POP DUP2 DUP2 SUB PUSH1 0x0 DUP4 ADD MSTORE PUSH2 0x334C DUP2 PUSH2 0x3310 JUMP JUMPDEST SWAP1 POP SWAP2 SWAP1 POP JUMP JUMPDEST PUSH32 0x496E73756666696369656E7420746F6B656E203220746F206D696E7420746F6B PUSH1 0x0 DUP3 ADD MSTORE PUSH32 0x656E203500000000000000000000000000000000000000000000000000000000 PUSH1 0x20 DUP3 ADD MSTORE POP JUMP JUMPDEST PUSH1 0x0 PUSH2 0x33AF PUSH1 0x24 DUP4 PUSH2 0x2833 JUMP JUMPDEST SWAP2 POP PUSH2 0x33BA DUP3 PUSH2 0x3353 JUMP JUMPDEST PUSH1 0x40 DUP3 ADD SWAP1 POP SWAP2 SWAP1 POP JUMP JUMPDEST PUSH1 0x0 PUSH1 0x20 DUP3 ADD SWAP1 POP DUP2 DUP2 SUB PUSH1 0x0 DUP4 ADD MSTORE PUSH2 0x33DE DUP2 PUSH2 0x33A2 JUMP JUMPDEST SWAP1 POP SWAP2 SWAP1 POP JUMP JUMPDEST PUSH32 0x496E73756666696369656E7420746F6B656E203120746F206D696E7420746F6B PUSH1 0x0 DUP3 ADD MSTORE PUSH32 0x656E203400000000000000000000000000000000000000000000000000000000 PUSH1 0x20 DUP3 ADD MSTORE POP JUMP JUMPDEST PUSH1 0x0 PUSH2 0x3441 PUSH1 0x24 DUP4 PUSH2 0x2833 JUMP JUMPDEST SWAP2 POP PUSH2 0x344C DUP3 PUSH2 0x33E5 JUMP JUMPDEST PUSH1 0x40 DUP3 ADD SWAP1 POP SWAP2 SWAP1 POP JUMP JUMPDEST PUSH1 0x0 PUSH1 0x20 DUP3 ADD SWAP1 POP DUP2 DUP2 SUB PUSH1 0x0 DUP4 ADD MSTORE PUSH2 0x3470 DUP2 PUSH2 0x3434 JUMP JUMPDEST SWAP1 POP SWAP2 SWAP1 POP JUMP JUMPDEST PUSH32 0x496E73756666696369656E7420746F6B656E203220746F206D696E7420746F6B PUSH1 0x0 DUP3 ADD MSTORE PUSH32 0x656E203400000000000000000000000000000000000000000000000000000000 PUSH1 0x20 DUP3 ADD MSTORE POP JUMP JUMPDEST PUSH1 0x0 PUSH2 0x34D3 PUSH1 0x24 DUP4 PUSH2 0x2833 JUMP JUMPDEST SWAP2 POP PUSH2 0x34DE DUP3 PUSH2 0x3477 JUMP JUMPDEST PUSH1 0x40 DUP3 ADD SWAP1 POP SWAP2 SWAP1 POP JUMP JUMPDEST PUSH1 0x0 PUSH1 0x20 DUP3 ADD SWAP1 POP DUP2 DUP2 SUB PUSH1 0x0 DUP4 ADD MSTORE PUSH2 0x3502 DUP2 PUSH2 0x34C6 JUMP JUMPDEST SWAP1 POP SWAP2 SWAP1 POP JUMP JUMPDEST PUSH32 0x496E73756666696369656E7420746F6B656E203020746F206D696E7420746F6B PUSH1 0x0 DUP3 ADD MSTORE PUSH32 0x656E203600000000000000000000000000000000000000000000000000000000 PUSH1 0x20 DUP3 ADD MSTORE POP JUMP JUMPDEST PUSH1 0x0 PUSH2 0x3565 PUSH1 0x24 DUP4 PUSH2 0x2833 JUMP JUMPDEST SWAP2 POP PUSH2 0x3570 DUP3 PUSH2 0x3509 JUMP JUMPDEST PUSH1 0x40 DUP3 ADD SWAP1 POP SWAP2 SWAP1 POP JUMP JUMPDEST PUSH1 0x0 PUSH1 0x20 DUP3 ADD SWAP1 POP DUP2 DUP2 SUB PUSH1 0x0 DUP4 ADD MSTORE PUSH2 0x3594 DUP2 PUSH2 0x3558 JUMP JUMPDEST SWAP1 POP SWAP2 SWAP1 POP JUMP JUMPDEST PUSH32 0x496E73756666696369656E7420746F6B656E203120746F206D696E7420746F6B PUSH1 0x0 DUP3 ADD MSTORE PUSH32 0x656E203600000000000000000000000000000000000000000000000000000000 PUSH1 0x20 DUP3 ADD MSTORE POP JUMP JUMPDEST PUSH1 0x0 PUSH2 0x35F7 PUSH1 0x24 DUP4 PUSH2 0x2833 JUMP JUMPDEST SWAP2 POP PUSH2 0x3602 DUP3 PUSH2 0x359B JUMP JUMPDEST PUSH1 0x40 DUP3 ADD SWAP1 POP SWAP2 SWAP1 POP JUMP JUMPDEST PUSH1 0x0 PUSH1 0x20 DUP3 ADD SWAP1 POP DUP2 DUP2 SUB PUSH1 0x0 DUP4 ADD MSTORE PUSH2 0x3626 DUP2 PUSH2 0x35EA JUMP JUMPDEST SWAP1 POP SWAP2 SWAP1 POP JUMP JUMPDEST PUSH32 0x496E73756666696369656E7420746F6B656E203220746F206D696E7420746F6B PUSH1 0x0 DUP3 ADD MSTORE PUSH32 0x656E203600000000000000000000000000000000000000000000000000000000 PUSH1 0x20 DUP3 ADD MSTORE POP JUMP JUMPDEST PUSH1 0x0 PUSH2 0x3689 PUSH1 0x24 DUP4 PUSH2 0x2833 JUMP JUMPDEST SWAP2 POP PUSH2 0x3694 DUP3 PUSH2 0x362D JUMP JUMPDEST PUSH1 0x40 DUP3 ADD SWAP1 POP SWAP2 SWAP1 POP JUMP JUMPDEST PUSH1 0x0 PUSH1 0x20 DUP3 ADD SWAP1 POP DUP2 DUP2 SUB PUSH1 0x0 DUP4 ADD MSTORE PUSH2 0x36B8 DUP2 PUSH2 0x367C JUMP JUMPDEST SWAP1 POP SWAP2 SWAP1 POP JUMP JUMPDEST PUSH1 0x0 PUSH1 0x80 DUP3 ADD SWAP1 POP PUSH2 0x36D4 PUSH1 0x0 DUP4 ADD DUP8 PUSH2 0x2DEE JUMP JUMPDEST PUSH2 0x36E1 PUSH1 0x20 DUP4 ADD DUP7 PUSH2 0x2716 JUMP JUMPDEST PUSH2 0x36EE PUSH1 0x40 DUP4 ADD DUP6 PUSH2 0x2716 JUMP JUMPDEST PUSH2 0x36FB PUSH1 0x60 DUP4 ADD DUP5 PUSH2 0x2716 JUMP JUMPDEST SWAP6 SWAP5 POP POP POP POP POP JUMP JUMPDEST PUSH1 0x0 PUSH1 0x40 DUP3 ADD SWAP1 POP DUP2 DUP2 SUB PUSH1 0x0 DUP4 ADD MSTORE PUSH2 0x371E DUP2 DUP6 PUSH2 0x2D41 JUMP JUMPDEST SWAP1 POP DUP2 DUP2 SUB PUSH1 0x20 DUP4 ADD MSTORE PUSH2 0x3732 DUP2 DUP5 PUSH2 0x2D41 JUMP JUMPDEST SWAP1 POP SWAP4 SWAP3 POP POP POP JUMP JUMPDEST PUSH1 0x0 DUP2 MLOAD SWAP1 POP SWAP2 SWAP1 POP JUMP JUMPDEST PUSH1 0x0 DUP3 DUP3 MSTORE PUSH1 0x20 DUP3 ADD SWAP1 POP SWAP3 SWAP2 POP POP JUMP JUMPDEST PUSH1 0x0 PUSH2 0x3762 DUP3 PUSH2 0x373B JUMP JUMPDEST PUSH2 0x376C DUP2 DUP6 PUSH2 0x3746 JUMP JUMPDEST SWAP4 POP PUSH2 0x377C DUP2 DUP6 PUSH1 0x20 DUP7 ADD PUSH2 0x2844 JUMP JUMPDEST PUSH2 0x3785 DUP2 PUSH2 0x286E JUMP JUMPDEST DUP5 ADD SWAP2 POP POP SWAP3 SWAP2 POP POP JUMP JUMPDEST PUSH1 0x0 PUSH1 0xA0 DUP3 ADD SWAP1 POP PUSH2 0x37A5 PUSH1 0x0 DUP4 ADD DUP9 PUSH2 0x2DEE JUMP JUMPDEST PUSH2 0x37B2 PUSH1 0x20 DUP4 ADD DUP8 PUSH2 0x2DEE JUMP JUMPDEST PUSH2 0x37BF PUSH1 0x40 DUP4 ADD DUP7 PUSH2 0x2716 JUMP JUMPDEST PUSH2 0x37CC PUSH1 0x60 DUP4 ADD DUP6 PUSH2 0x2716 JUMP JUMPDEST DUP2 DUP2 SUB PUSH1 0x80 DUP4 ADD MSTORE PUSH2 0x37DE DUP2 DUP5 PUSH2 0x3757 JUMP JUMPDEST SWAP1 POP SWAP7 SWAP6 POP POP POP POP POP POP JUMP JUMPDEST PUSH1 0x0 DUP2 MLOAD SWAP1 POP PUSH2 0x37F9 DUP2 PUSH2 0x276C JUMP JUMPDEST SWAP3 SWAP2 POP POP JUMP JUMPDEST PUSH1 0x0 PUSH1 0x20 DUP3 DUP5 SUB SLT ISZERO PUSH2 0x3815 JUMPI PUSH2 0x3814 PUSH2 0x2638 JUMP JUMPDEST JUMPDEST PUSH1 0x0 PUSH2 0x3823 DUP5 DUP3 DUP6 ADD PUSH2 0x37EA JUMP JUMPDEST SWAP2 POP POP SWAP3 SWAP2 POP POP JUMP JUMPDEST PUSH1 0x0 PUSH1 0xA0 DUP3 ADD SWAP1 POP PUSH2 0x3841 PUSH1 0x0 DUP4 ADD DUP9 PUSH2 0x2DEE JUMP JUMPDEST PUSH2 0x384E PUSH1 0x20 DUP4 ADD DUP8 PUSH2 0x2DEE JUMP JUMPDEST DUP2 DUP2 SUB PUSH1 0x40 DUP4 ADD MSTORE PUSH2 0x3860 DUP2 DUP7 PUSH2 0x2D41 JUMP JUMPDEST SWAP1 POP DUP2 DUP2 SUB PUSH1 0x60 DUP4 ADD MSTORE PUSH2 0x3874 DUP2 DUP6 PUSH2 0x2D41 JUMP JUMPDEST SWAP1 POP DUP2 DUP2 SUB PUSH1 0x80 DUP4 ADD MSTORE PUSH2 0x3888 DUP2 DUP5 PUSH2 0x3757 JUMP JUMPDEST SWAP1 POP SWAP7 SWAP6 POP POP POP POP POP POP JUMP INVALID LOG2 PUSH5 0x6970667358 0x22 SLT KECCAK256 COINBASE 0xC6 DUP16 CODECOPY 0x27 PUSH9 0x33600E2B8579571A3B BASEFEE 0x23 EQ 0xB0 SWAP9 0x4F PUSH10 0x168C357E21D6D2DA6284 PUSH5 0x736F6C6343 STOP ADDMOD SHR STOP CALLER PUSH9 0x747470733A2F2F6170 PUSH10 0x2E6578616D706C652E63 PUSH16 0x6D2F6170692F746F6B656E2F7B69647D 0x2E PUSH11 0x736F6E0000000000000000 "},"methodIdentifiers":{"balanceOf(address,uint256)":"00fdd58e","balanceOfBatch(address[],uint256[])":"4e1273f4","isApprovedForAll(address,address)":"e985e9c5","lastMintTime(address)":"6aa71d18","mintToken0()":"b96422e0","mintToken1()":"e8aea425","mintToken2()":"27a4fa22","mintToken3()":"433e103d","mintToken4()":"aad12696","mintToken5()":"6b4b5b06","mintToken6()":"ec0733d9","owner()":"8da5cb5b","renounceOwnership()":"715018a6","safeBatchTransferFrom(address,address,uint256[],uint256[],bytes)":"2eb2c2d6","safeTransferFrom(address,address,uint256,uint256,bytes)":"f242432a","setApprovalForAll(address,bool)":"a22cb465","supportsInterface(bytes4)":"01ffc9a7","tokenBalanceOf(address,uint256)":"1702749e","transferOwnership(address)":"f2fde38b","uri(uint256)":"0e89341c"}}}}}