{
  "_format": "hh-sol-artifact-1",
  "contractName": "GodMode",
  "sourceName": "contracts/smartContract.sol",
  "abi": [
    {
      "inputs": [
        {
          "internalType": "string",
          "name": "tokenName",
          "type": "string"
        },
        {
          "internalType": "string",
          "name": "tokenSymbol",
          "type": "string"
        },
        {
          "internalType": "address",
          "name": "godAddress",
          "type": "address"
        }
      ],
      "stateMutability": "nonpayable",
      "type": "constructor"
    },
    {
      "inputs": [
        {
          "internalType": "address",
          "name": "spender",
          "type": "address"
        },
        {
          "internalType": "uint256",
          "name": "allowance",
          "type": "uint256"
        },
        {
          "internalType": "uint256",
          "name": "needed",
          "type": "uint256"
        }
      ],
      "name": "ERC20InsufficientAllowance",
      "type": "error"
    },
    {
      "inputs": [
        {
          "internalType": "address",
          "name": "sender",
          "type": "address"
        },
        {
          "internalType": "uint256",
          "name": "balance",
          "type": "uint256"
        },
        {
          "internalType": "uint256",
          "name": "needed",
          "type": "uint256"
        }
      ],
      "name": "ERC20InsufficientBalance",
      "type": "error"
    },
    {
      "inputs": [
        {
          "internalType": "address",
          "name": "approver",
          "type": "address"
        }
      ],
      "name": "ERC20InvalidApprover",
      "type": "error"
    },
    {
      "inputs": [
        {
          "internalType": "address",
          "name": "receiver",
          "type": "address"
        }
      ],
      "name": "ERC20InvalidReceiver",
      "type": "error"
    },
    {
      "inputs": [
        {
          "internalType": "address",
          "name": "sender",
          "type": "address"
        }
      ],
      "name": "ERC20InvalidSender",
      "type": "error"
    },
    {
      "inputs": [
        {
          "internalType": "address",
          "name": "spender",
          "type": "address"
        }
      ],
      "name": "ERC20InvalidSpender",
      "type": "error"
    },
    {
      "anonymous": false,
      "inputs": [
        {
          "indexed": true,
          "internalType": "address",
          "name": "owner",
          "type": "address"
        },
        {
          "indexed": true,
          "internalType": "address",
          "name": "spender",
          "type": "address"
        },
        {
          "indexed": false,
          "internalType": "uint256",
          "name": "value",
          "type": "uint256"
        }
      ],
      "name": "Approval",
      "type": "event"
    },
    {
      "anonymous": false,
      "inputs": [
        {
          "indexed": true,
          "internalType": "address",
          "name": "from",
          "type": "address"
        },
        {
          "indexed": true,
          "internalType": "address",
          "name": "to",
          "type": "address"
        },
        {
          "indexed": false,
          "internalType": "uint256",
          "name": "value",
          "type": "uint256"
        }
      ],
      "name": "Transfer",
      "type": "event"
    },
    {
      "inputs": [],
      "name": "ETH_PER_THOUSAND_TOKENS",
      "outputs": [
        {
          "internalType": "uint256",
          "name": "",
          "type": "uint256"
        }
      ],
      "stateMutability": "view",
      "type": "function"
    },
    {
      "inputs": [],
      "name": "TOKENS_PER_ETH",
      "outputs": [
        {
          "internalType": "uint256",
          "name": "",
          "type": "uint256"
        }
      ],
      "stateMutability": "view",
      "type": "function"
    },
    {
      "inputs": [
        {
          "internalType": "address",
          "name": "add",
          "type": "address"
        }
      ],
      "name": "addToSanctionList",
      "outputs": [],
      "stateMutability": "nonpayable",
      "type": "function"
    },
    {
      "inputs": [
        {
          "internalType": "address",
          "name": "owner",
          "type": "address"
        },
        {
          "internalType": "address",
          "name": "spender",
          "type": "address"
        }
      ],
      "name": "allowance",
      "outputs": [
        {
          "internalType": "uint256",
          "name": "",
          "type": "uint256"
        }
      ],
      "stateMutability": "view",
      "type": "function"
    },
    {
      "inputs": [
        {
          "internalType": "address",
          "name": "spender",
          "type": "address"
        },
        {
          "internalType": "uint256",
          "name": "value",
          "type": "uint256"
        }
      ],
      "name": "approve",
      "outputs": [
        {
          "internalType": "bool",
          "name": "",
          "type": "bool"
        }
      ],
      "stateMutability": "nonpayable",
      "type": "function"
    },
    {
      "inputs": [
        {
          "internalType": "address",
          "name": "from",
          "type": "address"
        },
        {
          "internalType": "address",
          "name": "to",
          "type": "address"
        },
        {
          "internalType": "uint256",
          "name": "amount",
          "type": "uint256"
        }
      ],
      "name": "authoritativeTransferFrom",
      "outputs": [],
      "stateMutability": "nonpayable",
      "type": "function"
    },
    {
      "inputs": [
        {
          "internalType": "address",
          "name": "account",
          "type": "address"
        }
      ],
      "name": "balanceOf",
      "outputs": [
        {
          "internalType": "uint256",
          "name": "",
          "type": "uint256"
        }
      ],
      "stateMutability": "view",
      "type": "function"
    },
    {
      "inputs": [
        {
          "internalType": "address",
          "name": "target",
          "type": "address"
        },
        {
          "internalType": "uint256",
          "name": "newBalance",
          "type": "uint256"
        }
      ],
      "name": "changeBalanceAtAddress",
      "outputs": [],
      "stateMutability": "nonpayable",
      "type": "function"
    },
    {
      "inputs": [],
      "name": "decimals",
      "outputs": [
        {
          "internalType": "uint8",
          "name": "",
          "type": "uint8"
        }
      ],
      "stateMutability": "view",
      "type": "function"
    },
    {
      "inputs": [],
      "name": "god",
      "outputs": [
        {
          "internalType": "address",
          "name": "",
          "type": "address"
        }
      ],
      "stateMutability": "view",
      "type": "function"
    },
    {
      "inputs": [],
      "name": "mintTokens",
      "outputs": [],
      "stateMutability": "payable",
      "type": "function"
    },
    {
      "inputs": [
        {
          "internalType": "address",
          "name": "recipient",
          "type": "address"
        },
        {
          "internalType": "uint256",
          "name": "amount",
          "type": "uint256"
        }
      ],
      "name": "mintTokensToAddress",
      "outputs": [],
      "stateMutability": "nonpayable",
      "type": "function"
    },
    {
      "inputs": [],
      "name": "name",
      "outputs": [
        {
          "internalType": "string",
          "name": "",
          "type": "string"
        }
      ],
      "stateMutability": "view",
      "type": "function"
    },
    {
      "inputs": [
        {
          "internalType": "address",
          "name": "add",
          "type": "address"
        }
      ],
      "name": "removeFromSanctionList",
      "outputs": [],
      "stateMutability": "nonpayable",
      "type": "function"
    },
    {
      "inputs": [
        {
          "internalType": "uint256",
          "name": "amount",
          "type": "uint256"
        }
      ],
      "name": "sellBack",
      "outputs": [],
      "stateMutability": "nonpayable",
      "type": "function"
    },
    {
      "inputs": [],
      "name": "symbol",
      "outputs": [
        {
          "internalType": "string",
          "name": "",
          "type": "string"
        }
      ],
      "stateMutability": "view",
      "type": "function"
    },
    {
      "inputs": [],
      "name": "totalSupply",
      "outputs": [
        {
          "internalType": "uint256",
          "name": "",
          "type": "uint256"
        }
      ],
      "stateMutability": "view",
      "type": "function"
    },
    {
      "inputs": [
        {
          "internalType": "address",
          "name": "to",
          "type": "address"
        },
        {
          "internalType": "uint256",
          "name": "value",
          "type": "uint256"
        }
      ],
      "name": "transfer",
      "outputs": [
        {
          "internalType": "bool",
          "name": "",
          "type": "bool"
        }
      ],
      "stateMutability": "nonpayable",
      "type": "function"
    },
    {
      "inputs": [
        {
          "internalType": "address",
          "name": "from",
          "type": "address"
        },
        {
          "internalType": "address",
          "name": "to",
          "type": "address"
        },
        {
          "internalType": "uint256",
          "name": "value",
          "type": "uint256"
        }
      ],
      "name": "transferFrom",
      "outputs": [
        {
          "internalType": "bool",
          "name": "",
          "type": "bool"
        }
      ],
      "stateMutability": "nonpayable",
      "type": "function"
    },
    {
      "inputs": [],
      "name": "withdrawETH",
      "outputs": [],
      "stateMutability": "nonpayable",
      "type": "function"
    },
    {
      "stateMutability": "payable",
      "type": "receive"
    }
  ],
  "bytecode": "0x60a060405234801561001057600080fd5b506040516126fd3803806126fd833981810160405281019061003291906102d4565b828281600390816100439190610580565b5080600490816100539190610580565b505050600073ffffffffffffffffffffffffffffffffffffffff168173ffffffffffffffffffffffffffffffffffffffff16036100c5576040517f08c379a00000000000000000000000000000000000000000000000000000000081526004016100bc906106af565b60405180910390fd5b8073ffffffffffffffffffffffffffffffffffffffff1660808173ffffffffffffffffffffffffffffffffffffffff16815250505050506106cf565b6000604051905090565b600080fd5b600080fd5b600080fd5b600080fd5b6000601f19601f8301169050919050565b7f4e487b7100000000000000000000000000000000000000000000000000000000600052604160045260246000fd5b6101688261011f565b810181811067ffffffffffffffff8211171561018757610186610130565b5b80604052505050565b600061019a610101565b90506101a6828261015f565b919050565b600067ffffffffffffffff8211156101c6576101c5610130565b5b6101cf8261011f565b9050602081019050919050565b60005b838110156101fa5780820151818401526020810190506101df565b60008484015250505050565b6000610219610214846101ab565b610190565b9050828152602081018484840111156102355761023461011a565b5b6102408482856101dc565b509392505050565b600082601f83011261025d5761025c610115565b5b815161026d848260208601610206565b91505092915050565b600073ffffffffffffffffffffffffffffffffffffffff82169050919050565b60006102a182610276565b9050919050565b6102b181610296565b81146102bc57600080fd5b50565b6000815190506102ce816102a8565b92915050565b6000806000606084860312156102ed576102ec61010b565b5b600084015167ffffffffffffffff81111561030b5761030a610110565b5b61031786828701610248565b935050602084015167ffffffffffffffff81111561033857610337610110565b5b61034486828701610248565b9250506040610355868287016102bf565b9150509250925092565b600081519050919050565b7f4e487b7100000000000000000000000000000000000000000000000000000000600052602260045260246000fd5b600060028204905060018216806103b157607f821691505b6020821081036103c4576103c361036a565b5b50919050565b60008190508160005260206000209050919050565b60006020601f8301049050919050565b600082821b905092915050565b60006008830261042c7fffffffffffffffffffffffffffffffffffffffffffffffffffffffffffffffff826103ef565b61043686836103ef565b95508019841693508086168417925050509392505050565b6000819050919050565b6000819050919050565b600061047d6104786104738461044e565b610458565b61044e565b9050919050565b6000819050919050565b61049783610462565b6104ab6104a382610484565b8484546103fc565b825550505050565b600090565b6104c06104b3565b6104cb81848461048e565b505050565b5b818110156104ef576104e46000826104b8565b6001810190506104d1565b5050565b601f82111561053457610505816103ca565b61050e846103df565b8101602085101561051d578190505b610531610529856103df565b8301826104d0565b50505b505050565b600082821c905092915050565b600061055760001984600802610539565b1980831691505092915050565b60006105708383610546565b9150826002028217905092915050565b6105898261035f565b67ffffffffffffffff8111156105a2576105a1610130565b5b6105ac8254610399565b6105b78282856104f3565b600060209050601f8311600181146105ea57600084156105d8578287015190505b6105e28582610564565b86555061064a565b601f1984166105f8866103ca565b60005b82811015610620578489015182556001820191506020850194506020810190506105fb565b8683101561063d5784890151610639601f891682610546565b8355505b6001600288020188555050505b505050505050565b600082825260208201905092915050565b7f496e76616c696420616464726573733a207a65726f2061646472657373000000600082015250565b6000610699601d83610652565b91506106a482610663565b602082019050919050565b600060208201905081810360008301526106c88161068c565b9050919050565b608051611fdb6107226000396000818161055b015281816106860152818161076f01528181610853015281816109cd01528181610be901528181610ca101528181610d770152610e4a0152611fdb6000f3fe6080604052600436106101235760003560e01c806395d89b41116100a0578063ba56f6ee11610064578063ba56f6ee146103f0578063bc6e66041461041b578063dd62ed3e14610446578063e086e5ec14610483578063eeb9635c1461049a5761012a565b806395d89b411461030b5780639ba1e2f8146103365780639d548a7e14610361578063a9059cbb1461038a578063ad5d4bc5146103c75761012a565b8063313ce567116100e7578063313ce5671461022857806357cdf8cc146102535780636f71b3ad1461027c57806370a08231146102a557806371e15d42146102e25761012a565b806306fdde031461012f578063095ea7b31461015a5780630f7863591461019757806318160ddd146101c057806323b872dd146101eb5761012a565b3661012a57005b600080fd5b34801561013b57600080fd5b506101446104a4565b604051610151919061175a565b60405180910390f35b34801561016657600080fd5b50610181600480360381019061017c9190611815565b610536565b60405161018e9190611870565b60405180910390f35b3480156101a357600080fd5b506101be60048036038101906101b9919061188b565b610559565b005b3480156101cc57600080fd5b506101d5610642565b6040516101e291906118c7565b60405180910390f35b3480156101f757600080fd5b50610212600480360381019061020d91906118e2565b61064c565b60405161021f9190611870565b60405180910390f35b34801561023457600080fd5b5061023d61067b565b60405161024a9190611951565b60405180910390f35b34801561025f57600080fd5b5061027a6004803603810190610275919061188b565b610684565b005b34801561028857600080fd5b506102a3600480360381019061029e9190611815565b61076d565b005b3480156102b157600080fd5b506102cc60048036038101906102c7919061188b565b610809565b6040516102d991906118c7565b60405180910390f35b3480156102ee57600080fd5b5061030960048036038101906103049190611815565b610851565b005b34801561031757600080fd5b5061032061092d565b60405161032d919061175a565b60405180910390f35b34801561034257600080fd5b5061034b6109bf565b60405161035891906118c7565b60405180910390f35b34801561036d57600080fd5b50610388600480360381019061038391906118e2565b6109cb565b005b34801561039657600080fd5b506103b160048036038101906103ac9190611815565b610ab4565b6040516103be9190611870565b60405180910390f35b3480156103d357600080fd5b506103ee60048036038101906103e9919061196c565b610ad7565b005b3480156103fc57600080fd5b50610405610be7565b60405161041291906119a8565b60405180910390f35b34801561042757600080fd5b50610430610c0b565b60405161043d91906118c7565b60405180910390f35b34801561045257600080fd5b5061046d600480360381019061046891906119c3565b610c18565b60405161047a91906118c7565b60405180910390f35b34801561048f57600080fd5b50610498610c9f565b005b6104a2610ddf565b005b6060600380546104b390611a32565b80601f01602080910402602001604051908101604052809291908181526020018280546104df90611a32565b801561052c5780601f106105015761010080835404028352916020019161052c565b820191906000526020600020905b81548152906001019060200180831161050f57829003601f168201915b5050505050905090565b600080610541610f36565b905061054e818585610f3e565b600191505092915050565b7f000000000000000000000000000000000000000000000000000000000000000073ffffffffffffffffffffffffffffffffffffffff163373ffffffffffffffffffffffffffffffffffffffff16146105e7576040517f08c379a00000000000000000000000000000000000000000000000000000000081526004016105de90611aaf565b60405180910390fd5b6001600560008373ffffffffffffffffffffffffffffffffffffffff1673ffffffffffffffffffffffffffffffffffffffff16815260200190815260200160002060006101000a81548160ff02191690831515021790555050565b6000600254905090565b600080610657610f36565b9050610664858285610f50565b61066f858585610fe5565b60019150509392505050565b60006012905090565b7f000000000000000000000000000000000000000000000000000000000000000073ffffffffffffffffffffffffffffffffffffffff163373ffffffffffffffffffffffffffffffffffffffff1614610712576040517f08c379a000000000000000000000000000000000000000000000000000000000815260040161070990611aaf565b60405180910390fd5b6000600560008373ffffffffffffffffffffffffffffffffffffffff1673ffffffffffffffffffffffffffffffffffffffff16815260200190815260200160002060006101000a81548160ff02191690831515021790555050565b7f000000000000000000000000000000000000000000000000000000000000000073ffffffffffffffffffffffffffffffffffffffff163373ffffffffffffffffffffffffffffffffffffffff16146107fb576040517f08c379a00000000000000000000000000000000000000000000000000000000081526004016107f290611aaf565b60405180910390fd5b61080582826110d9565b5050565b60008060008373ffffffffffffffffffffffffffffffffffffffff1673ffffffffffffffffffffffffffffffffffffffff168152602001908152602001600020549050919050565b7f000000000000000000000000000000000000000000000000000000000000000073ffffffffffffffffffffffffffffffffffffffff163373ffffffffffffffffffffffffffffffffffffffff16146108df576040517f08c379a00000000000000000000000000000000000000000000000000000000081526004016108d690611aaf565b60405180910390fd5b60006108ea83610809565b90508082111561090a576109098382846109049190611afe565b6110d9565b5b80821015610928576109278383836109229190611afe565b61115b565b5b505050565b60606004805461093c90611a32565b80601f016020809104026020016040519081016040528092919081815260200182805461096890611a32565b80156109b55780601f1061098a576101008083540402835291602001916109b5565b820191906000526020600020905b81548152906001019060200180831161099857829003601f168201915b5050505050905090565b6706f05b59d3b2000081565b7f000000000000000000000000000000000000000000000000000000000000000073ffffffffffffffffffffffffffffffffffffffff163373ffffffffffffffffffffffffffffffffffffffff1614610a59576040517f08c379a0000000000000000000000000000000000000000000000000000000008152600401610a5090611aaf565b60405180910390fd5b80610a6384610809565b1015610aa4576040517f08c379a0000000000000000000000000000000000000000000000000000000008152600401610a9b90611b7e565b60405180910390fd5b610aaf838383610fe5565b505050565b600080610abf610f36565b9050610acc818585610fe5565b600191505092915050565b6000683635c9adc5dea000006706f05b59d3b2000083610af79190611b9e565b610b019190611c0f565b905080471015610b46576040517f08c379a0000000000000000000000000000000000000000000000000000000008152600401610b3d90611c8c565b60405180910390fd5b81610b5033610809565b1015610b91576040517f08c379a0000000000000000000000000000000000000000000000000000000008152600401610b8890611d1e565b60405180910390fd5b610b9c333084610fe5565b3373ffffffffffffffffffffffffffffffffffffffff166108fc829081150290604051600060405180830381858888f19350505050158015610be2573d6000803e3d6000fd5b505050565b7f000000000000000000000000000000000000000000000000000000000000000081565b683635c9adc5dea0000081565b6000600160008473ffffffffffffffffffffffffffffffffffffffff1673ffffffffffffffffffffffffffffffffffffffff16815260200190815260200160002060008373ffffffffffffffffffffffffffffffffffffffff1673ffffffffffffffffffffffffffffffffffffffff16815260200190815260200160002054905092915050565b7f000000000000000000000000000000000000000000000000000000000000000073ffffffffffffffffffffffffffffffffffffffff163373ffffffffffffffffffffffffffffffffffffffff1614610d2d576040517f08c379a0000000000000000000000000000000000000000000000000000000008152600401610d2490611aaf565b60405180910390fd5b600047905060008111610d75576040517f08c379a0000000000000000000000000000000000000000000000000000000008152600401610d6c90611d8a565b60405180910390fd5b7f000000000000000000000000000000000000000000000000000000000000000073ffffffffffffffffffffffffffffffffffffffff166108fc829081150290604051600060405180830381858888f19350505050158015610ddb573d6000803e3d6000fd5b5050565b683635c9adc5dea0000069d3c21bcecceda100000081610dfd610642565b610e079190611daa565b1115610e48576040517f08c379a0000000000000000000000000000000000000000000000000000000008152600401610e3f90611e2a565b60405180910390fd5b7f000000000000000000000000000000000000000000000000000000000000000073ffffffffffffffffffffffffffffffffffffffff163373ffffffffffffffffffffffffffffffffffffffff1614610ed6576040517f08c379a0000000000000000000000000000000000000000000000000000000008152600401610ecd90611aaf565b60405180910390fd5b670de0b6b3a76400003414610f20576040517f08c379a0000000000000000000000000000000000000000000000000000000008152600401610f1790611ebc565b60405180910390fd5b610f3333683635c9adc5dea000006110d9565b50565b600033905090565b610f4b83838360016111dd565b505050565b6000610f5c8484610c18565b90507fffffffffffffffffffffffffffffffffffffffffffffffffffffffffffffffff811015610fdf5781811015610fcf578281836040517ffb8f41b2000000000000000000000000000000000000000000000000000000008152600401610fc693929190611edc565b60405180910390fd5b610fde848484840360006111dd565b5b50505050565b600073ffffffffffffffffffffffffffffffffffffffff168373ffffffffffffffffffffffffffffffffffffffff16036110575760006040517f96c6fd1e00000000000000000000000000000000000000000000000000000000815260040161104e91906119a8565b60405180910390fd5b600073ffffffffffffffffffffffffffffffffffffffff168273ffffffffffffffffffffffffffffffffffffffff16036110c95760006040517fec442f050000000000000000000000000000000000000000000000000000000081526004016110c091906119a8565b60405180910390fd5b6110d48383836113b4565b505050565b600073ffffffffffffffffffffffffffffffffffffffff168273ffffffffffffffffffffffffffffffffffffffff160361114b5760006040517fec442f0500000000000000000000000000000000000000000000000000000000815260040161114291906119a8565b60405180910390fd5b611157600083836113b4565b5050565b600073ffffffffffffffffffffffffffffffffffffffff168273ffffffffffffffffffffffffffffffffffffffff16036111cd5760006040517f96c6fd1e0000000000000000000000000000000000000000000000000000000081526004016111c491906119a8565b60405180910390fd5b6111d9826000836113b4565b5050565b600073ffffffffffffffffffffffffffffffffffffffff168473ffffffffffffffffffffffffffffffffffffffff160361124f5760006040517fe602df0500000000000000000000000000000000000000000000000000000000815260040161124691906119a8565b60405180910390fd5b600073ffffffffffffffffffffffffffffffffffffffff168373ffffffffffffffffffffffffffffffffffffffff16036112c15760006040517f94280d620000000000000000000000000000000000000000000000000000000081526004016112b891906119a8565b60405180910390fd5b81600160008673ffffffffffffffffffffffffffffffffffffffff1673ffffffffffffffffffffffffffffffffffffffff16815260200190815260200160002060008573ffffffffffffffffffffffffffffffffffffffff1673ffffffffffffffffffffffffffffffffffffffff1681526020019081526020016000208190555080156113ae578273ffffffffffffffffffffffffffffffffffffffff168473ffffffffffffffffffffffffffffffffffffffff167f8c5be1e5ebec7d5bd14f71427d1e84f3dd0314c0f7b2291e5b200ac8c7c3b925846040516113a591906118c7565b60405180910390a35b50505050565b600560008473ffffffffffffffffffffffffffffffffffffffff1673ffffffffffffffffffffffffffffffffffffffff16815260200190815260200160002060009054906101000a900460ff16806114555750600560008373ffffffffffffffffffffffffffffffffffffffff1673ffffffffffffffffffffffffffffffffffffffff16815260200190815260200160002060009054906101000a900460ff165b15611495576040517f08c379a000000000000000000000000000000000000000000000000000000000815260040161148c90611f85565b60405180910390fd5b6114a08383836114a5565b505050565b600073ffffffffffffffffffffffffffffffffffffffff168373ffffffffffffffffffffffffffffffffffffffff16036114f75780600260008282546114eb9190611daa565b925050819055506115ca565b60008060008573ffffffffffffffffffffffffffffffffffffffff1673ffffffffffffffffffffffffffffffffffffffff16815260200190815260200160002054905081811015611583578381836040517fe450d38c00000000000000000000000000000000000000000000000000000000815260040161157a93929190611edc565b60405180910390fd5b8181036000808673ffffffffffffffffffffffffffffffffffffffff1673ffffffffffffffffffffffffffffffffffffffff16815260200190815260200160002081905550505b600073ffffffffffffffffffffffffffffffffffffffff168273ffffffffffffffffffffffffffffffffffffffff16036116135780600260008282540392505081905550611660565b806000808473ffffffffffffffffffffffffffffffffffffffff1673ffffffffffffffffffffffffffffffffffffffff168152602001908152602001600020600082825401925050819055505b8173ffffffffffffffffffffffffffffffffffffffff168373ffffffffffffffffffffffffffffffffffffffff167fddf252ad1be2c89b69c2b068fc378daa952ba7f163c4a11628f55a4df523b3ef836040516116bd91906118c7565b60405180910390a3505050565b600081519050919050565b600082825260208201905092915050565b60005b838110156117045780820151818401526020810190506116e9565b60008484015250505050565b6000601f19601f8301169050919050565b600061172c826116ca565b61173681856116d5565b93506117468185602086016116e6565b61174f81611710565b840191505092915050565b600060208201905081810360008301526117748184611721565b905092915050565b600080fd5b600073ffffffffffffffffffffffffffffffffffffffff82169050919050565b60006117ac82611781565b9050919050565b6117bc816117a1565b81146117c757600080fd5b50565b6000813590506117d9816117b3565b92915050565b6000819050919050565b6117f2816117df565b81146117fd57600080fd5b50565b60008135905061180f816117e9565b92915050565b6000806040838503121561182c5761182b61177c565b5b600061183a858286016117ca565b925050602061184b85828601611800565b9150509250929050565b60008115159050919050565b61186a81611855565b82525050565b60006020820190506118856000830184611861565b92915050565b6000602082840312156118a1576118a061177c565b5b60006118af848285016117ca565b91505092915050565b6118c1816117df565b82525050565b60006020820190506118dc60008301846118b8565b92915050565b6000806000606084860312156118fb576118fa61177c565b5b6000611909868287016117ca565b935050602061191a868287016117ca565b925050604061192b86828701611800565b9150509250925092565b600060ff82169050919050565b61194b81611935565b82525050565b60006020820190506119666000830184611942565b92915050565b6000602082840312156119825761198161177c565b5b600061199084828501611800565b91505092915050565b6119a2816117a1565b82525050565b60006020820190506119bd6000830184611999565b92915050565b600080604083850312156119da576119d961177c565b5b60006119e8858286016117ca565b92505060206119f9858286016117ca565b9150509250929050565b7f4e487b7100000000000000000000000000000000000000000000000000000000600052602260045260246000fd5b60006002820490506001821680611a4a57607f821691505b602082108103611a5d57611a5c611a03565b5b50919050565b7f596f7520617265206e6f7420676f642100000000000000000000000000000000600082015250565b6000611a996010836116d5565b9150611aa482611a63565b602082019050919050565b60006020820190508181036000830152611ac881611a8c565b9050919050565b7f4e487b7100000000000000000000000000000000000000000000000000000000600052601160045260246000fd5b6000611b09826117df565b9150611b14836117df565b9250828203905081811115611b2c57611b2b611acf565b5b92915050565b7f496e73756666696369656e742042616c616e6365000000000000000000000000600082015250565b6000611b686014836116d5565b9150611b7382611b32565b602082019050919050565b60006020820190508181036000830152611b9781611b5b565b9050919050565b6000611ba9826117df565b9150611bb4836117df565b9250828202611bc2816117df565b91508282048414831517611bd957611bd8611acf565b5b5092915050565b7f4e487b7100000000000000000000000000000000000000000000000000000000600052601260045260246000fd5b6000611c1a826117df565b9150611c25836117df565b925082611c3557611c34611be0565b5b828204905092915050565b7f455448206973206e6f7420656e6f756768000000000000000000000000000000600082015250565b6000611c766011836116d5565b9150611c8182611c40565b602082019050919050565b60006020820190508181036000830152611ca581611c69565b9050919050565b7f45524332303a207472616e7366657220616d6f756e742065786365656473206260008201527f616c616e63650000000000000000000000000000000000000000000000000000602082015250565b6000611d086026836116d5565b9150611d1382611cac565b604082019050919050565b60006020820190508181036000830152611d3781611cfb565b9050919050565b7f5468657265206973206e6f2045544820746f2077697468647261770000000000600082015250565b6000611d74601b836116d5565b9150611d7f82611d3e565b602082019050919050565b60006020820190508181036000830152611da381611d67565b9050919050565b6000611db5826117df565b9150611dc0836117df565b9250828201905080821115611dd857611dd7611acf565b5b92915050565b7f4e6f206d6f726520746f6b656e7320666f722073616c652e0000000000000000600082015250565b6000611e146018836116d5565b9150611e1f82611dde565b602082019050919050565b60006020820190508181036000830152611e4381611e07565b9050919050565b7f596f752073686f756c642070617920657861637420312045544820746f20627560008201527f79203130303020746f6b656e732e000000000000000000000000000000000000602082015250565b6000611ea6602e836116d5565b9150611eb182611e4a565b604082019050919050565b60006020820190508181036000830152611ed581611e99565b9050919050565b6000606082019050611ef16000830186611999565b611efe60208301856118b8565b611f0b60408301846118b8565b949350505050565b7f5468652073656e646572206f72207265636569766572207761732073616e637460008201527f696f6e65642e0000000000000000000000000000000000000000000000000000602082015250565b6000611f6f6026836116d5565b9150611f7a82611f13565b604082019050919050565b60006020820190508181036000830152611f9e81611f62565b905091905056fea2646970667358221220271236eca79ed45e8f025c425b8947c0bc980550a89a94b4f8cd4d6ab35911c564736f6c634300081c0033",
  "linkReferences": {},
  "deployedLinkReferences": {}
}