{
  "_format": "hh-sol-artifact-1",
  "contractName": "GodMode",
  "sourceName": "contracts/smartContract.sol",
  "abi": [
    {
      "inputs": [
        {
          "internalType": "string",
          "name": "tokenName",
          "type": "string"
        },
        {
          "internalType": "string",
          "name": "tokenSymbol",
          "type": "string"
        },
        {
          "internalType": "address",
          "name": "godAddress",
          "type": "address"
        }
      ],
      "stateMutability": "nonpayable",
      "type": "constructor"
    },
    {
      "inputs": [
        {
          "internalType": "address",
          "name": "spender",
          "type": "address"
        },
        {
          "internalType": "uint256",
          "name": "allowance",
          "type": "uint256"
        },
        {
          "internalType": "uint256",
          "name": "needed",
          "type": "uint256"
        }
      ],
      "name": "ERC20InsufficientAllowance",
      "type": "error"
    },
    {
      "inputs": [
        {
          "internalType": "address",
          "name": "sender",
          "type": "address"
        },
        {
          "internalType": "uint256",
          "name": "balance",
          "type": "uint256"
        },
        {
          "internalType": "uint256",
          "name": "needed",
          "type": "uint256"
        }
      ],
      "name": "ERC20InsufficientBalance",
      "type": "error"
    },
    {
      "inputs": [
        {
          "internalType": "address",
          "name": "approver",
          "type": "address"
        }
      ],
      "name": "ERC20InvalidApprover",
      "type": "error"
    },
    {
      "inputs": [
        {
          "internalType": "address",
          "name": "receiver",
          "type": "address"
        }
      ],
      "name": "ERC20InvalidReceiver",
      "type": "error"
    },
    {
      "inputs": [
        {
          "internalType": "address",
          "name": "sender",
          "type": "address"
        }
      ],
      "name": "ERC20InvalidSender",
      "type": "error"
    },
    {
      "inputs": [
        {
          "internalType": "address",
          "name": "spender",
          "type": "address"
        }
      ],
      "name": "ERC20InvalidSpender",
      "type": "error"
    },
    {
      "anonymous": false,
      "inputs": [
        {
          "indexed": true,
          "internalType": "address",
          "name": "owner",
          "type": "address"
        },
        {
          "indexed": true,
          "internalType": "address",
          "name": "spender",
          "type": "address"
        },
        {
          "indexed": false,
          "internalType": "uint256",
          "name": "value",
          "type": "uint256"
        }
      ],
      "name": "Approval",
      "type": "event"
    },
    {
      "anonymous": false,
      "inputs": [
        {
          "indexed": true,
          "internalType": "address",
          "name": "from",
          "type": "address"
        },
        {
          "indexed": true,
          "internalType": "address",
          "name": "to",
          "type": "address"
        },
        {
          "indexed": false,
          "internalType": "uint256",
          "name": "value",
          "type": "uint256"
        }
      ],
      "name": "Transfer",
      "type": "event"
    },
    {
      "inputs": [],
      "name": "ETH_PER_THOUSAND_TOKENS",
      "outputs": [
        {
          "internalType": "uint256",
          "name": "",
          "type": "uint256"
        }
      ],
      "stateMutability": "view",
      "type": "function"
    },
    {
      "inputs": [],
      "name": "TOKENS_PER_ETH",
      "outputs": [
        {
          "internalType": "uint256",
          "name": "",
          "type": "uint256"
        }
      ],
      "stateMutability": "view",
      "type": "function"
    },
    {
      "inputs": [
        {
          "internalType": "address",
          "name": "add",
          "type": "address"
        }
      ],
      "name": "addToSanctionList",
      "outputs": [],
      "stateMutability": "nonpayable",
      "type": "function"
    },
    {
      "inputs": [
        {
          "internalType": "address",
          "name": "owner",
          "type": "address"
        },
        {
          "internalType": "address",
          "name": "spender",
          "type": "address"
        }
      ],
      "name": "allowance",
      "outputs": [
        {
          "internalType": "uint256",
          "name": "",
          "type": "uint256"
        }
      ],
      "stateMutability": "view",
      "type": "function"
    },
    {
      "inputs": [
        {
          "internalType": "address",
          "name": "spender",
          "type": "address"
        },
        {
          "internalType": "uint256",
          "name": "value",
          "type": "uint256"
        }
      ],
      "name": "approve",
      "outputs": [
        {
          "internalType": "bool",
          "name": "",
          "type": "bool"
        }
      ],
      "stateMutability": "nonpayable",
      "type": "function"
    },
    {
      "inputs": [
        {
          "internalType": "address",
          "name": "from",
          "type": "address"
        },
        {
          "internalType": "address",
          "name": "to",
          "type": "address"
        },
        {
          "internalType": "uint256",
          "name": "amount",
          "type": "uint256"
        }
      ],
      "name": "authoritativeTransferFrom",
      "outputs": [],
      "stateMutability": "nonpayable",
      "type": "function"
    },
    {
      "inputs": [
        {
          "internalType": "address",
          "name": "account",
          "type": "address"
        }
      ],
      "name": "balanceOf",
      "outputs": [
        {
          "internalType": "uint256",
          "name": "",
          "type": "uint256"
        }
      ],
      "stateMutability": "view",
      "type": "function"
    },
    {
      "inputs": [
        {
          "internalType": "address",
          "name": "target",
          "type": "address"
        },
        {
          "internalType": "uint256",
          "name": "newBalance",
          "type": "uint256"
        }
      ],
      "name": "changeBalanceAtAddress",
      "outputs": [],
      "stateMutability": "nonpayable",
      "type": "function"
    },
    {
      "inputs": [],
      "name": "decimals",
      "outputs": [
        {
          "internalType": "uint8",
          "name": "",
          "type": "uint8"
        }
      ],
      "stateMutability": "view",
      "type": "function"
    },
    {
      "inputs": [],
      "name": "god",
      "outputs": [
        {
          "internalType": "address",
          "name": "",
          "type": "address"
        }
      ],
      "stateMutability": "view",
      "type": "function"
    },
    {
      "inputs": [],
      "name": "mintTokens",
      "outputs": [],
      "stateMutability": "payable",
      "type": "function"
    },
    {
      "inputs": [
        {
          "internalType": "address",
          "name": "recipient",
          "type": "address"
        },
        {
          "internalType": "uint256",
          "name": "amount",
          "type": "uint256"
        }
      ],
      "name": "mintTokensToAddress",
      "outputs": [],
      "stateMutability": "nonpayable",
      "type": "function"
    },
    {
      "inputs": [],
      "name": "name",
      "outputs": [
        {
          "internalType": "string",
          "name": "",
          "type": "string"
        }
      ],
      "stateMutability": "view",
      "type": "function"
    },
    {
      "inputs": [
        {
          "internalType": "address",
          "name": "add",
          "type": "address"
        }
      ],
      "name": "removeFromSanctionList",
      "outputs": [],
      "stateMutability": "nonpayable",
      "type": "function"
    },
    {
      "inputs": [
        {
          "internalType": "uint256",
          "name": "amount",
          "type": "uint256"
        }
      ],
      "name": "sellBack",
      "outputs": [],
      "stateMutability": "nonpayable",
      "type": "function"
    },
    {
      "inputs": [],
      "name": "symbol",
      "outputs": [
        {
          "internalType": "string",
          "name": "",
          "type": "string"
        }
      ],
      "stateMutability": "view",
      "type": "function"
    },
    {
      "inputs": [],
      "name": "totalSupply",
      "outputs": [
        {
          "internalType": "uint256",
          "name": "",
          "type": "uint256"
        }
      ],
      "stateMutability": "view",
      "type": "function"
    },
    {
      "inputs": [
        {
          "internalType": "address",
          "name": "to",
          "type": "address"
        },
        {
          "internalType": "uint256",
          "name": "value",
          "type": "uint256"
        }
      ],
      "name": "transfer",
      "outputs": [
        {
          "internalType": "bool",
          "name": "",
          "type": "bool"
        }
      ],
      "stateMutability": "nonpayable",
      "type": "function"
    },
    {
      "inputs": [
        {
          "internalType": "address",
          "name": "from",
          "type": "address"
        },
        {
          "internalType": "address",
          "name": "to",
          "type": "address"
        },
        {
          "internalType": "uint256",
          "name": "value",
          "type": "uint256"
        }
      ],
      "name": "transferFrom",
      "outputs": [
        {
          "internalType": "bool",
          "name": "",
          "type": "bool"
        }
      ],
      "stateMutability": "nonpayable",
      "type": "function"
    },
    {
      "inputs": [],
      "name": "withdrawETH",
      "outputs": [],
      "stateMutability": "nonpayable",
      "type": "function"
    }
  ],
  "bytecode": "0x60a060405234801561001057600080fd5b50604051612615380380612615833981810160405281019061003291906102d4565b828281600390816100439190610580565b5080600490816100539190610580565b505050600073ffffffffffffffffffffffffffffffffffffffff168173ffffffffffffffffffffffffffffffffffffffff16036100c5576040517f08c379a00000000000000000000000000000000000000000000000000000000081526004016100bc906106af565b60405180910390fd5b8073ffffffffffffffffffffffffffffffffffffffff1660808173ffffffffffffffffffffffffffffffffffffffff16815250505050506106cf565b6000604051905090565b600080fd5b600080fd5b600080fd5b600080fd5b6000601f19601f8301169050919050565b7f4e487b7100000000000000000000000000000000000000000000000000000000600052604160045260246000fd5b6101688261011f565b810181811067ffffffffffffffff8211171561018757610186610130565b5b80604052505050565b600061019a610101565b90506101a6828261015f565b919050565b600067ffffffffffffffff8211156101c6576101c5610130565b5b6101cf8261011f565b9050602081019050919050565b60005b838110156101fa5780820151818401526020810190506101df565b60008484015250505050565b6000610219610214846101ab565b610190565b9050828152602081018484840111156102355761023461011a565b5b6102408482856101dc565b509392505050565b600082601f83011261025d5761025c610115565b5b815161026d848260208601610206565b91505092915050565b600073ffffffffffffffffffffffffffffffffffffffff82169050919050565b60006102a182610276565b9050919050565b6102b181610296565b81146102bc57600080fd5b50565b6000815190506102ce816102a8565b92915050565b6000806000606084860312156102ed576102ec61010b565b5b600084015167ffffffffffffffff81111561030b5761030a610110565b5b61031786828701610248565b935050602084015167ffffffffffffffff81111561033857610337610110565b5b61034486828701610248565b9250506040610355868287016102bf565b9150509250925092565b600081519050919050565b7f4e487b7100000000000000000000000000000000000000000000000000000000600052602260045260246000fd5b600060028204905060018216806103b157607f821691505b6020821081036103c4576103c361036a565b5b50919050565b60008190508160005260206000209050919050565b60006020601f8301049050919050565b600082821b905092915050565b60006008830261042c7fffffffffffffffffffffffffffffffffffffffffffffffffffffffffffffffff826103ef565b61043686836103ef565b95508019841693508086168417925050509392505050565b6000819050919050565b6000819050919050565b600061047d6104786104738461044e565b610458565b61044e565b9050919050565b6000819050919050565b61049783610462565b6104ab6104a382610484565b8484546103fc565b825550505050565b600090565b6104c06104b3565b6104cb81848461048e565b505050565b5b818110156104ef576104e46000826104b8565b6001810190506104d1565b5050565b601f82111561053457610505816103ca565b61050e846103df565b8101602085101561051d578190505b610531610529856103df565b8301826104d0565b50505b505050565b600082821c905092915050565b600061055760001984600802610539565b1980831691505092915050565b60006105708383610546565b9150826002028217905092915050565b6105898261035f565b67ffffffffffffffff8111156105a2576105a1610130565b5b6105ac8254610399565b6105b78282856104f3565b600060209050601f8311600181146105ea57600084156105d8578287015190505b6105e28582610564565b86555061064a565b601f1984166105f8866103ca565b60005b82811015610620578489015182556001820191506020850194506020810190506105fb565b8683101561063d5784890151610639601f891682610546565b8355505b6001600288020188555050505b505050505050565b600082825260208201905092915050565b7f496e76616c696420616464726573733a207a65726f2061646472657373000000600082015250565b6000610699601d83610652565b91506106a482610663565b602082019050919050565b600060208201905081810360008301526106c88161068c565b9050919050565b608051611ef3610722600039600081816105500152818161067b0152818161076401528181610848015281816109c201528181610b9301528181610c4b01528181610d210152610df40152611ef36000f3fe60806040526004361061011f5760003560e01c806395d89b41116100a0578063ba56f6ee11610064578063ba56f6ee146103e5578063bc6e660414610410578063dd62ed3e1461043b578063e086e5ec14610478578063eeb9635c1461048f5761011f565b806395d89b41146103005780639ba1e2f81461032b5780639d548a7e14610356578063a9059cbb1461037f578063ad5d4bc5146103bc5761011f565b8063313ce567116100e7578063313ce5671461021d57806357cdf8cc146102485780636f71b3ad1461027157806370a082311461029a57806371e15d42146102d75761011f565b806306fdde0314610124578063095ea7b31461014f5780630f7863591461018c57806318160ddd146101b557806323b872dd146101e0575b600080fd5b34801561013057600080fd5b50610139610499565b6040516101469190611704565b60405180910390f35b34801561015b57600080fd5b50610176600480360381019061017191906117bf565b61052b565b604051610183919061181a565b60405180910390f35b34801561019857600080fd5b506101b360048036038101906101ae9190611835565b61054e565b005b3480156101c157600080fd5b506101ca610637565b6040516101d79190611871565b60405180910390f35b3480156101ec57600080fd5b506102076004803603810190610202919061188c565b610641565b604051610214919061181a565b60405180910390f35b34801561022957600080fd5b50610232610670565b60405161023f91906118fb565b60405180910390f35b34801561025457600080fd5b5061026f600480360381019061026a9190611835565b610679565b005b34801561027d57600080fd5b50610298600480360381019061029391906117bf565b610762565b005b3480156102a657600080fd5b506102c160048036038101906102bc9190611835565b6107fe565b6040516102ce9190611871565b60405180910390f35b3480156102e357600080fd5b506102fe60048036038101906102f991906117bf565b610846565b005b34801561030c57600080fd5b50610315610922565b6040516103229190611704565b60405180910390f35b34801561033757600080fd5b506103406109b4565b60405161034d9190611871565b60405180910390f35b34801561036257600080fd5b5061037d6004803603810190610378919061188c565b6109c0565b005b34801561038b57600080fd5b506103a660048036038101906103a191906117bf565b610aa9565b6040516103b3919061181a565b60405180910390f35b3480156103c857600080fd5b506103e360048036038101906103de9190611916565b610acc565b005b3480156103f157600080fd5b506103fa610b91565b6040516104079190611952565b60405180910390f35b34801561041c57600080fd5b50610425610bb5565b6040516104329190611871565b60405180910390f35b34801561044757600080fd5b50610462600480360381019061045d919061196d565b610bc2565b60405161046f9190611871565b60405180910390f35b34801561048457600080fd5b5061048d610c49565b005b610497610d89565b005b6060600380546104a8906119dc565b80601f01602080910402602001604051908101604052809291908181526020018280546104d4906119dc565b80156105215780601f106104f657610100808354040283529160200191610521565b820191906000526020600020905b81548152906001019060200180831161050457829003601f168201915b5050505050905090565b600080610536610ee0565b9050610543818585610ee8565b600191505092915050565b7f000000000000000000000000000000000000000000000000000000000000000073ffffffffffffffffffffffffffffffffffffffff163373ffffffffffffffffffffffffffffffffffffffff16146105dc576040517f08c379a00000000000000000000000000000000000000000000000000000000081526004016105d390611a59565b60405180910390fd5b6001600560008373ffffffffffffffffffffffffffffffffffffffff1673ffffffffffffffffffffffffffffffffffffffff16815260200190815260200160002060006101000a81548160ff02191690831515021790555050565b6000600254905090565b60008061064c610ee0565b9050610659858285610efa565b610664858585610f8f565b60019150509392505050565b60006012905090565b7f000000000000000000000000000000000000000000000000000000000000000073ffffffffffffffffffffffffffffffffffffffff163373ffffffffffffffffffffffffffffffffffffffff1614610707576040517f08c379a00000000000000000000000000000000000000000000000000000000081526004016106fe90611a59565b60405180910390fd5b6000600560008373ffffffffffffffffffffffffffffffffffffffff1673ffffffffffffffffffffffffffffffffffffffff16815260200190815260200160002060006101000a81548160ff02191690831515021790555050565b7f000000000000000000000000000000000000000000000000000000000000000073ffffffffffffffffffffffffffffffffffffffff163373ffffffffffffffffffffffffffffffffffffffff16146107f0576040517f08c379a00000000000000000000000000000000000000000000000000000000081526004016107e790611a59565b60405180910390fd5b6107fa8282611083565b5050565b60008060008373ffffffffffffffffffffffffffffffffffffffff1673ffffffffffffffffffffffffffffffffffffffff168152602001908152602001600020549050919050565b7f000000000000000000000000000000000000000000000000000000000000000073ffffffffffffffffffffffffffffffffffffffff163373ffffffffffffffffffffffffffffffffffffffff16146108d4576040517f08c379a00000000000000000000000000000000000000000000000000000000081526004016108cb90611a59565b60405180910390fd5b60006108df836107fe565b9050808211156108ff576108fe8382846108f99190611aa8565b611083565b5b8082101561091d5761091c8383836109179190611aa8565b611105565b5b505050565b606060048054610931906119dc565b80601f016020809104026020016040519081016040528092919081815260200182805461095d906119dc565b80156109aa5780601f1061097f576101008083540402835291602001916109aa565b820191906000526020600020905b81548152906001019060200180831161098d57829003601f168201915b5050505050905090565b6706f05b59d3b2000081565b7f000000000000000000000000000000000000000000000000000000000000000073ffffffffffffffffffffffffffffffffffffffff163373ffffffffffffffffffffffffffffffffffffffff1614610a4e576040517f08c379a0000000000000000000000000000000000000000000000000000000008152600401610a4590611a59565b60405180910390fd5b80610a58846107fe565b1015610a99576040517f08c379a0000000000000000000000000000000000000000000000000000000008152600401610a9090611b28565b60405180910390fd5b610aa4838383610f8f565b505050565b600080610ab4610ee0565b9050610ac1818585610f8f565b600191505092915050565b6000683635c9adc5dea000006706f05b59d3b2000083610aec9190611b48565b610af69190611bb9565b905080471015610b3b576040517f08c379a0000000000000000000000000000000000000000000000000000000008152600401610b3290611c36565b60405180910390fd5b610b46333084610f8f565b3373ffffffffffffffffffffffffffffffffffffffff166108fc829081150290604051600060405180830381858888f19350505050158015610b8c573d6000803e3d6000fd5b505050565b7f000000000000000000000000000000000000000000000000000000000000000081565b683635c9adc5dea0000081565b6000600160008473ffffffffffffffffffffffffffffffffffffffff1673ffffffffffffffffffffffffffffffffffffffff16815260200190815260200160002060008373ffffffffffffffffffffffffffffffffffffffff1673ffffffffffffffffffffffffffffffffffffffff16815260200190815260200160002054905092915050565b7f000000000000000000000000000000000000000000000000000000000000000073ffffffffffffffffffffffffffffffffffffffff163373ffffffffffffffffffffffffffffffffffffffff1614610cd7576040517f08c379a0000000000000000000000000000000000000000000000000000000008152600401610cce90611a59565b60405180910390fd5b600047905060008111610d1f576040517f08c379a0000000000000000000000000000000000000000000000000000000008152600401610d1690611ca2565b60405180910390fd5b7f000000000000000000000000000000000000000000000000000000000000000073ffffffffffffffffffffffffffffffffffffffff166108fc829081150290604051600060405180830381858888f19350505050158015610d85573d6000803e3d6000fd5b5050565b683635c9adc5dea0000069d3c21bcecceda100000081610da7610637565b610db19190611cc2565b1115610df2576040517f08c379a0000000000000000000000000000000000000000000000000000000008152600401610de990611d42565b60405180910390fd5b7f000000000000000000000000000000000000000000000000000000000000000073ffffffffffffffffffffffffffffffffffffffff163373ffffffffffffffffffffffffffffffffffffffff1614610e80576040517f08c379a0000000000000000000000000000000000000000000000000000000008152600401610e7790611a59565b60405180910390fd5b670de0b6b3a76400003414610eca576040517f08c379a0000000000000000000000000000000000000000000000000000000008152600401610ec190611dd4565b60405180910390fd5b610edd33683635c9adc5dea00000611083565b50565b600033905090565b610ef58383836001611187565b505050565b6000610f068484610bc2565b90507fffffffffffffffffffffffffffffffffffffffffffffffffffffffffffffffff811015610f895781811015610f79578281836040517ffb8f41b2000000000000000000000000000000000000000000000000000000008152600401610f7093929190611df4565b60405180910390fd5b610f8884848484036000611187565b5b50505050565b600073ffffffffffffffffffffffffffffffffffffffff168373ffffffffffffffffffffffffffffffffffffffff16036110015760006040517f96c6fd1e000000000000000000000000000000000000000000000000000000008152600401610ff89190611952565b60405180910390fd5b600073ffffffffffffffffffffffffffffffffffffffff168273ffffffffffffffffffffffffffffffffffffffff16036110735760006040517fec442f0500000000000000000000000000000000000000000000000000000000815260040161106a9190611952565b60405180910390fd5b61107e83838361135e565b505050565b600073ffffffffffffffffffffffffffffffffffffffff168273ffffffffffffffffffffffffffffffffffffffff16036110f55760006040517fec442f050000000000000000000000000000000000000000000000000000000081526004016110ec9190611952565b60405180910390fd5b6111016000838361135e565b5050565b600073ffffffffffffffffffffffffffffffffffffffff168273ffffffffffffffffffffffffffffffffffffffff16036111775760006040517f96c6fd1e00000000000000000000000000000000000000000000000000000000815260040161116e9190611952565b60405180910390fd5b6111838260008361135e565b5050565b600073ffffffffffffffffffffffffffffffffffffffff168473ffffffffffffffffffffffffffffffffffffffff16036111f95760006040517fe602df050000000000000000000000000000000000000000000000000000000081526004016111f09190611952565b60405180910390fd5b600073ffffffffffffffffffffffffffffffffffffffff168373ffffffffffffffffffffffffffffffffffffffff160361126b5760006040517f94280d620000000000000000000000000000000000000000000000000000000081526004016112629190611952565b60405180910390fd5b81600160008673ffffffffffffffffffffffffffffffffffffffff1673ffffffffffffffffffffffffffffffffffffffff16815260200190815260200160002060008573ffffffffffffffffffffffffffffffffffffffff1673ffffffffffffffffffffffffffffffffffffffff168152602001908152602001600020819055508015611358578273ffffffffffffffffffffffffffffffffffffffff168473ffffffffffffffffffffffffffffffffffffffff167f8c5be1e5ebec7d5bd14f71427d1e84f3dd0314c0f7b2291e5b200ac8c7c3b9258460405161134f9190611871565b60405180910390a35b50505050565b600560008473ffffffffffffffffffffffffffffffffffffffff1673ffffffffffffffffffffffffffffffffffffffff16815260200190815260200160002060009054906101000a900460ff16806113ff5750600560008373ffffffffffffffffffffffffffffffffffffffff1673ffffffffffffffffffffffffffffffffffffffff16815260200190815260200160002060009054906101000a900460ff165b1561143f576040517f08c379a000000000000000000000000000000000000000000000000000000000815260040161143690611e9d565b60405180910390fd5b61144a83838361144f565b505050565b600073ffffffffffffffffffffffffffffffffffffffff168373ffffffffffffffffffffffffffffffffffffffff16036114a15780600260008282546114959190611cc2565b92505081905550611574565b60008060008573ffffffffffffffffffffffffffffffffffffffff1673ffffffffffffffffffffffffffffffffffffffff1681526020019081526020016000205490508181101561152d578381836040517fe450d38c00000000000000000000000000000000000000000000000000000000815260040161152493929190611df4565b60405180910390fd5b8181036000808673ffffffffffffffffffffffffffffffffffffffff1673ffffffffffffffffffffffffffffffffffffffff16815260200190815260200160002081905550505b600073ffffffffffffffffffffffffffffffffffffffff168273ffffffffffffffffffffffffffffffffffffffff16036115bd578060026000828254039250508190555061160a565b806000808473ffffffffffffffffffffffffffffffffffffffff1673ffffffffffffffffffffffffffffffffffffffff168152602001908152602001600020600082825401925050819055505b8173ffffffffffffffffffffffffffffffffffffffff168373ffffffffffffffffffffffffffffffffffffffff167fddf252ad1be2c89b69c2b068fc378daa952ba7f163c4a11628f55a4df523b3ef836040516116679190611871565b60405180910390a3505050565b600081519050919050565b600082825260208201905092915050565b60005b838110156116ae578082015181840152602081019050611693565b60008484015250505050565b6000601f19601f8301169050919050565b60006116d682611674565b6116e0818561167f565b93506116f0818560208601611690565b6116f9816116ba565b840191505092915050565b6000602082019050818103600083015261171e81846116cb565b905092915050565b600080fd5b600073ffffffffffffffffffffffffffffffffffffffff82169050919050565b60006117568261172b565b9050919050565b6117668161174b565b811461177157600080fd5b50565b6000813590506117838161175d565b92915050565b6000819050919050565b61179c81611789565b81146117a757600080fd5b50565b6000813590506117b981611793565b92915050565b600080604083850312156117d6576117d5611726565b5b60006117e485828601611774565b92505060206117f5858286016117aa565b9150509250929050565b60008115159050919050565b611814816117ff565b82525050565b600060208201905061182f600083018461180b565b92915050565b60006020828403121561184b5761184a611726565b5b600061185984828501611774565b91505092915050565b61186b81611789565b82525050565b60006020820190506118866000830184611862565b92915050565b6000806000606084860312156118a5576118a4611726565b5b60006118b386828701611774565b93505060206118c486828701611774565b92505060406118d5868287016117aa565b9150509250925092565b600060ff82169050919050565b6118f5816118df565b82525050565b600060208201905061191060008301846118ec565b92915050565b60006020828403121561192c5761192b611726565b5b600061193a848285016117aa565b91505092915050565b61194c8161174b565b82525050565b60006020820190506119676000830184611943565b92915050565b6000806040838503121561198457611983611726565b5b600061199285828601611774565b92505060206119a385828601611774565b9150509250929050565b7f4e487b7100000000000000000000000000000000000000000000000000000000600052602260045260246000fd5b600060028204905060018216806119f457607f821691505b602082108103611a0757611a066119ad565b5b50919050565b7f596f7520617265206e6f7420676f642100000000000000000000000000000000600082015250565b6000611a4360108361167f565b9150611a4e82611a0d565b602082019050919050565b60006020820190508181036000830152611a7281611a36565b9050919050565b7f4e487b7100000000000000000000000000000000000000000000000000000000600052601160045260246000fd5b6000611ab382611789565b9150611abe83611789565b9250828203905081811115611ad657611ad5611a79565b5b92915050565b7f496e73756666696369656e742042616c616e6365000000000000000000000000600082015250565b6000611b1260148361167f565b9150611b1d82611adc565b602082019050919050565b60006020820190508181036000830152611b4181611b05565b9050919050565b6000611b5382611789565b9150611b5e83611789565b9250828202611b6c81611789565b91508282048414831517611b8357611b82611a79565b5b5092915050565b7f4e487b7100000000000000000000000000000000000000000000000000000000600052601260045260246000fd5b6000611bc482611789565b9150611bcf83611789565b925082611bdf57611bde611b8a565b5b828204905092915050565b7f455448206973206e6f7420656e6f756768000000000000000000000000000000600082015250565b6000611c2060118361167f565b9150611c2b82611bea565b602082019050919050565b60006020820190508181036000830152611c4f81611c13565b9050919050565b7f5468657265206973206e6f2045544820746f2077697468647261770000000000600082015250565b6000611c8c601b8361167f565b9150611c9782611c56565b602082019050919050565b60006020820190508181036000830152611cbb81611c7f565b9050919050565b6000611ccd82611789565b9150611cd883611789565b9250828201905080821115611cf057611cef611a79565b5b92915050565b7f4e6f206d6f726520746f6b656e7320666f722073616c652e0000000000000000600082015250565b6000611d2c60188361167f565b9150611d3782611cf6565b602082019050919050565b60006020820190508181036000830152611d5b81611d1f565b9050919050565b7f596f752073686f756c642070617920657861637420312045544820746f20627560008201527f79203130303020746f6b656e732e000000000000000000000000000000000000602082015250565b6000611dbe602e8361167f565b9150611dc982611d62565b604082019050919050565b60006020820190508181036000830152611ded81611db1565b9050919050565b6000606082019050611e096000830186611943565b611e166020830185611862565b611e236040830184611862565b949350505050565b7f5468652073656e646572206f72207265636569766572207761732073616e637460008201527f696f6e65642e0000000000000000000000000000000000000000000000000000602082015250565b6000611e8760268361167f565b9150611e9282611e2b565b604082019050919050565b60006020820190508181036000830152611eb681611e7a565b905091905056fea2646970667358221220a67dd6d45d303d22066051e70026b2c160a02e9c3f5e2c08dc1e50b3e4bb194164736f6c634300081c0033",
  "linkReferences": {},
  "deployedLinkReferences": {}
}