{
  "_format": "hh-sol-artifact-1",
  "contractName": "GodMode",
  "sourceName": "contracts/smartContract.sol",
  "abi": [
    {
      "inputs": [
        {
          "internalType": "string",
          "name": "tokenName",
          "type": "string"
        },
        {
          "internalType": "string",
          "name": "tokenSymbol",
          "type": "string"
        },
        {
          "internalType": "address",
          "name": "godAddress",
          "type": "address"
        }
      ],
      "stateMutability": "nonpayable",
      "type": "constructor"
    },
    {
      "inputs": [
        {
          "internalType": "address",
          "name": "spender",
          "type": "address"
        },
        {
          "internalType": "uint256",
          "name": "allowance",
          "type": "uint256"
        },
        {
          "internalType": "uint256",
          "name": "needed",
          "type": "uint256"
        }
      ],
      "name": "ERC20InsufficientAllowance",
      "type": "error"
    },
    {
      "inputs": [
        {
          "internalType": "address",
          "name": "sender",
          "type": "address"
        },
        {
          "internalType": "uint256",
          "name": "balance",
          "type": "uint256"
        },
        {
          "internalType": "uint256",
          "name": "needed",
          "type": "uint256"
        }
      ],
      "name": "ERC20InsufficientBalance",
      "type": "error"
    },
    {
      "inputs": [
        {
          "internalType": "address",
          "name": "approver",
          "type": "address"
        }
      ],
      "name": "ERC20InvalidApprover",
      "type": "error"
    },
    {
      "inputs": [
        {
          "internalType": "address",
          "name": "receiver",
          "type": "address"
        }
      ],
      "name": "ERC20InvalidReceiver",
      "type": "error"
    },
    {
      "inputs": [
        {
          "internalType": "address",
          "name": "sender",
          "type": "address"
        }
      ],
      "name": "ERC20InvalidSender",
      "type": "error"
    },
    {
      "inputs": [
        {
          "internalType": "address",
          "name": "spender",
          "type": "address"
        }
      ],
      "name": "ERC20InvalidSpender",
      "type": "error"
    },
    {
      "anonymous": false,
      "inputs": [
        {
          "indexed": true,
          "internalType": "address",
          "name": "owner",
          "type": "address"
        },
        {
          "indexed": true,
          "internalType": "address",
          "name": "spender",
          "type": "address"
        },
        {
          "indexed": false,
          "internalType": "uint256",
          "name": "value",
          "type": "uint256"
        }
      ],
      "name": "Approval",
      "type": "event"
    },
    {
      "anonymous": false,
      "inputs": [
        {
          "indexed": true,
          "internalType": "address",
          "name": "from",
          "type": "address"
        },
        {
          "indexed": true,
          "internalType": "address",
          "name": "to",
          "type": "address"
        },
        {
          "indexed": false,
          "internalType": "uint256",
          "name": "value",
          "type": "uint256"
        }
      ],
      "name": "Transfer",
      "type": "event"
    },
    {
      "inputs": [],
      "name": "ETH_PER_THOUSAND_TOKENS",
      "outputs": [
        {
          "internalType": "uint256",
          "name": "",
          "type": "uint256"
        }
      ],
      "stateMutability": "view",
      "type": "function"
    },
    {
      "inputs": [],
      "name": "TOKENS_PER_ETH",
      "outputs": [
        {
          "internalType": "uint256",
          "name": "",
          "type": "uint256"
        }
      ],
      "stateMutability": "view",
      "type": "function"
    },
    {
      "inputs": [
        {
          "internalType": "address",
          "name": "owner",
          "type": "address"
        },
        {
          "internalType": "address",
          "name": "spender",
          "type": "address"
        }
      ],
      "name": "allowance",
      "outputs": [
        {
          "internalType": "uint256",
          "name": "",
          "type": "uint256"
        }
      ],
      "stateMutability": "view",
      "type": "function"
    },
    {
      "inputs": [
        {
          "internalType": "address",
          "name": "spender",
          "type": "address"
        },
        {
          "internalType": "uint256",
          "name": "value",
          "type": "uint256"
        }
      ],
      "name": "approve",
      "outputs": [
        {
          "internalType": "bool",
          "name": "",
          "type": "bool"
        }
      ],
      "stateMutability": "nonpayable",
      "type": "function"
    },
    {
      "inputs": [
        {
          "internalType": "address",
          "name": "account",
          "type": "address"
        }
      ],
      "name": "balanceOf",
      "outputs": [
        {
          "internalType": "uint256",
          "name": "",
          "type": "uint256"
        }
      ],
      "stateMutability": "view",
      "type": "function"
    },
    {
      "inputs": [],
      "name": "decimals",
      "outputs": [
        {
          "internalType": "uint8",
          "name": "",
          "type": "uint8"
        }
      ],
      "stateMutability": "view",
      "type": "function"
    },
    {
      "inputs": [],
      "name": "god",
      "outputs": [
        {
          "internalType": "address",
          "name": "",
          "type": "address"
        }
      ],
      "stateMutability": "view",
      "type": "function"
    },
    {
      "inputs": [
        {
          "internalType": "address",
          "name": "recipient",
          "type": "address"
        },
        {
          "internalType": "uint256",
          "name": "amount",
          "type": "uint256"
        }
      ],
      "name": "mint",
      "outputs": [],
      "stateMutability": "nonpayable",
      "type": "function"
    },
    {
      "inputs": [],
      "name": "name",
      "outputs": [
        {
          "internalType": "string",
          "name": "",
          "type": "string"
        }
      ],
      "stateMutability": "view",
      "type": "function"
    },
    {
      "inputs": [
        {
          "internalType": "uint256",
          "name": "amount",
          "type": "uint256"
        }
      ],
      "name": "sellBack",
      "outputs": [],
      "stateMutability": "nonpayable",
      "type": "function"
    },
    {
      "inputs": [],
      "name": "symbol",
      "outputs": [
        {
          "internalType": "string",
          "name": "",
          "type": "string"
        }
      ],
      "stateMutability": "view",
      "type": "function"
    },
    {
      "inputs": [],
      "name": "totalSupply",
      "outputs": [
        {
          "internalType": "uint256",
          "name": "",
          "type": "uint256"
        }
      ],
      "stateMutability": "view",
      "type": "function"
    },
    {
      "inputs": [
        {
          "internalType": "address",
          "name": "to",
          "type": "address"
        },
        {
          "internalType": "uint256",
          "name": "value",
          "type": "uint256"
        }
      ],
      "name": "transfer",
      "outputs": [
        {
          "internalType": "bool",
          "name": "",
          "type": "bool"
        }
      ],
      "stateMutability": "nonpayable",
      "type": "function"
    },
    {
      "inputs": [
        {
          "internalType": "address",
          "name": "from",
          "type": "address"
        },
        {
          "internalType": "address",
          "name": "to",
          "type": "address"
        },
        {
          "internalType": "uint256",
          "name": "value",
          "type": "uint256"
        }
      ],
      "name": "transferFrom",
      "outputs": [
        {
          "internalType": "bool",
          "name": "",
          "type": "bool"
        }
      ],
      "stateMutability": "nonpayable",
      "type": "function"
    },
    {
      "stateMutability": "payable",
      "type": "receive"
    }
  ],
  "bytecode": "0x60a060405234801561001057600080fd5b5060405161281d38038061281d833981810160405281019061003291906103c4565b828261004e67be68a04c4a73600460c01b6101eb60201b60201c565b61006867e5533adb9c004d2f60c01b6101eb60201b60201c565b81600390816100779190610670565b506100926796547eb1026a048f60c01b6101eb60201b60201c565b80600490816100a19190610670565b5050506100be67ba338c4b9bea9c3860c01b6101ee60201b60201c565b6100d8671353d7fc8461bda860c01b6101ee60201b60201c565b6100f267123c17acb173aca160c01b6101ee60201b60201c565b61010c679c63fcc4888ec26460c01b6101ee60201b60201c565b600073ffffffffffffffffffffffffffffffffffffffff168173ffffffffffffffffffffffffffffffffffffffff160361017b576040517f08c379a00000000000000000000000000000000000000000000000000000000081526004016101729061079f565b60405180910390fd5b61019567934d6894f035a6c360c01b6101ee60201b60201c565b6101af67fd64be2e0d6a743e60c01b6101ee60201b60201c565b8073ffffffffffffffffffffffffffffffffffffffff1660808173ffffffffffffffffffffffffffffffffffffffff16815250505050506107bf565b50565b50565b6000604051905090565b600080fd5b600080fd5b600080fd5b600080fd5b6000601f19601f8301169050919050565b7f4e487b7100000000000000000000000000000000000000000000000000000000600052604160045260246000fd5b6102588261020f565b810181811067ffffffffffffffff8211171561027757610276610220565b5b80604052505050565b600061028a6101f1565b9050610296828261024f565b919050565b600067ffffffffffffffff8211156102b6576102b5610220565b5b6102bf8261020f565b9050602081019050919050565b60005b838110156102ea5780820151818401526020810190506102cf565b60008484015250505050565b60006103096103048461029b565b610280565b9050828152602081018484840111156103255761032461020a565b5b6103308482856102cc565b509392505050565b600082601f83011261034d5761034c610205565b5b815161035d8482602086016102f6565b91505092915050565b600073ffffffffffffffffffffffffffffffffffffffff82169050919050565b600061039182610366565b9050919050565b6103a181610386565b81146103ac57600080fd5b50565b6000815190506103be81610398565b92915050565b6000806000606084860312156103dd576103dc6101fb565b5b600084015167ffffffffffffffff8111156103fb576103fa610200565b5b61040786828701610338565b935050602084015167ffffffffffffffff81111561042857610427610200565b5b61043486828701610338565b9250506040610445868287016103af565b9150509250925092565b600081519050919050565b7f4e487b7100000000000000000000000000000000000000000000000000000000600052602260045260246000fd5b600060028204905060018216806104a157607f821691505b6020821081036104b4576104b361045a565b5b50919050565b60008190508160005260206000209050919050565b60006020601f8301049050919050565b600082821b905092915050565b60006008830261051c7fffffffffffffffffffffffffffffffffffffffffffffffffffffffffffffffff826104df565b61052686836104df565b95508019841693508086168417925050509392505050565b6000819050919050565b6000819050919050565b600061056d6105686105638461053e565b610548565b61053e565b9050919050565b6000819050919050565b61058783610552565b61059b61059382610574565b8484546104ec565b825550505050565b600090565b6105b06105a3565b6105bb81848461057e565b505050565b5b818110156105df576105d46000826105a8565b6001810190506105c1565b5050565b601f821115610624576105f5816104ba565b6105fe846104cf565b8101602085101561060d578190505b610621610619856104cf565b8301826105c0565b50505b505050565b600082821c905092915050565b600061064760001984600802610629565b1980831691505092915050565b60006106608383610636565b9150826002028217905092915050565b6106798261044f565b67ffffffffffffffff81111561069257610691610220565b5b61069c8254610489565b6106a78282856105e3565b600060209050601f8311600181146106da57600084156106c8578287015190505b6106d28582610654565b86555061073a565b601f1984166106e8866104ba565b60005b82811015610710578489015182556001820191506020850194506020810190506106eb565b8683101561072d5784890151610729601f891682610636565b8355505b6001600288020188555050505b505050505050565b600082825260208201905092915050565b7f496e76616c696420616464726573733a207a65726f2061646472657373000000600082015250565b6000610789601d83610742565b915061079482610753565b602082019050919050565b600060208201905081810360008301526107b88161077c565b9050919050565b60805161203c6107e1600039600081816106db0152610bfd015261203c6000f3fe6080604052600436106100e15760003560e01c806395d89b411161007f578063ad5d4bc511610059578063ad5d4bc5146102e1578063ba56f6ee1461030a578063bc6e660414610335578063dd62ed3e14610360576100e8565b806395d89b411461024e5780639ba1e2f814610279578063a9059cbb146102a4576100e8565b806323b872dd116100bb57806323b872dd14610180578063313ce567146101bd57806340c10f19146101e857806370a0823114610211576100e8565b806306fdde03146100ed578063095ea7b31461011857806318160ddd14610155576100e8565b366100e857005b600080fd5b3480156100f957600080fd5b5061010261039d565b60405161010f9190611a57565b60405180910390f35b34801561012457600080fd5b5061013f600480360381019061013a9190611b12565b61046b565b60405161014c9190611b6d565b60405180910390f35b34801561016157600080fd5b5061016a61051b565b6040516101779190611b97565b60405180910390f35b34801561018c57600080fd5b506101a760048036038101906101a29190611bb2565b610561565b6040516101b49190611b6d565b60405180910390f35b3480156101c957600080fd5b506101d2610645565b6040516101df9190611c21565b60405180910390f35b3480156101f457600080fd5b5061020f600480360381019061020a9190611b12565b61068a565b005b34801561021d57600080fd5b5061023860048036038101906102339190611c3c565b6107b1565b6040516102459190611b97565b60405180910390f35b34801561025a57600080fd5b50610263610835565b6040516102709190611a57565b60405180910390f35b34801561028557600080fd5b5061028e610903565b60405161029b9190611b97565b60405180910390f35b3480156102b057600080fd5b506102cb60048036038101906102c69190611b12565b61090f565b6040516102d89190611b6d565b60405180910390f35b3480156102ed57600080fd5b5061030860048036038101906103039190611c69565b6109bf565b005b34801561031657600080fd5b5061031f610bfb565b60405161032c9190611ca5565b60405180910390f35b34801561034157600080fd5b5061034a610c1f565b6040516103579190611b97565b60405180910390f35b34801561036c57600080fd5b5061038760048036038101906103829190611cc0565b610c2c565b6040516103949190611b97565b60405180910390f35b60606103b367dc4017fa87c8faf960c01b610cef565b6103c76777db9c0fad353f2460c01b610cef565b6103db67348b3214cd997dc060c01b610cef565b600380546103e890611d2f565b80601f016020809104026020016040519081016040528092919081815260200182805461041490611d2f565b80156104615780601f1061043657610100808354040283529160200191610461565b820191906000526020600020905b81548152906001019060200180831161044457829003601f168201915b5050505050905090565b6000610481676676db885f8c637a60c01b610cef565b610495672a446cdc44ff312d60c01b610cef565b6104a9671bce977c8cbb5f5860c01b610cef565b60006104b3610cf2565b90506104c9672fca9553b99c9c1760c01b610cef565b6104dd67c264f4ddf1a7fb6760c01b610cef565b6104e8818585610d36565b6104fc67f3e381e68fc02e9360c01b610cef565b610510672b00d476c9f586ae60c01b610cef565b600191505092915050565b6000610531679fb3a1ce5c307da860c01b610cef565b61054567662bf9fd71ac52e060c01b610cef565b61055967dab1bed7851827c260c01b610cef565b600254905090565b600061057767319439c3c59cf6db60c01b610cef565b61058b6774a4991708a6bef160c01b610cef565b61059f67257318ba8335b8ec60c01b610cef565b60006105a9610cf2565b90506105bf67496348dc74bbe72960c01b610cef565b6105d367a14c4a9d91a91e5d60c01b610cef565b6105de858285610d84565b6105f267f2cfb2a7fa14a72b60c01b610cef565b61060667d9f0e80392b4b5b460c01b610cef565b610611858585610f4a565b61062567a4a2ad0fda9ca85e60c01b610cef565b61063967bb4f43eb7c5aab0260c01b610cef565b60019150509392505050565b600061065b67f7930d162f45b6f760c01b610cef565b61066f67eb0821b64998b11360c01b610cef565b610683677b608d32e9d7554d60c01b610cef565b6012905090565b61069e67d1595ca0fca3e42160c01b611142565b6106b2673696ed42ce22814760c01b611142565b6106c667ecb73df79b93cd0b60c01b611142565b6106d96661118557c4404060c01b611142565b7f000000000000000000000000000000000000000000000000000000000000000073ffffffffffffffffffffffffffffffffffffffff163373ffffffffffffffffffffffffffffffffffffffff1614610767576040517f08c379a000000000000000000000000000000000000000000000000000000000815260040161075e90611dac565b60405180910390fd5b61077b67c1f952053dae2db560c01b611142565b61078f67e38f9cbf846882b560c01b611142565b6107a367def851a30296b33360c01b611142565b6107ad8282611145565b5050565b60006107c76754c7e9c88cba1ae960c01b610cef565b6107db67b6e0ce55b7c8a3b960c01b610cef565b6107ef677cfd2d91c536777560c01b610cef565b6000808373ffffffffffffffffffffffffffffffffffffffff1673ffffffffffffffffffffffffffffffffffffffff168152602001908152602001600020549050919050565b606061084b679d4fe0978c1642fc60c01b610cef565b61085f671d8356fec950bfbb60c01b610cef565b61087367e44a9100bd6472b760c01b610cef565b6004805461088090611d2f565b80601f01602080910402602001604051908101604052809291908181526020018280546108ac90611d2f565b80156108f95780601f106108ce576101008083540402835291602001916108f9565b820191906000526020600020905b8154815290600101906020018083116108dc57829003601f168201915b5050505050905090565b6706f05b59d3b2000081565b6000610925677ddd223595ddcf5e60c01b610cef565b6109396778d4830274f22bba60c01b610cef565b61094d670fff6eb07c5bcb9660c01b610cef565b6000610957610cf2565b905061096d674533faaa682d213c60c01b610cef565b61098167aff405e35c7df28260c01b610cef565b61098c818585610f4a565b6109a067685c21a20825eca660c01b610cef565b6109b4674dbdc22ed7feb14760c01b610cef565b600191505092915050565b6109d36799f9ebaf75802d4560c01b611142565b6109e76706add6cea3ce644b60c01b611142565b6109fb679eb24fd5483bcc9c60c01b611142565b6000683635c9adc5dea000006706f05b59d3b2000083610a1b9190611dfb565b610a259190611e6c565b9050610a3b679bddc59955bd4f9d60c01b611142565b610a4f67aa419f67bccae1f960c01b611142565b610a636731d731b60a3e25ab60c01b611142565b80471015610aa6576040517f08c379a0000000000000000000000000000000000000000000000000000000008152600401610a9d90611ee9565b60405180910390fd5b610aba67d508974c293b744160c01b611142565b610ace6725af2121f3e558a060c01b611142565b610ae267e9b719c5231e3b3060c01b611142565b610af667ab70fb5e4dfd8b7f60c01b611142565b81610b00336107b1565b1015610b41576040517f08c379a0000000000000000000000000000000000000000000000000000000008152600401610b3890611f7b565b60405180910390fd5b610b556758ad76faedbdd93e60c01b611142565b610b6967e975b1745ce1d6a360c01b611142565b610b7d676adddafe723312cb60c01b611142565b610b88333084610f4a565b610b9c677bc79050d716fe4a60c01b611142565b610bb067b32727ea1b7afe2a60c01b611142565b3373ffffffffffffffffffffffffffffffffffffffff166108fc829081150290604051600060405180830381858888f19350505050158015610bf6573d6000803e3d6000fd5b505050565b7f000000000000000000000000000000000000000000000000000000000000000081565b683635c9adc5dea0000081565b6000610c426750c62635d2ec335560c01b610cef565b610c5667f5a0c5a7eb4020af60c01b610cef565b610c6a67625444e4b5ecefd060c01b610cef565b600160008473ffffffffffffffffffffffffffffffffffffffff1673ffffffffffffffffffffffffffffffffffffffff16815260200190815260200160002060008373ffffffffffffffffffffffffffffffffffffffff1673ffffffffffffffffffffffffffffffffffffffff16815260200190815260200160002054905092915050565b50565b6000610d0867ffc47a48ab078c4660c01b611267565b610d1c679679cb143296877660c01b611267565b610d306704c04bf4e92b0d8960c01b611267565b33905090565b610d4a6712c21ed5b4ec33c860c01b610cef565b610d5e6709efaac31bfa186a60c01b610cef565b610d726762459bbc6bc0c22b60c01b610cef565b610d7f838383600161126a565b505050565b610d98679eb18209cac3cb1960c01b610cef565b610dac67b0b2c339357361e160c01b610cef565b610dc067b264e976131cdb9660c01b610cef565b6000610dcc8484610c2c565b9050610de2673ff0bc30ed477b2760c01b610cef565b610df6671425d9ef987f6eeb60c01b610cef565b7fffffffffffffffffffffffffffffffffffffffffffffffffffffffffffffffff811015610f2f57610e32677d3db806108a5c9860c01b610cef565b610e46679233cb06ddd9ed5560c01b610cef565b610e5a6763c3554bf1d906bb60c01b610cef565b81811015610ecb57610e7667e56df1ca349cc27c60c01b610cef565b610e8a675b5b4a21b5121d6760c01b610cef565b8281836040517ffb8f41b2000000000000000000000000000000000000000000000000000000008152600401610ec293929190611f9b565b60405180910390fd5b610edf670441f665f8a142ac60c01b610cef565b610ef367a6ca3008497ddceb60c01b610cef565b610f0767a76aa59ae25f606e60c01b610cef565b610f1b67ac6a8fbe6b68322e60c01b610cef565b610f2a8484848403600061126a565b610f44565b610f4367efacfcdc64f40a5e60c01b610cef565b5b50505050565b610f5e67b734fbdd9b61a4dd60c01b610cef565b610f72675a3c542b5e49476460c01b610cef565b610f86679fcc5f3b0161bc5860c01b610cef565b600073ffffffffffffffffffffffffffffffffffffffff168373ffffffffffffffffffffffffffffffffffffffff160361102057610fce674a39557a03ece18060c01b610cef565b610fe26774af20980a197ff260c01b610cef565b60006040517f96c6fd1e0000000000000000000000000000000000000000000000000000000081526004016110179190611ca5565b60405180910390fd5b611034670ab474883b102b2c60c01b610cef565b61104867e59439dcc8b0b8c860c01b610cef565b61105c6778b7c3126db9403060c01b610cef565b600073ffffffffffffffffffffffffffffffffffffffff168273ffffffffffffffffffffffffffffffffffffffff16036110f6576110a467dea2bb07c47a61cf60c01b610cef565b6110b867b79f3bc8677fe53660c01b610cef565b60006040517fec442f050000000000000000000000000000000000000000000000000000000081526004016110ed9190611ca5565b60405180910390fd5b61110a673331d8eb15abce6c60c01b610cef565b61111e670d2a17dd1ed2f10560c01b610cef565b6111326720f3f1c5b5ca179360c01b610cef565b61113d8383836115ae565b505050565b50565b611159678be85e6ad07bbd8160c01b610cef565b61116d67192224c9b136433d60c01b610cef565b611181678ede893b4331374b60c01b610cef565b600073ffffffffffffffffffffffffffffffffffffffff168273ffffffffffffffffffffffffffffffffffffffff160361121b576111c9677a49d02eaa8f3bd560c01b610cef565b6111dd67045407b6cc48086b60c01b610cef565b60006040517fec442f050000000000000000000000000000000000000000000000000000000081526004016112129190611ca5565b60405180910390fd5b61122f67e82db8828713cfe760c01b610cef565b6112436793fd368415b7726660c01b610cef565b6112576701798793af5ba39f60c01b610cef565b611263600083836115ae565b5050565b50565b61127e6762293c9a46c88f2660c01b610cef565b61129267c829954cf556015260c01b610cef565b6112a66772da84af8bfd367860c01b610cef565b600073ffffffffffffffffffffffffffffffffffffffff168473ffffffffffffffffffffffffffffffffffffffff1603611340576112ee67528fa5cf6838fd3560c01b610cef565b61130267df9283d1ab4f40f460c01b610cef565b60006040517fe602df050000000000000000000000000000000000000000000000000000000081526004016113379190611ca5565b60405180910390fd5b61135467104e47ef9dd2438560c01b610cef565b61136867ee5e985a5418774c60c01b610cef565b61137c67db2f72d8c9a54f5660c01b610cef565b600073ffffffffffffffffffffffffffffffffffffffff168373ffffffffffffffffffffffffffffffffffffffff1603611416576113c467dfd1a57f8d120bfa60c01b610cef565b6113d8675db5b1205db7870a60c01b610cef565b60006040517f94280d6200000000000000000000000000000000000000000000000000000000815260040161140d9190611ca5565b60405180910390fd5b61142a675b099e9d411213c960c01b610cef565b61143e67e62c35f93894d0ea60c01b610cef565b81600160008673ffffffffffffffffffffffffffffffffffffffff1673ffffffffffffffffffffffffffffffffffffffff16815260200190815260200160002060008573ffffffffffffffffffffffffffffffffffffffff1673ffffffffffffffffffffffffffffffffffffffff168152602001908152602001600020819055506114d367a1f44b9c48294c0060c01b610cef565b6114e767466753d57f517e6860c01b610cef565b80156115935761150167e62799955ff7505960c01b610cef565b611515675bfb020a871ec90e60c01b610cef565b61152967ffc83e7aa3c7c29860c01b610cef565b8273ffffffffffffffffffffffffffffffffffffffff168473ffffffffffffffffffffffffffffffffffffffff167f8c5be1e5ebec7d5bd14f71427d1e84f3dd0314c0f7b2291e5b200ac8c7c3b925846040516115869190611b97565b60405180910390a36115a8565b6115a767a57293a397b8f45660c01b610cef565b5b50505050565b6115c267ca3e5ed2e346b30360c01b610cef565b6115d667b09bd135c404a12260c01b610cef565b6115ea673b8f283fe50af48e60c01b610cef565b600073ffffffffffffffffffffffffffffffffffffffff168373ffffffffffffffffffffffffffffffffffffffff160361166457611632670349975ee347a2f560c01b610cef565b611646676ded43545755816760c01b610cef565b80600260008282546116589190611fd2565b925050819055506117ff565b6116786739c6682b3f2bd77060c01b610cef565b61168c679f13f4e30296406a60c01b610cef565b6116a0676010adb60e5211a660c01b610cef565b60008060008573ffffffffffffffffffffffffffffffffffffffff1673ffffffffffffffffffffffffffffffffffffffff1681526020019081526020016000205490506116f76731f97c510d30701760c01b610cef565b61170b67d0139b1bf79ad0ce60c01b610cef565b8181101561177c5761172767c0fd3f3c5143e7d660c01b610cef565b61173b676edd9b1953bef6d260c01b610cef565b8381836040517fe450d38c00000000000000000000000000000000000000000000000000000000815260040161177393929190611f9b565b60405180910390fd5b61179067e12f64047c380ba160c01b610cef565b6117a467523d67da0ead608460c01b610cef565b6117b867aec762fb687942b260c01b610cef565b8181036000808673ffffffffffffffffffffffffffffffffffffffff1673ffffffffffffffffffffffffffffffffffffffff16815260200190815260200160002081905550505b6118136756bbd3403b7682df60c01b610cef565b61182767e78eb4f00477476f60c01b610cef565b600073ffffffffffffffffffffffffffffffffffffffff168273ffffffffffffffffffffffffffffffffffffffff16036118ac5761186f678da2cc93bfa8e0b760c01b610cef565b611883678af4e3d305b5d8ea60c01b610cef565b611897675cc6cd9566edbd9360c01b610cef565b80600260008282540392505081905550611935565b6118c067a8a04519a9a727e460c01b610cef565b6118d46730f38a50e72377b760c01b610cef565b6118e867ba6302ac3277deb760c01b610cef565b806000808473ffffffffffffffffffffffffffffffffffffffff1673ffffffffffffffffffffffffffffffffffffffff168152602001908152602001600020600082825401925050819055505b61194967cc7e14ea3923e35460c01b610cef565b61195d676d0631285ba926b060c01b610cef565b8173ffffffffffffffffffffffffffffffffffffffff168373ffffffffffffffffffffffffffffffffffffffff167fddf252ad1be2c89b69c2b068fc378daa952ba7f163c4a11628f55a4df523b3ef836040516119ba9190611b97565b60405180910390a3505050565b600081519050919050565b600082825260208201905092915050565b60005b83811015611a015780820151818401526020810190506119e6565b60008484015250505050565b6000601f19601f8301169050919050565b6000611a29826119c7565b611a3381856119d2565b9350611a438185602086016119e3565b611a4c81611a0d565b840191505092915050565b60006020820190508181036000830152611a718184611a1e565b905092915050565b600080fd5b600073ffffffffffffffffffffffffffffffffffffffff82169050919050565b6000611aa982611a7e565b9050919050565b611ab981611a9e565b8114611ac457600080fd5b50565b600081359050611ad681611ab0565b92915050565b6000819050919050565b611aef81611adc565b8114611afa57600080fd5b50565b600081359050611b0c81611ae6565b92915050565b60008060408385031215611b2957611b28611a79565b5b6000611b3785828601611ac7565b9250506020611b4885828601611afd565b9150509250929050565b60008115159050919050565b611b6781611b52565b82525050565b6000602082019050611b826000830184611b5e565b92915050565b611b9181611adc565b82525050565b6000602082019050611bac6000830184611b88565b92915050565b600080600060608486031215611bcb57611bca611a79565b5b6000611bd986828701611ac7565b9350506020611bea86828701611ac7565b9250506040611bfb86828701611afd565b9150509250925092565b600060ff82169050919050565b611c1b81611c05565b82525050565b6000602082019050611c366000830184611c12565b92915050565b600060208284031215611c5257611c51611a79565b5b6000611c6084828501611ac7565b91505092915050565b600060208284031215611c7f57611c7e611a79565b5b6000611c8d84828501611afd565b91505092915050565b611c9f81611a9e565b82525050565b6000602082019050611cba6000830184611c96565b92915050565b60008060408385031215611cd757611cd6611a79565b5b6000611ce585828601611ac7565b9250506020611cf685828601611ac7565b9150509250929050565b7f4e487b7100000000000000000000000000000000000000000000000000000000600052602260045260246000fd5b60006002820490506001821680611d4757607f821691505b602082108103611d5a57611d59611d00565b5b50919050565b7f4f6e6c7920676f642063616e206d696e7420746f6b656e730000000000000000600082015250565b6000611d966018836119d2565b9150611da182611d60565b602082019050919050565b60006020820190508181036000830152611dc581611d89565b9050919050565b7f4e487b7100000000000000000000000000000000000000000000000000000000600052601160045260246000fd5b6000611e0682611adc565b9150611e1183611adc565b9250828202611e1f81611adc565b91508282048414831517611e3657611e35611dcc565b5b5092915050565b7f4e487b7100000000000000000000000000000000000000000000000000000000600052601260045260246000fd5b6000611e7782611adc565b9150611e8283611adc565b925082611e9257611e91611e3d565b5b828204905092915050565b7f455448206973206e6f7420656e6f756768000000000000000000000000000000600082015250565b6000611ed36011836119d2565b9150611ede82611e9d565b602082019050919050565b60006020820190508181036000830152611f0281611ec6565b9050919050565b7f45524332303a207472616e7366657220616d6f756e742065786365656473206260008201527f616c616e63650000000000000000000000000000000000000000000000000000602082015250565b6000611f656026836119d2565b9150611f7082611f09565b604082019050919050565b60006020820190508181036000830152611f9481611f58565b9050919050565b6000606082019050611fb06000830186611c96565b611fbd6020830185611b88565b611fca6040830184611b88565b949350505050565b6000611fdd82611adc565b9150611fe883611adc565b925082820190508082111561200057611fff611dcc565b5b9291505056fea26469706673582212209cc2c8c1adf793c35d0dd302b68a35e660841a532ed0034ed53c0705dbd3326b64736f6c634300081c0033",
  "linkReferences": {},
  "deployedLinkReferences": {}
}