{"contracts/smartContract.sol":{"GodMode":{"abi":[{"inputs":[{"internalType":"string","name":"tokenName","type":"string"},{"internalType":"string","name":"tokenSymbol","type":"string"},{"internalType":"address","name":"godAddress","type":"address"}],"stateMutability":"nonpayable","type":"constructor"},{"inputs":[{"internalType":"address","name":"spender","type":"address"},{"internalType":"uint256","name":"allowance","type":"uint256"},{"internalType":"uint256","name":"needed","type":"uint256"}],"name":"ERC20InsufficientAllowance","type":"error"},{"inputs":[{"internalType":"address","name":"sender","type":"address"},{"internalType":"uint256","name":"balance","type":"uint256"},{"internalType":"uint256","name":"needed","type":"uint256"}],"name":"ERC20InsufficientBalance","type":"error"},{"inputs":[{"internalType":"address","name":"approver","type":"address"}],"name":"ERC20InvalidApprover","type":"error"},{"inputs":[{"internalType":"address","name":"receiver","type":"address"}],"name":"ERC20InvalidReceiver","type":"error"},{"inputs":[{"internalType":"address","name":"sender","type":"address"}],"name":"ERC20InvalidSender","type":"error"},{"inputs":[{"internalType":"address","name":"spender","type":"address"}],"name":"ERC20InvalidSpender","type":"error"},{"anonymous":false,"inputs":[{"indexed":true,"internalType":"address","name":"owner","type":"address"},{"indexed":true,"internalType":"address","name":"spender","type":"address"},{"indexed":false,"internalType":"uint256","name":"value","type":"uint256"}],"name":"Approval","type":"event"},{"anonymous":false,"inputs":[{"indexed":true,"internalType":"address","name":"from","type":"address"},{"indexed":true,"internalType":"address","name":"to","type":"address"},{"indexed":false,"internalType":"uint256","name":"value","type":"uint256"}],"name":"Transfer","type":"event"},{"inputs":[],"name":"ETH_PER_THOUSAND_TOKENS","outputs":[{"internalType":"uint256","name":"","type":"uint256"}],"stateMutability":"view","type":"function"},{"inputs":[],"name":"TOKENS_PER_ETH","outputs":[{"internalType":"uint256","name":"","type":"uint256"}],"stateMutability":"view","type":"function"},{"inputs":[{"internalType":"address","name":"owner","type":"address"},{"internalType":"address","name":"spender","type":"address"}],"name":"allowance","outputs":[{"internalType":"uint256","name":"","type":"uint256"}],"stateMutability":"view","type":"function"},{"inputs":[{"internalType":"address","name":"spender","type":"address"},{"internalType":"uint256","name":"value","type":"uint256"}],"name":"approve","outputs":[{"internalType":"bool","name":"","type":"bool"}],"stateMutability":"nonpayable","type":"function"},{"inputs":[{"internalType":"address","name":"account","type":"address"}],"name":"balanceOf","outputs":[{"internalType":"uint256","name":"","type":"uint256"}],"stateMutability":"view","type":"function"},{"inputs":[],"name":"decimals","outputs":[{"internalType":"uint8","name":"","type":"uint8"}],"stateMutability":"view","type":"function"},{"inputs":[],"name":"god","outputs":[{"internalType":"address","name":"","type":"address"}],"stateMutability":"view","type":"function"},{"inputs":[{"internalType":"address","name":"recipient","type":"address"},{"internalType":"uint256","name":"amount","type":"uint256"}],"name":"mint","outputs":[],"stateMutability":"nonpayable","type":"function"},{"inputs":[],"name":"name","outputs":[{"internalType":"string","name":"","type":"string"}],"stateMutability":"view","type":"function"},{"inputs":[{"internalType":"uint256","name":"amount","type":"uint256"}],"name":"sellBack","outputs":[],"stateMutability":"nonpayable","type":"function"},{"inputs":[],"name":"symbol","outputs":[{"internalType":"string","name":"","type":"string"}],"stateMutability":"view","type":"function"},{"inputs":[],"name":"totalSupply","outputs":[{"internalType":"uint256","name":"","type":"uint256"}],"stateMutability":"view","type":"function"},{"inputs":[{"internalType":"address","name":"to","type":"address"},{"internalType":"uint256","name":"value","type":"uint256"}],"name":"transfer","outputs":[{"internalType":"bool","name":"","type":"bool"}],"stateMutability":"nonpayable","type":"function"},{"inputs":[{"internalType":"address","name":"from","type":"address"},{"internalType":"address","name":"to","type":"address"},{"internalType":"uint256","name":"value","type":"uint256"}],"name":"transferFrom","outputs":[{"internalType":"bool","name":"","type":"bool"}],"stateMutability":"nonpayable","type":"function"},{"stateMutability":"payable","type":"receive"}],"evm":{"bytecode":{"linkReferences":{},"object":"60a060405234801561001057600080fd5b5060405161281d38038061281d833981810160405281019061003291906103c4565b828261004e67be68a04c4a73600460c01b6101eb60201b60201c565b61006867e5533adb9c004d2f60c01b6101eb60201b60201c565b81600390816100779190610670565b506100926796547eb1026a048f60c01b6101eb60201b60201c565b80600490816100a19190610670565b5050506100be67ba338c4b9bea9c3860c01b6101ee60201b60201c565b6100d8671353d7fc8461bda860c01b6101ee60201b60201c565b6100f267123c17acb173aca160c01b6101ee60201b60201c565b61010c679c63fcc4888ec26460c01b6101ee60201b60201c565b600073ffffffffffffffffffffffffffffffffffffffff168173ffffffffffffffffffffffffffffffffffffffff160361017b576040517f08c379a00000000000000000000000000000000000000000000000000000000081526004016101729061079f565b60405180910390fd5b61019567934d6894f035a6c360c01b6101ee60201b60201c565b6101af67fd64be2e0d6a743e60c01b6101ee60201b60201c565b8073ffffffffffffffffffffffffffffffffffffffff1660808173ffffffffffffffffffffffffffffffffffffffff16815250505050506107bf565b50565b50565b6000604051905090565b600080fd5b600080fd5b600080fd5b600080fd5b6000601f19601f8301169050919050565b7f4e487b7100000000000000000000000000000000000000000000000000000000600052604160045260246000fd5b6102588261020f565b810181811067ffffffffffffffff8211171561027757610276610220565b5b80604052505050565b600061028a6101f1565b9050610296828261024f565b919050565b600067ffffffffffffffff8211156102b6576102b5610220565b5b6102bf8261020f565b9050602081019050919050565b60005b838110156102ea5780820151818401526020810190506102cf565b60008484015250505050565b60006103096103048461029b565b610280565b9050828152602081018484840111156103255761032461020a565b5b6103308482856102cc565b509392505050565b600082601f83011261034d5761034c610205565b5b815161035d8482602086016102f6565b91505092915050565b600073ffffffffffffffffffffffffffffffffffffffff82169050919050565b600061039182610366565b9050919050565b6103a181610386565b81146103ac57600080fd5b50565b6000815190506103be81610398565b92915050565b6000806000606084860312156103dd576103dc6101fb565b5b600084015167ffffffffffffffff8111156103fb576103fa610200565b5b61040786828701610338565b935050602084015167ffffffffffffffff81111561042857610427610200565b5b61043486828701610338565b9250506040610445868287016103af565b9150509250925092565b600081519050919050565b7f4e487b7100000000000000000000000000000000000000000000000000000000600052602260045260246000fd5b600060028204905060018216806104a157607f821691505b6020821081036104b4576104b361045a565b5b50919050565b60008190508160005260206000209050919050565b60006020601f8301049050919050565b600082821b905092915050565b60006008830261051c7fffffffffffffffffffffffffffffffffffffffffffffffffffffffffffffffff826104df565b61052686836104df565b95508019841693508086168417925050509392505050565b6000819050919050565b6000819050919050565b600061056d6105686105638461053e565b610548565b61053e565b9050919050565b6000819050919050565b61058783610552565b61059b61059382610574565b8484546104ec565b825550505050565b600090565b6105b06105a3565b6105bb81848461057e565b505050565b5b818110156105df576105d46000826105a8565b6001810190506105c1565b5050565b601f821115610624576105f5816104ba565b6105fe846104cf565b8101602085101561060d578190505b610621610619856104cf565b8301826105c0565b50505b505050565b600082821c905092915050565b600061064760001984600802610629565b1980831691505092915050565b60006106608383610636565b9150826002028217905092915050565b6106798261044f565b67ffffffffffffffff81111561069257610691610220565b5b61069c8254610489565b6106a78282856105e3565b600060209050601f8311600181146106da57600084156106c8578287015190505b6106d28582610654565b86555061073a565b601f1984166106e8866104ba565b60005b82811015610710578489015182556001820191506020850194506020810190506106eb565b8683101561072d5784890151610729601f891682610636565b8355505b6001600288020188555050505b505050505050565b600082825260208201905092915050565b7f496e76616c696420616464726573733a207a65726f2061646472657373000000600082015250565b6000610789601d83610742565b915061079482610753565b602082019050919050565b600060208201905081810360008301526107b88161077c565b9050919050565b60805161203c6107e1600039600081816106db0152610bfd015261203c6000f3fe6080604052600436106100e15760003560e01c806395d89b411161007f578063ad5d4bc511610059578063ad5d4bc5146102e1578063ba56f6ee1461030a578063bc6e660414610335578063dd62ed3e14610360576100e8565b806395d89b411461024e5780639ba1e2f814610279578063a9059cbb146102a4576100e8565b806323b872dd116100bb57806323b872dd14610180578063313ce567146101bd57806340c10f19146101e857806370a0823114610211576100e8565b806306fdde03146100ed578063095ea7b31461011857806318160ddd14610155576100e8565b366100e857005b600080fd5b3480156100f957600080fd5b5061010261039d565b60405161010f9190611a57565b60405180910390f35b34801561012457600080fd5b5061013f600480360381019061013a9190611b12565b61046b565b60405161014c9190611b6d565b60405180910390f35b34801561016157600080fd5b5061016a61051b565b6040516101779190611b97565b60405180910390f35b34801561018c57600080fd5b506101a760048036038101906101a29190611bb2565b610561565b6040516101b49190611b6d565b60405180910390f35b3480156101c957600080fd5b506101d2610645565b6040516101df9190611c21565b60405180910390f35b3480156101f457600080fd5b5061020f600480360381019061020a9190611b12565b61068a565b005b34801561021d57600080fd5b5061023860048036038101906102339190611c3c565b6107b1565b6040516102459190611b97565b60405180910390f35b34801561025a57600080fd5b50610263610835565b6040516102709190611a57565b60405180910390f35b34801561028557600080fd5b5061028e610903565b60405161029b9190611b97565b60405180910390f35b3480156102b057600080fd5b506102cb60048036038101906102c69190611b12565b61090f565b6040516102d89190611b6d565b60405180910390f35b3480156102ed57600080fd5b5061030860048036038101906103039190611c69565b6109bf565b005b34801561031657600080fd5b5061031f610bfb565b60405161032c9190611ca5565b60405180910390f35b34801561034157600080fd5b5061034a610c1f565b6040516103579190611b97565b60405180910390f35b34801561036c57600080fd5b5061038760048036038101906103829190611cc0565b610c2c565b6040516103949190611b97565b60405180910390f35b60606103b367dc4017fa87c8faf960c01b610cef565b6103c76777db9c0fad353f2460c01b610cef565b6103db67348b3214cd997dc060c01b610cef565b600380546103e890611d2f565b80601f016020809104026020016040519081016040528092919081815260200182805461041490611d2f565b80156104615780601f1061043657610100808354040283529160200191610461565b820191906000526020600020905b81548152906001019060200180831161044457829003601f168201915b5050505050905090565b6000610481676676db885f8c637a60c01b610cef565b610495672a446cdc44ff312d60c01b610cef565b6104a9671bce977c8cbb5f5860c01b610cef565b60006104b3610cf2565b90506104c9672fca9553b99c9c1760c01b610cef565b6104dd67c264f4ddf1a7fb6760c01b610cef565b6104e8818585610d36565b6104fc67f3e381e68fc02e9360c01b610cef565b610510672b00d476c9f586ae60c01b610cef565b600191505092915050565b6000610531679fb3a1ce5c307da860c01b610cef565b61054567662bf9fd71ac52e060c01b610cef565b61055967dab1bed7851827c260c01b610cef565b600254905090565b600061057767319439c3c59cf6db60c01b610cef565b61058b6774a4991708a6bef160c01b610cef565b61059f67257318ba8335b8ec60c01b610cef565b60006105a9610cf2565b90506105bf67496348dc74bbe72960c01b610cef565b6105d367a14c4a9d91a91e5d60c01b610cef565b6105de858285610d84565b6105f267f2cfb2a7fa14a72b60c01b610cef565b61060667d9f0e80392b4b5b460c01b610cef565b610611858585610f4a565b61062567a4a2ad0fda9ca85e60c01b610cef565b61063967bb4f43eb7c5aab0260c01b610cef565b60019150509392505050565b600061065b67f7930d162f45b6f760c01b610cef565b61066f67eb0821b64998b11360c01b610cef565b610683677b608d32e9d7554d60c01b610cef565b6012905090565b61069e67d1595ca0fca3e42160c01b611142565b6106b2673696ed42ce22814760c01b611142565b6106c667ecb73df79b93cd0b60c01b611142565b6106d96661118557c4404060c01b611142565b7f000000000000000000000000000000000000000000000000000000000000000073ffffffffffffffffffffffffffffffffffffffff163373ffffffffffffffffffffffffffffffffffffffff1614610767576040517f08c379a000000000000000000000000000000000000000000000000000000000815260040161075e90611dac565b60405180910390fd5b61077b67c1f952053dae2db560c01b611142565b61078f67e38f9cbf846882b560c01b611142565b6107a367def851a30296b33360c01b611142565b6107ad8282611145565b5050565b60006107c76754c7e9c88cba1ae960c01b610cef565b6107db67b6e0ce55b7c8a3b960c01b610cef565b6107ef677cfd2d91c536777560c01b610cef565b6000808373ffffffffffffffffffffffffffffffffffffffff1673ffffffffffffffffffffffffffffffffffffffff168152602001908152602001600020549050919050565b606061084b679d4fe0978c1642fc60c01b610cef565b61085f671d8356fec950bfbb60c01b610cef565b61087367e44a9100bd6472b760c01b610cef565b6004805461088090611d2f565b80601f01602080910402602001604051908101604052809291908181526020018280546108ac90611d2f565b80156108f95780601f106108ce576101008083540402835291602001916108f9565b820191906000526020600020905b8154815290600101906020018083116108dc57829003601f168201915b5050505050905090565b6706f05b59d3b2000081565b6000610925677ddd223595ddcf5e60c01b610cef565b6109396778d4830274f22bba60c01b610cef565b61094d670fff6eb07c5bcb9660c01b610cef565b6000610957610cf2565b905061096d674533faaa682d213c60c01b610cef565b61098167aff405e35c7df28260c01b610cef565b61098c818585610f4a565b6109a067685c21a20825eca660c01b610cef565b6109b4674dbdc22ed7feb14760c01b610cef565b600191505092915050565b6109d36799f9ebaf75802d4560c01b611142565b6109e76706add6cea3ce644b60c01b611142565b6109fb679eb24fd5483bcc9c60c01b611142565b6000683635c9adc5dea000006706f05b59d3b2000083610a1b9190611dfb565b610a259190611e6c565b9050610a3b679bddc59955bd4f9d60c01b611142565b610a4f67aa419f67bccae1f960c01b611142565b610a636731d731b60a3e25ab60c01b611142565b80471015610aa6576040517f08c379a0000000000000000000000000000000000000000000000000000000008152600401610a9d90611ee9565b60405180910390fd5b610aba67d508974c293b744160c01b611142565b610ace6725af2121f3e558a060c01b611142565b610ae267e9b719c5231e3b3060c01b611142565b610af667ab70fb5e4dfd8b7f60c01b611142565b81610b00336107b1565b1015610b41576040517f08c379a0000000000000000000000000000000000000000000000000000000008152600401610b3890611f7b565b60405180910390fd5b610b556758ad76faedbdd93e60c01b611142565b610b6967e975b1745ce1d6a360c01b611142565b610b7d676adddafe723312cb60c01b611142565b610b88333084610f4a565b610b9c677bc79050d716fe4a60c01b611142565b610bb067b32727ea1b7afe2a60c01b611142565b3373ffffffffffffffffffffffffffffffffffffffff166108fc829081150290604051600060405180830381858888f19350505050158015610bf6573d6000803e3d6000fd5b505050565b7f000000000000000000000000000000000000000000000000000000000000000081565b683635c9adc5dea0000081565b6000610c426750c62635d2ec335560c01b610cef565b610c5667f5a0c5a7eb4020af60c01b610cef565b610c6a67625444e4b5ecefd060c01b610cef565b600160008473ffffffffffffffffffffffffffffffffffffffff1673ffffffffffffffffffffffffffffffffffffffff16815260200190815260200160002060008373ffffffffffffffffffffffffffffffffffffffff1673ffffffffffffffffffffffffffffffffffffffff16815260200190815260200160002054905092915050565b50565b6000610d0867ffc47a48ab078c4660c01b611267565b610d1c679679cb143296877660c01b611267565b610d306704c04bf4e92b0d8960c01b611267565b33905090565b610d4a6712c21ed5b4ec33c860c01b610cef565b610d5e6709efaac31bfa186a60c01b610cef565b610d726762459bbc6bc0c22b60c01b610cef565b610d7f838383600161126a565b505050565b610d98679eb18209cac3cb1960c01b610cef565b610dac67b0b2c339357361e160c01b610cef565b610dc067b264e976131cdb9660c01b610cef565b6000610dcc8484610c2c565b9050610de2673ff0bc30ed477b2760c01b610cef565b610df6671425d9ef987f6eeb60c01b610cef565b7fffffffffffffffffffffffffffffffffffffffffffffffffffffffffffffffff811015610f2f57610e32677d3db806108a5c9860c01b610cef565b610e46679233cb06ddd9ed5560c01b610cef565b610e5a6763c3554bf1d906bb60c01b610cef565b81811015610ecb57610e7667e56df1ca349cc27c60c01b610cef565b610e8a675b5b4a21b5121d6760c01b610cef565b8281836040517ffb8f41b2000000000000000000000000000000000000000000000000000000008152600401610ec293929190611f9b565b60405180910390fd5b610edf670441f665f8a142ac60c01b610cef565b610ef367a6ca3008497ddceb60c01b610cef565b610f0767a76aa59ae25f606e60c01b610cef565b610f1b67ac6a8fbe6b68322e60c01b610cef565b610f2a8484848403600061126a565b610f44565b610f4367efacfcdc64f40a5e60c01b610cef565b5b50505050565b610f5e67b734fbdd9b61a4dd60c01b610cef565b610f72675a3c542b5e49476460c01b610cef565b610f86679fcc5f3b0161bc5860c01b610cef565b600073ffffffffffffffffffffffffffffffffffffffff168373ffffffffffffffffffffffffffffffffffffffff160361102057610fce674a39557a03ece18060c01b610cef565b610fe26774af20980a197ff260c01b610cef565b60006040517f96c6fd1e0000000000000000000000000000000000000000000000000000000081526004016110179190611ca5565b60405180910390fd5b611034670ab474883b102b2c60c01b610cef565b61104867e59439dcc8b0b8c860c01b610cef565b61105c6778b7c3126db9403060c01b610cef565b600073ffffffffffffffffffffffffffffffffffffffff168273ffffffffffffffffffffffffffffffffffffffff16036110f6576110a467dea2bb07c47a61cf60c01b610cef565b6110b867b79f3bc8677fe53660c01b610cef565b60006040517fec442f050000000000000000000000000000000000000000000000000000000081526004016110ed9190611ca5565b60405180910390fd5b61110a673331d8eb15abce6c60c01b610cef565b61111e670d2a17dd1ed2f10560c01b610cef565b6111326720f3f1c5b5ca179360c01b610cef565b61113d8383836115ae565b505050565b50565b611159678be85e6ad07bbd8160c01b610cef565b61116d67192224c9b136433d60c01b610cef565b611181678ede893b4331374b60c01b610cef565b600073ffffffffffffffffffffffffffffffffffffffff168273ffffffffffffffffffffffffffffffffffffffff160361121b576111c9677a49d02eaa8f3bd560c01b610cef565b6111dd67045407b6cc48086b60c01b610cef565b60006040517fec442f050000000000000000000000000000000000000000000000000000000081526004016112129190611ca5565b60405180910390fd5b61122f67e82db8828713cfe760c01b610cef565b6112436793fd368415b7726660c01b610cef565b6112576701798793af5ba39f60c01b610cef565b611263600083836115ae565b5050565b50565b61127e6762293c9a46c88f2660c01b610cef565b61129267c829954cf556015260c01b610cef565b6112a66772da84af8bfd367860c01b610cef565b600073ffffffffffffffffffffffffffffffffffffffff168473ffffffffffffffffffffffffffffffffffffffff1603611340576112ee67528fa5cf6838fd3560c01b610cef565b61130267df9283d1ab4f40f460c01b610cef565b60006040517fe602df050000000000000000000000000000000000000000000000000000000081526004016113379190611ca5565b60405180910390fd5b61135467104e47ef9dd2438560c01b610cef565b61136867ee5e985a5418774c60c01b610cef565b61137c67db2f72d8c9a54f5660c01b610cef565b600073ffffffffffffffffffffffffffffffffffffffff168373ffffffffffffffffffffffffffffffffffffffff1603611416576113c467dfd1a57f8d120bfa60c01b610cef565b6113d8675db5b1205db7870a60c01b610cef565b60006040517f94280d6200000000000000000000000000000000000000000000000000000000815260040161140d9190611ca5565b60405180910390fd5b61142a675b099e9d411213c960c01b610cef565b61143e67e62c35f93894d0ea60c01b610cef565b81600160008673ffffffffffffffffffffffffffffffffffffffff1673ffffffffffffffffffffffffffffffffffffffff16815260200190815260200160002060008573ffffffffffffffffffffffffffffffffffffffff1673ffffffffffffffffffffffffffffffffffffffff168152602001908152602001600020819055506114d367a1f44b9c48294c0060c01b610cef565b6114e767466753d57f517e6860c01b610cef565b80156115935761150167e62799955ff7505960c01b610cef565b611515675bfb020a871ec90e60c01b610cef565b61152967ffc83e7aa3c7c29860c01b610cef565b8273ffffffffffffffffffffffffffffffffffffffff168473ffffffffffffffffffffffffffffffffffffffff167f8c5be1e5ebec7d5bd14f71427d1e84f3dd0314c0f7b2291e5b200ac8c7c3b925846040516115869190611b97565b60405180910390a36115a8565b6115a767a57293a397b8f45660c01b610cef565b5b50505050565b6115c267ca3e5ed2e346b30360c01b610cef565b6115d667b09bd135c404a12260c01b610cef565b6115ea673b8f283fe50af48e60c01b610cef565b600073ffffffffffffffffffffffffffffffffffffffff168373ffffffffffffffffffffffffffffffffffffffff160361166457611632670349975ee347a2f560c01b610cef565b611646676ded43545755816760c01b610cef565b80600260008282546116589190611fd2565b925050819055506117ff565b6116786739c6682b3f2bd77060c01b610cef565b61168c679f13f4e30296406a60c01b610cef565b6116a0676010adb60e5211a660c01b610cef565b60008060008573ffffffffffffffffffffffffffffffffffffffff1673ffffffffffffffffffffffffffffffffffffffff1681526020019081526020016000205490506116f76731f97c510d30701760c01b610cef565b61170b67d0139b1bf79ad0ce60c01b610cef565b8181101561177c5761172767c0fd3f3c5143e7d660c01b610cef565b61173b676edd9b1953bef6d260c01b610cef565b8381836040517fe450d38c00000000000000000000000000000000000000000000000000000000815260040161177393929190611f9b565b60405180910390fd5b61179067e12f64047c380ba160c01b610cef565b6117a467523d67da0ead608460c01b610cef565b6117b867aec762fb687942b260c01b610cef565b8181036000808673ffffffffffffffffffffffffffffffffffffffff1673ffffffffffffffffffffffffffffffffffffffff16815260200190815260200160002081905550505b6118136756bbd3403b7682df60c01b610cef565b61182767e78eb4f00477476f60c01b610cef565b600073ffffffffffffffffffffffffffffffffffffffff168273ffffffffffffffffffffffffffffffffffffffff16036118ac5761186f678da2cc93bfa8e0b760c01b610cef565b611883678af4e3d305b5d8ea60c01b610cef565b611897675cc6cd9566edbd9360c01b610cef565b80600260008282540392505081905550611935565b6118c067a8a04519a9a727e460c01b610cef565b6118d46730f38a50e72377b760c01b610cef565b6118e867ba6302ac3277deb760c01b610cef565b806000808473ffffffffffffffffffffffffffffffffffffffff1673ffffffffffffffffffffffffffffffffffffffff168152602001908152602001600020600082825401925050819055505b61194967cc7e14ea3923e35460c01b610cef565b61195d676d0631285ba926b060c01b610cef565b8173ffffffffffffffffffffffffffffffffffffffff168373ffffffffffffffffffffffffffffffffffffffff167fddf252ad1be2c89b69c2b068fc378daa952ba7f163c4a11628f55a4df523b3ef836040516119ba9190611b97565b60405180910390a3505050565b600081519050919050565b600082825260208201905092915050565b60005b83811015611a015780820151818401526020810190506119e6565b60008484015250505050565b6000601f19601f8301169050919050565b6000611a29826119c7565b611a3381856119d2565b9350611a438185602086016119e3565b611a4c81611a0d565b840191505092915050565b60006020820190508181036000830152611a718184611a1e565b905092915050565b600080fd5b600073ffffffffffffffffffffffffffffffffffffffff82169050919050565b6000611aa982611a7e565b9050919050565b611ab981611a9e565b8114611ac457600080fd5b50565b600081359050611ad681611ab0565b92915050565b6000819050919050565b611aef81611adc565b8114611afa57600080fd5b50565b600081359050611b0c81611ae6565b92915050565b60008060408385031215611b2957611b28611a79565b5b6000611b3785828601611ac7565b9250506020611b4885828601611afd565b9150509250929050565b60008115159050919050565b611b6781611b52565b82525050565b6000602082019050611b826000830184611b5e565b92915050565b611b9181611adc565b82525050565b6000602082019050611bac6000830184611b88565b92915050565b600080600060608486031215611bcb57611bca611a79565b5b6000611bd986828701611ac7565b9350506020611bea86828701611ac7565b9250506040611bfb86828701611afd565b9150509250925092565b600060ff82169050919050565b611c1b81611c05565b82525050565b6000602082019050611c366000830184611c12565b92915050565b600060208284031215611c5257611c51611a79565b5b6000611c6084828501611ac7565b91505092915050565b600060208284031215611c7f57611c7e611a79565b5b6000611c8d84828501611afd565b91505092915050565b611c9f81611a9e565b82525050565b6000602082019050611cba6000830184611c96565b92915050565b60008060408385031215611cd757611cd6611a79565b5b6000611ce585828601611ac7565b9250506020611cf685828601611ac7565b9150509250929050565b7f4e487b7100000000000000000000000000000000000000000000000000000000600052602260045260246000fd5b60006002820490506001821680611d4757607f821691505b602082108103611d5a57611d59611d00565b5b50919050565b7f4f6e6c7920676f642063616e206d696e7420746f6b656e730000000000000000600082015250565b6000611d966018836119d2565b9150611da182611d60565b602082019050919050565b60006020820190508181036000830152611dc581611d89565b9050919050565b7f4e487b7100000000000000000000000000000000000000000000000000000000600052601160045260246000fd5b6000611e0682611adc565b9150611e1183611adc565b9250828202611e1f81611adc565b91508282048414831517611e3657611e35611dcc565b5b5092915050565b7f4e487b7100000000000000000000000000000000000000000000000000000000600052601260045260246000fd5b6000611e7782611adc565b9150611e8283611adc565b925082611e9257611e91611e3d565b5b828204905092915050565b7f455448206973206e6f7420656e6f756768000000000000000000000000000000600082015250565b6000611ed36011836119d2565b9150611ede82611e9d565b602082019050919050565b60006020820190508181036000830152611f0281611ec6565b9050919050565b7f45524332303a207472616e7366657220616d6f756e742065786365656473206260008201527f616c616e63650000000000000000000000000000000000000000000000000000602082015250565b6000611f656026836119d2565b9150611f7082611f09565b604082019050919050565b60006020820190508181036000830152611f9481611f58565b9050919050565b6000606082019050611fb06000830186611c96565b611fbd6020830185611b88565b611fca6040830184611b88565b949350505050565b6000611fdd82611adc565b9150611fe883611adc565b925082820190508082111561200057611fff611dcc565b5b9291505056fea26469706673582212209cc2c8c1adf793c35d0dd302b68a35e660841a532ed0034ed53c0705dbd3326b64736f6c634300081c0033","opcodes":"PUSH1 0xA0 PUSH1 0x40 MSTORE CALLVALUE DUP1 ISZERO PUSH2 0x10 JUMPI PUSH1 0x0 DUP1 REVERT JUMPDEST POP PUSH1 0x40 MLOAD PUSH2 0x281D CODESIZE SUB DUP1 PUSH2 0x281D DUP4 CODECOPY DUP2 DUP2 ADD PUSH1 0x40 MSTORE DUP2 ADD SWAP1 PUSH2 0x32 SWAP2 SWAP1 PUSH2 0x3C4 JUMP JUMPDEST DUP3 DUP3 PUSH2 0x4E PUSH8 0xBE68A04C4A736004 PUSH1 0xC0 SHL PUSH2 0x1EB PUSH1 0x20 SHL PUSH1 0x20 SHR JUMP JUMPDEST PUSH2 0x68 PUSH8 0xE5533ADB9C004D2F PUSH1 0xC0 SHL PUSH2 0x1EB PUSH1 0x20 SHL PUSH1 0x20 SHR JUMP JUMPDEST DUP2 PUSH1 0x3 SWAP1 DUP2 PUSH2 0x77 SWAP2 SWAP1 PUSH2 0x670 JUMP JUMPDEST POP PUSH2 0x92 PUSH8 0x96547EB1026A048F PUSH1 0xC0 SHL PUSH2 0x1EB PUSH1 0x20 SHL PUSH1 0x20 SHR JUMP JUMPDEST DUP1 PUSH1 0x4 SWAP1 DUP2 PUSH2 0xA1 SWAP2 SWAP1 PUSH2 0x670 JUMP JUMPDEST POP POP POP PUSH2 0xBE PUSH8 0xBA338C4B9BEA9C38 PUSH1 0xC0 SHL PUSH2 0x1EE PUSH1 0x20 SHL PUSH1 0x20 SHR JUMP JUMPDEST PUSH2 0xD8 PUSH8 0x1353D7FC8461BDA8 PUSH1 0xC0 SHL PUSH2 0x1EE PUSH1 0x20 SHL PUSH1 0x20 SHR JUMP JUMPDEST PUSH2 0xF2 PUSH8 0x123C17ACB173ACA1 PUSH1 0xC0 SHL PUSH2 0x1EE PUSH1 0x20 SHL PUSH1 0x20 SHR JUMP JUMPDEST PUSH2 0x10C PUSH8 0x9C63FCC4888EC264 PUSH1 0xC0 SHL PUSH2 0x1EE PUSH1 0x20 SHL PUSH1 0x20 SHR JUMP JUMPDEST PUSH1 0x0 PUSH20 0xFFFFFFFFFFFFFFFFFFFFFFFFFFFFFFFFFFFFFFFF AND DUP2 PUSH20 0xFFFFFFFFFFFFFFFFFFFFFFFFFFFFFFFFFFFFFFFF AND SUB PUSH2 0x17B JUMPI PUSH1 0x40 MLOAD PUSH32 0x8C379A000000000000000000000000000000000000000000000000000000000 DUP2 MSTORE PUSH1 0x4 ADD PUSH2 0x172 SWAP1 PUSH2 0x79F JUMP JUMPDEST PUSH1 0x40 MLOAD DUP1 SWAP2 SUB SWAP1 REVERT JUMPDEST PUSH2 0x195 PUSH8 0x934D6894F035A6C3 PUSH1 0xC0 SHL PUSH2 0x1EE PUSH1 0x20 SHL PUSH1 0x20 SHR JUMP JUMPDEST PUSH2 0x1AF PUSH8 0xFD64BE2E0D6A743E PUSH1 0xC0 SHL PUSH2 0x1EE PUSH1 0x20 SHL PUSH1 0x20 SHR JUMP JUMPDEST DUP1 PUSH20 0xFFFFFFFFFFFFFFFFFFFFFFFFFFFFFFFFFFFFFFFF AND PUSH1 0x80 DUP2 PUSH20 0xFFFFFFFFFFFFFFFFFFFFFFFFFFFFFFFFFFFFFFFF AND DUP2 MSTORE POP POP POP POP POP PUSH2 0x7BF JUMP JUMPDEST POP JUMP JUMPDEST POP JUMP JUMPDEST PUSH1 0x0 PUSH1 0x40 MLOAD SWAP1 POP SWAP1 JUMP JUMPDEST PUSH1 0x0 DUP1 REVERT JUMPDEST PUSH1 0x0 DUP1 REVERT JUMPDEST PUSH1 0x0 DUP1 REVERT JUMPDEST PUSH1 0x0 DUP1 REVERT JUMPDEST PUSH1 0x0 PUSH1 0x1F NOT PUSH1 0x1F DUP4 ADD AND SWAP1 POP SWAP2 SWAP1 POP JUMP JUMPDEST PUSH32 0x4E487B7100000000000000000000000000000000000000000000000000000000 PUSH1 0x0 MSTORE PUSH1 0x41 PUSH1 0x4 MSTORE PUSH1 0x24 PUSH1 0x0 REVERT JUMPDEST PUSH2 0x258 DUP3 PUSH2 0x20F JUMP JUMPDEST DUP2 ADD DUP2 DUP2 LT PUSH8 0xFFFFFFFFFFFFFFFF DUP3 GT OR ISZERO PUSH2 0x277 JUMPI PUSH2 0x276 PUSH2 0x220 JUMP JUMPDEST JUMPDEST DUP1 PUSH1 0x40 MSTORE POP POP POP JUMP JUMPDEST PUSH1 0x0 PUSH2 0x28A PUSH2 0x1F1 JUMP JUMPDEST SWAP1 POP PUSH2 0x296 DUP3 DUP3 PUSH2 0x24F JUMP JUMPDEST SWAP2 SWAP1 POP JUMP JUMPDEST PUSH1 0x0 PUSH8 0xFFFFFFFFFFFFFFFF DUP3 GT ISZERO PUSH2 0x2B6 JUMPI PUSH2 0x2B5 PUSH2 0x220 JUMP JUMPDEST JUMPDEST PUSH2 0x2BF DUP3 PUSH2 0x20F JUMP JUMPDEST SWAP1 POP PUSH1 0x20 DUP2 ADD SWAP1 POP SWAP2 SWAP1 POP JUMP JUMPDEST PUSH1 0x0 JUMPDEST DUP4 DUP2 LT ISZERO PUSH2 0x2EA JUMPI DUP1 DUP3 ADD MLOAD DUP2 DUP5 ADD MSTORE PUSH1 0x20 DUP2 ADD SWAP1 POP PUSH2 0x2CF JUMP JUMPDEST PUSH1 0x0 DUP5 DUP5 ADD MSTORE POP POP POP POP JUMP JUMPDEST PUSH1 0x0 PUSH2 0x309 PUSH2 0x304 DUP5 PUSH2 0x29B JUMP JUMPDEST PUSH2 0x280 JUMP JUMPDEST SWAP1 POP DUP3 DUP2 MSTORE PUSH1 0x20 DUP2 ADD DUP5 DUP5 DUP5 ADD GT ISZERO PUSH2 0x325 JUMPI PUSH2 0x324 PUSH2 0x20A JUMP JUMPDEST JUMPDEST PUSH2 0x330 DUP5 DUP3 DUP6 PUSH2 0x2CC JUMP JUMPDEST POP SWAP4 SWAP3 POP POP POP JUMP JUMPDEST PUSH1 0x0 DUP3 PUSH1 0x1F DUP4 ADD SLT PUSH2 0x34D JUMPI PUSH2 0x34C PUSH2 0x205 JUMP JUMPDEST JUMPDEST DUP2 MLOAD PUSH2 0x35D DUP5 DUP3 PUSH1 0x20 DUP7 ADD PUSH2 0x2F6 JUMP JUMPDEST SWAP2 POP POP SWAP3 SWAP2 POP POP JUMP JUMPDEST PUSH1 0x0 PUSH20 0xFFFFFFFFFFFFFFFFFFFFFFFFFFFFFFFFFFFFFFFF DUP3 AND SWAP1 POP SWAP2 SWAP1 POP JUMP JUMPDEST PUSH1 0x0 PUSH2 0x391 DUP3 PUSH2 0x366 JUMP JUMPDEST SWAP1 POP SWAP2 SWAP1 POP JUMP JUMPDEST PUSH2 0x3A1 DUP2 PUSH2 0x386 JUMP JUMPDEST DUP2 EQ PUSH2 0x3AC JUMPI PUSH1 0x0 DUP1 REVERT JUMPDEST POP JUMP JUMPDEST PUSH1 0x0 DUP2 MLOAD SWAP1 POP PUSH2 0x3BE DUP2 PUSH2 0x398 JUMP JUMPDEST SWAP3 SWAP2 POP POP JUMP JUMPDEST PUSH1 0x0 DUP1 PUSH1 0x0 PUSH1 0x60 DUP5 DUP7 SUB SLT ISZERO PUSH2 0x3DD JUMPI PUSH2 0x3DC PUSH2 0x1FB JUMP JUMPDEST JUMPDEST PUSH1 0x0 DUP5 ADD MLOAD PUSH8 0xFFFFFFFFFFFFFFFF DUP2 GT ISZERO PUSH2 0x3FB JUMPI PUSH2 0x3FA PUSH2 0x200 JUMP JUMPDEST JUMPDEST PUSH2 0x407 DUP7 DUP3 DUP8 ADD PUSH2 0x338 JUMP JUMPDEST SWAP4 POP POP PUSH1 0x20 DUP5 ADD MLOAD PUSH8 0xFFFFFFFFFFFFFFFF DUP2 GT ISZERO PUSH2 0x428 JUMPI PUSH2 0x427 PUSH2 0x200 JUMP JUMPDEST JUMPDEST PUSH2 0x434 DUP7 DUP3 DUP8 ADD PUSH2 0x338 JUMP JUMPDEST SWAP3 POP POP PUSH1 0x40 PUSH2 0x445 DUP7 DUP3 DUP8 ADD PUSH2 0x3AF JUMP JUMPDEST SWAP2 POP POP SWAP3 POP SWAP3 POP SWAP3 JUMP JUMPDEST PUSH1 0x0 DUP2 MLOAD SWAP1 POP SWAP2 SWAP1 POP JUMP JUMPDEST PUSH32 0x4E487B7100000000000000000000000000000000000000000000000000000000 PUSH1 0x0 MSTORE PUSH1 0x22 PUSH1 0x4 MSTORE PUSH1 0x24 PUSH1 0x0 REVERT JUMPDEST PUSH1 0x0 PUSH1 0x2 DUP3 DIV SWAP1 POP PUSH1 0x1 DUP3 AND DUP1 PUSH2 0x4A1 JUMPI PUSH1 0x7F DUP3 AND SWAP2 POP JUMPDEST PUSH1 0x20 DUP3 LT DUP2 SUB PUSH2 0x4B4 JUMPI PUSH2 0x4B3 PUSH2 0x45A JUMP JUMPDEST JUMPDEST POP SWAP2 SWAP1 POP JUMP JUMPDEST PUSH1 0x0 DUP2 SWAP1 POP DUP2 PUSH1 0x0 MSTORE PUSH1 0x20 PUSH1 0x0 KECCAK256 SWAP1 POP SWAP2 SWAP1 POP JUMP JUMPDEST PUSH1 0x0 PUSH1 0x20 PUSH1 0x1F DUP4 ADD DIV SWAP1 POP SWAP2 SWAP1 POP JUMP JUMPDEST PUSH1 0x0 DUP3 DUP3 SHL SWAP1 POP SWAP3 SWAP2 POP POP JUMP JUMPDEST PUSH1 0x0 PUSH1 0x8 DUP4 MUL PUSH2 0x51C PUSH32 0xFFFFFFFFFFFFFFFFFFFFFFFFFFFFFFFFFFFFFFFFFFFFFFFFFFFFFFFFFFFFFFFF DUP3 PUSH2 0x4DF JUMP JUMPDEST PUSH2 0x526 DUP7 DUP4 PUSH2 0x4DF JUMP JUMPDEST SWAP6 POP DUP1 NOT DUP5 AND SWAP4 POP DUP1 DUP7 AND DUP5 OR SWAP3 POP POP POP SWAP4 SWAP3 POP POP POP JUMP JUMPDEST PUSH1 0x0 DUP2 SWAP1 POP SWAP2 SWAP1 POP JUMP JUMPDEST PUSH1 0x0 DUP2 SWAP1 POP SWAP2 SWAP1 POP JUMP JUMPDEST PUSH1 0x0 PUSH2 0x56D PUSH2 0x568 PUSH2 0x563 DUP5 PUSH2 0x53E JUMP JUMPDEST PUSH2 0x548 JUMP JUMPDEST PUSH2 0x53E JUMP JUMPDEST SWAP1 POP SWAP2 SWAP1 POP JUMP JUMPDEST PUSH1 0x0 DUP2 SWAP1 POP SWAP2 SWAP1 POP JUMP JUMPDEST PUSH2 0x587 DUP4 PUSH2 0x552 JUMP JUMPDEST PUSH2 0x59B PUSH2 0x593 DUP3 PUSH2 0x574 JUMP JUMPDEST DUP5 DUP5 SLOAD PUSH2 0x4EC JUMP JUMPDEST DUP3 SSTORE POP POP POP POP JUMP JUMPDEST PUSH1 0x0 SWAP1 JUMP JUMPDEST PUSH2 0x5B0 PUSH2 0x5A3 JUMP JUMPDEST PUSH2 0x5BB DUP2 DUP5 DUP5 PUSH2 0x57E JUMP JUMPDEST POP POP POP JUMP JUMPDEST JUMPDEST DUP2 DUP2 LT ISZERO PUSH2 0x5DF JUMPI PUSH2 0x5D4 PUSH1 0x0 DUP3 PUSH2 0x5A8 JUMP JUMPDEST PUSH1 0x1 DUP2 ADD SWAP1 POP PUSH2 0x5C1 JUMP JUMPDEST POP POP JUMP JUMPDEST PUSH1 0x1F DUP3 GT ISZERO PUSH2 0x624 JUMPI PUSH2 0x5F5 DUP2 PUSH2 0x4BA JUMP JUMPDEST PUSH2 0x5FE DUP5 PUSH2 0x4CF JUMP JUMPDEST DUP2 ADD PUSH1 0x20 DUP6 LT ISZERO PUSH2 0x60D JUMPI DUP2 SWAP1 POP JUMPDEST PUSH2 0x621 PUSH2 0x619 DUP6 PUSH2 0x4CF JUMP JUMPDEST DUP4 ADD DUP3 PUSH2 0x5C0 JUMP JUMPDEST POP POP JUMPDEST POP POP POP JUMP JUMPDEST PUSH1 0x0 DUP3 DUP3 SHR SWAP1 POP SWAP3 SWAP2 POP POP JUMP JUMPDEST PUSH1 0x0 PUSH2 0x647 PUSH1 0x0 NOT DUP5 PUSH1 0x8 MUL PUSH2 0x629 JUMP JUMPDEST NOT DUP1 DUP4 AND SWAP2 POP POP SWAP3 SWAP2 POP POP JUMP JUMPDEST PUSH1 0x0 PUSH2 0x660 DUP4 DUP4 PUSH2 0x636 JUMP JUMPDEST SWAP2 POP DUP3 PUSH1 0x2 MUL DUP3 OR SWAP1 POP SWAP3 SWAP2 POP POP JUMP JUMPDEST PUSH2 0x679 DUP3 PUSH2 0x44F JUMP JUMPDEST PUSH8 0xFFFFFFFFFFFFFFFF DUP2 GT ISZERO PUSH2 0x692 JUMPI PUSH2 0x691 PUSH2 0x220 JUMP JUMPDEST JUMPDEST PUSH2 0x69C DUP3 SLOAD PUSH2 0x489 JUMP JUMPDEST PUSH2 0x6A7 DUP3 DUP3 DUP6 PUSH2 0x5E3 JUMP JUMPDEST PUSH1 0x0 PUSH1 0x20 SWAP1 POP PUSH1 0x1F DUP4 GT PUSH1 0x1 DUP2 EQ PUSH2 0x6DA JUMPI PUSH1 0x0 DUP5 ISZERO PUSH2 0x6C8 JUMPI DUP3 DUP8 ADD MLOAD SWAP1 POP JUMPDEST PUSH2 0x6D2 DUP6 DUP3 PUSH2 0x654 JUMP JUMPDEST DUP7 SSTORE POP PUSH2 0x73A JUMP JUMPDEST PUSH1 0x1F NOT DUP5 AND PUSH2 0x6E8 DUP7 PUSH2 0x4BA JUMP JUMPDEST PUSH1 0x0 JUMPDEST DUP3 DUP2 LT ISZERO PUSH2 0x710 JUMPI DUP5 DUP10 ADD MLOAD DUP3 SSTORE PUSH1 0x1 DUP3 ADD SWAP2 POP PUSH1 0x20 DUP6 ADD SWAP5 POP PUSH1 0x20 DUP2 ADD SWAP1 POP PUSH2 0x6EB JUMP JUMPDEST DUP7 DUP4 LT ISZERO PUSH2 0x72D JUMPI DUP5 DUP10 ADD MLOAD PUSH2 0x729 PUSH1 0x1F DUP10 AND DUP3 PUSH2 0x636 JUMP JUMPDEST DUP4 SSTORE POP JUMPDEST PUSH1 0x1 PUSH1 0x2 DUP9 MUL ADD DUP9 SSTORE POP POP POP JUMPDEST POP POP POP POP POP POP JUMP JUMPDEST PUSH1 0x0 DUP3 DUP3 MSTORE PUSH1 0x20 DUP3 ADD SWAP1 POP SWAP3 SWAP2 POP POP JUMP JUMPDEST PUSH32 0x496E76616C696420616464726573733A207A65726F2061646472657373000000 PUSH1 0x0 DUP3 ADD MSTORE POP JUMP JUMPDEST PUSH1 0x0 PUSH2 0x789 PUSH1 0x1D DUP4 PUSH2 0x742 JUMP JUMPDEST SWAP2 POP PUSH2 0x794 DUP3 PUSH2 0x753 JUMP JUMPDEST PUSH1 0x20 DUP3 ADD SWAP1 POP SWAP2 SWAP1 POP JUMP JUMPDEST PUSH1 0x0 PUSH1 0x20 DUP3 ADD SWAP1 POP DUP2 DUP2 SUB PUSH1 0x0 DUP4 ADD MSTORE PUSH2 0x7B8 DUP2 PUSH2 0x77C JUMP JUMPDEST SWAP1 POP SWAP2 SWAP1 POP JUMP JUMPDEST PUSH1 0x80 MLOAD PUSH2 0x203C PUSH2 0x7E1 PUSH1 0x0 CODECOPY PUSH1 0x0 DUP2 DUP2 PUSH2 0x6DB ADD MSTORE PUSH2 0xBFD ADD MSTORE PUSH2 0x203C PUSH1 0x0 RETURN INVALID PUSH1 0x80 PUSH1 0x40 MSTORE PUSH1 0x4 CALLDATASIZE LT PUSH2 0xE1 JUMPI PUSH1 0x0 CALLDATALOAD PUSH1 0xE0 SHR DUP1 PUSH4 0x95D89B41 GT PUSH2 0x7F JUMPI DUP1 PUSH4 0xAD5D4BC5 GT PUSH2 0x59 JUMPI DUP1 PUSH4 0xAD5D4BC5 EQ PUSH2 0x2E1 JUMPI DUP1 PUSH4 0xBA56F6EE EQ PUSH2 0x30A JUMPI DUP1 PUSH4 0xBC6E6604 EQ PUSH2 0x335 JUMPI DUP1 PUSH4 0xDD62ED3E EQ PUSH2 0x360 JUMPI PUSH2 0xE8 JUMP JUMPDEST DUP1 PUSH4 0x95D89B41 EQ PUSH2 0x24E JUMPI DUP1 PUSH4 0x9BA1E2F8 EQ PUSH2 0x279 JUMPI DUP1 PUSH4 0xA9059CBB EQ PUSH2 0x2A4 JUMPI PUSH2 0xE8 JUMP JUMPDEST DUP1 PUSH4 0x23B872DD GT PUSH2 0xBB JUMPI DUP1 PUSH4 0x23B872DD EQ PUSH2 0x180 JUMPI DUP1 PUSH4 0x313CE567 EQ PUSH2 0x1BD JUMPI DUP1 PUSH4 0x40C10F19 EQ PUSH2 0x1E8 JUMPI DUP1 PUSH4 0x70A08231 EQ PUSH2 0x211 JUMPI PUSH2 0xE8 JUMP JUMPDEST DUP1 PUSH4 0x6FDDE03 EQ PUSH2 0xED JUMPI DUP1 PUSH4 0x95EA7B3 EQ PUSH2 0x118 JUMPI DUP1 PUSH4 0x18160DDD EQ PUSH2 0x155 JUMPI PUSH2 0xE8 JUMP JUMPDEST CALLDATASIZE PUSH2 0xE8 JUMPI STOP JUMPDEST PUSH1 0x0 DUP1 REVERT JUMPDEST CALLVALUE DUP1 ISZERO PUSH2 0xF9 JUMPI PUSH1 0x0 DUP1 REVERT JUMPDEST POP PUSH2 0x102 PUSH2 0x39D JUMP JUMPDEST PUSH1 0x40 MLOAD PUSH2 0x10F SWAP2 SWAP1 PUSH2 0x1A57 JUMP JUMPDEST PUSH1 0x40 MLOAD DUP1 SWAP2 SUB SWAP1 RETURN JUMPDEST CALLVALUE DUP1 ISZERO PUSH2 0x124 JUMPI PUSH1 0x0 DUP1 REVERT JUMPDEST POP PUSH2 0x13F PUSH1 0x4 DUP1 CALLDATASIZE SUB DUP2 ADD SWAP1 PUSH2 0x13A SWAP2 SWAP1 PUSH2 0x1B12 JUMP JUMPDEST PUSH2 0x46B JUMP JUMPDEST PUSH1 0x40 MLOAD PUSH2 0x14C SWAP2 SWAP1 PUSH2 0x1B6D JUMP JUMPDEST PUSH1 0x40 MLOAD DUP1 SWAP2 SUB SWAP1 RETURN JUMPDEST CALLVALUE DUP1 ISZERO PUSH2 0x161 JUMPI PUSH1 0x0 DUP1 REVERT JUMPDEST POP PUSH2 0x16A PUSH2 0x51B JUMP JUMPDEST PUSH1 0x40 MLOAD PUSH2 0x177 SWAP2 SWAP1 PUSH2 0x1B97 JUMP JUMPDEST PUSH1 0x40 MLOAD DUP1 SWAP2 SUB SWAP1 RETURN JUMPDEST CALLVALUE DUP1 ISZERO PUSH2 0x18C JUMPI PUSH1 0x0 DUP1 REVERT JUMPDEST POP PUSH2 0x1A7 PUSH1 0x4 DUP1 CALLDATASIZE SUB DUP2 ADD SWAP1 PUSH2 0x1A2 SWAP2 SWAP1 PUSH2 0x1BB2 JUMP JUMPDEST PUSH2 0x561 JUMP JUMPDEST PUSH1 0x40 MLOAD PUSH2 0x1B4 SWAP2 SWAP1 PUSH2 0x1B6D JUMP JUMPDEST PUSH1 0x40 MLOAD DUP1 SWAP2 SUB SWAP1 RETURN JUMPDEST CALLVALUE DUP1 ISZERO PUSH2 0x1C9 JUMPI PUSH1 0x0 DUP1 REVERT JUMPDEST POP PUSH2 0x1D2 PUSH2 0x645 JUMP JUMPDEST PUSH1 0x40 MLOAD PUSH2 0x1DF SWAP2 SWAP1 PUSH2 0x1C21 JUMP JUMPDEST PUSH1 0x40 MLOAD DUP1 SWAP2 SUB SWAP1 RETURN JUMPDEST CALLVALUE DUP1 ISZERO PUSH2 0x1F4 JUMPI PUSH1 0x0 DUP1 REVERT JUMPDEST POP PUSH2 0x20F PUSH1 0x4 DUP1 CALLDATASIZE SUB DUP2 ADD SWAP1 PUSH2 0x20A SWAP2 SWAP1 PUSH2 0x1B12 JUMP JUMPDEST PUSH2 0x68A JUMP JUMPDEST STOP JUMPDEST CALLVALUE DUP1 ISZERO PUSH2 0x21D JUMPI PUSH1 0x0 DUP1 REVERT JUMPDEST POP PUSH2 0x238 PUSH1 0x4 DUP1 CALLDATASIZE SUB DUP2 ADD SWAP1 PUSH2 0x233 SWAP2 SWAP1 PUSH2 0x1C3C JUMP JUMPDEST PUSH2 0x7B1 JUMP JUMPDEST PUSH1 0x40 MLOAD PUSH2 0x245 SWAP2 SWAP1 PUSH2 0x1B97 JUMP JUMPDEST PUSH1 0x40 MLOAD DUP1 SWAP2 SUB SWAP1 RETURN JUMPDEST CALLVALUE DUP1 ISZERO PUSH2 0x25A JUMPI PUSH1 0x0 DUP1 REVERT JUMPDEST POP PUSH2 0x263 PUSH2 0x835 JUMP JUMPDEST PUSH1 0x40 MLOAD PUSH2 0x270 SWAP2 SWAP1 PUSH2 0x1A57 JUMP JUMPDEST PUSH1 0x40 MLOAD DUP1 SWAP2 SUB SWAP1 RETURN JUMPDEST CALLVALUE DUP1 ISZERO PUSH2 0x285 JUMPI PUSH1 0x0 DUP1 REVERT JUMPDEST POP PUSH2 0x28E PUSH2 0x903 JUMP JUMPDEST PUSH1 0x40 MLOAD PUSH2 0x29B SWAP2 SWAP1 PUSH2 0x1B97 JUMP JUMPDEST PUSH1 0x40 MLOAD DUP1 SWAP2 SUB SWAP1 RETURN JUMPDEST CALLVALUE DUP1 ISZERO PUSH2 0x2B0 JUMPI PUSH1 0x0 DUP1 REVERT JUMPDEST POP PUSH2 0x2CB PUSH1 0x4 DUP1 CALLDATASIZE SUB DUP2 ADD SWAP1 PUSH2 0x2C6 SWAP2 SWAP1 PUSH2 0x1B12 JUMP JUMPDEST PUSH2 0x90F JUMP JUMPDEST PUSH1 0x40 MLOAD PUSH2 0x2D8 SWAP2 SWAP1 PUSH2 0x1B6D JUMP JUMPDEST PUSH1 0x40 MLOAD DUP1 SWAP2 SUB SWAP1 RETURN JUMPDEST CALLVALUE DUP1 ISZERO PUSH2 0x2ED JUMPI PUSH1 0x0 DUP1 REVERT JUMPDEST POP PUSH2 0x308 PUSH1 0x4 DUP1 CALLDATASIZE SUB DUP2 ADD SWAP1 PUSH2 0x303 SWAP2 SWAP1 PUSH2 0x1C69 JUMP JUMPDEST PUSH2 0x9BF JUMP JUMPDEST STOP JUMPDEST CALLVALUE DUP1 ISZERO PUSH2 0x316 JUMPI PUSH1 0x0 DUP1 REVERT JUMPDEST POP PUSH2 0x31F PUSH2 0xBFB JUMP JUMPDEST PUSH1 0x40 MLOAD PUSH2 0x32C SWAP2 SWAP1 PUSH2 0x1CA5 JUMP JUMPDEST PUSH1 0x40 MLOAD DUP1 SWAP2 SUB SWAP1 RETURN JUMPDEST CALLVALUE DUP1 ISZERO PUSH2 0x341 JUMPI PUSH1 0x0 DUP1 REVERT JUMPDEST POP PUSH2 0x34A PUSH2 0xC1F JUMP JUMPDEST PUSH1 0x40 MLOAD PUSH2 0x357 SWAP2 SWAP1 PUSH2 0x1B97 JUMP JUMPDEST PUSH1 0x40 MLOAD DUP1 SWAP2 SUB SWAP1 RETURN JUMPDEST CALLVALUE DUP1 ISZERO PUSH2 0x36C JUMPI PUSH1 0x0 DUP1 REVERT JUMPDEST POP PUSH2 0x387 PUSH1 0x4 DUP1 CALLDATASIZE SUB DUP2 ADD SWAP1 PUSH2 0x382 SWAP2 SWAP1 PUSH2 0x1CC0 JUMP JUMPDEST PUSH2 0xC2C JUMP JUMPDEST PUSH1 0x40 MLOAD PUSH2 0x394 SWAP2 SWAP1 PUSH2 0x1B97 JUMP JUMPDEST PUSH1 0x40 MLOAD DUP1 SWAP2 SUB SWAP1 RETURN JUMPDEST PUSH1 0x60 PUSH2 0x3B3 PUSH8 0xDC4017FA87C8FAF9 PUSH1 0xC0 SHL PUSH2 0xCEF JUMP JUMPDEST PUSH2 0x3C7 PUSH8 0x77DB9C0FAD353F24 PUSH1 0xC0 SHL PUSH2 0xCEF JUMP JUMPDEST PUSH2 0x3DB PUSH8 0x348B3214CD997DC0 PUSH1 0xC0 SHL PUSH2 0xCEF JUMP JUMPDEST PUSH1 0x3 DUP1 SLOAD PUSH2 0x3E8 SWAP1 PUSH2 0x1D2F JUMP JUMPDEST DUP1 PUSH1 0x1F ADD PUSH1 0x20 DUP1 SWAP2 DIV MUL PUSH1 0x20 ADD PUSH1 0x40 MLOAD SWAP1 DUP2 ADD PUSH1 0x40 MSTORE DUP1 SWAP3 SWAP2 SWAP1 DUP2 DUP2 MSTORE PUSH1 0x20 ADD DUP3 DUP1 SLOAD PUSH2 0x414 SWAP1 PUSH2 0x1D2F JUMP JUMPDEST DUP1 ISZERO PUSH2 0x461 JUMPI DUP1 PUSH1 0x1F LT PUSH2 0x436 JUMPI PUSH2 0x100 DUP1 DUP4 SLOAD DIV MUL DUP4 MSTORE SWAP2 PUSH1 0x20 ADD SWAP2 PUSH2 0x461 JUMP JUMPDEST DUP3 ADD SWAP2 SWAP1 PUSH1 0x0 MSTORE PUSH1 0x20 PUSH1 0x0 KECCAK256 SWAP1 JUMPDEST DUP2 SLOAD DUP2 MSTORE SWAP1 PUSH1 0x1 ADD SWAP1 PUSH1 0x20 ADD DUP1 DUP4 GT PUSH2 0x444 JUMPI DUP3 SWAP1 SUB PUSH1 0x1F AND DUP3 ADD SWAP2 JUMPDEST POP POP POP POP POP SWAP1 POP SWAP1 JUMP JUMPDEST PUSH1 0x0 PUSH2 0x481 PUSH8 0x6676DB885F8C637A PUSH1 0xC0 SHL PUSH2 0xCEF JUMP JUMPDEST PUSH2 0x495 PUSH8 0x2A446CDC44FF312D PUSH1 0xC0 SHL PUSH2 0xCEF JUMP JUMPDEST PUSH2 0x4A9 PUSH8 0x1BCE977C8CBB5F58 PUSH1 0xC0 SHL PUSH2 0xCEF JUMP JUMPDEST PUSH1 0x0 PUSH2 0x4B3 PUSH2 0xCF2 JUMP JUMPDEST SWAP1 POP PUSH2 0x4C9 PUSH8 0x2FCA9553B99C9C17 PUSH1 0xC0 SHL PUSH2 0xCEF JUMP JUMPDEST PUSH2 0x4DD PUSH8 0xC264F4DDF1A7FB67 PUSH1 0xC0 SHL PUSH2 0xCEF JUMP JUMPDEST PUSH2 0x4E8 DUP2 DUP6 DUP6 PUSH2 0xD36 JUMP JUMPDEST PUSH2 0x4FC PUSH8 0xF3E381E68FC02E93 PUSH1 0xC0 SHL PUSH2 0xCEF JUMP JUMPDEST PUSH2 0x510 PUSH8 0x2B00D476C9F586AE PUSH1 0xC0 SHL PUSH2 0xCEF JUMP JUMPDEST PUSH1 0x1 SWAP2 POP POP SWAP3 SWAP2 POP POP JUMP JUMPDEST PUSH1 0x0 PUSH2 0x531 PUSH8 0x9FB3A1CE5C307DA8 PUSH1 0xC0 SHL PUSH2 0xCEF JUMP JUMPDEST PUSH2 0x545 PUSH8 0x662BF9FD71AC52E0 PUSH1 0xC0 SHL PUSH2 0xCEF JUMP JUMPDEST PUSH2 0x559 PUSH8 0xDAB1BED7851827C2 PUSH1 0xC0 SHL PUSH2 0xCEF JUMP JUMPDEST PUSH1 0x2 SLOAD SWAP1 POP SWAP1 JUMP JUMPDEST PUSH1 0x0 PUSH2 0x577 PUSH8 0x319439C3C59CF6DB PUSH1 0xC0 SHL PUSH2 0xCEF JUMP JUMPDEST PUSH2 0x58B PUSH8 0x74A4991708A6BEF1 PUSH1 0xC0 SHL PUSH2 0xCEF JUMP JUMPDEST PUSH2 0x59F PUSH8 0x257318BA8335B8EC PUSH1 0xC0 SHL PUSH2 0xCEF JUMP JUMPDEST PUSH1 0x0 PUSH2 0x5A9 PUSH2 0xCF2 JUMP JUMPDEST SWAP1 POP PUSH2 0x5BF PUSH8 0x496348DC74BBE729 PUSH1 0xC0 SHL PUSH2 0xCEF JUMP JUMPDEST PUSH2 0x5D3 PUSH8 0xA14C4A9D91A91E5D PUSH1 0xC0 SHL PUSH2 0xCEF JUMP JUMPDEST PUSH2 0x5DE DUP6 DUP3 DUP6 PUSH2 0xD84 JUMP JUMPDEST PUSH2 0x5F2 PUSH8 0xF2CFB2A7FA14A72B PUSH1 0xC0 SHL PUSH2 0xCEF JUMP JUMPDEST PUSH2 0x606 PUSH8 0xD9F0E80392B4B5B4 PUSH1 0xC0 SHL PUSH2 0xCEF JUMP JUMPDEST PUSH2 0x611 DUP6 DUP6 DUP6 PUSH2 0xF4A JUMP JUMPDEST PUSH2 0x625 PUSH8 0xA4A2AD0FDA9CA85E PUSH1 0xC0 SHL PUSH2 0xCEF JUMP JUMPDEST PUSH2 0x639 PUSH8 0xBB4F43EB7C5AAB02 PUSH1 0xC0 SHL PUSH2 0xCEF JUMP JUMPDEST PUSH1 0x1 SWAP2 POP POP SWAP4 SWAP3 POP POP POP JUMP JUMPDEST PUSH1 0x0 PUSH2 0x65B PUSH8 0xF7930D162F45B6F7 PUSH1 0xC0 SHL PUSH2 0xCEF JUMP JUMPDEST PUSH2 0x66F PUSH8 0xEB0821B64998B113 PUSH1 0xC0 SHL PUSH2 0xCEF JUMP JUMPDEST PUSH2 0x683 PUSH8 0x7B608D32E9D7554D PUSH1 0xC0 SHL PUSH2 0xCEF JUMP JUMPDEST PUSH1 0x12 SWAP1 POP SWAP1 JUMP JUMPDEST PUSH2 0x69E PUSH8 0xD1595CA0FCA3E421 PUSH1 0xC0 SHL PUSH2 0x1142 JUMP JUMPDEST PUSH2 0x6B2 PUSH8 0x3696ED42CE228147 PUSH1 0xC0 SHL PUSH2 0x1142 JUMP JUMPDEST PUSH2 0x6C6 PUSH8 0xECB73DF79B93CD0B PUSH1 0xC0 SHL PUSH2 0x1142 JUMP JUMPDEST PUSH2 0x6D9 PUSH7 0x61118557C44040 PUSH1 0xC0 SHL PUSH2 0x1142 JUMP JUMPDEST PUSH32 0x0 PUSH20 0xFFFFFFFFFFFFFFFFFFFFFFFFFFFFFFFFFFFFFFFF AND CALLER PUSH20 0xFFFFFFFFFFFFFFFFFFFFFFFFFFFFFFFFFFFFFFFF AND EQ PUSH2 0x767 JUMPI PUSH1 0x40 MLOAD PUSH32 0x8C379A000000000000000000000000000000000000000000000000000000000 DUP2 MSTORE PUSH1 0x4 ADD PUSH2 0x75E SWAP1 PUSH2 0x1DAC JUMP JUMPDEST PUSH1 0x40 MLOAD DUP1 SWAP2 SUB SWAP1 REVERT JUMPDEST PUSH2 0x77B PUSH8 0xC1F952053DAE2DB5 PUSH1 0xC0 SHL PUSH2 0x1142 JUMP JUMPDEST PUSH2 0x78F PUSH8 0xE38F9CBF846882B5 PUSH1 0xC0 SHL PUSH2 0x1142 JUMP JUMPDEST PUSH2 0x7A3 PUSH8 0xDEF851A30296B333 PUSH1 0xC0 SHL PUSH2 0x1142 JUMP JUMPDEST PUSH2 0x7AD DUP3 DUP3 PUSH2 0x1145 JUMP JUMPDEST POP POP JUMP JUMPDEST PUSH1 0x0 PUSH2 0x7C7 PUSH8 0x54C7E9C88CBA1AE9 PUSH1 0xC0 SHL PUSH2 0xCEF JUMP JUMPDEST PUSH2 0x7DB PUSH8 0xB6E0CE55B7C8A3B9 PUSH1 0xC0 SHL PUSH2 0xCEF JUMP JUMPDEST PUSH2 0x7EF PUSH8 0x7CFD2D91C5367775 PUSH1 0xC0 SHL PUSH2 0xCEF JUMP JUMPDEST PUSH1 0x0 DUP1 DUP4 PUSH20 0xFFFFFFFFFFFFFFFFFFFFFFFFFFFFFFFFFFFFFFFF AND PUSH20 0xFFFFFFFFFFFFFFFFFFFFFFFFFFFFFFFFFFFFFFFF AND DUP2 MSTORE PUSH1 0x20 ADD SWAP1 DUP2 MSTORE PUSH1 0x20 ADD PUSH1 0x0 KECCAK256 SLOAD SWAP1 POP SWAP2 SWAP1 POP JUMP JUMPDEST PUSH1 0x60 PUSH2 0x84B PUSH8 0x9D4FE0978C1642FC PUSH1 0xC0 SHL PUSH2 0xCEF JUMP JUMPDEST PUSH2 0x85F PUSH8 0x1D8356FEC950BFBB PUSH1 0xC0 SHL PUSH2 0xCEF JUMP JUMPDEST PUSH2 0x873 PUSH8 0xE44A9100BD6472B7 PUSH1 0xC0 SHL PUSH2 0xCEF JUMP JUMPDEST PUSH1 0x4 DUP1 SLOAD PUSH2 0x880 SWAP1 PUSH2 0x1D2F JUMP JUMPDEST DUP1 PUSH1 0x1F ADD PUSH1 0x20 DUP1 SWAP2 DIV MUL PUSH1 0x20 ADD PUSH1 0x40 MLOAD SWAP1 DUP2 ADD PUSH1 0x40 MSTORE DUP1 SWAP3 SWAP2 SWAP1 DUP2 DUP2 MSTORE PUSH1 0x20 ADD DUP3 DUP1 SLOAD PUSH2 0x8AC SWAP1 PUSH2 0x1D2F JUMP JUMPDEST DUP1 ISZERO PUSH2 0x8F9 JUMPI DUP1 PUSH1 0x1F LT PUSH2 0x8CE JUMPI PUSH2 0x100 DUP1 DUP4 SLOAD DIV MUL DUP4 MSTORE SWAP2 PUSH1 0x20 ADD SWAP2 PUSH2 0x8F9 JUMP JUMPDEST DUP3 ADD SWAP2 SWAP1 PUSH1 0x0 MSTORE PUSH1 0x20 PUSH1 0x0 KECCAK256 SWAP1 JUMPDEST DUP2 SLOAD DUP2 MSTORE SWAP1 PUSH1 0x1 ADD SWAP1 PUSH1 0x20 ADD DUP1 DUP4 GT PUSH2 0x8DC JUMPI DUP3 SWAP1 SUB PUSH1 0x1F AND DUP3 ADD SWAP2 JUMPDEST POP POP POP POP POP SWAP1 POP SWAP1 JUMP JUMPDEST PUSH8 0x6F05B59D3B20000 DUP2 JUMP JUMPDEST PUSH1 0x0 PUSH2 0x925 PUSH8 0x7DDD223595DDCF5E PUSH1 0xC0 SHL PUSH2 0xCEF JUMP JUMPDEST PUSH2 0x939 PUSH8 0x78D4830274F22BBA PUSH1 0xC0 SHL PUSH2 0xCEF JUMP JUMPDEST PUSH2 0x94D PUSH8 0xFFF6EB07C5BCB96 PUSH1 0xC0 SHL PUSH2 0xCEF JUMP JUMPDEST PUSH1 0x0 PUSH2 0x957 PUSH2 0xCF2 JUMP JUMPDEST SWAP1 POP PUSH2 0x96D PUSH8 0x4533FAAA682D213C PUSH1 0xC0 SHL PUSH2 0xCEF JUMP JUMPDEST PUSH2 0x981 PUSH8 0xAFF405E35C7DF282 PUSH1 0xC0 SHL PUSH2 0xCEF JUMP JUMPDEST PUSH2 0x98C DUP2 DUP6 DUP6 PUSH2 0xF4A JUMP JUMPDEST PUSH2 0x9A0 PUSH8 0x685C21A20825ECA6 PUSH1 0xC0 SHL PUSH2 0xCEF JUMP JUMPDEST PUSH2 0x9B4 PUSH8 0x4DBDC22ED7FEB147 PUSH1 0xC0 SHL PUSH2 0xCEF JUMP JUMPDEST PUSH1 0x1 SWAP2 POP POP SWAP3 SWAP2 POP POP JUMP JUMPDEST PUSH2 0x9D3 PUSH8 0x99F9EBAF75802D45 PUSH1 0xC0 SHL PUSH2 0x1142 JUMP JUMPDEST PUSH2 0x9E7 PUSH8 0x6ADD6CEA3CE644B PUSH1 0xC0 SHL PUSH2 0x1142 JUMP JUMPDEST PUSH2 0x9FB PUSH8 0x9EB24FD5483BCC9C PUSH1 0xC0 SHL PUSH2 0x1142 JUMP JUMPDEST PUSH1 0x0 PUSH9 0x3635C9ADC5DEA00000 PUSH8 0x6F05B59D3B20000 DUP4 PUSH2 0xA1B SWAP2 SWAP1 PUSH2 0x1DFB JUMP JUMPDEST PUSH2 0xA25 SWAP2 SWAP1 PUSH2 0x1E6C JUMP JUMPDEST SWAP1 POP PUSH2 0xA3B PUSH8 0x9BDDC59955BD4F9D PUSH1 0xC0 SHL PUSH2 0x1142 JUMP JUMPDEST PUSH2 0xA4F PUSH8 0xAA419F67BCCAE1F9 PUSH1 0xC0 SHL PUSH2 0x1142 JUMP JUMPDEST PUSH2 0xA63 PUSH8 0x31D731B60A3E25AB PUSH1 0xC0 SHL PUSH2 0x1142 JUMP JUMPDEST DUP1 SELFBALANCE LT ISZERO PUSH2 0xAA6 JUMPI PUSH1 0x40 MLOAD PUSH32 0x8C379A000000000000000000000000000000000000000000000000000000000 DUP2 MSTORE PUSH1 0x4 ADD PUSH2 0xA9D SWAP1 PUSH2 0x1EE9 JUMP JUMPDEST PUSH1 0x40 MLOAD DUP1 SWAP2 SUB SWAP1 REVERT JUMPDEST PUSH2 0xABA PUSH8 0xD508974C293B7441 PUSH1 0xC0 SHL PUSH2 0x1142 JUMP JUMPDEST PUSH2 0xACE PUSH8 0x25AF2121F3E558A0 PUSH1 0xC0 SHL PUSH2 0x1142 JUMP JUMPDEST PUSH2 0xAE2 PUSH8 0xE9B719C5231E3B30 PUSH1 0xC0 SHL PUSH2 0x1142 JUMP JUMPDEST PUSH2 0xAF6 PUSH8 0xAB70FB5E4DFD8B7F PUSH1 0xC0 SHL PUSH2 0x1142 JUMP JUMPDEST DUP2 PUSH2 0xB00 CALLER PUSH2 0x7B1 JUMP JUMPDEST LT ISZERO PUSH2 0xB41 JUMPI PUSH1 0x40 MLOAD PUSH32 0x8C379A000000000000000000000000000000000000000000000000000000000 DUP2 MSTORE PUSH1 0x4 ADD PUSH2 0xB38 SWAP1 PUSH2 0x1F7B JUMP JUMPDEST PUSH1 0x40 MLOAD DUP1 SWAP2 SUB SWAP1 REVERT JUMPDEST PUSH2 0xB55 PUSH8 0x58AD76FAEDBDD93E PUSH1 0xC0 SHL PUSH2 0x1142 JUMP JUMPDEST PUSH2 0xB69 PUSH8 0xE975B1745CE1D6A3 PUSH1 0xC0 SHL PUSH2 0x1142 JUMP JUMPDEST PUSH2 0xB7D PUSH8 0x6ADDDAFE723312CB PUSH1 0xC0 SHL PUSH2 0x1142 JUMP JUMPDEST PUSH2 0xB88 CALLER ADDRESS DUP5 PUSH2 0xF4A JUMP JUMPDEST PUSH2 0xB9C PUSH8 0x7BC79050D716FE4A PUSH1 0xC0 SHL PUSH2 0x1142 JUMP JUMPDEST PUSH2 0xBB0 PUSH8 0xB32727EA1B7AFE2A PUSH1 0xC0 SHL PUSH2 0x1142 JUMP JUMPDEST CALLER PUSH20 0xFFFFFFFFFFFFFFFFFFFFFFFFFFFFFFFFFFFFFFFF AND PUSH2 0x8FC DUP3 SWAP1 DUP2 ISZERO MUL SWAP1 PUSH1 0x40 MLOAD PUSH1 0x0 PUSH1 0x40 MLOAD DUP1 DUP4 SUB DUP2 DUP6 DUP9 DUP9 CALL SWAP4 POP POP POP POP ISZERO DUP1 ISZERO PUSH2 0xBF6 JUMPI RETURNDATASIZE PUSH1 0x0 DUP1 RETURNDATACOPY RETURNDATASIZE PUSH1 0x0 REVERT JUMPDEST POP POP POP JUMP JUMPDEST PUSH32 0x0 DUP2 JUMP JUMPDEST PUSH9 0x3635C9ADC5DEA00000 DUP2 JUMP JUMPDEST PUSH1 0x0 PUSH2 0xC42 PUSH8 0x50C62635D2EC3355 PUSH1 0xC0 SHL PUSH2 0xCEF JUMP JUMPDEST PUSH2 0xC56 PUSH8 0xF5A0C5A7EB4020AF PUSH1 0xC0 SHL PUSH2 0xCEF JUMP JUMPDEST PUSH2 0xC6A PUSH8 0x625444E4B5ECEFD0 PUSH1 0xC0 SHL PUSH2 0xCEF JUMP JUMPDEST PUSH1 0x1 PUSH1 0x0 DUP5 PUSH20 0xFFFFFFFFFFFFFFFFFFFFFFFFFFFFFFFFFFFFFFFF AND PUSH20 0xFFFFFFFFFFFFFFFFFFFFFFFFFFFFFFFFFFFFFFFF AND DUP2 MSTORE PUSH1 0x20 ADD SWAP1 DUP2 MSTORE PUSH1 0x20 ADD PUSH1 0x0 KECCAK256 PUSH1 0x0 DUP4 PUSH20 0xFFFFFFFFFFFFFFFFFFFFFFFFFFFFFFFFFFFFFFFF AND PUSH20 0xFFFFFFFFFFFFFFFFFFFFFFFFFFFFFFFFFFFFFFFF AND DUP2 MSTORE PUSH1 0x20 ADD SWAP1 DUP2 MSTORE PUSH1 0x20 ADD PUSH1 0x0 KECCAK256 SLOAD SWAP1 POP SWAP3 SWAP2 POP POP JUMP JUMPDEST POP JUMP JUMPDEST PUSH1 0x0 PUSH2 0xD08 PUSH8 0xFFC47A48AB078C46 PUSH1 0xC0 SHL PUSH2 0x1267 JUMP JUMPDEST PUSH2 0xD1C PUSH8 0x9679CB1432968776 PUSH1 0xC0 SHL PUSH2 0x1267 JUMP JUMPDEST PUSH2 0xD30 PUSH8 0x4C04BF4E92B0D89 PUSH1 0xC0 SHL PUSH2 0x1267 JUMP JUMPDEST CALLER SWAP1 POP SWAP1 JUMP JUMPDEST PUSH2 0xD4A PUSH8 0x12C21ED5B4EC33C8 PUSH1 0xC0 SHL PUSH2 0xCEF JUMP JUMPDEST PUSH2 0xD5E PUSH8 0x9EFAAC31BFA186A PUSH1 0xC0 SHL PUSH2 0xCEF JUMP JUMPDEST PUSH2 0xD72 PUSH8 0x62459BBC6BC0C22B PUSH1 0xC0 SHL PUSH2 0xCEF JUMP JUMPDEST PUSH2 0xD7F DUP4 DUP4 DUP4 PUSH1 0x1 PUSH2 0x126A JUMP JUMPDEST POP POP POP JUMP JUMPDEST PUSH2 0xD98 PUSH8 0x9EB18209CAC3CB19 PUSH1 0xC0 SHL PUSH2 0xCEF JUMP JUMPDEST PUSH2 0xDAC PUSH8 0xB0B2C339357361E1 PUSH1 0xC0 SHL PUSH2 0xCEF JUMP JUMPDEST PUSH2 0xDC0 PUSH8 0xB264E976131CDB96 PUSH1 0xC0 SHL PUSH2 0xCEF JUMP JUMPDEST PUSH1 0x0 PUSH2 0xDCC DUP5 DUP5 PUSH2 0xC2C JUMP JUMPDEST SWAP1 POP PUSH2 0xDE2 PUSH8 0x3FF0BC30ED477B27 PUSH1 0xC0 SHL PUSH2 0xCEF JUMP JUMPDEST PUSH2 0xDF6 PUSH8 0x1425D9EF987F6EEB PUSH1 0xC0 SHL PUSH2 0xCEF JUMP JUMPDEST PUSH32 0xFFFFFFFFFFFFFFFFFFFFFFFFFFFFFFFFFFFFFFFFFFFFFFFFFFFFFFFFFFFFFFFF DUP2 LT ISZERO PUSH2 0xF2F JUMPI PUSH2 0xE32 PUSH8 0x7D3DB806108A5C98 PUSH1 0xC0 SHL PUSH2 0xCEF JUMP JUMPDEST PUSH2 0xE46 PUSH8 0x9233CB06DDD9ED55 PUSH1 0xC0 SHL PUSH2 0xCEF JUMP JUMPDEST PUSH2 0xE5A PUSH8 0x63C3554BF1D906BB PUSH1 0xC0 SHL PUSH2 0xCEF JUMP JUMPDEST DUP2 DUP2 LT ISZERO PUSH2 0xECB JUMPI PUSH2 0xE76 PUSH8 0xE56DF1CA349CC27C PUSH1 0xC0 SHL PUSH2 0xCEF JUMP JUMPDEST PUSH2 0xE8A PUSH8 0x5B5B4A21B5121D67 PUSH1 0xC0 SHL PUSH2 0xCEF JUMP JUMPDEST DUP3 DUP2 DUP4 PUSH1 0x40 MLOAD PUSH32 0xFB8F41B200000000000000000000000000000000000000000000000000000000 DUP2 MSTORE PUSH1 0x4 ADD PUSH2 0xEC2 SWAP4 SWAP3 SWAP2 SWAP1 PUSH2 0x1F9B JUMP JUMPDEST PUSH1 0x40 MLOAD DUP1 SWAP2 SUB SWAP1 REVERT JUMPDEST PUSH2 0xEDF PUSH8 0x441F665F8A142AC PUSH1 0xC0 SHL PUSH2 0xCEF JUMP JUMPDEST PUSH2 0xEF3 PUSH8 0xA6CA3008497DDCEB PUSH1 0xC0 SHL PUSH2 0xCEF JUMP JUMPDEST PUSH2 0xF07 PUSH8 0xA76AA59AE25F606E PUSH1 0xC0 SHL PUSH2 0xCEF JUMP JUMPDEST PUSH2 0xF1B PUSH8 0xAC6A8FBE6B68322E PUSH1 0xC0 SHL PUSH2 0xCEF JUMP JUMPDEST PUSH2 0xF2A DUP5 DUP5 DUP5 DUP5 SUB PUSH1 0x0 PUSH2 0x126A JUMP JUMPDEST PUSH2 0xF44 JUMP JUMPDEST PUSH2 0xF43 PUSH8 0xEFACFCDC64F40A5E PUSH1 0xC0 SHL PUSH2 0xCEF JUMP JUMPDEST JUMPDEST POP POP POP POP JUMP JUMPDEST PUSH2 0xF5E PUSH8 0xB734FBDD9B61A4DD PUSH1 0xC0 SHL PUSH2 0xCEF JUMP JUMPDEST PUSH2 0xF72 PUSH8 0x5A3C542B5E494764 PUSH1 0xC0 SHL PUSH2 0xCEF JUMP JUMPDEST PUSH2 0xF86 PUSH8 0x9FCC5F3B0161BC58 PUSH1 0xC0 SHL PUSH2 0xCEF JUMP JUMPDEST PUSH1 0x0 PUSH20 0xFFFFFFFFFFFFFFFFFFFFFFFFFFFFFFFFFFFFFFFF AND DUP4 PUSH20 0xFFFFFFFFFFFFFFFFFFFFFFFFFFFFFFFFFFFFFFFF AND SUB PUSH2 0x1020 JUMPI PUSH2 0xFCE PUSH8 0x4A39557A03ECE180 PUSH1 0xC0 SHL PUSH2 0xCEF JUMP JUMPDEST PUSH2 0xFE2 PUSH8 0x74AF20980A197FF2 PUSH1 0xC0 SHL PUSH2 0xCEF JUMP JUMPDEST PUSH1 0x0 PUSH1 0x40 MLOAD PUSH32 0x96C6FD1E00000000000000000000000000000000000000000000000000000000 DUP2 MSTORE PUSH1 0x4 ADD PUSH2 0x1017 SWAP2 SWAP1 PUSH2 0x1CA5 JUMP JUMPDEST PUSH1 0x40 MLOAD DUP1 SWAP2 SUB SWAP1 REVERT JUMPDEST PUSH2 0x1034 PUSH8 0xAB474883B102B2C PUSH1 0xC0 SHL PUSH2 0xCEF JUMP JUMPDEST PUSH2 0x1048 PUSH8 0xE59439DCC8B0B8C8 PUSH1 0xC0 SHL PUSH2 0xCEF JUMP JUMPDEST PUSH2 0x105C PUSH8 0x78B7C3126DB94030 PUSH1 0xC0 SHL PUSH2 0xCEF JUMP JUMPDEST PUSH1 0x0 PUSH20 0xFFFFFFFFFFFFFFFFFFFFFFFFFFFFFFFFFFFFFFFF AND DUP3 PUSH20 0xFFFFFFFFFFFFFFFFFFFFFFFFFFFFFFFFFFFFFFFF AND SUB PUSH2 0x10F6 JUMPI PUSH2 0x10A4 PUSH8 0xDEA2BB07C47A61CF PUSH1 0xC0 SHL PUSH2 0xCEF JUMP JUMPDEST PUSH2 0x10B8 PUSH8 0xB79F3BC8677FE536 PUSH1 0xC0 SHL PUSH2 0xCEF JUMP JUMPDEST PUSH1 0x0 PUSH1 0x40 MLOAD PUSH32 0xEC442F0500000000000000000000000000000000000000000000000000000000 DUP2 MSTORE PUSH1 0x4 ADD PUSH2 0x10ED SWAP2 SWAP1 PUSH2 0x1CA5 JUMP JUMPDEST PUSH1 0x40 MLOAD DUP1 SWAP2 SUB SWAP1 REVERT JUMPDEST PUSH2 0x110A PUSH8 0x3331D8EB15ABCE6C PUSH1 0xC0 SHL PUSH2 0xCEF JUMP JUMPDEST PUSH2 0x111E PUSH8 0xD2A17DD1ED2F105 PUSH1 0xC0 SHL PUSH2 0xCEF JUMP JUMPDEST PUSH2 0x1132 PUSH8 0x20F3F1C5B5CA1793 PUSH1 0xC0 SHL PUSH2 0xCEF JUMP JUMPDEST PUSH2 0x113D DUP4 DUP4 DUP4 PUSH2 0x15AE JUMP JUMPDEST POP POP POP JUMP JUMPDEST POP JUMP JUMPDEST PUSH2 0x1159 PUSH8 0x8BE85E6AD07BBD81 PUSH1 0xC0 SHL PUSH2 0xCEF JUMP JUMPDEST PUSH2 0x116D PUSH8 0x192224C9B136433D PUSH1 0xC0 SHL PUSH2 0xCEF JUMP JUMPDEST PUSH2 0x1181 PUSH8 0x8EDE893B4331374B PUSH1 0xC0 SHL PUSH2 0xCEF JUMP JUMPDEST PUSH1 0x0 PUSH20 0xFFFFFFFFFFFFFFFFFFFFFFFFFFFFFFFFFFFFFFFF AND DUP3 PUSH20 0xFFFFFFFFFFFFFFFFFFFFFFFFFFFFFFFFFFFFFFFF AND SUB PUSH2 0x121B JUMPI PUSH2 0x11C9 PUSH8 0x7A49D02EAA8F3BD5 PUSH1 0xC0 SHL PUSH2 0xCEF JUMP JUMPDEST PUSH2 0x11DD PUSH8 0x45407B6CC48086B PUSH1 0xC0 SHL PUSH2 0xCEF JUMP JUMPDEST PUSH1 0x0 PUSH1 0x40 MLOAD PUSH32 0xEC442F0500000000000000000000000000000000000000000000000000000000 DUP2 MSTORE PUSH1 0x4 ADD PUSH2 0x1212 SWAP2 SWAP1 PUSH2 0x1CA5 JUMP JUMPDEST PUSH1 0x40 MLOAD DUP1 SWAP2 SUB SWAP1 REVERT JUMPDEST PUSH2 0x122F PUSH8 0xE82DB8828713CFE7 PUSH1 0xC0 SHL PUSH2 0xCEF JUMP JUMPDEST PUSH2 0x1243 PUSH8 0x93FD368415B77266 PUSH1 0xC0 SHL PUSH2 0xCEF JUMP JUMPDEST PUSH2 0x1257 PUSH8 0x1798793AF5BA39F PUSH1 0xC0 SHL PUSH2 0xCEF JUMP JUMPDEST PUSH2 0x1263 PUSH1 0x0 DUP4 DUP4 PUSH2 0x15AE JUMP JUMPDEST POP POP JUMP JUMPDEST POP JUMP JUMPDEST PUSH2 0x127E PUSH8 0x62293C9A46C88F26 PUSH1 0xC0 SHL PUSH2 0xCEF JUMP JUMPDEST PUSH2 0x1292 PUSH8 0xC829954CF5560152 PUSH1 0xC0 SHL PUSH2 0xCEF JUMP JUMPDEST PUSH2 0x12A6 PUSH8 0x72DA84AF8BFD3678 PUSH1 0xC0 SHL PUSH2 0xCEF JUMP JUMPDEST PUSH1 0x0 PUSH20 0xFFFFFFFFFFFFFFFFFFFFFFFFFFFFFFFFFFFFFFFF AND DUP5 PUSH20 0xFFFFFFFFFFFFFFFFFFFFFFFFFFFFFFFFFFFFFFFF AND SUB PUSH2 0x1340 JUMPI PUSH2 0x12EE PUSH8 0x528FA5CF6838FD35 PUSH1 0xC0 SHL PUSH2 0xCEF JUMP JUMPDEST PUSH2 0x1302 PUSH8 0xDF9283D1AB4F40F4 PUSH1 0xC0 SHL PUSH2 0xCEF JUMP JUMPDEST PUSH1 0x0 PUSH1 0x40 MLOAD PUSH32 0xE602DF0500000000000000000000000000000000000000000000000000000000 DUP2 MSTORE PUSH1 0x4 ADD PUSH2 0x1337 SWAP2 SWAP1 PUSH2 0x1CA5 JUMP JUMPDEST PUSH1 0x40 MLOAD DUP1 SWAP2 SUB SWAP1 REVERT JUMPDEST PUSH2 0x1354 PUSH8 0x104E47EF9DD24385 PUSH1 0xC0 SHL PUSH2 0xCEF JUMP JUMPDEST PUSH2 0x1368 PUSH8 0xEE5E985A5418774C PUSH1 0xC0 SHL PUSH2 0xCEF JUMP JUMPDEST PUSH2 0x137C PUSH8 0xDB2F72D8C9A54F56 PUSH1 0xC0 SHL PUSH2 0xCEF JUMP JUMPDEST PUSH1 0x0 PUSH20 0xFFFFFFFFFFFFFFFFFFFFFFFFFFFFFFFFFFFFFFFF AND DUP4 PUSH20 0xFFFFFFFFFFFFFFFFFFFFFFFFFFFFFFFFFFFFFFFF AND SUB PUSH2 0x1416 JUMPI PUSH2 0x13C4 PUSH8 0xDFD1A57F8D120BFA PUSH1 0xC0 SHL PUSH2 0xCEF JUMP JUMPDEST PUSH2 0x13D8 PUSH8 0x5DB5B1205DB7870A PUSH1 0xC0 SHL PUSH2 0xCEF JUMP JUMPDEST PUSH1 0x0 PUSH1 0x40 MLOAD PUSH32 0x94280D6200000000000000000000000000000000000000000000000000000000 DUP2 MSTORE PUSH1 0x4 ADD PUSH2 0x140D SWAP2 SWAP1 PUSH2 0x1CA5 JUMP JUMPDEST PUSH1 0x40 MLOAD DUP1 SWAP2 SUB SWAP1 REVERT JUMPDEST PUSH2 0x142A PUSH8 0x5B099E9D411213C9 PUSH1 0xC0 SHL PUSH2 0xCEF JUMP JUMPDEST PUSH2 0x143E PUSH8 0xE62C35F93894D0EA PUSH1 0xC0 SHL PUSH2 0xCEF JUMP JUMPDEST DUP2 PUSH1 0x1 PUSH1 0x0 DUP7 PUSH20 0xFFFFFFFFFFFFFFFFFFFFFFFFFFFFFFFFFFFFFFFF AND PUSH20 0xFFFFFFFFFFFFFFFFFFFFFFFFFFFFFFFFFFFFFFFF AND DUP2 MSTORE PUSH1 0x20 ADD SWAP1 DUP2 MSTORE PUSH1 0x20 ADD PUSH1 0x0 KECCAK256 PUSH1 0x0 DUP6 PUSH20 0xFFFFFFFFFFFFFFFFFFFFFFFFFFFFFFFFFFFFFFFF AND PUSH20 0xFFFFFFFFFFFFFFFFFFFFFFFFFFFFFFFFFFFFFFFF AND DUP2 MSTORE PUSH1 0x20 ADD SWAP1 DUP2 MSTORE PUSH1 0x20 ADD PUSH1 0x0 KECCAK256 DUP2 SWAP1 SSTORE POP PUSH2 0x14D3 PUSH8 0xA1F44B9C48294C00 PUSH1 0xC0 SHL PUSH2 0xCEF JUMP JUMPDEST PUSH2 0x14E7 PUSH8 0x466753D57F517E68 PUSH1 0xC0 SHL PUSH2 0xCEF JUMP JUMPDEST DUP1 ISZERO PUSH2 0x1593 JUMPI PUSH2 0x1501 PUSH8 0xE62799955FF75059 PUSH1 0xC0 SHL PUSH2 0xCEF JUMP JUMPDEST PUSH2 0x1515 PUSH8 0x5BFB020A871EC90E PUSH1 0xC0 SHL PUSH2 0xCEF JUMP JUMPDEST PUSH2 0x1529 PUSH8 0xFFC83E7AA3C7C298 PUSH1 0xC0 SHL PUSH2 0xCEF JUMP JUMPDEST DUP3 PUSH20 0xFFFFFFFFFFFFFFFFFFFFFFFFFFFFFFFFFFFFFFFF AND DUP5 PUSH20 0xFFFFFFFFFFFFFFFFFFFFFFFFFFFFFFFFFFFFFFFF AND PUSH32 0x8C5BE1E5EBEC7D5BD14F71427D1E84F3DD0314C0F7B2291E5B200AC8C7C3B925 DUP5 PUSH1 0x40 MLOAD PUSH2 0x1586 SWAP2 SWAP1 PUSH2 0x1B97 JUMP JUMPDEST PUSH1 0x40 MLOAD DUP1 SWAP2 SUB SWAP1 LOG3 PUSH2 0x15A8 JUMP JUMPDEST PUSH2 0x15A7 PUSH8 0xA57293A397B8F456 PUSH1 0xC0 SHL PUSH2 0xCEF JUMP JUMPDEST JUMPDEST POP POP POP POP JUMP JUMPDEST PUSH2 0x15C2 PUSH8 0xCA3E5ED2E346B303 PUSH1 0xC0 SHL PUSH2 0xCEF JUMP JUMPDEST PUSH2 0x15D6 PUSH8 0xB09BD135C404A122 PUSH1 0xC0 SHL PUSH2 0xCEF JUMP JUMPDEST PUSH2 0x15EA PUSH8 0x3B8F283FE50AF48E PUSH1 0xC0 SHL PUSH2 0xCEF JUMP JUMPDEST PUSH1 0x0 PUSH20 0xFFFFFFFFFFFFFFFFFFFFFFFFFFFFFFFFFFFFFFFF AND DUP4 PUSH20 0xFFFFFFFFFFFFFFFFFFFFFFFFFFFFFFFFFFFFFFFF AND SUB PUSH2 0x1664 JUMPI PUSH2 0x1632 PUSH8 0x349975EE347A2F5 PUSH1 0xC0 SHL PUSH2 0xCEF JUMP JUMPDEST PUSH2 0x1646 PUSH8 0x6DED435457558167 PUSH1 0xC0 SHL PUSH2 0xCEF JUMP JUMPDEST DUP1 PUSH1 0x2 PUSH1 0x0 DUP3 DUP3 SLOAD PUSH2 0x1658 SWAP2 SWAP1 PUSH2 0x1FD2 JUMP JUMPDEST SWAP3 POP POP DUP2 SWAP1 SSTORE POP PUSH2 0x17FF JUMP JUMPDEST PUSH2 0x1678 PUSH8 0x39C6682B3F2BD770 PUSH1 0xC0 SHL PUSH2 0xCEF JUMP JUMPDEST PUSH2 0x168C PUSH8 0x9F13F4E30296406A PUSH1 0xC0 SHL PUSH2 0xCEF JUMP JUMPDEST PUSH2 0x16A0 PUSH8 0x6010ADB60E5211A6 PUSH1 0xC0 SHL PUSH2 0xCEF JUMP JUMPDEST PUSH1 0x0 DUP1 PUSH1 0x0 DUP6 PUSH20 0xFFFFFFFFFFFFFFFFFFFFFFFFFFFFFFFFFFFFFFFF AND PUSH20 0xFFFFFFFFFFFFFFFFFFFFFFFFFFFFFFFFFFFFFFFF AND DUP2 MSTORE PUSH1 0x20 ADD SWAP1 DUP2 MSTORE PUSH1 0x20 ADD PUSH1 0x0 KECCAK256 SLOAD SWAP1 POP PUSH2 0x16F7 PUSH8 0x31F97C510D307017 PUSH1 0xC0 SHL PUSH2 0xCEF JUMP JUMPDEST PUSH2 0x170B PUSH8 0xD0139B1BF79AD0CE PUSH1 0xC0 SHL PUSH2 0xCEF JUMP JUMPDEST DUP2 DUP2 LT ISZERO PUSH2 0x177C JUMPI PUSH2 0x1727 PUSH8 0xC0FD3F3C5143E7D6 PUSH1 0xC0 SHL PUSH2 0xCEF JUMP JUMPDEST PUSH2 0x173B PUSH8 0x6EDD9B1953BEF6D2 PUSH1 0xC0 SHL PUSH2 0xCEF JUMP JUMPDEST DUP4 DUP2 DUP4 PUSH1 0x40 MLOAD PUSH32 0xE450D38C00000000000000000000000000000000000000000000000000000000 DUP2 MSTORE PUSH1 0x4 ADD PUSH2 0x1773 SWAP4 SWAP3 SWAP2 SWAP1 PUSH2 0x1F9B JUMP JUMPDEST PUSH1 0x40 MLOAD DUP1 SWAP2 SUB SWAP1 REVERT JUMPDEST PUSH2 0x1790 PUSH8 0xE12F64047C380BA1 PUSH1 0xC0 SHL PUSH2 0xCEF JUMP JUMPDEST PUSH2 0x17A4 PUSH8 0x523D67DA0EAD6084 PUSH1 0xC0 SHL PUSH2 0xCEF JUMP JUMPDEST PUSH2 0x17B8 PUSH8 0xAEC762FB687942B2 PUSH1 0xC0 SHL PUSH2 0xCEF JUMP JUMPDEST DUP2 DUP2 SUB PUSH1 0x0 DUP1 DUP7 PUSH20 0xFFFFFFFFFFFFFFFFFFFFFFFFFFFFFFFFFFFFFFFF AND PUSH20 0xFFFFFFFFFFFFFFFFFFFFFFFFFFFFFFFFFFFFFFFF AND DUP2 MSTORE PUSH1 0x20 ADD SWAP1 DUP2 MSTORE PUSH1 0x20 ADD PUSH1 0x0 KECCAK256 DUP2 SWAP1 SSTORE POP POP JUMPDEST PUSH2 0x1813 PUSH8 0x56BBD3403B7682DF PUSH1 0xC0 SHL PUSH2 0xCEF JUMP JUMPDEST PUSH2 0x1827 PUSH8 0xE78EB4F00477476F PUSH1 0xC0 SHL PUSH2 0xCEF JUMP JUMPDEST PUSH1 0x0 PUSH20 0xFFFFFFFFFFFFFFFFFFFFFFFFFFFFFFFFFFFFFFFF AND DUP3 PUSH20 0xFFFFFFFFFFFFFFFFFFFFFFFFFFFFFFFFFFFFFFFF AND SUB PUSH2 0x18AC JUMPI PUSH2 0x186F PUSH8 0x8DA2CC93BFA8E0B7 PUSH1 0xC0 SHL PUSH2 0xCEF JUMP JUMPDEST PUSH2 0x1883 PUSH8 0x8AF4E3D305B5D8EA PUSH1 0xC0 SHL PUSH2 0xCEF JUMP JUMPDEST PUSH2 0x1897 PUSH8 0x5CC6CD9566EDBD93 PUSH1 0xC0 SHL PUSH2 0xCEF JUMP JUMPDEST DUP1 PUSH1 0x2 PUSH1 0x0 DUP3 DUP3 SLOAD SUB SWAP3 POP POP DUP2 SWAP1 SSTORE POP PUSH2 0x1935 JUMP JUMPDEST PUSH2 0x18C0 PUSH8 0xA8A04519A9A727E4 PUSH1 0xC0 SHL PUSH2 0xCEF JUMP JUMPDEST PUSH2 0x18D4 PUSH8 0x30F38A50E72377B7 PUSH1 0xC0 SHL PUSH2 0xCEF JUMP JUMPDEST PUSH2 0x18E8 PUSH8 0xBA6302AC3277DEB7 PUSH1 0xC0 SHL PUSH2 0xCEF JUMP JUMPDEST DUP1 PUSH1 0x0 DUP1 DUP5 PUSH20 0xFFFFFFFFFFFFFFFFFFFFFFFFFFFFFFFFFFFFFFFF AND PUSH20 0xFFFFFFFFFFFFFFFFFFFFFFFFFFFFFFFFFFFFFFFF AND DUP2 MSTORE PUSH1 0x20 ADD SWAP1 DUP2 MSTORE PUSH1 0x20 ADD PUSH1 0x0 KECCAK256 PUSH1 0x0 DUP3 DUP3 SLOAD ADD SWAP3 POP POP DUP2 SWAP1 SSTORE POP JUMPDEST PUSH2 0x1949 PUSH8 0xCC7E14EA3923E354 PUSH1 0xC0 SHL PUSH2 0xCEF JUMP JUMPDEST PUSH2 0x195D PUSH8 0x6D0631285BA926B0 PUSH1 0xC0 SHL PUSH2 0xCEF JUMP JUMPDEST DUP2 PUSH20 0xFFFFFFFFFFFFFFFFFFFFFFFFFFFFFFFFFFFFFFFF AND DUP4 PUSH20 0xFFFFFFFFFFFFFFFFFFFFFFFFFFFFFFFFFFFFFFFF AND PUSH32 0xDDF252AD1BE2C89B69C2B068FC378DAA952BA7F163C4A11628F55A4DF523B3EF DUP4 PUSH1 0x40 MLOAD PUSH2 0x19BA SWAP2 SWAP1 PUSH2 0x1B97 JUMP JUMPDEST PUSH1 0x40 MLOAD DUP1 SWAP2 SUB SWAP1 LOG3 POP POP POP JUMP JUMPDEST PUSH1 0x0 DUP2 MLOAD SWAP1 POP SWAP2 SWAP1 POP JUMP JUMPDEST PUSH1 0x0 DUP3 DUP3 MSTORE PUSH1 0x20 DUP3 ADD SWAP1 POP SWAP3 SWAP2 POP POP JUMP JUMPDEST PUSH1 0x0 JUMPDEST DUP4 DUP2 LT ISZERO PUSH2 0x1A01 JUMPI DUP1 DUP3 ADD MLOAD DUP2 DUP5 ADD MSTORE PUSH1 0x20 DUP2 ADD SWAP1 POP PUSH2 0x19E6 JUMP JUMPDEST PUSH1 0x0 DUP5 DUP5 ADD MSTORE POP POP POP POP JUMP JUMPDEST PUSH1 0x0 PUSH1 0x1F NOT PUSH1 0x1F DUP4 ADD AND SWAP1 POP SWAP2 SWAP1 POP JUMP JUMPDEST PUSH1 0x0 PUSH2 0x1A29 DUP3 PUSH2 0x19C7 JUMP JUMPDEST PUSH2 0x1A33 DUP2 DUP6 PUSH2 0x19D2 JUMP JUMPDEST SWAP4 POP PUSH2 0x1A43 DUP2 DUP6 PUSH1 0x20 DUP7 ADD PUSH2 0x19E3 JUMP JUMPDEST PUSH2 0x1A4C DUP2 PUSH2 0x1A0D JUMP JUMPDEST DUP5 ADD SWAP2 POP POP SWAP3 SWAP2 POP POP JUMP JUMPDEST PUSH1 0x0 PUSH1 0x20 DUP3 ADD SWAP1 POP DUP2 DUP2 SUB PUSH1 0x0 DUP4 ADD MSTORE PUSH2 0x1A71 DUP2 DUP5 PUSH2 0x1A1E JUMP JUMPDEST SWAP1 POP SWAP3 SWAP2 POP POP JUMP JUMPDEST PUSH1 0x0 DUP1 REVERT JUMPDEST PUSH1 0x0 PUSH20 0xFFFFFFFFFFFFFFFFFFFFFFFFFFFFFFFFFFFFFFFF DUP3 AND SWAP1 POP SWAP2 SWAP1 POP JUMP JUMPDEST PUSH1 0x0 PUSH2 0x1AA9 DUP3 PUSH2 0x1A7E JUMP JUMPDEST SWAP1 POP SWAP2 SWAP1 POP JUMP JUMPDEST PUSH2 0x1AB9 DUP2 PUSH2 0x1A9E JUMP JUMPDEST DUP2 EQ PUSH2 0x1AC4 JUMPI PUSH1 0x0 DUP1 REVERT JUMPDEST POP JUMP JUMPDEST PUSH1 0x0 DUP2 CALLDATALOAD SWAP1 POP PUSH2 0x1AD6 DUP2 PUSH2 0x1AB0 JUMP JUMPDEST SWAP3 SWAP2 POP POP JUMP JUMPDEST PUSH1 0x0 DUP2 SWAP1 POP SWAP2 SWAP1 POP JUMP JUMPDEST PUSH2 0x1AEF DUP2 PUSH2 0x1ADC JUMP JUMPDEST DUP2 EQ PUSH2 0x1AFA JUMPI PUSH1 0x0 DUP1 REVERT JUMPDEST POP JUMP JUMPDEST PUSH1 0x0 DUP2 CALLDATALOAD SWAP1 POP PUSH2 0x1B0C DUP2 PUSH2 0x1AE6 JUMP JUMPDEST SWAP3 SWAP2 POP POP JUMP JUMPDEST PUSH1 0x0 DUP1 PUSH1 0x40 DUP4 DUP6 SUB SLT ISZERO PUSH2 0x1B29 JUMPI PUSH2 0x1B28 PUSH2 0x1A79 JUMP JUMPDEST JUMPDEST PUSH1 0x0 PUSH2 0x1B37 DUP6 DUP3 DUP7 ADD PUSH2 0x1AC7 JUMP JUMPDEST SWAP3 POP POP PUSH1 0x20 PUSH2 0x1B48 DUP6 DUP3 DUP7 ADD PUSH2 0x1AFD JUMP JUMPDEST SWAP2 POP POP SWAP3 POP SWAP3 SWAP1 POP JUMP JUMPDEST PUSH1 0x0 DUP2 ISZERO ISZERO SWAP1 POP SWAP2 SWAP1 POP JUMP JUMPDEST PUSH2 0x1B67 DUP2 PUSH2 0x1B52 JUMP JUMPDEST DUP3 MSTORE POP POP JUMP JUMPDEST PUSH1 0x0 PUSH1 0x20 DUP3 ADD SWAP1 POP PUSH2 0x1B82 PUSH1 0x0 DUP4 ADD DUP5 PUSH2 0x1B5E JUMP JUMPDEST SWAP3 SWAP2 POP POP JUMP JUMPDEST PUSH2 0x1B91 DUP2 PUSH2 0x1ADC JUMP JUMPDEST DUP3 MSTORE POP POP JUMP JUMPDEST PUSH1 0x0 PUSH1 0x20 DUP3 ADD SWAP1 POP PUSH2 0x1BAC PUSH1 0x0 DUP4 ADD DUP5 PUSH2 0x1B88 JUMP JUMPDEST SWAP3 SWAP2 POP POP JUMP JUMPDEST PUSH1 0x0 DUP1 PUSH1 0x0 PUSH1 0x60 DUP5 DUP7 SUB SLT ISZERO PUSH2 0x1BCB JUMPI PUSH2 0x1BCA PUSH2 0x1A79 JUMP JUMPDEST JUMPDEST PUSH1 0x0 PUSH2 0x1BD9 DUP7 DUP3 DUP8 ADD PUSH2 0x1AC7 JUMP JUMPDEST SWAP4 POP POP PUSH1 0x20 PUSH2 0x1BEA DUP7 DUP3 DUP8 ADD PUSH2 0x1AC7 JUMP JUMPDEST SWAP3 POP POP PUSH1 0x40 PUSH2 0x1BFB DUP7 DUP3 DUP8 ADD PUSH2 0x1AFD JUMP JUMPDEST SWAP2 POP POP SWAP3 POP SWAP3 POP SWAP3 JUMP JUMPDEST PUSH1 0x0 PUSH1 0xFF DUP3 AND SWAP1 POP SWAP2 SWAP1 POP JUMP JUMPDEST PUSH2 0x1C1B DUP2 PUSH2 0x1C05 JUMP JUMPDEST DUP3 MSTORE POP POP JUMP JUMPDEST PUSH1 0x0 PUSH1 0x20 DUP3 ADD SWAP1 POP PUSH2 0x1C36 PUSH1 0x0 DUP4 ADD DUP5 PUSH2 0x1C12 JUMP JUMPDEST SWAP3 SWAP2 POP POP JUMP JUMPDEST PUSH1 0x0 PUSH1 0x20 DUP3 DUP5 SUB SLT ISZERO PUSH2 0x1C52 JUMPI PUSH2 0x1C51 PUSH2 0x1A79 JUMP JUMPDEST JUMPDEST PUSH1 0x0 PUSH2 0x1C60 DUP5 DUP3 DUP6 ADD PUSH2 0x1AC7 JUMP JUMPDEST SWAP2 POP POP SWAP3 SWAP2 POP POP JUMP JUMPDEST PUSH1 0x0 PUSH1 0x20 DUP3 DUP5 SUB SLT ISZERO PUSH2 0x1C7F JUMPI PUSH2 0x1C7E PUSH2 0x1A79 JUMP JUMPDEST JUMPDEST PUSH1 0x0 PUSH2 0x1C8D DUP5 DUP3 DUP6 ADD PUSH2 0x1AFD JUMP JUMPDEST SWAP2 POP POP SWAP3 SWAP2 POP POP JUMP JUMPDEST PUSH2 0x1C9F DUP2 PUSH2 0x1A9E JUMP JUMPDEST DUP3 MSTORE POP POP JUMP JUMPDEST PUSH1 0x0 PUSH1 0x20 DUP3 ADD SWAP1 POP PUSH2 0x1CBA PUSH1 0x0 DUP4 ADD DUP5 PUSH2 0x1C96 JUMP JUMPDEST SWAP3 SWAP2 POP POP JUMP JUMPDEST PUSH1 0x0 DUP1 PUSH1 0x40 DUP4 DUP6 SUB SLT ISZERO PUSH2 0x1CD7 JUMPI PUSH2 0x1CD6 PUSH2 0x1A79 JUMP JUMPDEST JUMPDEST PUSH1 0x0 PUSH2 0x1CE5 DUP6 DUP3 DUP7 ADD PUSH2 0x1AC7 JUMP JUMPDEST SWAP3 POP POP PUSH1 0x20 PUSH2 0x1CF6 DUP6 DUP3 DUP7 ADD PUSH2 0x1AC7 JUMP JUMPDEST SWAP2 POP POP SWAP3 POP SWAP3 SWAP1 POP JUMP JUMPDEST PUSH32 0x4E487B7100000000000000000000000000000000000000000000000000000000 PUSH1 0x0 MSTORE PUSH1 0x22 PUSH1 0x4 MSTORE PUSH1 0x24 PUSH1 0x0 REVERT JUMPDEST PUSH1 0x0 PUSH1 0x2 DUP3 DIV SWAP1 POP PUSH1 0x1 DUP3 AND DUP1 PUSH2 0x1D47 JUMPI PUSH1 0x7F DUP3 AND SWAP2 POP JUMPDEST PUSH1 0x20 DUP3 LT DUP2 SUB PUSH2 0x1D5A JUMPI PUSH2 0x1D59 PUSH2 0x1D00 JUMP JUMPDEST JUMPDEST POP SWAP2 SWAP1 POP JUMP JUMPDEST PUSH32 0x4F6E6C7920676F642063616E206D696E7420746F6B656E730000000000000000 PUSH1 0x0 DUP3 ADD MSTORE POP JUMP JUMPDEST PUSH1 0x0 PUSH2 0x1D96 PUSH1 0x18 DUP4 PUSH2 0x19D2 JUMP JUMPDEST SWAP2 POP PUSH2 0x1DA1 DUP3 PUSH2 0x1D60 JUMP JUMPDEST PUSH1 0x20 DUP3 ADD SWAP1 POP SWAP2 SWAP1 POP JUMP JUMPDEST PUSH1 0x0 PUSH1 0x20 DUP3 ADD SWAP1 POP DUP2 DUP2 SUB PUSH1 0x0 DUP4 ADD MSTORE PUSH2 0x1DC5 DUP2 PUSH2 0x1D89 JUMP JUMPDEST SWAP1 POP SWAP2 SWAP1 POP JUMP JUMPDEST PUSH32 0x4E487B7100000000000000000000000000000000000000000000000000000000 PUSH1 0x0 MSTORE PUSH1 0x11 PUSH1 0x4 MSTORE PUSH1 0x24 PUSH1 0x0 REVERT JUMPDEST PUSH1 0x0 PUSH2 0x1E06 DUP3 PUSH2 0x1ADC JUMP JUMPDEST SWAP2 POP PUSH2 0x1E11 DUP4 PUSH2 0x1ADC JUMP JUMPDEST SWAP3 POP DUP3 DUP3 MUL PUSH2 0x1E1F DUP2 PUSH2 0x1ADC JUMP JUMPDEST SWAP2 POP DUP3 DUP3 DIV DUP5 EQ DUP4 ISZERO OR PUSH2 0x1E36 JUMPI PUSH2 0x1E35 PUSH2 0x1DCC JUMP JUMPDEST JUMPDEST POP SWAP3 SWAP2 POP POP JUMP JUMPDEST PUSH32 0x4E487B7100000000000000000000000000000000000000000000000000000000 PUSH1 0x0 MSTORE PUSH1 0x12 PUSH1 0x4 MSTORE PUSH1 0x24 PUSH1 0x0 REVERT JUMPDEST PUSH1 0x0 PUSH2 0x1E77 DUP3 PUSH2 0x1ADC JUMP JUMPDEST SWAP2 POP PUSH2 0x1E82 DUP4 PUSH2 0x1ADC JUMP JUMPDEST SWAP3 POP DUP3 PUSH2 0x1E92 JUMPI PUSH2 0x1E91 PUSH2 0x1E3D JUMP JUMPDEST JUMPDEST DUP3 DUP3 DIV SWAP1 POP SWAP3 SWAP2 POP POP JUMP JUMPDEST PUSH32 0x455448206973206E6F7420656E6F756768000000000000000000000000000000 PUSH1 0x0 DUP3 ADD MSTORE POP JUMP JUMPDEST PUSH1 0x0 PUSH2 0x1ED3 PUSH1 0x11 DUP4 PUSH2 0x19D2 JUMP JUMPDEST SWAP2 POP PUSH2 0x1EDE DUP3 PUSH2 0x1E9D JUMP JUMPDEST PUSH1 0x20 DUP3 ADD SWAP1 POP SWAP2 SWAP1 POP JUMP JUMPDEST PUSH1 0x0 PUSH1 0x20 DUP3 ADD SWAP1 POP DUP2 DUP2 SUB PUSH1 0x0 DUP4 ADD MSTORE PUSH2 0x1F02 DUP2 PUSH2 0x1EC6 JUMP JUMPDEST SWAP1 POP SWAP2 SWAP1 POP JUMP JUMPDEST PUSH32 0x45524332303A207472616E7366657220616D6F756E7420657863656564732062 PUSH1 0x0 DUP3 ADD MSTORE PUSH32 0x616C616E63650000000000000000000000000000000000000000000000000000 PUSH1 0x20 DUP3 ADD MSTORE POP JUMP JUMPDEST PUSH1 0x0 PUSH2 0x1F65 PUSH1 0x26 DUP4 PUSH2 0x19D2 JUMP JUMPDEST SWAP2 POP PUSH2 0x1F70 DUP3 PUSH2 0x1F09 JUMP JUMPDEST PUSH1 0x40 DUP3 ADD SWAP1 POP SWAP2 SWAP1 POP JUMP JUMPDEST PUSH1 0x0 PUSH1 0x20 DUP3 ADD SWAP1 POP DUP2 DUP2 SUB PUSH1 0x0 DUP4 ADD MSTORE PUSH2 0x1F94 DUP2 PUSH2 0x1F58 JUMP JUMPDEST SWAP1 POP SWAP2 SWAP1 POP JUMP JUMPDEST PUSH1 0x0 PUSH1 0x60 DUP3 ADD SWAP1 POP PUSH2 0x1FB0 PUSH1 0x0 DUP4 ADD DUP7 PUSH2 0x1C96 JUMP JUMPDEST PUSH2 0x1FBD PUSH1 0x20 DUP4 ADD DUP6 PUSH2 0x1B88 JUMP JUMPDEST PUSH2 0x1FCA PUSH1 0x40 DUP4 ADD DUP5 PUSH2 0x1B88 JUMP JUMPDEST SWAP5 SWAP4 POP POP POP POP JUMP JUMPDEST PUSH1 0x0 PUSH2 0x1FDD DUP3 PUSH2 0x1ADC JUMP JUMPDEST SWAP2 POP PUSH2 0x1FE8 DUP4 PUSH2 0x1ADC JUMP JUMPDEST SWAP3 POP DUP3 DUP3 ADD SWAP1 POP DUP1 DUP3 GT ISZERO PUSH2 0x2000 JUMPI PUSH2 0x1FFF PUSH2 0x1DCC JUMP JUMPDEST JUMPDEST SWAP3 SWAP2 POP POP JUMP INVALID LOG2 PUSH5 0x6970667358 0x22 SLT KECCAK256 SWAP13 0xC2 0xC8 0xC1 0xAD 0xF7 SWAP4 0xC3 TSTORE 0xD 0xD3 MUL 0xB6 DUP11 CALLDATALOAD 0xE6 PUSH1 0x84 BYTE MSTORE8 0x2E 0xD0 SUB 0x4E 0xD5 EXTCODECOPY SMOD SDIV 0xDB 0xD3 ORIGIN PUSH12 0x64736F6C634300081C003300 "},"methodIdentifiers":{"ETH_PER_THOUSAND_TOKENS()":"9ba1e2f8","TOKENS_PER_ETH()":"bc6e6604","allowance(address,address)":"dd62ed3e","approve(address,uint256)":"095ea7b3","balanceOf(address)":"70a08231","decimals()":"313ce567","god()":"ba56f6ee","mint(address,uint256)":"40c10f19","name()":"06fdde03","sellBack(uint256)":"ad5d4bc5","symbol()":"95d89b41","totalSupply()":"18160ddd","transfer(address,uint256)":"a9059cbb","transferFrom(address,address,uint256)":"23b872dd"}}}}}