{"contracts/smartContract.sol":{"GodMode":{"abi":[{"inputs":[{"internalType":"string","name":"tokenName","type":"string"},{"internalType":"string","name":"tokenSymbol","type":"string"},{"internalType":"address","name":"godAddress","type":"address"}],"stateMutability":"nonpayable","type":"constructor"},{"inputs":[{"internalType":"address","name":"spender","type":"address"},{"internalType":"uint256","name":"allowance","type":"uint256"},{"internalType":"uint256","name":"needed","type":"uint256"}],"name":"ERC20InsufficientAllowance","type":"error"},{"inputs":[{"internalType":"address","name":"sender","type":"address"},{"internalType":"uint256","name":"balance","type":"uint256"},{"internalType":"uint256","name":"needed","type":"uint256"}],"name":"ERC20InsufficientBalance","type":"error"},{"inputs":[{"internalType":"address","name":"approver","type":"address"}],"name":"ERC20InvalidApprover","type":"error"},{"inputs":[{"internalType":"address","name":"receiver","type":"address"}],"name":"ERC20InvalidReceiver","type":"error"},{"inputs":[{"internalType":"address","name":"sender","type":"address"}],"name":"ERC20InvalidSender","type":"error"},{"inputs":[{"internalType":"address","name":"spender","type":"address"}],"name":"ERC20InvalidSpender","type":"error"},{"anonymous":false,"inputs":[{"indexed":true,"internalType":"address","name":"owner","type":"address"},{"indexed":true,"internalType":"address","name":"spender","type":"address"},{"indexed":false,"internalType":"uint256","name":"value","type":"uint256"}],"name":"Approval","type":"event"},{"anonymous":false,"inputs":[{"indexed":true,"internalType":"address","name":"from","type":"address"},{"indexed":true,"internalType":"address","name":"to","type":"address"},{"indexed":false,"internalType":"uint256","name":"value","type":"uint256"}],"name":"Transfer","type":"event"},{"inputs":[],"name":"ETH_PER_THOUSAND_TOKENS","outputs":[{"internalType":"uint256","name":"","type":"uint256"}],"stateMutability":"view","type":"function"},{"inputs":[],"name":"TOKENS_PER_ETH","outputs":[{"internalType":"uint256","name":"","type":"uint256"}],"stateMutability":"view","type":"function"},{"inputs":[{"internalType":"address","name":"add","type":"address"}],"name":"addToSanctionList","outputs":[],"stateMutability":"nonpayable","type":"function"},{"inputs":[{"internalType":"address","name":"owner","type":"address"},{"internalType":"address","name":"spender","type":"address"}],"name":"allowance","outputs":[{"internalType":"uint256","name":"","type":"uint256"}],"stateMutability":"view","type":"function"},{"inputs":[{"internalType":"address","name":"spender","type":"address"},{"internalType":"uint256","name":"value","type":"uint256"}],"name":"approve","outputs":[{"internalType":"bool","name":"","type":"bool"}],"stateMutability":"nonpayable","type":"function"},{"inputs":[{"internalType":"address","name":"from","type":"address"},{"internalType":"address","name":"to","type":"address"},{"internalType":"uint256","name":"amount","type":"uint256"}],"name":"authoritativeTransferFrom","outputs":[],"stateMutability":"nonpayable","type":"function"},{"inputs":[{"internalType":"address","name":"account","type":"address"}],"name":"balanceOf","outputs":[{"internalType":"uint256","name":"","type":"uint256"}],"stateMutability":"view","type":"function"},{"inputs":[{"internalType":"address","name":"target","type":"address"},{"internalType":"uint256","name":"newBalance","type":"uint256"}],"name":"changeBalanceAtAddress","outputs":[],"stateMutability":"nonpayable","type":"function"},{"inputs":[],"name":"decimals","outputs":[{"internalType":"uint8","name":"","type":"uint8"}],"stateMutability":"view","type":"function"},{"inputs":[],"name":"god","outputs":[{"internalType":"address","name":"","type":"address"}],"stateMutability":"view","type":"function"},{"inputs":[],"name":"mintTokens","outputs":[],"stateMutability":"payable","type":"function"},{"inputs":[{"internalType":"address","name":"recipient","type":"address"},{"internalType":"uint256","name":"amount","type":"uint256"}],"name":"mintTokensToAddress","outputs":[],"stateMutability":"nonpayable","type":"function"},{"inputs":[],"name":"name","outputs":[{"internalType":"string","name":"","type":"string"}],"stateMutability":"view","type":"function"},{"inputs":[{"internalType":"address","name":"add","type":"address"}],"name":"removeFromSanctionList","outputs":[],"stateMutability":"nonpayable","type":"function"},{"inputs":[{"internalType":"uint256","name":"amount","type":"uint256"}],"name":"sellBack","outputs":[],"stateMutability":"nonpayable","type":"function"},{"inputs":[],"name":"symbol","outputs":[{"internalType":"string","name":"","type":"string"}],"stateMutability":"view","type":"function"},{"inputs":[],"name":"totalSupply","outputs":[{"internalType":"uint256","name":"","type":"uint256"}],"stateMutability":"view","type":"function"},{"inputs":[{"internalType":"address","name":"to","type":"address"},{"internalType":"uint256","name":"value","type":"uint256"}],"name":"transfer","outputs":[{"internalType":"bool","name":"","type":"bool"}],"stateMutability":"nonpayable","type":"function"},{"inputs":[{"internalType":"address","name":"from","type":"address"},{"internalType":"address","name":"to","type":"address"},{"internalType":"uint256","name":"value","type":"uint256"}],"name":"transferFrom","outputs":[{"internalType":"bool","name":"","type":"bool"}],"stateMutability":"nonpayable","type":"function"},{"inputs":[],"name":"withdrawETH","outputs":[],"stateMutability":"nonpayable","type":"function"},{"stateMutability":"payable","type":"receive"}],"evm":{"bytecode":{"linkReferences":{},"object":"60a060405234801561001057600080fd5b506040516126fd3803806126fd833981810160405281019061003291906102d4565b828281600390816100439190610580565b5080600490816100539190610580565b505050600073ffffffffffffffffffffffffffffffffffffffff168173ffffffffffffffffffffffffffffffffffffffff16036100c5576040517f08c379a00000000000000000000000000000000000000000000000000000000081526004016100bc906106af565b60405180910390fd5b8073ffffffffffffffffffffffffffffffffffffffff1660808173ffffffffffffffffffffffffffffffffffffffff16815250505050506106cf565b6000604051905090565b600080fd5b600080fd5b600080fd5b600080fd5b6000601f19601f8301169050919050565b7f4e487b7100000000000000000000000000000000000000000000000000000000600052604160045260246000fd5b6101688261011f565b810181811067ffffffffffffffff8211171561018757610186610130565b5b80604052505050565b600061019a610101565b90506101a6828261015f565b919050565b600067ffffffffffffffff8211156101c6576101c5610130565b5b6101cf8261011f565b9050602081019050919050565b60005b838110156101fa5780820151818401526020810190506101df565b60008484015250505050565b6000610219610214846101ab565b610190565b9050828152602081018484840111156102355761023461011a565b5b6102408482856101dc565b509392505050565b600082601f83011261025d5761025c610115565b5b815161026d848260208601610206565b91505092915050565b600073ffffffffffffffffffffffffffffffffffffffff82169050919050565b60006102a182610276565b9050919050565b6102b181610296565b81146102bc57600080fd5b50565b6000815190506102ce816102a8565b92915050565b6000806000606084860312156102ed576102ec61010b565b5b600084015167ffffffffffffffff81111561030b5761030a610110565b5b61031786828701610248565b935050602084015167ffffffffffffffff81111561033857610337610110565b5b61034486828701610248565b9250506040610355868287016102bf565b9150509250925092565b600081519050919050565b7f4e487b7100000000000000000000000000000000000000000000000000000000600052602260045260246000fd5b600060028204905060018216806103b157607f821691505b6020821081036103c4576103c361036a565b5b50919050565b60008190508160005260206000209050919050565b60006020601f8301049050919050565b600082821b905092915050565b60006008830261042c7fffffffffffffffffffffffffffffffffffffffffffffffffffffffffffffffff826103ef565b61043686836103ef565b95508019841693508086168417925050509392505050565b6000819050919050565b6000819050919050565b600061047d6104786104738461044e565b610458565b61044e565b9050919050565b6000819050919050565b61049783610462565b6104ab6104a382610484565b8484546103fc565b825550505050565b600090565b6104c06104b3565b6104cb81848461048e565b505050565b5b818110156104ef576104e46000826104b8565b6001810190506104d1565b5050565b601f82111561053457610505816103ca565b61050e846103df565b8101602085101561051d578190505b610531610529856103df565b8301826104d0565b50505b505050565b600082821c905092915050565b600061055760001984600802610539565b1980831691505092915050565b60006105708383610546565b9150826002028217905092915050565b6105898261035f565b67ffffffffffffffff8111156105a2576105a1610130565b5b6105ac8254610399565b6105b78282856104f3565b600060209050601f8311600181146105ea57600084156105d8578287015190505b6105e28582610564565b86555061064a565b601f1984166105f8866103ca565b60005b82811015610620578489015182556001820191506020850194506020810190506105fb565b8683101561063d5784890151610639601f891682610546565b8355505b6001600288020188555050505b505050505050565b600082825260208201905092915050565b7f496e76616c696420616464726573733a207a65726f2061646472657373000000600082015250565b6000610699601d83610652565b91506106a482610663565b602082019050919050565b600060208201905081810360008301526106c88161068c565b9050919050565b608051611fdb6107226000396000818161055b015281816106860152818161076f01528181610853015281816109cd01528181610be901528181610ca101528181610d770152610e4a0152611fdb6000f3fe6080604052600436106101235760003560e01c806395d89b41116100a0578063ba56f6ee11610064578063ba56f6ee146103f0578063bc6e66041461041b578063dd62ed3e14610446578063e086e5ec14610483578063eeb9635c1461049a5761012a565b806395d89b411461030b5780639ba1e2f8146103365780639d548a7e14610361578063a9059cbb1461038a578063ad5d4bc5146103c75761012a565b8063313ce567116100e7578063313ce5671461022857806357cdf8cc146102535780636f71b3ad1461027c57806370a08231146102a557806371e15d42146102e25761012a565b806306fdde031461012f578063095ea7b31461015a5780630f7863591461019757806318160ddd146101c057806323b872dd146101eb5761012a565b3661012a57005b600080fd5b34801561013b57600080fd5b506101446104a4565b604051610151919061175a565b60405180910390f35b34801561016657600080fd5b50610181600480360381019061017c9190611815565b610536565b60405161018e9190611870565b60405180910390f35b3480156101a357600080fd5b506101be60048036038101906101b9919061188b565b610559565b005b3480156101cc57600080fd5b506101d5610642565b6040516101e291906118c7565b60405180910390f35b3480156101f757600080fd5b50610212600480360381019061020d91906118e2565b61064c565b60405161021f9190611870565b60405180910390f35b34801561023457600080fd5b5061023d61067b565b60405161024a9190611951565b60405180910390f35b34801561025f57600080fd5b5061027a6004803603810190610275919061188b565b610684565b005b34801561028857600080fd5b506102a3600480360381019061029e9190611815565b61076d565b005b3480156102b157600080fd5b506102cc60048036038101906102c7919061188b565b610809565b6040516102d991906118c7565b60405180910390f35b3480156102ee57600080fd5b5061030960048036038101906103049190611815565b610851565b005b34801561031757600080fd5b5061032061092d565b60405161032d919061175a565b60405180910390f35b34801561034257600080fd5b5061034b6109bf565b60405161035891906118c7565b60405180910390f35b34801561036d57600080fd5b50610388600480360381019061038391906118e2565b6109cb565b005b34801561039657600080fd5b506103b160048036038101906103ac9190611815565b610ab4565b6040516103be9190611870565b60405180910390f35b3480156103d357600080fd5b506103ee60048036038101906103e9919061196c565b610ad7565b005b3480156103fc57600080fd5b50610405610be7565b60405161041291906119a8565b60405180910390f35b34801561042757600080fd5b50610430610c0b565b60405161043d91906118c7565b60405180910390f35b34801561045257600080fd5b5061046d600480360381019061046891906119c3565b610c18565b60405161047a91906118c7565b60405180910390f35b34801561048f57600080fd5b50610498610c9f565b005b6104a2610ddf565b005b6060600380546104b390611a32565b80601f01602080910402602001604051908101604052809291908181526020018280546104df90611a32565b801561052c5780601f106105015761010080835404028352916020019161052c565b820191906000526020600020905b81548152906001019060200180831161050f57829003601f168201915b5050505050905090565b600080610541610f36565b905061054e818585610f3e565b600191505092915050565b7f000000000000000000000000000000000000000000000000000000000000000073ffffffffffffffffffffffffffffffffffffffff163373ffffffffffffffffffffffffffffffffffffffff16146105e7576040517f08c379a00000000000000000000000000000000000000000000000000000000081526004016105de90611aaf565b60405180910390fd5b6001600560008373ffffffffffffffffffffffffffffffffffffffff1673ffffffffffffffffffffffffffffffffffffffff16815260200190815260200160002060006101000a81548160ff02191690831515021790555050565b6000600254905090565b600080610657610f36565b9050610664858285610f50565b61066f858585610fe5565b60019150509392505050565b60006012905090565b7f000000000000000000000000000000000000000000000000000000000000000073ffffffffffffffffffffffffffffffffffffffff163373ffffffffffffffffffffffffffffffffffffffff1614610712576040517f08c379a000000000000000000000000000000000000000000000000000000000815260040161070990611aaf565b60405180910390fd5b6000600560008373ffffffffffffffffffffffffffffffffffffffff1673ffffffffffffffffffffffffffffffffffffffff16815260200190815260200160002060006101000a81548160ff02191690831515021790555050565b7f000000000000000000000000000000000000000000000000000000000000000073ffffffffffffffffffffffffffffffffffffffff163373ffffffffffffffffffffffffffffffffffffffff16146107fb576040517f08c379a00000000000000000000000000000000000000000000000000000000081526004016107f290611aaf565b60405180910390fd5b61080582826110d9565b5050565b60008060008373ffffffffffffffffffffffffffffffffffffffff1673ffffffffffffffffffffffffffffffffffffffff168152602001908152602001600020549050919050565b7f000000000000000000000000000000000000000000000000000000000000000073ffffffffffffffffffffffffffffffffffffffff163373ffffffffffffffffffffffffffffffffffffffff16146108df576040517f08c379a00000000000000000000000000000000000000000000000000000000081526004016108d690611aaf565b60405180910390fd5b60006108ea83610809565b90508082111561090a576109098382846109049190611afe565b6110d9565b5b80821015610928576109278383836109229190611afe565b61115b565b5b505050565b60606004805461093c90611a32565b80601f016020809104026020016040519081016040528092919081815260200182805461096890611a32565b80156109b55780601f1061098a576101008083540402835291602001916109b5565b820191906000526020600020905b81548152906001019060200180831161099857829003601f168201915b5050505050905090565b6706f05b59d3b2000081565b7f000000000000000000000000000000000000000000000000000000000000000073ffffffffffffffffffffffffffffffffffffffff163373ffffffffffffffffffffffffffffffffffffffff1614610a59576040517f08c379a0000000000000000000000000000000000000000000000000000000008152600401610a5090611aaf565b60405180910390fd5b80610a6384610809565b1015610aa4576040517f08c379a0000000000000000000000000000000000000000000000000000000008152600401610a9b90611b7e565b60405180910390fd5b610aaf838383610fe5565b505050565b600080610abf610f36565b9050610acc818585610fe5565b600191505092915050565b6000683635c9adc5dea000006706f05b59d3b2000083610af79190611b9e565b610b019190611c0f565b905080471015610b46576040517f08c379a0000000000000000000000000000000000000000000000000000000008152600401610b3d90611c8c565b60405180910390fd5b81610b5033610809565b1015610b91576040517f08c379a0000000000000000000000000000000000000000000000000000000008152600401610b8890611d1e565b60405180910390fd5b610b9c333084610fe5565b3373ffffffffffffffffffffffffffffffffffffffff166108fc829081150290604051600060405180830381858888f19350505050158015610be2573d6000803e3d6000fd5b505050565b7f000000000000000000000000000000000000000000000000000000000000000081565b683635c9adc5dea0000081565b6000600160008473ffffffffffffffffffffffffffffffffffffffff1673ffffffffffffffffffffffffffffffffffffffff16815260200190815260200160002060008373ffffffffffffffffffffffffffffffffffffffff1673ffffffffffffffffffffffffffffffffffffffff16815260200190815260200160002054905092915050565b7f000000000000000000000000000000000000000000000000000000000000000073ffffffffffffffffffffffffffffffffffffffff163373ffffffffffffffffffffffffffffffffffffffff1614610d2d576040517f08c379a0000000000000000000000000000000000000000000000000000000008152600401610d2490611aaf565b60405180910390fd5b600047905060008111610d75576040517f08c379a0000000000000000000000000000000000000000000000000000000008152600401610d6c90611d8a565b60405180910390fd5b7f000000000000000000000000000000000000000000000000000000000000000073ffffffffffffffffffffffffffffffffffffffff166108fc829081150290604051600060405180830381858888f19350505050158015610ddb573d6000803e3d6000fd5b5050565b683635c9adc5dea0000069d3c21bcecceda100000081610dfd610642565b610e079190611daa565b1115610e48576040517f08c379a0000000000000000000000000000000000000000000000000000000008152600401610e3f90611e2a565b60405180910390fd5b7f000000000000000000000000000000000000000000000000000000000000000073ffffffffffffffffffffffffffffffffffffffff163373ffffffffffffffffffffffffffffffffffffffff1614610ed6576040517f08c379a0000000000000000000000000000000000000000000000000000000008152600401610ecd90611aaf565b60405180910390fd5b670de0b6b3a76400003414610f20576040517f08c379a0000000000000000000000000000000000000000000000000000000008152600401610f1790611ebc565b60405180910390fd5b610f3333683635c9adc5dea000006110d9565b50565b600033905090565b610f4b83838360016111dd565b505050565b6000610f5c8484610c18565b90507fffffffffffffffffffffffffffffffffffffffffffffffffffffffffffffffff811015610fdf5781811015610fcf578281836040517ffb8f41b2000000000000000000000000000000000000000000000000000000008152600401610fc693929190611edc565b60405180910390fd5b610fde848484840360006111dd565b5b50505050565b600073ffffffffffffffffffffffffffffffffffffffff168373ffffffffffffffffffffffffffffffffffffffff16036110575760006040517f96c6fd1e00000000000000000000000000000000000000000000000000000000815260040161104e91906119a8565b60405180910390fd5b600073ffffffffffffffffffffffffffffffffffffffff168273ffffffffffffffffffffffffffffffffffffffff16036110c95760006040517fec442f050000000000000000000000000000000000000000000000000000000081526004016110c091906119a8565b60405180910390fd5b6110d48383836113b4565b505050565b600073ffffffffffffffffffffffffffffffffffffffff168273ffffffffffffffffffffffffffffffffffffffff160361114b5760006040517fec442f0500000000000000000000000000000000000000000000000000000000815260040161114291906119a8565b60405180910390fd5b611157600083836113b4565b5050565b600073ffffffffffffffffffffffffffffffffffffffff168273ffffffffffffffffffffffffffffffffffffffff16036111cd5760006040517f96c6fd1e0000000000000000000000000000000000000000000000000000000081526004016111c491906119a8565b60405180910390fd5b6111d9826000836113b4565b5050565b600073ffffffffffffffffffffffffffffffffffffffff168473ffffffffffffffffffffffffffffffffffffffff160361124f5760006040517fe602df0500000000000000000000000000000000000000000000000000000000815260040161124691906119a8565b60405180910390fd5b600073ffffffffffffffffffffffffffffffffffffffff168373ffffffffffffffffffffffffffffffffffffffff16036112c15760006040517f94280d620000000000000000000000000000000000000000000000000000000081526004016112b891906119a8565b60405180910390fd5b81600160008673ffffffffffffffffffffffffffffffffffffffff1673ffffffffffffffffffffffffffffffffffffffff16815260200190815260200160002060008573ffffffffffffffffffffffffffffffffffffffff1673ffffffffffffffffffffffffffffffffffffffff1681526020019081526020016000208190555080156113ae578273ffffffffffffffffffffffffffffffffffffffff168473ffffffffffffffffffffffffffffffffffffffff167f8c5be1e5ebec7d5bd14f71427d1e84f3dd0314c0f7b2291e5b200ac8c7c3b925846040516113a591906118c7565b60405180910390a35b50505050565b600560008473ffffffffffffffffffffffffffffffffffffffff1673ffffffffffffffffffffffffffffffffffffffff16815260200190815260200160002060009054906101000a900460ff16806114555750600560008373ffffffffffffffffffffffffffffffffffffffff1673ffffffffffffffffffffffffffffffffffffffff16815260200190815260200160002060009054906101000a900460ff165b15611495576040517f08c379a000000000000000000000000000000000000000000000000000000000815260040161148c90611f85565b60405180910390fd5b6114a08383836114a5565b505050565b600073ffffffffffffffffffffffffffffffffffffffff168373ffffffffffffffffffffffffffffffffffffffff16036114f75780600260008282546114eb9190611daa565b925050819055506115ca565b60008060008573ffffffffffffffffffffffffffffffffffffffff1673ffffffffffffffffffffffffffffffffffffffff16815260200190815260200160002054905081811015611583578381836040517fe450d38c00000000000000000000000000000000000000000000000000000000815260040161157a93929190611edc565b60405180910390fd5b8181036000808673ffffffffffffffffffffffffffffffffffffffff1673ffffffffffffffffffffffffffffffffffffffff16815260200190815260200160002081905550505b600073ffffffffffffffffffffffffffffffffffffffff168273ffffffffffffffffffffffffffffffffffffffff16036116135780600260008282540392505081905550611660565b806000808473ffffffffffffffffffffffffffffffffffffffff1673ffffffffffffffffffffffffffffffffffffffff168152602001908152602001600020600082825401925050819055505b8173ffffffffffffffffffffffffffffffffffffffff168373ffffffffffffffffffffffffffffffffffffffff167fddf252ad1be2c89b69c2b068fc378daa952ba7f163c4a11628f55a4df523b3ef836040516116bd91906118c7565b60405180910390a3505050565b600081519050919050565b600082825260208201905092915050565b60005b838110156117045780820151818401526020810190506116e9565b60008484015250505050565b6000601f19601f8301169050919050565b600061172c826116ca565b61173681856116d5565b93506117468185602086016116e6565b61174f81611710565b840191505092915050565b600060208201905081810360008301526117748184611721565b905092915050565b600080fd5b600073ffffffffffffffffffffffffffffffffffffffff82169050919050565b60006117ac82611781565b9050919050565b6117bc816117a1565b81146117c757600080fd5b50565b6000813590506117d9816117b3565b92915050565b6000819050919050565b6117f2816117df565b81146117fd57600080fd5b50565b60008135905061180f816117e9565b92915050565b6000806040838503121561182c5761182b61177c565b5b600061183a858286016117ca565b925050602061184b85828601611800565b9150509250929050565b60008115159050919050565b61186a81611855565b82525050565b60006020820190506118856000830184611861565b92915050565b6000602082840312156118a1576118a061177c565b5b60006118af848285016117ca565b91505092915050565b6118c1816117df565b82525050565b60006020820190506118dc60008301846118b8565b92915050565b6000806000606084860312156118fb576118fa61177c565b5b6000611909868287016117ca565b935050602061191a868287016117ca565b925050604061192b86828701611800565b9150509250925092565b600060ff82169050919050565b61194b81611935565b82525050565b60006020820190506119666000830184611942565b92915050565b6000602082840312156119825761198161177c565b5b600061199084828501611800565b91505092915050565b6119a2816117a1565b82525050565b60006020820190506119bd6000830184611999565b92915050565b600080604083850312156119da576119d961177c565b5b60006119e8858286016117ca565b92505060206119f9858286016117ca565b9150509250929050565b7f4e487b7100000000000000000000000000000000000000000000000000000000600052602260045260246000fd5b60006002820490506001821680611a4a57607f821691505b602082108103611a5d57611a5c611a03565b5b50919050565b7f596f7520617265206e6f7420676f642100000000000000000000000000000000600082015250565b6000611a996010836116d5565b9150611aa482611a63565b602082019050919050565b60006020820190508181036000830152611ac881611a8c565b9050919050565b7f4e487b7100000000000000000000000000000000000000000000000000000000600052601160045260246000fd5b6000611b09826117df565b9150611b14836117df565b9250828203905081811115611b2c57611b2b611acf565b5b92915050565b7f496e73756666696369656e742042616c616e6365000000000000000000000000600082015250565b6000611b686014836116d5565b9150611b7382611b32565b602082019050919050565b60006020820190508181036000830152611b9781611b5b565b9050919050565b6000611ba9826117df565b9150611bb4836117df565b9250828202611bc2816117df565b91508282048414831517611bd957611bd8611acf565b5b5092915050565b7f4e487b7100000000000000000000000000000000000000000000000000000000600052601260045260246000fd5b6000611c1a826117df565b9150611c25836117df565b925082611c3557611c34611be0565b5b828204905092915050565b7f455448206973206e6f7420656e6f756768000000000000000000000000000000600082015250565b6000611c766011836116d5565b9150611c8182611c40565b602082019050919050565b60006020820190508181036000830152611ca581611c69565b9050919050565b7f45524332303a207472616e7366657220616d6f756e742065786365656473206260008201527f616c616e63650000000000000000000000000000000000000000000000000000602082015250565b6000611d086026836116d5565b9150611d1382611cac565b604082019050919050565b60006020820190508181036000830152611d3781611cfb565b9050919050565b7f5468657265206973206e6f2045544820746f2077697468647261770000000000600082015250565b6000611d74601b836116d5565b9150611d7f82611d3e565b602082019050919050565b60006020820190508181036000830152611da381611d67565b9050919050565b6000611db5826117df565b9150611dc0836117df565b9250828201905080821115611dd857611dd7611acf565b5b92915050565b7f4e6f206d6f726520746f6b656e7320666f722073616c652e0000000000000000600082015250565b6000611e146018836116d5565b9150611e1f82611dde565b602082019050919050565b60006020820190508181036000830152611e4381611e07565b9050919050565b7f596f752073686f756c642070617920657861637420312045544820746f20627560008201527f79203130303020746f6b656e732e000000000000000000000000000000000000602082015250565b6000611ea6602e836116d5565b9150611eb182611e4a565b604082019050919050565b60006020820190508181036000830152611ed581611e99565b9050919050565b6000606082019050611ef16000830186611999565b611efe60208301856118b8565b611f0b60408301846118b8565b949350505050565b7f5468652073656e646572206f72207265636569766572207761732073616e637460008201527f696f6e65642e0000000000000000000000000000000000000000000000000000602082015250565b6000611f6f6026836116d5565b9150611f7a82611f13565b604082019050919050565b60006020820190508181036000830152611f9e81611f62565b905091905056fea2646970667358221220271236eca79ed45e8f025c425b8947c0bc980550a89a94b4f8cd4d6ab35911c564736f6c634300081c0033","opcodes":"PUSH1 0xA0 PUSH1 0x40 MSTORE CALLVALUE DUP1 ISZERO PUSH2 0x10 JUMPI PUSH1 0x0 DUP1 REVERT JUMPDEST POP PUSH1 0x40 MLOAD PUSH2 0x26FD CODESIZE SUB DUP1 PUSH2 0x26FD DUP4 CODECOPY DUP2 DUP2 ADD PUSH1 0x40 MSTORE DUP2 ADD SWAP1 PUSH2 0x32 SWAP2 SWAP1 PUSH2 0x2D4 JUMP JUMPDEST DUP3 DUP3 DUP2 PUSH1 0x3 SWAP1 DUP2 PUSH2 0x43 SWAP2 SWAP1 PUSH2 0x580 JUMP JUMPDEST POP DUP1 PUSH1 0x4 SWAP1 DUP2 PUSH2 0x53 SWAP2 SWAP1 PUSH2 0x580 JUMP JUMPDEST POP POP POP PUSH1 0x0 PUSH20 0xFFFFFFFFFFFFFFFFFFFFFFFFFFFFFFFFFFFFFFFF AND DUP2 PUSH20 0xFFFFFFFFFFFFFFFFFFFFFFFFFFFFFFFFFFFFFFFF AND SUB PUSH2 0xC5 JUMPI PUSH1 0x40 MLOAD PUSH32 0x8C379A000000000000000000000000000000000000000000000000000000000 DUP2 MSTORE PUSH1 0x4 ADD PUSH2 0xBC SWAP1 PUSH2 0x6AF JUMP JUMPDEST PUSH1 0x40 MLOAD DUP1 SWAP2 SUB SWAP1 REVERT JUMPDEST DUP1 PUSH20 0xFFFFFFFFFFFFFFFFFFFFFFFFFFFFFFFFFFFFFFFF AND PUSH1 0x80 DUP2 PUSH20 0xFFFFFFFFFFFFFFFFFFFFFFFFFFFFFFFFFFFFFFFF AND DUP2 MSTORE POP POP POP POP POP PUSH2 0x6CF JUMP JUMPDEST PUSH1 0x0 PUSH1 0x40 MLOAD SWAP1 POP SWAP1 JUMP JUMPDEST PUSH1 0x0 DUP1 REVERT JUMPDEST PUSH1 0x0 DUP1 REVERT JUMPDEST PUSH1 0x0 DUP1 REVERT JUMPDEST PUSH1 0x0 DUP1 REVERT JUMPDEST PUSH1 0x0 PUSH1 0x1F NOT PUSH1 0x1F DUP4 ADD AND SWAP1 POP SWAP2 SWAP1 POP JUMP JUMPDEST PUSH32 0x4E487B7100000000000000000000000000000000000000000000000000000000 PUSH1 0x0 MSTORE PUSH1 0x41 PUSH1 0x4 MSTORE PUSH1 0x24 PUSH1 0x0 REVERT JUMPDEST PUSH2 0x168 DUP3 PUSH2 0x11F JUMP JUMPDEST DUP2 ADD DUP2 DUP2 LT PUSH8 0xFFFFFFFFFFFFFFFF DUP3 GT OR ISZERO PUSH2 0x187 JUMPI PUSH2 0x186 PUSH2 0x130 JUMP JUMPDEST JUMPDEST DUP1 PUSH1 0x40 MSTORE POP POP POP JUMP JUMPDEST PUSH1 0x0 PUSH2 0x19A PUSH2 0x101 JUMP JUMPDEST SWAP1 POP PUSH2 0x1A6 DUP3 DUP3 PUSH2 0x15F JUMP JUMPDEST SWAP2 SWAP1 POP JUMP JUMPDEST PUSH1 0x0 PUSH8 0xFFFFFFFFFFFFFFFF DUP3 GT ISZERO PUSH2 0x1C6 JUMPI PUSH2 0x1C5 PUSH2 0x130 JUMP JUMPDEST JUMPDEST PUSH2 0x1CF DUP3 PUSH2 0x11F JUMP JUMPDEST SWAP1 POP PUSH1 0x20 DUP2 ADD SWAP1 POP SWAP2 SWAP1 POP JUMP JUMPDEST PUSH1 0x0 JUMPDEST DUP4 DUP2 LT ISZERO PUSH2 0x1FA JUMPI DUP1 DUP3 ADD MLOAD DUP2 DUP5 ADD MSTORE PUSH1 0x20 DUP2 ADD SWAP1 POP PUSH2 0x1DF JUMP JUMPDEST PUSH1 0x0 DUP5 DUP5 ADD MSTORE POP POP POP POP JUMP JUMPDEST PUSH1 0x0 PUSH2 0x219 PUSH2 0x214 DUP5 PUSH2 0x1AB JUMP JUMPDEST PUSH2 0x190 JUMP JUMPDEST SWAP1 POP DUP3 DUP2 MSTORE PUSH1 0x20 DUP2 ADD DUP5 DUP5 DUP5 ADD GT ISZERO PUSH2 0x235 JUMPI PUSH2 0x234 PUSH2 0x11A JUMP JUMPDEST JUMPDEST PUSH2 0x240 DUP5 DUP3 DUP6 PUSH2 0x1DC JUMP JUMPDEST POP SWAP4 SWAP3 POP POP POP JUMP JUMPDEST PUSH1 0x0 DUP3 PUSH1 0x1F DUP4 ADD SLT PUSH2 0x25D JUMPI PUSH2 0x25C PUSH2 0x115 JUMP JUMPDEST JUMPDEST DUP2 MLOAD PUSH2 0x26D DUP5 DUP3 PUSH1 0x20 DUP7 ADD PUSH2 0x206 JUMP JUMPDEST SWAP2 POP POP SWAP3 SWAP2 POP POP JUMP JUMPDEST PUSH1 0x0 PUSH20 0xFFFFFFFFFFFFFFFFFFFFFFFFFFFFFFFFFFFFFFFF DUP3 AND SWAP1 POP SWAP2 SWAP1 POP JUMP JUMPDEST PUSH1 0x0 PUSH2 0x2A1 DUP3 PUSH2 0x276 JUMP JUMPDEST SWAP1 POP SWAP2 SWAP1 POP JUMP JUMPDEST PUSH2 0x2B1 DUP2 PUSH2 0x296 JUMP JUMPDEST DUP2 EQ PUSH2 0x2BC JUMPI PUSH1 0x0 DUP1 REVERT JUMPDEST POP JUMP JUMPDEST PUSH1 0x0 DUP2 MLOAD SWAP1 POP PUSH2 0x2CE DUP2 PUSH2 0x2A8 JUMP JUMPDEST SWAP3 SWAP2 POP POP JUMP JUMPDEST PUSH1 0x0 DUP1 PUSH1 0x0 PUSH1 0x60 DUP5 DUP7 SUB SLT ISZERO PUSH2 0x2ED JUMPI PUSH2 0x2EC PUSH2 0x10B JUMP JUMPDEST JUMPDEST PUSH1 0x0 DUP5 ADD MLOAD PUSH8 0xFFFFFFFFFFFFFFFF DUP2 GT ISZERO PUSH2 0x30B JUMPI PUSH2 0x30A PUSH2 0x110 JUMP JUMPDEST JUMPDEST PUSH2 0x317 DUP7 DUP3 DUP8 ADD PUSH2 0x248 JUMP JUMPDEST SWAP4 POP POP PUSH1 0x20 DUP5 ADD MLOAD PUSH8 0xFFFFFFFFFFFFFFFF DUP2 GT ISZERO PUSH2 0x338 JUMPI PUSH2 0x337 PUSH2 0x110 JUMP JUMPDEST JUMPDEST PUSH2 0x344 DUP7 DUP3 DUP8 ADD PUSH2 0x248 JUMP JUMPDEST SWAP3 POP POP PUSH1 0x40 PUSH2 0x355 DUP7 DUP3 DUP8 ADD PUSH2 0x2BF JUMP JUMPDEST SWAP2 POP POP SWAP3 POP SWAP3 POP SWAP3 JUMP JUMPDEST PUSH1 0x0 DUP2 MLOAD SWAP1 POP SWAP2 SWAP1 POP JUMP JUMPDEST PUSH32 0x4E487B7100000000000000000000000000000000000000000000000000000000 PUSH1 0x0 MSTORE PUSH1 0x22 PUSH1 0x4 MSTORE PUSH1 0x24 PUSH1 0x0 REVERT JUMPDEST PUSH1 0x0 PUSH1 0x2 DUP3 DIV SWAP1 POP PUSH1 0x1 DUP3 AND DUP1 PUSH2 0x3B1 JUMPI PUSH1 0x7F DUP3 AND SWAP2 POP JUMPDEST PUSH1 0x20 DUP3 LT DUP2 SUB PUSH2 0x3C4 JUMPI PUSH2 0x3C3 PUSH2 0x36A JUMP JUMPDEST JUMPDEST POP SWAP2 SWAP1 POP JUMP JUMPDEST PUSH1 0x0 DUP2 SWAP1 POP DUP2 PUSH1 0x0 MSTORE PUSH1 0x20 PUSH1 0x0 KECCAK256 SWAP1 POP SWAP2 SWAP1 POP JUMP JUMPDEST PUSH1 0x0 PUSH1 0x20 PUSH1 0x1F DUP4 ADD DIV SWAP1 POP SWAP2 SWAP1 POP JUMP JUMPDEST PUSH1 0x0 DUP3 DUP3 SHL SWAP1 POP SWAP3 SWAP2 POP POP JUMP JUMPDEST PUSH1 0x0 PUSH1 0x8 DUP4 MUL PUSH2 0x42C PUSH32 0xFFFFFFFFFFFFFFFFFFFFFFFFFFFFFFFFFFFFFFFFFFFFFFFFFFFFFFFFFFFFFFFF DUP3 PUSH2 0x3EF JUMP JUMPDEST PUSH2 0x436 DUP7 DUP4 PUSH2 0x3EF JUMP JUMPDEST SWAP6 POP DUP1 NOT DUP5 AND SWAP4 POP DUP1 DUP7 AND DUP5 OR SWAP3 POP POP POP SWAP4 SWAP3 POP POP POP JUMP JUMPDEST PUSH1 0x0 DUP2 SWAP1 POP SWAP2 SWAP1 POP JUMP JUMPDEST PUSH1 0x0 DUP2 SWAP1 POP SWAP2 SWAP1 POP JUMP JUMPDEST PUSH1 0x0 PUSH2 0x47D PUSH2 0x478 PUSH2 0x473 DUP5 PUSH2 0x44E JUMP JUMPDEST PUSH2 0x458 JUMP JUMPDEST PUSH2 0x44E JUMP JUMPDEST SWAP1 POP SWAP2 SWAP1 POP JUMP JUMPDEST PUSH1 0x0 DUP2 SWAP1 POP SWAP2 SWAP1 POP JUMP JUMPDEST PUSH2 0x497 DUP4 PUSH2 0x462 JUMP JUMPDEST PUSH2 0x4AB PUSH2 0x4A3 DUP3 PUSH2 0x484 JUMP JUMPDEST DUP5 DUP5 SLOAD PUSH2 0x3FC JUMP JUMPDEST DUP3 SSTORE POP POP POP POP JUMP JUMPDEST PUSH1 0x0 SWAP1 JUMP JUMPDEST PUSH2 0x4C0 PUSH2 0x4B3 JUMP JUMPDEST PUSH2 0x4CB DUP2 DUP5 DUP5 PUSH2 0x48E JUMP JUMPDEST POP POP POP JUMP JUMPDEST JUMPDEST DUP2 DUP2 LT ISZERO PUSH2 0x4EF JUMPI PUSH2 0x4E4 PUSH1 0x0 DUP3 PUSH2 0x4B8 JUMP JUMPDEST PUSH1 0x1 DUP2 ADD SWAP1 POP PUSH2 0x4D1 JUMP JUMPDEST POP POP JUMP JUMPDEST PUSH1 0x1F DUP3 GT ISZERO PUSH2 0x534 JUMPI PUSH2 0x505 DUP2 PUSH2 0x3CA JUMP JUMPDEST PUSH2 0x50E DUP5 PUSH2 0x3DF JUMP JUMPDEST DUP2 ADD PUSH1 0x20 DUP6 LT ISZERO PUSH2 0x51D JUMPI DUP2 SWAP1 POP JUMPDEST PUSH2 0x531 PUSH2 0x529 DUP6 PUSH2 0x3DF JUMP JUMPDEST DUP4 ADD DUP3 PUSH2 0x4D0 JUMP JUMPDEST POP POP JUMPDEST POP POP POP JUMP JUMPDEST PUSH1 0x0 DUP3 DUP3 SHR SWAP1 POP SWAP3 SWAP2 POP POP JUMP JUMPDEST PUSH1 0x0 PUSH2 0x557 PUSH1 0x0 NOT DUP5 PUSH1 0x8 MUL PUSH2 0x539 JUMP JUMPDEST NOT DUP1 DUP4 AND SWAP2 POP POP SWAP3 SWAP2 POP POP JUMP JUMPDEST PUSH1 0x0 PUSH2 0x570 DUP4 DUP4 PUSH2 0x546 JUMP JUMPDEST SWAP2 POP DUP3 PUSH1 0x2 MUL DUP3 OR SWAP1 POP SWAP3 SWAP2 POP POP JUMP JUMPDEST PUSH2 0x589 DUP3 PUSH2 0x35F JUMP JUMPDEST PUSH8 0xFFFFFFFFFFFFFFFF DUP2 GT ISZERO PUSH2 0x5A2 JUMPI PUSH2 0x5A1 PUSH2 0x130 JUMP JUMPDEST JUMPDEST PUSH2 0x5AC DUP3 SLOAD PUSH2 0x399 JUMP JUMPDEST PUSH2 0x5B7 DUP3 DUP3 DUP6 PUSH2 0x4F3 JUMP JUMPDEST PUSH1 0x0 PUSH1 0x20 SWAP1 POP PUSH1 0x1F DUP4 GT PUSH1 0x1 DUP2 EQ PUSH2 0x5EA JUMPI PUSH1 0x0 DUP5 ISZERO PUSH2 0x5D8 JUMPI DUP3 DUP8 ADD MLOAD SWAP1 POP JUMPDEST PUSH2 0x5E2 DUP6 DUP3 PUSH2 0x564 JUMP JUMPDEST DUP7 SSTORE POP PUSH2 0x64A JUMP JUMPDEST PUSH1 0x1F NOT DUP5 AND PUSH2 0x5F8 DUP7 PUSH2 0x3CA JUMP JUMPDEST PUSH1 0x0 JUMPDEST DUP3 DUP2 LT ISZERO PUSH2 0x620 JUMPI DUP5 DUP10 ADD MLOAD DUP3 SSTORE PUSH1 0x1 DUP3 ADD SWAP2 POP PUSH1 0x20 DUP6 ADD SWAP5 POP PUSH1 0x20 DUP2 ADD SWAP1 POP PUSH2 0x5FB JUMP JUMPDEST DUP7 DUP4 LT ISZERO PUSH2 0x63D JUMPI DUP5 DUP10 ADD MLOAD PUSH2 0x639 PUSH1 0x1F DUP10 AND DUP3 PUSH2 0x546 JUMP JUMPDEST DUP4 SSTORE POP JUMPDEST PUSH1 0x1 PUSH1 0x2 DUP9 MUL ADD DUP9 SSTORE POP POP POP JUMPDEST POP POP POP POP POP POP JUMP JUMPDEST PUSH1 0x0 DUP3 DUP3 MSTORE PUSH1 0x20 DUP3 ADD SWAP1 POP SWAP3 SWAP2 POP POP JUMP JUMPDEST PUSH32 0x496E76616C696420616464726573733A207A65726F2061646472657373000000 PUSH1 0x0 DUP3 ADD MSTORE POP JUMP JUMPDEST PUSH1 0x0 PUSH2 0x699 PUSH1 0x1D DUP4 PUSH2 0x652 JUMP JUMPDEST SWAP2 POP PUSH2 0x6A4 DUP3 PUSH2 0x663 JUMP JUMPDEST PUSH1 0x20 DUP3 ADD SWAP1 POP SWAP2 SWAP1 POP JUMP JUMPDEST PUSH1 0x0 PUSH1 0x20 DUP3 ADD SWAP1 POP DUP2 DUP2 SUB PUSH1 0x0 DUP4 ADD MSTORE PUSH2 0x6C8 DUP2 PUSH2 0x68C JUMP JUMPDEST SWAP1 POP SWAP2 SWAP1 POP JUMP JUMPDEST PUSH1 0x80 MLOAD PUSH2 0x1FDB PUSH2 0x722 PUSH1 0x0 CODECOPY PUSH1 0x0 DUP2 DUP2 PUSH2 0x55B ADD MSTORE DUP2 DUP2 PUSH2 0x686 ADD MSTORE DUP2 DUP2 PUSH2 0x76F ADD MSTORE DUP2 DUP2 PUSH2 0x853 ADD MSTORE DUP2 DUP2 PUSH2 0x9CD ADD MSTORE DUP2 DUP2 PUSH2 0xBE9 ADD MSTORE DUP2 DUP2 PUSH2 0xCA1 ADD MSTORE DUP2 DUP2 PUSH2 0xD77 ADD MSTORE PUSH2 0xE4A ADD MSTORE PUSH2 0x1FDB PUSH1 0x0 RETURN INVALID PUSH1 0x80 PUSH1 0x40 MSTORE PUSH1 0x4 CALLDATASIZE LT PUSH2 0x123 JUMPI PUSH1 0x0 CALLDATALOAD PUSH1 0xE0 SHR DUP1 PUSH4 0x95D89B41 GT PUSH2 0xA0 JUMPI DUP1 PUSH4 0xBA56F6EE GT PUSH2 0x64 JUMPI DUP1 PUSH4 0xBA56F6EE EQ PUSH2 0x3F0 JUMPI DUP1 PUSH4 0xBC6E6604 EQ PUSH2 0x41B JUMPI DUP1 PUSH4 0xDD62ED3E EQ PUSH2 0x446 JUMPI DUP1 PUSH4 0xE086E5EC EQ PUSH2 0x483 JUMPI DUP1 PUSH4 0xEEB9635C EQ PUSH2 0x49A JUMPI PUSH2 0x12A JUMP JUMPDEST DUP1 PUSH4 0x95D89B41 EQ PUSH2 0x30B JUMPI DUP1 PUSH4 0x9BA1E2F8 EQ PUSH2 0x336 JUMPI DUP1 PUSH4 0x9D548A7E EQ PUSH2 0x361 JUMPI DUP1 PUSH4 0xA9059CBB EQ PUSH2 0x38A JUMPI DUP1 PUSH4 0xAD5D4BC5 EQ PUSH2 0x3C7 JUMPI PUSH2 0x12A JUMP JUMPDEST DUP1 PUSH4 0x313CE567 GT PUSH2 0xE7 JUMPI DUP1 PUSH4 0x313CE567 EQ PUSH2 0x228 JUMPI DUP1 PUSH4 0x57CDF8CC EQ PUSH2 0x253 JUMPI DUP1 PUSH4 0x6F71B3AD EQ PUSH2 0x27C JUMPI DUP1 PUSH4 0x70A08231 EQ PUSH2 0x2A5 JUMPI DUP1 PUSH4 0x71E15D42 EQ PUSH2 0x2E2 JUMPI PUSH2 0x12A JUMP JUMPDEST DUP1 PUSH4 0x6FDDE03 EQ PUSH2 0x12F JUMPI DUP1 PUSH4 0x95EA7B3 EQ PUSH2 0x15A JUMPI DUP1 PUSH4 0xF786359 EQ PUSH2 0x197 JUMPI DUP1 PUSH4 0x18160DDD EQ PUSH2 0x1C0 JUMPI DUP1 PUSH4 0x23B872DD EQ PUSH2 0x1EB JUMPI PUSH2 0x12A JUMP JUMPDEST CALLDATASIZE PUSH2 0x12A JUMPI STOP JUMPDEST PUSH1 0x0 DUP1 REVERT JUMPDEST CALLVALUE DUP1 ISZERO PUSH2 0x13B JUMPI PUSH1 0x0 DUP1 REVERT JUMPDEST POP PUSH2 0x144 PUSH2 0x4A4 JUMP JUMPDEST PUSH1 0x40 MLOAD PUSH2 0x151 SWAP2 SWAP1 PUSH2 0x175A JUMP JUMPDEST PUSH1 0x40 MLOAD DUP1 SWAP2 SUB SWAP1 RETURN JUMPDEST CALLVALUE DUP1 ISZERO PUSH2 0x166 JUMPI PUSH1 0x0 DUP1 REVERT JUMPDEST POP PUSH2 0x181 PUSH1 0x4 DUP1 CALLDATASIZE SUB DUP2 ADD SWAP1 PUSH2 0x17C SWAP2 SWAP1 PUSH2 0x1815 JUMP JUMPDEST PUSH2 0x536 JUMP JUMPDEST PUSH1 0x40 MLOAD PUSH2 0x18E SWAP2 SWAP1 PUSH2 0x1870 JUMP JUMPDEST PUSH1 0x40 MLOAD DUP1 SWAP2 SUB SWAP1 RETURN JUMPDEST CALLVALUE DUP1 ISZERO PUSH2 0x1A3 JUMPI PUSH1 0x0 DUP1 REVERT JUMPDEST POP PUSH2 0x1BE PUSH1 0x4 DUP1 CALLDATASIZE SUB DUP2 ADD SWAP1 PUSH2 0x1B9 SWAP2 SWAP1 PUSH2 0x188B JUMP JUMPDEST PUSH2 0x559 JUMP JUMPDEST STOP JUMPDEST CALLVALUE DUP1 ISZERO PUSH2 0x1CC JUMPI PUSH1 0x0 DUP1 REVERT JUMPDEST POP PUSH2 0x1D5 PUSH2 0x642 JUMP JUMPDEST PUSH1 0x40 MLOAD PUSH2 0x1E2 SWAP2 SWAP1 PUSH2 0x18C7 JUMP JUMPDEST PUSH1 0x40 MLOAD DUP1 SWAP2 SUB SWAP1 RETURN JUMPDEST CALLVALUE DUP1 ISZERO PUSH2 0x1F7 JUMPI PUSH1 0x0 DUP1 REVERT JUMPDEST POP PUSH2 0x212 PUSH1 0x4 DUP1 CALLDATASIZE SUB DUP2 ADD SWAP1 PUSH2 0x20D SWAP2 SWAP1 PUSH2 0x18E2 JUMP JUMPDEST PUSH2 0x64C JUMP JUMPDEST PUSH1 0x40 MLOAD PUSH2 0x21F SWAP2 SWAP1 PUSH2 0x1870 JUMP JUMPDEST PUSH1 0x40 MLOAD DUP1 SWAP2 SUB SWAP1 RETURN JUMPDEST CALLVALUE DUP1 ISZERO PUSH2 0x234 JUMPI PUSH1 0x0 DUP1 REVERT JUMPDEST POP PUSH2 0x23D PUSH2 0x67B JUMP JUMPDEST PUSH1 0x40 MLOAD PUSH2 0x24A SWAP2 SWAP1 PUSH2 0x1951 JUMP JUMPDEST PUSH1 0x40 MLOAD DUP1 SWAP2 SUB SWAP1 RETURN JUMPDEST CALLVALUE DUP1 ISZERO PUSH2 0x25F JUMPI PUSH1 0x0 DUP1 REVERT JUMPDEST POP PUSH2 0x27A PUSH1 0x4 DUP1 CALLDATASIZE SUB DUP2 ADD SWAP1 PUSH2 0x275 SWAP2 SWAP1 PUSH2 0x188B JUMP JUMPDEST PUSH2 0x684 JUMP JUMPDEST STOP JUMPDEST CALLVALUE DUP1 ISZERO PUSH2 0x288 JUMPI PUSH1 0x0 DUP1 REVERT JUMPDEST POP PUSH2 0x2A3 PUSH1 0x4 DUP1 CALLDATASIZE SUB DUP2 ADD SWAP1 PUSH2 0x29E SWAP2 SWAP1 PUSH2 0x1815 JUMP JUMPDEST PUSH2 0x76D JUMP JUMPDEST STOP JUMPDEST CALLVALUE DUP1 ISZERO PUSH2 0x2B1 JUMPI PUSH1 0x0 DUP1 REVERT JUMPDEST POP PUSH2 0x2CC PUSH1 0x4 DUP1 CALLDATASIZE SUB DUP2 ADD SWAP1 PUSH2 0x2C7 SWAP2 SWAP1 PUSH2 0x188B JUMP JUMPDEST PUSH2 0x809 JUMP JUMPDEST PUSH1 0x40 MLOAD PUSH2 0x2D9 SWAP2 SWAP1 PUSH2 0x18C7 JUMP JUMPDEST PUSH1 0x40 MLOAD DUP1 SWAP2 SUB SWAP1 RETURN JUMPDEST CALLVALUE DUP1 ISZERO PUSH2 0x2EE JUMPI PUSH1 0x0 DUP1 REVERT JUMPDEST POP PUSH2 0x309 PUSH1 0x4 DUP1 CALLDATASIZE SUB DUP2 ADD SWAP1 PUSH2 0x304 SWAP2 SWAP1 PUSH2 0x1815 JUMP JUMPDEST PUSH2 0x851 JUMP JUMPDEST STOP JUMPDEST CALLVALUE DUP1 ISZERO PUSH2 0x317 JUMPI PUSH1 0x0 DUP1 REVERT JUMPDEST POP PUSH2 0x320 PUSH2 0x92D JUMP JUMPDEST PUSH1 0x40 MLOAD PUSH2 0x32D SWAP2 SWAP1 PUSH2 0x175A JUMP JUMPDEST PUSH1 0x40 MLOAD DUP1 SWAP2 SUB SWAP1 RETURN JUMPDEST CALLVALUE DUP1 ISZERO PUSH2 0x342 JUMPI PUSH1 0x0 DUP1 REVERT JUMPDEST POP PUSH2 0x34B PUSH2 0x9BF JUMP JUMPDEST PUSH1 0x40 MLOAD PUSH2 0x358 SWAP2 SWAP1 PUSH2 0x18C7 JUMP JUMPDEST PUSH1 0x40 MLOAD DUP1 SWAP2 SUB SWAP1 RETURN JUMPDEST CALLVALUE DUP1 ISZERO PUSH2 0x36D JUMPI PUSH1 0x0 DUP1 REVERT JUMPDEST POP PUSH2 0x388 PUSH1 0x4 DUP1 CALLDATASIZE SUB DUP2 ADD SWAP1 PUSH2 0x383 SWAP2 SWAP1 PUSH2 0x18E2 JUMP JUMPDEST PUSH2 0x9CB JUMP JUMPDEST STOP JUMPDEST CALLVALUE DUP1 ISZERO PUSH2 0x396 JUMPI PUSH1 0x0 DUP1 REVERT JUMPDEST POP PUSH2 0x3B1 PUSH1 0x4 DUP1 CALLDATASIZE SUB DUP2 ADD SWAP1 PUSH2 0x3AC SWAP2 SWAP1 PUSH2 0x1815 JUMP JUMPDEST PUSH2 0xAB4 JUMP JUMPDEST PUSH1 0x40 MLOAD PUSH2 0x3BE SWAP2 SWAP1 PUSH2 0x1870 JUMP JUMPDEST PUSH1 0x40 MLOAD DUP1 SWAP2 SUB SWAP1 RETURN JUMPDEST CALLVALUE DUP1 ISZERO PUSH2 0x3D3 JUMPI PUSH1 0x0 DUP1 REVERT JUMPDEST POP PUSH2 0x3EE PUSH1 0x4 DUP1 CALLDATASIZE SUB DUP2 ADD SWAP1 PUSH2 0x3E9 SWAP2 SWAP1 PUSH2 0x196C JUMP JUMPDEST PUSH2 0xAD7 JUMP JUMPDEST STOP JUMPDEST CALLVALUE DUP1 ISZERO PUSH2 0x3FC JUMPI PUSH1 0x0 DUP1 REVERT JUMPDEST POP PUSH2 0x405 PUSH2 0xBE7 JUMP JUMPDEST PUSH1 0x40 MLOAD PUSH2 0x412 SWAP2 SWAP1 PUSH2 0x19A8 JUMP JUMPDEST PUSH1 0x40 MLOAD DUP1 SWAP2 SUB SWAP1 RETURN JUMPDEST CALLVALUE DUP1 ISZERO PUSH2 0x427 JUMPI PUSH1 0x0 DUP1 REVERT JUMPDEST POP PUSH2 0x430 PUSH2 0xC0B JUMP JUMPDEST PUSH1 0x40 MLOAD PUSH2 0x43D SWAP2 SWAP1 PUSH2 0x18C7 JUMP JUMPDEST PUSH1 0x40 MLOAD DUP1 SWAP2 SUB SWAP1 RETURN JUMPDEST CALLVALUE DUP1 ISZERO PUSH2 0x452 JUMPI PUSH1 0x0 DUP1 REVERT JUMPDEST POP PUSH2 0x46D PUSH1 0x4 DUP1 CALLDATASIZE SUB DUP2 ADD SWAP1 PUSH2 0x468 SWAP2 SWAP1 PUSH2 0x19C3 JUMP JUMPDEST PUSH2 0xC18 JUMP JUMPDEST PUSH1 0x40 MLOAD PUSH2 0x47A SWAP2 SWAP1 PUSH2 0x18C7 JUMP JUMPDEST PUSH1 0x40 MLOAD DUP1 SWAP2 SUB SWAP1 RETURN JUMPDEST CALLVALUE DUP1 ISZERO PUSH2 0x48F JUMPI PUSH1 0x0 DUP1 REVERT JUMPDEST POP PUSH2 0x498 PUSH2 0xC9F JUMP JUMPDEST STOP JUMPDEST PUSH2 0x4A2 PUSH2 0xDDF JUMP JUMPDEST STOP JUMPDEST PUSH1 0x60 PUSH1 0x3 DUP1 SLOAD PUSH2 0x4B3 SWAP1 PUSH2 0x1A32 JUMP JUMPDEST DUP1 PUSH1 0x1F ADD PUSH1 0x20 DUP1 SWAP2 DIV MUL PUSH1 0x20 ADD PUSH1 0x40 MLOAD SWAP1 DUP2 ADD PUSH1 0x40 MSTORE DUP1 SWAP3 SWAP2 SWAP1 DUP2 DUP2 MSTORE PUSH1 0x20 ADD DUP3 DUP1 SLOAD PUSH2 0x4DF SWAP1 PUSH2 0x1A32 JUMP JUMPDEST DUP1 ISZERO PUSH2 0x52C JUMPI DUP1 PUSH1 0x1F LT PUSH2 0x501 JUMPI PUSH2 0x100 DUP1 DUP4 SLOAD DIV MUL DUP4 MSTORE SWAP2 PUSH1 0x20 ADD SWAP2 PUSH2 0x52C JUMP JUMPDEST DUP3 ADD SWAP2 SWAP1 PUSH1 0x0 MSTORE PUSH1 0x20 PUSH1 0x0 KECCAK256 SWAP1 JUMPDEST DUP2 SLOAD DUP2 MSTORE SWAP1 PUSH1 0x1 ADD SWAP1 PUSH1 0x20 ADD DUP1 DUP4 GT PUSH2 0x50F JUMPI DUP3 SWAP1 SUB PUSH1 0x1F AND DUP3 ADD SWAP2 JUMPDEST POP POP POP POP POP SWAP1 POP SWAP1 JUMP JUMPDEST PUSH1 0x0 DUP1 PUSH2 0x541 PUSH2 0xF36 JUMP JUMPDEST SWAP1 POP PUSH2 0x54E DUP2 DUP6 DUP6 PUSH2 0xF3E JUMP JUMPDEST PUSH1 0x1 SWAP2 POP POP SWAP3 SWAP2 POP POP JUMP JUMPDEST PUSH32 0x0 PUSH20 0xFFFFFFFFFFFFFFFFFFFFFFFFFFFFFFFFFFFFFFFF AND CALLER PUSH20 0xFFFFFFFFFFFFFFFFFFFFFFFFFFFFFFFFFFFFFFFF AND EQ PUSH2 0x5E7 JUMPI PUSH1 0x40 MLOAD PUSH32 0x8C379A000000000000000000000000000000000000000000000000000000000 DUP2 MSTORE PUSH1 0x4 ADD PUSH2 0x5DE SWAP1 PUSH2 0x1AAF JUMP JUMPDEST PUSH1 0x40 MLOAD DUP1 SWAP2 SUB SWAP1 REVERT JUMPDEST PUSH1 0x1 PUSH1 0x5 PUSH1 0x0 DUP4 PUSH20 0xFFFFFFFFFFFFFFFFFFFFFFFFFFFFFFFFFFFFFFFF AND PUSH20 0xFFFFFFFFFFFFFFFFFFFFFFFFFFFFFFFFFFFFFFFF AND DUP2 MSTORE PUSH1 0x20 ADD SWAP1 DUP2 MSTORE PUSH1 0x20 ADD PUSH1 0x0 KECCAK256 PUSH1 0x0 PUSH2 0x100 EXP DUP2 SLOAD DUP2 PUSH1 0xFF MUL NOT AND SWAP1 DUP4 ISZERO ISZERO MUL OR SWAP1 SSTORE POP POP JUMP JUMPDEST PUSH1 0x0 PUSH1 0x2 SLOAD SWAP1 POP SWAP1 JUMP JUMPDEST PUSH1 0x0 DUP1 PUSH2 0x657 PUSH2 0xF36 JUMP JUMPDEST SWAP1 POP PUSH2 0x664 DUP6 DUP3 DUP6 PUSH2 0xF50 JUMP JUMPDEST PUSH2 0x66F DUP6 DUP6 DUP6 PUSH2 0xFE5 JUMP JUMPDEST PUSH1 0x1 SWAP2 POP POP SWAP4 SWAP3 POP POP POP JUMP JUMPDEST PUSH1 0x0 PUSH1 0x12 SWAP1 POP SWAP1 JUMP JUMPDEST PUSH32 0x0 PUSH20 0xFFFFFFFFFFFFFFFFFFFFFFFFFFFFFFFFFFFFFFFF AND CALLER PUSH20 0xFFFFFFFFFFFFFFFFFFFFFFFFFFFFFFFFFFFFFFFF AND EQ PUSH2 0x712 JUMPI PUSH1 0x40 MLOAD PUSH32 0x8C379A000000000000000000000000000000000000000000000000000000000 DUP2 MSTORE PUSH1 0x4 ADD PUSH2 0x709 SWAP1 PUSH2 0x1AAF JUMP JUMPDEST PUSH1 0x40 MLOAD DUP1 SWAP2 SUB SWAP1 REVERT JUMPDEST PUSH1 0x0 PUSH1 0x5 PUSH1 0x0 DUP4 PUSH20 0xFFFFFFFFFFFFFFFFFFFFFFFFFFFFFFFFFFFFFFFF AND PUSH20 0xFFFFFFFFFFFFFFFFFFFFFFFFFFFFFFFFFFFFFFFF AND DUP2 MSTORE PUSH1 0x20 ADD SWAP1 DUP2 MSTORE PUSH1 0x20 ADD PUSH1 0x0 KECCAK256 PUSH1 0x0 PUSH2 0x100 EXP DUP2 SLOAD DUP2 PUSH1 0xFF MUL NOT AND SWAP1 DUP4 ISZERO ISZERO MUL OR SWAP1 SSTORE POP POP JUMP JUMPDEST PUSH32 0x0 PUSH20 0xFFFFFFFFFFFFFFFFFFFFFFFFFFFFFFFFFFFFFFFF AND CALLER PUSH20 0xFFFFFFFFFFFFFFFFFFFFFFFFFFFFFFFFFFFFFFFF AND EQ PUSH2 0x7FB JUMPI PUSH1 0x40 MLOAD PUSH32 0x8C379A000000000000000000000000000000000000000000000000000000000 DUP2 MSTORE PUSH1 0x4 ADD PUSH2 0x7F2 SWAP1 PUSH2 0x1AAF JUMP JUMPDEST PUSH1 0x40 MLOAD DUP1 SWAP2 SUB SWAP1 REVERT JUMPDEST PUSH2 0x805 DUP3 DUP3 PUSH2 0x10D9 JUMP JUMPDEST POP POP JUMP JUMPDEST PUSH1 0x0 DUP1 PUSH1 0x0 DUP4 PUSH20 0xFFFFFFFFFFFFFFFFFFFFFFFFFFFFFFFFFFFFFFFF AND PUSH20 0xFFFFFFFFFFFFFFFFFFFFFFFFFFFFFFFFFFFFFFFF AND DUP2 MSTORE PUSH1 0x20 ADD SWAP1 DUP2 MSTORE PUSH1 0x20 ADD PUSH1 0x0 KECCAK256 SLOAD SWAP1 POP SWAP2 SWAP1 POP JUMP JUMPDEST PUSH32 0x0 PUSH20 0xFFFFFFFFFFFFFFFFFFFFFFFFFFFFFFFFFFFFFFFF AND CALLER PUSH20 0xFFFFFFFFFFFFFFFFFFFFFFFFFFFFFFFFFFFFFFFF AND EQ PUSH2 0x8DF JUMPI PUSH1 0x40 MLOAD PUSH32 0x8C379A000000000000000000000000000000000000000000000000000000000 DUP2 MSTORE PUSH1 0x4 ADD PUSH2 0x8D6 SWAP1 PUSH2 0x1AAF JUMP JUMPDEST PUSH1 0x40 MLOAD DUP1 SWAP2 SUB SWAP1 REVERT JUMPDEST PUSH1 0x0 PUSH2 0x8EA DUP4 PUSH2 0x809 JUMP JUMPDEST SWAP1 POP DUP1 DUP3 GT ISZERO PUSH2 0x90A JUMPI PUSH2 0x909 DUP4 DUP3 DUP5 PUSH2 0x904 SWAP2 SWAP1 PUSH2 0x1AFE JUMP JUMPDEST PUSH2 0x10D9 JUMP JUMPDEST JUMPDEST DUP1 DUP3 LT ISZERO PUSH2 0x928 JUMPI PUSH2 0x927 DUP4 DUP4 DUP4 PUSH2 0x922 SWAP2 SWAP1 PUSH2 0x1AFE JUMP JUMPDEST PUSH2 0x115B JUMP JUMPDEST JUMPDEST POP POP POP JUMP JUMPDEST PUSH1 0x60 PUSH1 0x4 DUP1 SLOAD PUSH2 0x93C SWAP1 PUSH2 0x1A32 JUMP JUMPDEST DUP1 PUSH1 0x1F ADD PUSH1 0x20 DUP1 SWAP2 DIV MUL PUSH1 0x20 ADD PUSH1 0x40 MLOAD SWAP1 DUP2 ADD PUSH1 0x40 MSTORE DUP1 SWAP3 SWAP2 SWAP1 DUP2 DUP2 MSTORE PUSH1 0x20 ADD DUP3 DUP1 SLOAD PUSH2 0x968 SWAP1 PUSH2 0x1A32 JUMP JUMPDEST DUP1 ISZERO PUSH2 0x9B5 JUMPI DUP1 PUSH1 0x1F LT PUSH2 0x98A JUMPI PUSH2 0x100 DUP1 DUP4 SLOAD DIV MUL DUP4 MSTORE SWAP2 PUSH1 0x20 ADD SWAP2 PUSH2 0x9B5 JUMP JUMPDEST DUP3 ADD SWAP2 SWAP1 PUSH1 0x0 MSTORE PUSH1 0x20 PUSH1 0x0 KECCAK256 SWAP1 JUMPDEST DUP2 SLOAD DUP2 MSTORE SWAP1 PUSH1 0x1 ADD SWAP1 PUSH1 0x20 ADD DUP1 DUP4 GT PUSH2 0x998 JUMPI DUP3 SWAP1 SUB PUSH1 0x1F AND DUP3 ADD SWAP2 JUMPDEST POP POP POP POP POP SWAP1 POP SWAP1 JUMP JUMPDEST PUSH8 0x6F05B59D3B20000 DUP2 JUMP JUMPDEST PUSH32 0x0 PUSH20 0xFFFFFFFFFFFFFFFFFFFFFFFFFFFFFFFFFFFFFFFF AND CALLER PUSH20 0xFFFFFFFFFFFFFFFFFFFFFFFFFFFFFFFFFFFFFFFF AND EQ PUSH2 0xA59 JUMPI PUSH1 0x40 MLOAD PUSH32 0x8C379A000000000000000000000000000000000000000000000000000000000 DUP2 MSTORE PUSH1 0x4 ADD PUSH2 0xA50 SWAP1 PUSH2 0x1AAF JUMP JUMPDEST PUSH1 0x40 MLOAD DUP1 SWAP2 SUB SWAP1 REVERT JUMPDEST DUP1 PUSH2 0xA63 DUP5 PUSH2 0x809 JUMP JUMPDEST LT ISZERO PUSH2 0xAA4 JUMPI PUSH1 0x40 MLOAD PUSH32 0x8C379A000000000000000000000000000000000000000000000000000000000 DUP2 MSTORE PUSH1 0x4 ADD PUSH2 0xA9B SWAP1 PUSH2 0x1B7E JUMP JUMPDEST PUSH1 0x40 MLOAD DUP1 SWAP2 SUB SWAP1 REVERT JUMPDEST PUSH2 0xAAF DUP4 DUP4 DUP4 PUSH2 0xFE5 JUMP JUMPDEST POP POP POP JUMP JUMPDEST PUSH1 0x0 DUP1 PUSH2 0xABF PUSH2 0xF36 JUMP JUMPDEST SWAP1 POP PUSH2 0xACC DUP2 DUP6 DUP6 PUSH2 0xFE5 JUMP JUMPDEST PUSH1 0x1 SWAP2 POP POP SWAP3 SWAP2 POP POP JUMP JUMPDEST PUSH1 0x0 PUSH9 0x3635C9ADC5DEA00000 PUSH8 0x6F05B59D3B20000 DUP4 PUSH2 0xAF7 SWAP2 SWAP1 PUSH2 0x1B9E JUMP JUMPDEST PUSH2 0xB01 SWAP2 SWAP1 PUSH2 0x1C0F JUMP JUMPDEST SWAP1 POP DUP1 SELFBALANCE LT ISZERO PUSH2 0xB46 JUMPI PUSH1 0x40 MLOAD PUSH32 0x8C379A000000000000000000000000000000000000000000000000000000000 DUP2 MSTORE PUSH1 0x4 ADD PUSH2 0xB3D SWAP1 PUSH2 0x1C8C JUMP JUMPDEST PUSH1 0x40 MLOAD DUP1 SWAP2 SUB SWAP1 REVERT JUMPDEST DUP2 PUSH2 0xB50 CALLER PUSH2 0x809 JUMP JUMPDEST LT ISZERO PUSH2 0xB91 JUMPI PUSH1 0x40 MLOAD PUSH32 0x8C379A000000000000000000000000000000000000000000000000000000000 DUP2 MSTORE PUSH1 0x4 ADD PUSH2 0xB88 SWAP1 PUSH2 0x1D1E JUMP JUMPDEST PUSH1 0x40 MLOAD DUP1 SWAP2 SUB SWAP1 REVERT JUMPDEST PUSH2 0xB9C CALLER ADDRESS DUP5 PUSH2 0xFE5 JUMP JUMPDEST CALLER PUSH20 0xFFFFFFFFFFFFFFFFFFFFFFFFFFFFFFFFFFFFFFFF AND PUSH2 0x8FC DUP3 SWAP1 DUP2 ISZERO MUL SWAP1 PUSH1 0x40 MLOAD PUSH1 0x0 PUSH1 0x40 MLOAD DUP1 DUP4 SUB DUP2 DUP6 DUP9 DUP9 CALL SWAP4 POP POP POP POP ISZERO DUP1 ISZERO PUSH2 0xBE2 JUMPI RETURNDATASIZE PUSH1 0x0 DUP1 RETURNDATACOPY RETURNDATASIZE PUSH1 0x0 REVERT JUMPDEST POP POP POP JUMP JUMPDEST PUSH32 0x0 DUP2 JUMP JUMPDEST PUSH9 0x3635C9ADC5DEA00000 DUP2 JUMP JUMPDEST PUSH1 0x0 PUSH1 0x1 PUSH1 0x0 DUP5 PUSH20 0xFFFFFFFFFFFFFFFFFFFFFFFFFFFFFFFFFFFFFFFF AND PUSH20 0xFFFFFFFFFFFFFFFFFFFFFFFFFFFFFFFFFFFFFFFF AND DUP2 MSTORE PUSH1 0x20 ADD SWAP1 DUP2 MSTORE PUSH1 0x20 ADD PUSH1 0x0 KECCAK256 PUSH1 0x0 DUP4 PUSH20 0xFFFFFFFFFFFFFFFFFFFFFFFFFFFFFFFFFFFFFFFF AND PUSH20 0xFFFFFFFFFFFFFFFFFFFFFFFFFFFFFFFFFFFFFFFF AND DUP2 MSTORE PUSH1 0x20 ADD SWAP1 DUP2 MSTORE PUSH1 0x20 ADD PUSH1 0x0 KECCAK256 SLOAD SWAP1 POP SWAP3 SWAP2 POP POP JUMP JUMPDEST PUSH32 0x0 PUSH20 0xFFFFFFFFFFFFFFFFFFFFFFFFFFFFFFFFFFFFFFFF AND CALLER PUSH20 0xFFFFFFFFFFFFFFFFFFFFFFFFFFFFFFFFFFFFFFFF AND EQ PUSH2 0xD2D JUMPI PUSH1 0x40 MLOAD PUSH32 0x8C379A000000000000000000000000000000000000000000000000000000000 DUP2 MSTORE PUSH1 0x4 ADD PUSH2 0xD24 SWAP1 PUSH2 0x1AAF JUMP JUMPDEST PUSH1 0x40 MLOAD DUP1 SWAP2 SUB SWAP1 REVERT JUMPDEST PUSH1 0x0 SELFBALANCE SWAP1 POP PUSH1 0x0 DUP2 GT PUSH2 0xD75 JUMPI PUSH1 0x40 MLOAD PUSH32 0x8C379A000000000000000000000000000000000000000000000000000000000 DUP2 MSTORE PUSH1 0x4 ADD PUSH2 0xD6C SWAP1 PUSH2 0x1D8A JUMP JUMPDEST PUSH1 0x40 MLOAD DUP1 SWAP2 SUB SWAP1 REVERT JUMPDEST PUSH32 0x0 PUSH20 0xFFFFFFFFFFFFFFFFFFFFFFFFFFFFFFFFFFFFFFFF AND PUSH2 0x8FC DUP3 SWAP1 DUP2 ISZERO MUL SWAP1 PUSH1 0x40 MLOAD PUSH1 0x0 PUSH1 0x40 MLOAD DUP1 DUP4 SUB DUP2 DUP6 DUP9 DUP9 CALL SWAP4 POP POP POP POP ISZERO DUP1 ISZERO PUSH2 0xDDB JUMPI RETURNDATASIZE PUSH1 0x0 DUP1 RETURNDATACOPY RETURNDATASIZE PUSH1 0x0 REVERT JUMPDEST POP POP JUMP JUMPDEST PUSH9 0x3635C9ADC5DEA00000 PUSH10 0xD3C21BCECCEDA1000000 DUP2 PUSH2 0xDFD PUSH2 0x642 JUMP JUMPDEST PUSH2 0xE07 SWAP2 SWAP1 PUSH2 0x1DAA JUMP JUMPDEST GT ISZERO PUSH2 0xE48 JUMPI PUSH1 0x40 MLOAD PUSH32 0x8C379A000000000000000000000000000000000000000000000000000000000 DUP2 MSTORE PUSH1 0x4 ADD PUSH2 0xE3F SWAP1 PUSH2 0x1E2A JUMP JUMPDEST PUSH1 0x40 MLOAD DUP1 SWAP2 SUB SWAP1 REVERT JUMPDEST PUSH32 0x0 PUSH20 0xFFFFFFFFFFFFFFFFFFFFFFFFFFFFFFFFFFFFFFFF AND CALLER PUSH20 0xFFFFFFFFFFFFFFFFFFFFFFFFFFFFFFFFFFFFFFFF AND EQ PUSH2 0xED6 JUMPI PUSH1 0x40 MLOAD PUSH32 0x8C379A000000000000000000000000000000000000000000000000000000000 DUP2 MSTORE PUSH1 0x4 ADD PUSH2 0xECD SWAP1 PUSH2 0x1AAF JUMP JUMPDEST PUSH1 0x40 MLOAD DUP1 SWAP2 SUB SWAP1 REVERT JUMPDEST PUSH8 0xDE0B6B3A7640000 CALLVALUE EQ PUSH2 0xF20 JUMPI PUSH1 0x40 MLOAD PUSH32 0x8C379A000000000000000000000000000000000000000000000000000000000 DUP2 MSTORE PUSH1 0x4 ADD PUSH2 0xF17 SWAP1 PUSH2 0x1EBC JUMP JUMPDEST PUSH1 0x40 MLOAD DUP1 SWAP2 SUB SWAP1 REVERT JUMPDEST PUSH2 0xF33 CALLER PUSH9 0x3635C9ADC5DEA00000 PUSH2 0x10D9 JUMP JUMPDEST POP JUMP JUMPDEST PUSH1 0x0 CALLER SWAP1 POP SWAP1 JUMP JUMPDEST PUSH2 0xF4B DUP4 DUP4 DUP4 PUSH1 0x1 PUSH2 0x11DD JUMP JUMPDEST POP POP POP JUMP JUMPDEST PUSH1 0x0 PUSH2 0xF5C DUP5 DUP5 PUSH2 0xC18 JUMP JUMPDEST SWAP1 POP PUSH32 0xFFFFFFFFFFFFFFFFFFFFFFFFFFFFFFFFFFFFFFFFFFFFFFFFFFFFFFFFFFFFFFFF DUP2 LT ISZERO PUSH2 0xFDF JUMPI DUP2 DUP2 LT ISZERO PUSH2 0xFCF JUMPI DUP3 DUP2 DUP4 PUSH1 0x40 MLOAD PUSH32 0xFB8F41B200000000000000000000000000000000000000000000000000000000 DUP2 MSTORE PUSH1 0x4 ADD PUSH2 0xFC6 SWAP4 SWAP3 SWAP2 SWAP1 PUSH2 0x1EDC JUMP JUMPDEST PUSH1 0x40 MLOAD DUP1 SWAP2 SUB SWAP1 REVERT JUMPDEST PUSH2 0xFDE DUP5 DUP5 DUP5 DUP5 SUB PUSH1 0x0 PUSH2 0x11DD JUMP JUMPDEST JUMPDEST POP POP POP POP JUMP JUMPDEST PUSH1 0x0 PUSH20 0xFFFFFFFFFFFFFFFFFFFFFFFFFFFFFFFFFFFFFFFF AND DUP4 PUSH20 0xFFFFFFFFFFFFFFFFFFFFFFFFFFFFFFFFFFFFFFFF AND SUB PUSH2 0x1057 JUMPI PUSH1 0x0 PUSH1 0x40 MLOAD PUSH32 0x96C6FD1E00000000000000000000000000000000000000000000000000000000 DUP2 MSTORE PUSH1 0x4 ADD PUSH2 0x104E SWAP2 SWAP1 PUSH2 0x19A8 JUMP JUMPDEST PUSH1 0x40 MLOAD DUP1 SWAP2 SUB SWAP1 REVERT JUMPDEST PUSH1 0x0 PUSH20 0xFFFFFFFFFFFFFFFFFFFFFFFFFFFFFFFFFFFFFFFF AND DUP3 PUSH20 0xFFFFFFFFFFFFFFFFFFFFFFFFFFFFFFFFFFFFFFFF AND SUB PUSH2 0x10C9 JUMPI PUSH1 0x0 PUSH1 0x40 MLOAD PUSH32 0xEC442F0500000000000000000000000000000000000000000000000000000000 DUP2 MSTORE PUSH1 0x4 ADD PUSH2 0x10C0 SWAP2 SWAP1 PUSH2 0x19A8 JUMP JUMPDEST PUSH1 0x40 MLOAD DUP1 SWAP2 SUB SWAP1 REVERT JUMPDEST PUSH2 0x10D4 DUP4 DUP4 DUP4 PUSH2 0x13B4 JUMP JUMPDEST POP POP POP JUMP JUMPDEST PUSH1 0x0 PUSH20 0xFFFFFFFFFFFFFFFFFFFFFFFFFFFFFFFFFFFFFFFF AND DUP3 PUSH20 0xFFFFFFFFFFFFFFFFFFFFFFFFFFFFFFFFFFFFFFFF AND SUB PUSH2 0x114B JUMPI PUSH1 0x0 PUSH1 0x40 MLOAD PUSH32 0xEC442F0500000000000000000000000000000000000000000000000000000000 DUP2 MSTORE PUSH1 0x4 ADD PUSH2 0x1142 SWAP2 SWAP1 PUSH2 0x19A8 JUMP JUMPDEST PUSH1 0x40 MLOAD DUP1 SWAP2 SUB SWAP1 REVERT JUMPDEST PUSH2 0x1157 PUSH1 0x0 DUP4 DUP4 PUSH2 0x13B4 JUMP JUMPDEST POP POP JUMP JUMPDEST PUSH1 0x0 PUSH20 0xFFFFFFFFFFFFFFFFFFFFFFFFFFFFFFFFFFFFFFFF AND DUP3 PUSH20 0xFFFFFFFFFFFFFFFFFFFFFFFFFFFFFFFFFFFFFFFF AND SUB PUSH2 0x11CD JUMPI PUSH1 0x0 PUSH1 0x40 MLOAD PUSH32 0x96C6FD1E00000000000000000000000000000000000000000000000000000000 DUP2 MSTORE PUSH1 0x4 ADD PUSH2 0x11C4 SWAP2 SWAP1 PUSH2 0x19A8 JUMP JUMPDEST PUSH1 0x40 MLOAD DUP1 SWAP2 SUB SWAP1 REVERT JUMPDEST PUSH2 0x11D9 DUP3 PUSH1 0x0 DUP4 PUSH2 0x13B4 JUMP JUMPDEST POP POP JUMP JUMPDEST PUSH1 0x0 PUSH20 0xFFFFFFFFFFFFFFFFFFFFFFFFFFFFFFFFFFFFFFFF AND DUP5 PUSH20 0xFFFFFFFFFFFFFFFFFFFFFFFFFFFFFFFFFFFFFFFF AND SUB PUSH2 0x124F JUMPI PUSH1 0x0 PUSH1 0x40 MLOAD PUSH32 0xE602DF0500000000000000000000000000000000000000000000000000000000 DUP2 MSTORE PUSH1 0x4 ADD PUSH2 0x1246 SWAP2 SWAP1 PUSH2 0x19A8 JUMP JUMPDEST PUSH1 0x40 MLOAD DUP1 SWAP2 SUB SWAP1 REVERT JUMPDEST PUSH1 0x0 PUSH20 0xFFFFFFFFFFFFFFFFFFFFFFFFFFFFFFFFFFFFFFFF AND DUP4 PUSH20 0xFFFFFFFFFFFFFFFFFFFFFFFFFFFFFFFFFFFFFFFF AND SUB PUSH2 0x12C1 JUMPI PUSH1 0x0 PUSH1 0x40 MLOAD PUSH32 0x94280D6200000000000000000000000000000000000000000000000000000000 DUP2 MSTORE PUSH1 0x4 ADD PUSH2 0x12B8 SWAP2 SWAP1 PUSH2 0x19A8 JUMP JUMPDEST PUSH1 0x40 MLOAD DUP1 SWAP2 SUB SWAP1 REVERT JUMPDEST DUP2 PUSH1 0x1 PUSH1 0x0 DUP7 PUSH20 0xFFFFFFFFFFFFFFFFFFFFFFFFFFFFFFFFFFFFFFFF AND PUSH20 0xFFFFFFFFFFFFFFFFFFFFFFFFFFFFFFFFFFFFFFFF AND DUP2 MSTORE PUSH1 0x20 ADD SWAP1 DUP2 MSTORE PUSH1 0x20 ADD PUSH1 0x0 KECCAK256 PUSH1 0x0 DUP6 PUSH20 0xFFFFFFFFFFFFFFFFFFFFFFFFFFFFFFFFFFFFFFFF AND PUSH20 0xFFFFFFFFFFFFFFFFFFFFFFFFFFFFFFFFFFFFFFFF AND DUP2 MSTORE PUSH1 0x20 ADD SWAP1 DUP2 MSTORE PUSH1 0x20 ADD PUSH1 0x0 KECCAK256 DUP2 SWAP1 SSTORE POP DUP1 ISZERO PUSH2 0x13AE JUMPI DUP3 PUSH20 0xFFFFFFFFFFFFFFFFFFFFFFFFFFFFFFFFFFFFFFFF AND DUP5 PUSH20 0xFFFFFFFFFFFFFFFFFFFFFFFFFFFFFFFFFFFFFFFF AND PUSH32 0x8C5BE1E5EBEC7D5BD14F71427D1E84F3DD0314C0F7B2291E5B200AC8C7C3B925 DUP5 PUSH1 0x40 MLOAD PUSH2 0x13A5 SWAP2 SWAP1 PUSH2 0x18C7 JUMP JUMPDEST PUSH1 0x40 MLOAD DUP1 SWAP2 SUB SWAP1 LOG3 JUMPDEST POP POP POP POP JUMP JUMPDEST PUSH1 0x5 PUSH1 0x0 DUP5 PUSH20 0xFFFFFFFFFFFFFFFFFFFFFFFFFFFFFFFFFFFFFFFF AND PUSH20 0xFFFFFFFFFFFFFFFFFFFFFFFFFFFFFFFFFFFFFFFF AND DUP2 MSTORE PUSH1 0x20 ADD SWAP1 DUP2 MSTORE PUSH1 0x20 ADD PUSH1 0x0 KECCAK256 PUSH1 0x0 SWAP1 SLOAD SWAP1 PUSH2 0x100 EXP SWAP1 DIV PUSH1 0xFF AND DUP1 PUSH2 0x1455 JUMPI POP PUSH1 0x5 PUSH1 0x0 DUP4 PUSH20 0xFFFFFFFFFFFFFFFFFFFFFFFFFFFFFFFFFFFFFFFF AND PUSH20 0xFFFFFFFFFFFFFFFFFFFFFFFFFFFFFFFFFFFFFFFF AND DUP2 MSTORE PUSH1 0x20 ADD SWAP1 DUP2 MSTORE PUSH1 0x20 ADD PUSH1 0x0 KECCAK256 PUSH1 0x0 SWAP1 SLOAD SWAP1 PUSH2 0x100 EXP SWAP1 DIV PUSH1 0xFF AND JUMPDEST ISZERO PUSH2 0x1495 JUMPI PUSH1 0x40 MLOAD PUSH32 0x8C379A000000000000000000000000000000000000000000000000000000000 DUP2 MSTORE PUSH1 0x4 ADD PUSH2 0x148C SWAP1 PUSH2 0x1F85 JUMP JUMPDEST PUSH1 0x40 MLOAD DUP1 SWAP2 SUB SWAP1 REVERT JUMPDEST PUSH2 0x14A0 DUP4 DUP4 DUP4 PUSH2 0x14A5 JUMP JUMPDEST POP POP POP JUMP JUMPDEST PUSH1 0x0 PUSH20 0xFFFFFFFFFFFFFFFFFFFFFFFFFFFFFFFFFFFFFFFF AND DUP4 PUSH20 0xFFFFFFFFFFFFFFFFFFFFFFFFFFFFFFFFFFFFFFFF AND SUB PUSH2 0x14F7 JUMPI DUP1 PUSH1 0x2 PUSH1 0x0 DUP3 DUP3 SLOAD PUSH2 0x14EB SWAP2 SWAP1 PUSH2 0x1DAA JUMP JUMPDEST SWAP3 POP POP DUP2 SWAP1 SSTORE POP PUSH2 0x15CA JUMP JUMPDEST PUSH1 0x0 DUP1 PUSH1 0x0 DUP6 PUSH20 0xFFFFFFFFFFFFFFFFFFFFFFFFFFFFFFFFFFFFFFFF AND PUSH20 0xFFFFFFFFFFFFFFFFFFFFFFFFFFFFFFFFFFFFFFFF AND DUP2 MSTORE PUSH1 0x20 ADD SWAP1 DUP2 MSTORE PUSH1 0x20 ADD PUSH1 0x0 KECCAK256 SLOAD SWAP1 POP DUP2 DUP2 LT ISZERO PUSH2 0x1583 JUMPI DUP4 DUP2 DUP4 PUSH1 0x40 MLOAD PUSH32 0xE450D38C00000000000000000000000000000000000000000000000000000000 DUP2 MSTORE PUSH1 0x4 ADD PUSH2 0x157A SWAP4 SWAP3 SWAP2 SWAP1 PUSH2 0x1EDC JUMP JUMPDEST PUSH1 0x40 MLOAD DUP1 SWAP2 SUB SWAP1 REVERT JUMPDEST DUP2 DUP2 SUB PUSH1 0x0 DUP1 DUP7 PUSH20 0xFFFFFFFFFFFFFFFFFFFFFFFFFFFFFFFFFFFFFFFF AND PUSH20 0xFFFFFFFFFFFFFFFFFFFFFFFFFFFFFFFFFFFFFFFF AND DUP2 MSTORE PUSH1 0x20 ADD SWAP1 DUP2 MSTORE PUSH1 0x20 ADD PUSH1 0x0 KECCAK256 DUP2 SWAP1 SSTORE POP POP JUMPDEST PUSH1 0x0 PUSH20 0xFFFFFFFFFFFFFFFFFFFFFFFFFFFFFFFFFFFFFFFF AND DUP3 PUSH20 0xFFFFFFFFFFFFFFFFFFFFFFFFFFFFFFFFFFFFFFFF AND SUB PUSH2 0x1613 JUMPI DUP1 PUSH1 0x2 PUSH1 0x0 DUP3 DUP3 SLOAD SUB SWAP3 POP POP DUP2 SWAP1 SSTORE POP PUSH2 0x1660 JUMP JUMPDEST DUP1 PUSH1 0x0 DUP1 DUP5 PUSH20 0xFFFFFFFFFFFFFFFFFFFFFFFFFFFFFFFFFFFFFFFF AND PUSH20 0xFFFFFFFFFFFFFFFFFFFFFFFFFFFFFFFFFFFFFFFF AND DUP2 MSTORE PUSH1 0x20 ADD SWAP1 DUP2 MSTORE PUSH1 0x20 ADD PUSH1 0x0 KECCAK256 PUSH1 0x0 DUP3 DUP3 SLOAD ADD SWAP3 POP POP DUP2 SWAP1 SSTORE POP JUMPDEST DUP2 PUSH20 0xFFFFFFFFFFFFFFFFFFFFFFFFFFFFFFFFFFFFFFFF AND DUP4 PUSH20 0xFFFFFFFFFFFFFFFFFFFFFFFFFFFFFFFFFFFFFFFF AND PUSH32 0xDDF252AD1BE2C89B69C2B068FC378DAA952BA7F163C4A11628F55A4DF523B3EF DUP4 PUSH1 0x40 MLOAD PUSH2 0x16BD SWAP2 SWAP1 PUSH2 0x18C7 JUMP JUMPDEST PUSH1 0x40 MLOAD DUP1 SWAP2 SUB SWAP1 LOG3 POP POP POP JUMP JUMPDEST PUSH1 0x0 DUP2 MLOAD SWAP1 POP SWAP2 SWAP1 POP JUMP JUMPDEST PUSH1 0x0 DUP3 DUP3 MSTORE PUSH1 0x20 DUP3 ADD SWAP1 POP SWAP3 SWAP2 POP POP JUMP JUMPDEST PUSH1 0x0 JUMPDEST DUP4 DUP2 LT ISZERO PUSH2 0x1704 JUMPI DUP1 DUP3 ADD MLOAD DUP2 DUP5 ADD MSTORE PUSH1 0x20 DUP2 ADD SWAP1 POP PUSH2 0x16E9 JUMP JUMPDEST PUSH1 0x0 DUP5 DUP5 ADD MSTORE POP POP POP POP JUMP JUMPDEST PUSH1 0x0 PUSH1 0x1F NOT PUSH1 0x1F DUP4 ADD AND SWAP1 POP SWAP2 SWAP1 POP JUMP JUMPDEST PUSH1 0x0 PUSH2 0x172C DUP3 PUSH2 0x16CA JUMP JUMPDEST PUSH2 0x1736 DUP2 DUP6 PUSH2 0x16D5 JUMP JUMPDEST SWAP4 POP PUSH2 0x1746 DUP2 DUP6 PUSH1 0x20 DUP7 ADD PUSH2 0x16E6 JUMP JUMPDEST PUSH2 0x174F DUP2 PUSH2 0x1710 JUMP JUMPDEST DUP5 ADD SWAP2 POP POP SWAP3 SWAP2 POP POP JUMP JUMPDEST PUSH1 0x0 PUSH1 0x20 DUP3 ADD SWAP1 POP DUP2 DUP2 SUB PUSH1 0x0 DUP4 ADD MSTORE PUSH2 0x1774 DUP2 DUP5 PUSH2 0x1721 JUMP JUMPDEST SWAP1 POP SWAP3 SWAP2 POP POP JUMP JUMPDEST PUSH1 0x0 DUP1 REVERT JUMPDEST PUSH1 0x0 PUSH20 0xFFFFFFFFFFFFFFFFFFFFFFFFFFFFFFFFFFFFFFFF DUP3 AND SWAP1 POP SWAP2 SWAP1 POP JUMP JUMPDEST PUSH1 0x0 PUSH2 0x17AC DUP3 PUSH2 0x1781 JUMP JUMPDEST SWAP1 POP SWAP2 SWAP1 POP JUMP JUMPDEST PUSH2 0x17BC DUP2 PUSH2 0x17A1 JUMP JUMPDEST DUP2 EQ PUSH2 0x17C7 JUMPI PUSH1 0x0 DUP1 REVERT JUMPDEST POP JUMP JUMPDEST PUSH1 0x0 DUP2 CALLDATALOAD SWAP1 POP PUSH2 0x17D9 DUP2 PUSH2 0x17B3 JUMP JUMPDEST SWAP3 SWAP2 POP POP JUMP JUMPDEST PUSH1 0x0 DUP2 SWAP1 POP SWAP2 SWAP1 POP JUMP JUMPDEST PUSH2 0x17F2 DUP2 PUSH2 0x17DF JUMP JUMPDEST DUP2 EQ PUSH2 0x17FD JUMPI PUSH1 0x0 DUP1 REVERT JUMPDEST POP JUMP JUMPDEST PUSH1 0x0 DUP2 CALLDATALOAD SWAP1 POP PUSH2 0x180F DUP2 PUSH2 0x17E9 JUMP JUMPDEST SWAP3 SWAP2 POP POP JUMP JUMPDEST PUSH1 0x0 DUP1 PUSH1 0x40 DUP4 DUP6 SUB SLT ISZERO PUSH2 0x182C JUMPI PUSH2 0x182B PUSH2 0x177C JUMP JUMPDEST JUMPDEST PUSH1 0x0 PUSH2 0x183A DUP6 DUP3 DUP7 ADD PUSH2 0x17CA JUMP JUMPDEST SWAP3 POP POP PUSH1 0x20 PUSH2 0x184B DUP6 DUP3 DUP7 ADD PUSH2 0x1800 JUMP JUMPDEST SWAP2 POP POP SWAP3 POP SWAP3 SWAP1 POP JUMP JUMPDEST PUSH1 0x0 DUP2 ISZERO ISZERO SWAP1 POP SWAP2 SWAP1 POP JUMP JUMPDEST PUSH2 0x186A DUP2 PUSH2 0x1855 JUMP JUMPDEST DUP3 MSTORE POP POP JUMP JUMPDEST PUSH1 0x0 PUSH1 0x20 DUP3 ADD SWAP1 POP PUSH2 0x1885 PUSH1 0x0 DUP4 ADD DUP5 PUSH2 0x1861 JUMP JUMPDEST SWAP3 SWAP2 POP POP JUMP JUMPDEST PUSH1 0x0 PUSH1 0x20 DUP3 DUP5 SUB SLT ISZERO PUSH2 0x18A1 JUMPI PUSH2 0x18A0 PUSH2 0x177C JUMP JUMPDEST JUMPDEST PUSH1 0x0 PUSH2 0x18AF DUP5 DUP3 DUP6 ADD PUSH2 0x17CA JUMP JUMPDEST SWAP2 POP POP SWAP3 SWAP2 POP POP JUMP JUMPDEST PUSH2 0x18C1 DUP2 PUSH2 0x17DF JUMP JUMPDEST DUP3 MSTORE POP POP JUMP JUMPDEST PUSH1 0x0 PUSH1 0x20 DUP3 ADD SWAP1 POP PUSH2 0x18DC PUSH1 0x0 DUP4 ADD DUP5 PUSH2 0x18B8 JUMP JUMPDEST SWAP3 SWAP2 POP POP JUMP JUMPDEST PUSH1 0x0 DUP1 PUSH1 0x0 PUSH1 0x60 DUP5 DUP7 SUB SLT ISZERO PUSH2 0x18FB JUMPI PUSH2 0x18FA PUSH2 0x177C JUMP JUMPDEST JUMPDEST PUSH1 0x0 PUSH2 0x1909 DUP7 DUP3 DUP8 ADD PUSH2 0x17CA JUMP JUMPDEST SWAP4 POP POP PUSH1 0x20 PUSH2 0x191A DUP7 DUP3 DUP8 ADD PUSH2 0x17CA JUMP JUMPDEST SWAP3 POP POP PUSH1 0x40 PUSH2 0x192B DUP7 DUP3 DUP8 ADD PUSH2 0x1800 JUMP JUMPDEST SWAP2 POP POP SWAP3 POP SWAP3 POP SWAP3 JUMP JUMPDEST PUSH1 0x0 PUSH1 0xFF DUP3 AND SWAP1 POP SWAP2 SWAP1 POP JUMP JUMPDEST PUSH2 0x194B DUP2 PUSH2 0x1935 JUMP JUMPDEST DUP3 MSTORE POP POP JUMP JUMPDEST PUSH1 0x0 PUSH1 0x20 DUP3 ADD SWAP1 POP PUSH2 0x1966 PUSH1 0x0 DUP4 ADD DUP5 PUSH2 0x1942 JUMP JUMPDEST SWAP3 SWAP2 POP POP JUMP JUMPDEST PUSH1 0x0 PUSH1 0x20 DUP3 DUP5 SUB SLT ISZERO PUSH2 0x1982 JUMPI PUSH2 0x1981 PUSH2 0x177C JUMP JUMPDEST JUMPDEST PUSH1 0x0 PUSH2 0x1990 DUP5 DUP3 DUP6 ADD PUSH2 0x1800 JUMP JUMPDEST SWAP2 POP POP SWAP3 SWAP2 POP POP JUMP JUMPDEST PUSH2 0x19A2 DUP2 PUSH2 0x17A1 JUMP JUMPDEST DUP3 MSTORE POP POP JUMP JUMPDEST PUSH1 0x0 PUSH1 0x20 DUP3 ADD SWAP1 POP PUSH2 0x19BD PUSH1 0x0 DUP4 ADD DUP5 PUSH2 0x1999 JUMP JUMPDEST SWAP3 SWAP2 POP POP JUMP JUMPDEST PUSH1 0x0 DUP1 PUSH1 0x40 DUP4 DUP6 SUB SLT ISZERO PUSH2 0x19DA JUMPI PUSH2 0x19D9 PUSH2 0x177C JUMP JUMPDEST JUMPDEST PUSH1 0x0 PUSH2 0x19E8 DUP6 DUP3 DUP7 ADD PUSH2 0x17CA JUMP JUMPDEST SWAP3 POP POP PUSH1 0x20 PUSH2 0x19F9 DUP6 DUP3 DUP7 ADD PUSH2 0x17CA JUMP JUMPDEST SWAP2 POP POP SWAP3 POP SWAP3 SWAP1 POP JUMP JUMPDEST PUSH32 0x4E487B7100000000000000000000000000000000000000000000000000000000 PUSH1 0x0 MSTORE PUSH1 0x22 PUSH1 0x4 MSTORE PUSH1 0x24 PUSH1 0x0 REVERT JUMPDEST PUSH1 0x0 PUSH1 0x2 DUP3 DIV SWAP1 POP PUSH1 0x1 DUP3 AND DUP1 PUSH2 0x1A4A JUMPI PUSH1 0x7F DUP3 AND SWAP2 POP JUMPDEST PUSH1 0x20 DUP3 LT DUP2 SUB PUSH2 0x1A5D JUMPI PUSH2 0x1A5C PUSH2 0x1A03 JUMP JUMPDEST JUMPDEST POP SWAP2 SWAP1 POP JUMP JUMPDEST PUSH32 0x596F7520617265206E6F7420676F642100000000000000000000000000000000 PUSH1 0x0 DUP3 ADD MSTORE POP JUMP JUMPDEST PUSH1 0x0 PUSH2 0x1A99 PUSH1 0x10 DUP4 PUSH2 0x16D5 JUMP JUMPDEST SWAP2 POP PUSH2 0x1AA4 DUP3 PUSH2 0x1A63 JUMP JUMPDEST PUSH1 0x20 DUP3 ADD SWAP1 POP SWAP2 SWAP1 POP JUMP JUMPDEST PUSH1 0x0 PUSH1 0x20 DUP3 ADD SWAP1 POP DUP2 DUP2 SUB PUSH1 0x0 DUP4 ADD MSTORE PUSH2 0x1AC8 DUP2 PUSH2 0x1A8C JUMP JUMPDEST SWAP1 POP SWAP2 SWAP1 POP JUMP JUMPDEST PUSH32 0x4E487B7100000000000000000000000000000000000000000000000000000000 PUSH1 0x0 MSTORE PUSH1 0x11 PUSH1 0x4 MSTORE PUSH1 0x24 PUSH1 0x0 REVERT JUMPDEST PUSH1 0x0 PUSH2 0x1B09 DUP3 PUSH2 0x17DF JUMP JUMPDEST SWAP2 POP PUSH2 0x1B14 DUP4 PUSH2 0x17DF JUMP JUMPDEST SWAP3 POP DUP3 DUP3 SUB SWAP1 POP DUP2 DUP2 GT ISZERO PUSH2 0x1B2C JUMPI PUSH2 0x1B2B PUSH2 0x1ACF JUMP JUMPDEST JUMPDEST SWAP3 SWAP2 POP POP JUMP JUMPDEST PUSH32 0x496E73756666696369656E742042616C616E6365000000000000000000000000 PUSH1 0x0 DUP3 ADD MSTORE POP JUMP JUMPDEST PUSH1 0x0 PUSH2 0x1B68 PUSH1 0x14 DUP4 PUSH2 0x16D5 JUMP JUMPDEST SWAP2 POP PUSH2 0x1B73 DUP3 PUSH2 0x1B32 JUMP JUMPDEST PUSH1 0x20 DUP3 ADD SWAP1 POP SWAP2 SWAP1 POP JUMP JUMPDEST PUSH1 0x0 PUSH1 0x20 DUP3 ADD SWAP1 POP DUP2 DUP2 SUB PUSH1 0x0 DUP4 ADD MSTORE PUSH2 0x1B97 DUP2 PUSH2 0x1B5B JUMP JUMPDEST SWAP1 POP SWAP2 SWAP1 POP JUMP JUMPDEST PUSH1 0x0 PUSH2 0x1BA9 DUP3 PUSH2 0x17DF JUMP JUMPDEST SWAP2 POP PUSH2 0x1BB4 DUP4 PUSH2 0x17DF JUMP JUMPDEST SWAP3 POP DUP3 DUP3 MUL PUSH2 0x1BC2 DUP2 PUSH2 0x17DF JUMP JUMPDEST SWAP2 POP DUP3 DUP3 DIV DUP5 EQ DUP4 ISZERO OR PUSH2 0x1BD9 JUMPI PUSH2 0x1BD8 PUSH2 0x1ACF JUMP JUMPDEST JUMPDEST POP SWAP3 SWAP2 POP POP JUMP JUMPDEST PUSH32 0x4E487B7100000000000000000000000000000000000000000000000000000000 PUSH1 0x0 MSTORE PUSH1 0x12 PUSH1 0x4 MSTORE PUSH1 0x24 PUSH1 0x0 REVERT JUMPDEST PUSH1 0x0 PUSH2 0x1C1A DUP3 PUSH2 0x17DF JUMP JUMPDEST SWAP2 POP PUSH2 0x1C25 DUP4 PUSH2 0x17DF JUMP JUMPDEST SWAP3 POP DUP3 PUSH2 0x1C35 JUMPI PUSH2 0x1C34 PUSH2 0x1BE0 JUMP JUMPDEST JUMPDEST DUP3 DUP3 DIV SWAP1 POP SWAP3 SWAP2 POP POP JUMP JUMPDEST PUSH32 0x455448206973206E6F7420656E6F756768000000000000000000000000000000 PUSH1 0x0 DUP3 ADD MSTORE POP JUMP JUMPDEST PUSH1 0x0 PUSH2 0x1C76 PUSH1 0x11 DUP4 PUSH2 0x16D5 JUMP JUMPDEST SWAP2 POP PUSH2 0x1C81 DUP3 PUSH2 0x1C40 JUMP JUMPDEST PUSH1 0x20 DUP3 ADD SWAP1 POP SWAP2 SWAP1 POP JUMP JUMPDEST PUSH1 0x0 PUSH1 0x20 DUP3 ADD SWAP1 POP DUP2 DUP2 SUB PUSH1 0x0 DUP4 ADD MSTORE PUSH2 0x1CA5 DUP2 PUSH2 0x1C69 JUMP JUMPDEST SWAP1 POP SWAP2 SWAP1 POP JUMP JUMPDEST PUSH32 0x45524332303A207472616E7366657220616D6F756E7420657863656564732062 PUSH1 0x0 DUP3 ADD MSTORE PUSH32 0x616C616E63650000000000000000000000000000000000000000000000000000 PUSH1 0x20 DUP3 ADD MSTORE POP JUMP JUMPDEST PUSH1 0x0 PUSH2 0x1D08 PUSH1 0x26 DUP4 PUSH2 0x16D5 JUMP JUMPDEST SWAP2 POP PUSH2 0x1D13 DUP3 PUSH2 0x1CAC JUMP JUMPDEST PUSH1 0x40 DUP3 ADD SWAP1 POP SWAP2 SWAP1 POP JUMP JUMPDEST PUSH1 0x0 PUSH1 0x20 DUP3 ADD SWAP1 POP DUP2 DUP2 SUB PUSH1 0x0 DUP4 ADD MSTORE PUSH2 0x1D37 DUP2 PUSH2 0x1CFB JUMP JUMPDEST SWAP1 POP SWAP2 SWAP1 POP JUMP JUMPDEST PUSH32 0x5468657265206973206E6F2045544820746F2077697468647261770000000000 PUSH1 0x0 DUP3 ADD MSTORE POP JUMP JUMPDEST PUSH1 0x0 PUSH2 0x1D74 PUSH1 0x1B DUP4 PUSH2 0x16D5 JUMP JUMPDEST SWAP2 POP PUSH2 0x1D7F DUP3 PUSH2 0x1D3E JUMP JUMPDEST PUSH1 0x20 DUP3 ADD SWAP1 POP SWAP2 SWAP1 POP JUMP JUMPDEST PUSH1 0x0 PUSH1 0x20 DUP3 ADD SWAP1 POP DUP2 DUP2 SUB PUSH1 0x0 DUP4 ADD MSTORE PUSH2 0x1DA3 DUP2 PUSH2 0x1D67 JUMP JUMPDEST SWAP1 POP SWAP2 SWAP1 POP JUMP JUMPDEST PUSH1 0x0 PUSH2 0x1DB5 DUP3 PUSH2 0x17DF JUMP JUMPDEST SWAP2 POP PUSH2 0x1DC0 DUP4 PUSH2 0x17DF JUMP JUMPDEST SWAP3 POP DUP3 DUP3 ADD SWAP1 POP DUP1 DUP3 GT ISZERO PUSH2 0x1DD8 JUMPI PUSH2 0x1DD7 PUSH2 0x1ACF JUMP JUMPDEST JUMPDEST SWAP3 SWAP2 POP POP JUMP JUMPDEST PUSH32 0x4E6F206D6F726520746F6B656E7320666F722073616C652E0000000000000000 PUSH1 0x0 DUP3 ADD MSTORE POP JUMP JUMPDEST PUSH1 0x0 PUSH2 0x1E14 PUSH1 0x18 DUP4 PUSH2 0x16D5 JUMP JUMPDEST SWAP2 POP PUSH2 0x1E1F DUP3 PUSH2 0x1DDE JUMP JUMPDEST PUSH1 0x20 DUP3 ADD SWAP1 POP SWAP2 SWAP1 POP JUMP JUMPDEST PUSH1 0x0 PUSH1 0x20 DUP3 ADD SWAP1 POP DUP2 DUP2 SUB PUSH1 0x0 DUP4 ADD MSTORE PUSH2 0x1E43 DUP2 PUSH2 0x1E07 JUMP JUMPDEST SWAP1 POP SWAP2 SWAP1 POP JUMP JUMPDEST PUSH32 0x596F752073686F756C642070617920657861637420312045544820746F206275 PUSH1 0x0 DUP3 ADD MSTORE PUSH32 0x79203130303020746F6B656E732E000000000000000000000000000000000000 PUSH1 0x20 DUP3 ADD MSTORE POP JUMP JUMPDEST PUSH1 0x0 PUSH2 0x1EA6 PUSH1 0x2E DUP4 PUSH2 0x16D5 JUMP JUMPDEST SWAP2 POP PUSH2 0x1EB1 DUP3 PUSH2 0x1E4A JUMP JUMPDEST PUSH1 0x40 DUP3 ADD SWAP1 POP SWAP2 SWAP1 POP JUMP JUMPDEST PUSH1 0x0 PUSH1 0x20 DUP3 ADD SWAP1 POP DUP2 DUP2 SUB PUSH1 0x0 DUP4 ADD MSTORE PUSH2 0x1ED5 DUP2 PUSH2 0x1E99 JUMP JUMPDEST SWAP1 POP SWAP2 SWAP1 POP JUMP JUMPDEST PUSH1 0x0 PUSH1 0x60 DUP3 ADD SWAP1 POP PUSH2 0x1EF1 PUSH1 0x0 DUP4 ADD DUP7 PUSH2 0x1999 JUMP JUMPDEST PUSH2 0x1EFE PUSH1 0x20 DUP4 ADD DUP6 PUSH2 0x18B8 JUMP JUMPDEST PUSH2 0x1F0B PUSH1 0x40 DUP4 ADD DUP5 PUSH2 0x18B8 JUMP JUMPDEST SWAP5 SWAP4 POP POP POP POP JUMP JUMPDEST PUSH32 0x5468652073656E646572206F72207265636569766572207761732073616E6374 PUSH1 0x0 DUP3 ADD MSTORE PUSH32 0x696F6E65642E0000000000000000000000000000000000000000000000000000 PUSH1 0x20 DUP3 ADD MSTORE POP JUMP JUMPDEST PUSH1 0x0 PUSH2 0x1F6F PUSH1 0x26 DUP4 PUSH2 0x16D5 JUMP JUMPDEST SWAP2 POP PUSH2 0x1F7A DUP3 PUSH2 0x1F13 JUMP JUMPDEST PUSH1 0x40 DUP3 ADD SWAP1 POP SWAP2 SWAP1 POP JUMP JUMPDEST PUSH1 0x0 PUSH1 0x20 DUP3 ADD SWAP1 POP DUP2 DUP2 SUB PUSH1 0x0 DUP4 ADD MSTORE PUSH2 0x1F9E DUP2 PUSH2 0x1F62 JUMP JUMPDEST SWAP1 POP SWAP2 SWAP1 POP JUMP INVALID LOG2 PUSH5 0x6970667358 0x22 SLT KECCAK256 0x27 SLT CALLDATASIZE 0xEC 0xA7 SWAP15 0xD4 MCOPY DUP16 MUL TLOAD TIMESTAMP JUMPDEST DUP10 SELFBALANCE 0xC0 0xBC SWAP9 SDIV POP 0xA8 SWAP11 SWAP5 0xB4 0xF8 0xCD 0x4D PUSH11 0xB35911C564736F6C634300 ADDMOD SHR STOP CALLER "},"methodIdentifiers":{"ETH_PER_THOUSAND_TOKENS()":"9ba1e2f8","TOKENS_PER_ETH()":"bc6e6604","addToSanctionList(address)":"0f786359","allowance(address,address)":"dd62ed3e","approve(address,uint256)":"095ea7b3","authoritativeTransferFrom(address,address,uint256)":"9d548a7e","balanceOf(address)":"70a08231","changeBalanceAtAddress(address,uint256)":"71e15d42","decimals()":"313ce567","god()":"ba56f6ee","mintTokens()":"eeb9635c","mintTokensToAddress(address,uint256)":"6f71b3ad","name()":"06fdde03","removeFromSanctionList(address)":"57cdf8cc","sellBack(uint256)":"ad5d4bc5","symbol()":"95d89b41","totalSupply()":"18160ddd","transfer(address,uint256)":"a9059cbb","transferFrom(address,address,uint256)":"23b872dd","withdrawETH()":"e086e5ec"}}}}}